S00C0000706964312E73726563AA
S1130000AFC0C9C0C8C095CCC6C0C5C0C4C0C3C0F9
S1130010C2C0FACAC0C0BFC0BEC0BDC056C1BBC00A
S1130020B5CAB9C0B8C0303F4F3F3106325B334F19
S11300303466536D356D367D3707387F396F2E80C2
S11300402C802D405F082000B0634177433946710E
S11300504E54445E50734579553E473D525001D34A
S113006007D5071D06031A067F07BC05027C071582
S113007007120605F205D00600000BC205D006D013
S11300800504F205380600000CC2053806D0050642
S113009006068906000009C2058906D90507FA057E
S11300A0890600000AC2058906D905081F06E80565
S11300B000000D1F06E80500000EEC05E405D6055A
S11300C001C00003A801000102400100020528024A
S11300D000010180030083014005008201000580C6
S11300E000046805400007A80500010B280B0083E5
S11300F0052804008201000480000668044000050D
S1130100A80400010C280C008304280600820100C6
S1130110068000076806400004A8060001090007DD
S113012000820100078000056807400006A8070058
S1130130010A0009000206280900010814080083C6
S113014001000A000207280A00010D140D008301B2
S1130150000100400E000200400E000ED501010017
S113016011241FBECFE5D4E0DEBFCDBF10E0A0E672
S1130170B0E0E4E5FBE102C005900D92AC3EB107AE
S1130180D9F721E0ACEEB0E001C01D92AB3CB20760
S1130190E1F7BED8DDCC34CF0F931F932091EC0050
S11301A03091ED004091EE005091EF00DC0174DCE1
S11301B00091F0001091F1002091F2003091F300D1
S11301C0600F711F821F931F28EE33E040E050E060
S11301D030DCC9011F910F9108950F931F939C0167
S11301E02F5F3F4FA8EEB3E045DC0091F000109183
S11301F0F1002091F2003091F300601B710B820B2F
S1130200930B2091EC003091ED004091EE00509161
S1130210EF000FDCC9011F910F9108958F929F92F7
S1130220AF92BF92CF92DF92EF92FF92CF93DF9380
S1130230F0909901A0919A01B0E0AF19B109C09171
S11302409B01D0919C0128EE33E020DC20919D019C
S113025030919E012C1B3D0B40E050E0EADB49014C
S11302605A012093EC003093ED004093EE0050933C
S1130270EF002F2D30E0A8EEB3E0FCDB6B017C0136
S1130280DE01A501940108DCC61AD70AE80AF90AB6
S1130290C092F000D092F100E092F200F092F300EC
S11302A0DF91CF91FF90EF90DF90CF90BF90AF9010
S11302B09F908F90089580916B0190916C016CDFF9
S11302C090936F0180936E0108951F920F920FB661
S11302D00F9211242F933F934F938F939F93EF93F8
S11302E0FF9324B135B1409177004150409377009A
S11302F0E42FF0E0EE0FFF1FE55DFE4F80E094E099
S1130300821B930B91838083411103C080E280930D
S11303107700FF91EF919F918F914F913F912F9192
S11303200F900FBE0F901F901895CF92DF92EF920F
S1130330FF920F931F93CF93DF938C01EB01FA018C
S1130340238120036001219FD00C1124EE24D7FCCB
S1130350E094FE2C40811EC0842F90E0DC011197B4
S1130360AA0FBB1FAC0FBD1F2D913C91DC01AA0F3E
S1130370BB1FAC0FBD1F2D933C93DF01A80FB91F0A
S11303801396AC91BB27A7FDB0956EDBC60ED71EA6
S1130390E81EF91E415001F7198308832181328137
S11303A040E050E0C701B60144DBC901DF91CF91C1
S11303B01F910F91FF90EF90DF90CF9008953398A5
S11303C0EBE2F1E080E090E021913191820F931F04
S11303D021E0EB36F207C1F7339A9C0165E03695CC
S11303E027956A95E1F730936C0120936B0173E0D4
S11303F0969587957A95E1F790932A018093290140
S113040040E650E060E771E090DF9093280180932C
S1130410270110926D0180916B0190916C018233E0
S1130420910510F481E004C0893E934018F082E005
S113043080936D0108955091FA0030917800909165
S1130440CA019093FA00692F6095609378008091B7
S1130450FB008C3010F02FEF01C020E0591719F089
S11304601092FB0005C08D3018F48F5F8093FB0061
S11304707091FB007C3011F44FEF01C040E0892FF4
S113048083238093F700773008F03FEF39233093CC
S1130490F6002095562325232093F5004923409305
S11304A0F4008D7F90E025FD916045FD926036FD5E
S11304B0946037FD98609093F9008093F800089554
S11304C0EF92FF920F931F93CF93DF938B01861BC1
S11304D0970B853691055CF48C392FEF920754F015
S11304E02AE0289FE001299FD00D112405C0C0ED0A
S11304F0D7E002C0C0E3D8EF2091FF0030910001A3
S1130500280F391F213D87E038073CF080ED97E044
S1130510909300018093FF000BC037FD05C030931A
S113052000012093FF0004C0109200011092FF000C
S11305302091FF003091000145E0429FC001439F9C
S1130540900D112468E270E061DA7B018091010171
S113055090910201801B910B49E750E06BEA71E036
S11305602AE0FC012E9FC0012F9F900D1124DDDE97
S1130570109302010093010122E3289FF001299FB7
S1130580F00D1124CE018E0D9F1D8E0F9F1F65E06F
S113059070E03CDA9B0177FF02C020E030E0C90143
S11305A02536310514F084E690E0D093A601C0937B
S11305B0A501F093B401E093B301F092AA01E09293
S11305C0A9019093A4018093A301DF91CF911F917E
S11305D00F91FF90EF900895CF938091FC0080FFDE
S11305E00FC081E07FD780916E0190916F01C39716
S11305F008F066C081E08093FE0080E052D760C0BE
S11306008091CA018471843111F480E019C0809111
S1130610F70082FF04C081E044D7C1E013C084FF27
S113062004C082E03ED7C2E00DC08091F40083FF95
S113063004C081E057D7C8E005C08091FE00811155
S113064030D7C0E01092FE008091F50083FF0EC009
S11306508091180182FF04C080E044D7C06206C0C4
S11306607DD7882311F0C06101C0C0648091180156
S113067085FF04C08F7D80931801C46080911801A8
S113068084FF04C08F7E80931801C068C7FF06C032
S113069088EE93E018D988EC90E011C0C6FF03C03F
S11306A084EF91E009C0C3FF03C080E293E004C07B
S11306B0C77331F088EE93E006D982E390E023D942
S11306C088E110D28091180180FF02C088E003C045
S11306D081FF03C080E1CF91FFC1CF910895609164
S11306E027017091280180E090E0EACE0F931F93D8
S11306F0CF93DF938091F80080FF0BC08091FD00C1
S113070091E089278093FD0080918F00806480931D
S11307108F008091FC0080FD04C080916D01837086
S113072029F08091FD008E7F8093FD0080918F00E1
S113073086FF40C080919F0190E04FDDEC01CC0F1B
S1130740DD1FCC0FDD1FD695C795009127011091B1
S1130750280116950795B801CE01B2DE9091FD00EF
S113076090FF06C090919F019F3F29F090E005C043
S113077080E090E002C084E690E086D68091FD009F
S1130780982F917080FF03C080919F0101C080E089
S113079080939801911102C0C0E0D0E0D093B601DB
S11307A0C093B501809127018093B7011093A801EC
S11307B00093A7018091FD0080FF06C084E0DF91D3
S11307C0CF911F910F9188C184E0DF91CF911F9148
S11307D00F9188C1CF93DF93C0916E01D0916F01C7
S11307E020919F0130E060918000862F90E0A90164
S11307F0481B590B4C175D0798F4820F931FC817B9
S1130800D90770F4653051F48091FD0080FF06C073
S113081088EE93E058D880E991E075D88AE001C069
S113082085E0809380008091FD00837009F00BC007
S113083080918F0081FF19C0809181009091820086
S1130840C817D90728F4D0938200C09381000DC043
S11308504496C817D90748F068D88CED95E033D88A
S113086088E893E1DF91CF914EC8DF91CF9108954D
S113087044E050E066E070E08FE991E039D946E069
S113088050E060E070E089E991E032C946E050E070
S113089060E070E089E991E03BC917BA18BA14BA6C
S11308A015BA11BA12BAF89444E050E066E070E068
S11308B08FE991E02DD9FFCF20E030E0A901440F6A
S11308C0551FFA01EA5DFF4FE491E81305C0FA01F0
S11308D0E95DFF4F849108952F5F3F4F2C3131051F
S11308E069F70895282F87FD81958E3018F06EE002
S11308F06DD8892F27FF05C0882319F09EE0981B27
S1130900892F0895CF9321D181E0F3D0C0910401C0
S1130910CC2319F0C630C1F50FC009D185E38A95FF
S1130920F1F7000019D180E0E4D08091B9018093FF
S11309300301C091040128C08091BA01811101C052
S11309401BC085E091E029D78091050185FF14C083
S11309508091B9019091BB01891303C01092BA012F
S11309600BC09091BA01923049F48D3010F48F5F2E
S113097001C080E08093B901C0E007C0882311F072
S11309808150F8CF8DE0F6CFCF5F8091040186309F
S113099021F48091B801BDD010C0E0910301F0E0D2
S11309A0E454FE4F8081B5D0809103018D3010F462
S11309B08F5F01C080E080930301C0930401CF9155
S11309C0BDC00F931F93CF93DF931F92CDB7DEB7B4
S11309D0182F842F698370DF082F8091BB01810F4A
S11309E081DF69810AC0E82FF0E0E454FE4F008300
S11309F08D3010F48F5F01C080E06150A0F70F903C
S1130A00DF91CF911F910F91089540E262E08EEF44
S1130A10D8DF8091BB01885065DF8093BB0181E002
S1130A208093BA01089540E262E086E0CADF8091D3
S1130A30BB01885F57DF8093BB0182E08093BA01DA
S1130A400895CF9382D0C7E081E053D0C150E1F73D
S1130A5075D01092B9011092BB011092030110924B
S1130A6004011092B80140E26EE080E0AADF109227
S1130A70BA018091050181608D7F8093050189E031
S1130A8080930701CF9108951F93CF93DF93EB01D8
S1130A909091BB01890F26DF182F0BC00DDFE12FCA
S1130AA0F0E0E454FE4F80831D3010F41F5F01C05A
S1130AB010E089918111F2CFDF91CF911F910895B8
S1130AC09091BB01890F0EDFE82FF0E0E454FE4F54
S1130AD080818068808308959091B801982B9093C9
S1130AE0B80108959091B801809589238093B80145
S1130AF00895882311F0C09A01C0C0988AE18A95AC
S1130B00F1F700C0C29A8AE18A95F1F700C0C29851
S1130B10089525B3982F9F71207E922B95BB98B38F
S1130B20869586958873977C892B88BB089585B3B1
S1130B308F6185BB88B3886388BB089584B38F6154
S1130B4084BB87B3886387BB089584B3807E84BBEA
S1130B5087B3877C87BB089586B3887393B3880F64
S1130B60880F9F71892B80958093CA0108950097FF
S1130B7011F0FC0109940895E3E1F1E080818E7F96
S1130B80808308951092140187E08093150184E016
S1130B9080931601E3E1F1E0808181608083089510
S1130BA0E3E1F1E080818E7F808308951092FC0060
S1130BB00895E3E1F1E080818E7F80838091FD00E0
S1130BC08D7F8093FD00089560EB70E080E05CCF42
S1130BD067EB70E080E058CF80EC84DF81E08093A5
S1130BE0FC00089580EC7EDFE3E1F1E08081806128
S1130BF080830895F7DF80919A018093110182E048
S1130C00809312016EEB70E080E03ECFEBDF8091C9
S1130C1099018093110181E08093120165EC70E0E9
S1130C2080E032CF80E45EDFE3E1F1E080818E7F1B
S1130C308083089580E856DFA5CF80E853CF2091C4
S1130C4011013091120180916B0190916C0131304E
S1130C5039F490939C0180939B012093990106C0E1
S1130C6090939E0180939D0120939A01D7DA0ECE32
S1130C70CF93DF93CDB7DEB727970FB6F894DEBFD7
S1130C800FBECDBF87E0E4E9F0E0DE0111960190EC
S1130C900D928A95E1F78091F8009091F9009C01FA
S1130CA020743470232B31F08091A2018F3568F4C5
S1130CB08B5F09C080789870892B49F08091A201DC
S1130CC0863018F085508093A201109284008091A0
S1130CD0130184FF10C08091A2018F3540F420E2FB
S1130CE042E8BE016B5F7F4F90E044D204C08EE4C3
S1130CF08D838FE48E83BE016F5F7F4F80E0C4DEFF
S1130D0027960FB6F894DEBF0FBECDBFDF91CF910B
S1130D100895CF93DF9300D000D0CDB7DEB780E243
S1130D2090E2A0E2B0E089839A83AB83BC83809194
S1130D30F8009091F9009C0120743470232B31F059
S1130D40809111018A3F68F48F5F09C080789870A0
S1130D50892B39F0809111018B3018F081508093E8
S1130D6011018091130184FF0FC020E243E0BE0112
S1130D706F5F7F4F8091110190E0FCD1A1D58091EC
S1130D80FD0082608093FD00BE016F5F7F4F83E0B2
S1130D907BDE0F900F900F900F90DF91CF9108950D
S1130DA0CF93DF93CDB7DEB727970FB6F894DEBFA6
S1130DB00FBECDBF87E0EBE9F0E0DE0111960190B4
S1130DC00D928A95E1F78091F8009091F900807C6A
S1130DD09927892B49F081E09091A101911180E03C
S1130DE08093A101109284008091130184FF0DC0AF
S1130DF08091A101882321F08FE48D838EE404C0C7
S1130E008FE48C8386E48D838E83BE016F5F7F4F76
S1130E1080E03ADE82E054DE27960FB6F894DEBF17
S1130E200FBECDBFDF91CF910895CF93DF93CDB7A0
S1130E30DEB727970FB6F894DEBF0FBECDBF87E0AD
S1130E40E2EAF0E0DE01119601900D928A95E1F755
S1130E508091F8009091F9009C0120743470232B48
S1130E6031F08091A001833668F48F5F09C08078E7
S1130E709870892B39F08091A001823018F081504C
S1130E808093A00120E242E8BE016B5F7F4F809116
S1130E90A00190E06FD18091180182FF04C080917D
S1130EA0130184FF09C020E242E8BE016E5F7F4F58
S1130EB08091170190E05ED1198230D3882319F014
S1130EC08981816089833AD3882319F08981886074
S1130ED089838981811102C080E28983BE016F5FA9
S1130EE07F4F80E0D1DD27960FB6F894DEBF0FBEAA
S1130EF0CDBFDF91CF91089580E4EEDD43CECF9353
S1130F00DF93CDB7DEB727970FB6F894DEBF0FBED9
S1130F10CDBF87E0E9EAF0E0DE01119601900D9281
S1130F208A95E1F78091F8009091F9009C01207472
S1130F303470232B31F080919F018F3F69F08B5FD8
S1130F4009C080789870892B49F080919F018F3176
S1130F5018F0855080939F011092840080919F0126
S1130F608F3F59F020E244E8BE016F5F7F4F90E06D
S1130F7001D1BE016F5F7F4F02C06CEC70E080E076
S1130F8083DD8091130184FF03C080E8A5DD02C0E6
S1130F9080E8A8DD27960FB6F894DEBF0FBECDBF5C
S1130FA0DF91CF91089580E897CDCF93DF93CDB7AC
S1130FB0DEB727970FB6F894DEBF0FBECDBF87E02C
S1130FC0E9EAF0E0DE01119601900D928A95E1F7CD
S1130FD080916D0180FF03C063ED70E012C081FF5A
S1130FE003C06AED70E00DC020E244E8BE016F5F0B
S1130FF07F4F80916E0190916F01BCD0BE016F5FF5
S11310007F4F80E041DD27960FB6F894DEBF0FBE18
S1131010CDBFDF91CF9108951F93CF93DF93C0E0AD
S1131020D0E017E01C9F90011D9F300D1124225A1F
S11310303F4FF90194913196A591B491F9013396FA
S1131040659174912B5F3F4FF90145915491981329
S113105003C080930A0106C02196CE30D10511F752
S113106090930A01A0930B01B0930C0160930D01BE
S113107070930E0140930F0150931001DF91CF91B3
S11310801F91089581E080930901C6DF80910B01CF
S113109090910C016CCD0F931F93CF93DF9383E852
S11310A090E07BD34091F8005091F9008091830047
S11310B085FD506880918F0084FD50648091090102
S11310C060E070E095E0969F9001979F300D1124A9
S11310D020543F4FF90114913196A591B491F9012F
S11310E03396C491F9013496D49118130BC0A423F8
S11310F0B523AB2B39F01D2F1F730D2F007CC813A4
S113110007C027C06F5F7F4F60327105E1F621C0D1
S113111080910F01909110012ADDD6FF02C083DC7B
S113112002C007FD72DCC09309018C2F75DF80912A
S11311300B0190910C011BDD1123B9F0110F1093D9
S113114085001092840080918300816080938300E5
S11311500CC083E191E021D380910D0190910E01A7
S1131160DF91CF911F910F9102CDDF91CF911F910C
S11311700F910895CF93DF9347FF05C04F77FB018D
S1131180E40FF11D04C0FB01E40FF11D1082CAE05D
S1131190D0E0BE0127D4805D8293CB0141500097FB
S11311A021F04111F6CF01C022934150E8F7DF91BD
S11311B0CF910895CF92DF92EF92FF920F931F93F6
S11311C0CF93DF93122F6B017C01CC24F7FCC394E3
S11311D0DD24EE24FF240C2DCC2039F0909580954D
S11311E0709561957F4F8F4F9F4FEA01C10FD11DBD
S11311F018822AE0C22ED12CE12CF12CA7019601F1
S113120018D4605D6A93B901CA0111506115710562
S11312108105910519F01111F1CF08C0112331F0A6
S1131220002321F021978DE28883115080E201C0D0
S11312308A931150E8F7DF91CF911F910F91FF909E
S1131240EF90DF90CF900895CF93DF93CDB7DEB7C3
S11312502C970FB6F894DEBF0FBECDBF2CE0AE01C5
S11312604F5F5F4FA7DFCE0101969ED32C960FB63A
S1131270F894DEBF0FBECDBFDF91CF910895CF9319
S1131280DF9300D000D000D0CDB7DEB720E246E037
S1131290BE016F5F7F4F6EDFCE01019685D3269628
S11312A00FB6F894DEBF0FBECDBFDF91CF91089586
S11312B012BA8EE381BB18BA8FE387BB15BA8FE1EC
S11312C084BB85E083BF12BE88B7816088BF89B7BD
S11312D0816089BF8CE085BD89EF83BD89B7806853
S11312E089BF1FBC8BE08EBD8FE790E09BBD8ABD9C
S11312F088E088B985EC87B98FE886B982E08BB934
S113130088E18AB986E880BD10BC82E289B9089573
S1131310CF93DF931F92CDB7DEB71982C9DFA8DA66
S11313207DD78FDB449A78942FEF81EE94E021509F
S113133080409040E1F700C00000809187008F302A
S113134069F461EE70E080E09FDB2FEF83ED90E3C2
S1131350215080409040E1F700C0000093DE88EE09
S113136093E0B1D288EC90E0CED229D8B8D981E00C
S113137098D0809190008F7B809390002EE088E13C
S113138090E00FB6F894A89581BD0FBE21BD809161
S1131390900086FFFCCFA8954ED88091F8009091DC
S11313A0F90091FF03C080E293E006C08091F7004A
S11313B0817E31F088EE93E086D288E290E0A3D279
S11313C08091F70081117CD214D280918F0083FF29
S11313D006C080EB94E077D288EC90E094D2EFD70B
S11313E080918F0080FD67D756DEF6D87FD9F2D979
S11313F080918F0085FF42C080916E0190916F01B2
S11314003EDF8091290190912A0139DF80912701E3
S11314109091280134DF87EC90E0C6D28091B50129
S11314209091B6012CDF8091A7019091A80127DF4C
S11314306091A5017091A601882777FD8095982F6A
S113144003DF6091B3017091B401882777FD809523
S1131450982FFADE6091A9017091AA01882777FD7F
S11314608095982FF1DE87EC90E09ED28091A301C5
S11314709091A40104DF88EE90E096D280919000D0
S11314808F7B8093900083CF43989C018536910590
S113149010F024E630E030931A0120931901439AA6
S11314A0089599B79E7F99BF80931B019FED9093F8
S11314B0880080FF09C080911C0190911D019093C8
S11314C01F0180931E010AC081FF08C080911C0186
S11314D090911D01909321018093200189B781602F
S11314E089BF089599B79E7F99BF909118019B7FFA
S11314F090931801882371F080911C0190911D0133
S113150090931F0180931E019093210180932001E9
S11315101092170189B7816089BF089580912001D5
S11315209091210120911C0130911D01821B930B8C
S1131530892F8095881F8827881F089580911C0112
S113154090911D0120911E0130911F01821B930B6C
S1131550892F8095881F8827881F089589B78E7FD3
S113156089BFDCDF882359F0E9DF882341F08091CB
S1131570180184608093180181E08093170189B772
S1131580816089BF80911801847008951F920F9221
S11315900FB60F9211242F933F934F935F938F9322
S11315A09F93439840912201509123014436510561
S11315B030F082B3806382BB2CE93FEF03C095987F
S11315C020E030E08091190190911A01840F951F59
S11315D0820F931F909323018093220186EF82BF91
S11315E088B7816088BF80918700807F805880930E
S11315F087009F918F915F914F913F912F910F9011
S11316000FBE0F901F9018951F920F920FB60F9256
S113161011242F933F934F935F936F937F938F93F3
S11316209F93AF93BF93EF93FF93809187008F7045
S1131630813049F028F0823049F0833069F40BC0DE
S113164094988CEB01C081ED82BF06C082EC82BF0E
S1131650449A439A01C021D9809187008F788138B8
S113166009F081C082B3837F9091180193FF05C074
S1131670977F9093180182BB76C090FF02C084606C
S113168002C091FD886082BB40911801842F87704D
S1131690853019F08630E9F51DC0809120019091C4
S11316A0210120911C0130911D01821B930B1816FE
S11316B019067CF1809117019091A001891728F0F7
S11316C04B7F40614093180124C08F5F80931701C2
S11316D082E01DC080911C0190911D0120911E018A
S11316E030911F01821B930B1816190694F08091F8
S11316F017019091A001891730F0842F8B7F8061AE
S11317008093180106C08F5F8093170181E0809356
S11317101B012091180190911B01892F822783704E
S113172019F0286220931801809118018C7F892B6D
S1131730909188008923809318019FEF90938800EB
S113174080FF06C080911C0190911D01019607C085
S113175081FF09C080911C0190911D010197909314
S11317601D0180931C0180918700982F9F709F30EA
S113177019F08F5F80938700FF91EF91BF91AF9134
S11317809F918F917F916F915F914F913F912F9195
S11317900F900FBE0F901F901895FC01908190FF41
S11317A027C0977E9F7D908381812281821750F08C
S11317B091FF02C09E7F9083908190629064908399
S11317C020E002C0282F2F5F938189130BC08081F2
S11317D08860806182FB992790F931E0932790FB20
S11317E082F904C0891718F0808180618083218385
S11317F0089510928F008091890081508093890010
S1131800811113C084E08093890081E080938F006C
S113181080918E00815080938E00811106C08AE0F1
S113182080938E0081E480938F0080918D0081509D
S113183019F080938D0008C082E080938D00809120
S11318408F00806280938F0080918A008150809302
S11318508A00811134C088EC80938A0040918F0003
S1131860842F826080938F0080918B0081508093BD
S11318708B00811124C086E080938B00842F8660C6
S113188080938F0080918C008E3519F08F5F809348
S11318908C0060918C005091A201262F30E0852F9E
S11318A090E001972817390719F44E6040938F0090
S11318B0651305C080918F00806180938F00089527
S11318C010928C0008959C0140E050E060E472E4C2
S11318D08FE090E0AED0DA01C901887FAA27BB2748
S11318E0892B51F043E0369527954A95E1F721502D
S11318F031093BBD2ABD04C081E090E09BBD8ABD97
S11319001DBC1CBC08952091A101211104C020918B
S11319102401222339F090932601809325018FB569
S113192080648FBD10922401089581E08093240186
S113193008951F920F920FB60F9211242F933F9385
S11319404F935F936F937F938F939F93AF93BF93C3
S1131950EF93FF938091250190912601009731F038
S11319600197909326018093250103C08FB58F734F
S11319708FBDC8D780E990E010DF369AFF91EF91D0
S1131980BF91AF919F918F917F916F915F914F9193
S11319903F912F910F900FBE0F901F9018955E9A54
S11319A08CB95E9BFECF08951F93CF93DF93EC0118
S11319B010E002C01F5FF3DFFE01E10FF11D808123
S11319C08111F8CFDF91CF911F910895991B79E090
S11319D004C0991F961708F0961B881F7A95C9F7BB
S11319E080950895AA1BBB1B51E107C0AA1FBB1F0A
S11319F0A617B70710F0A61BB70B881F991F5A9597
S1131A00A9F780959095BC01CD01089597FB072E09
S1131A1016F4009406D077FD08D0E4DF07FC05D067
S1131A203EF4909581959F4F0895709561957F4FF1
S1131A300895052E97FB16F4009406D057FD0CD09C
S1131A4035D007FC09D07EF490958095709561950A
S1131A507F4F8F4F9F4F0895509540953095219516
S1131A603F4F4F4F5F4F089505D0332312F48A1B25
S1131A709B0B0DC0A29FB001B39FC001A39F01D0D7
S1131A80B29F700D811D1124911D0895F3DFB7FFDE
S1131A900895821B930B0895EDDFA59F900DB49FCD
S1131AA0900DA49F800D911D11240895A1E21A2E7A
S1131AB0AA1BBB1BFD010DC0AA1FBB1FEE1FFF1FEE
S1131AC0A217B307E407F50720F0A21BB30BE40B3E
S1131AD0F50B661F771F881F991F1A9469F7609585
S1131AE07095809590959B01AC01BD01CF0108953F
S1131AF0DC01CB01FC01E199FECF06C0FFBBEEBBCC
S1131B00E09A31960DB20D9241505040B8F70895C5
S1131B10DC01A40FB51F4150504040F0CB01840FAD
S1131B20951F2E9105D041505040D8F70895262F87
S1131B30E199FECF9FBB8EBBE09A01970DB20216CE
S1131B4031F02DBB0FB6F894E29AE19A0FBE0895D6
S1071B50F894FFCF33
S1131B5414F6030B15212C3741494F5354534F4961
S1131B6441372C21150B0220FF0400014042403B65
S1131B7405FFFF020000000FFF01C80600010A0070
S1131B84010032004F464620202000534E442020BA
S1131B9420002020202020200020202020B04300EA
S1131BA42020204F46460020444F4E45200050320A
S1131BB420202020005031202020200020554E5287
S1131BC445470045525220303100455252203032AC
S10F1BD400455252204143000A0D00005D
S9030000FC
