S00C0000706964312E73726563AA
S1130000ADC0C7C0C6C08FCCC4C0C3C0C2C0C1C00D
S1130010C0C0F4CABEC0BDC0BCC0BBC054C1B9C01E
S1130020AFCAB7C0B6C0303F4F3F3106325B334F23
S11300303466536D356D367D3707387F396F2E80C2
S11300402C802D405F082000B0634177433946710E
S11300504E54445E50734579525001DC07DE072B41
S1130060060328068D07CA05028A0723072006050A
S11300700006DE0600000BD005DE06DE05040006E1
S1130080460600000CD0054606DE05061406970653
S1130090000009D0059706E7050708069706000043
S11300A00AD0059706E705082D06F60500000D2D74
S11300B006F60500000EFA05F205E40501C000038A
S11300C0A80100010240010002052802000101808C
S11300D003008301400500820100058000046805D7
S11300E0400007A80500010B280B00830528040025
S11300F0820100048000066804400005A804000191
S11301000C280C00830428060082010006800007E6
S11301106806400004A806000109000700820100E7
S1130120078000056807400006A80700010A0009C7
S113013000020628090001081408008301000A00CF
S11301400207280A00010D140D008301000100407C
S11301500E000200400E000ED501010011241FBE46
S1130160CFE5D4E0DEBFCDBF10E0A0E6B0E0E8E428
S1130170FBE102C005900D92A43EB107D9F721E03E
S1130180A4EEB0E001C01D92A33CB207E1F7C9D8C8
S1130190D9CC36CF0F931F932091E4003091E50022
S11301A04091E6005091E700DC0170DC0091E8002A
S11301B01091E9002091EA003091EB00600F711F6B
S11301C0821F931F28EE33E040E050E02CDCC9018D
S11301D01F910F9108950F931F939C012F5F3F4F21
S11301E0A8EEB3E041DC0091E8001091E900209111
S11301F0EA003091EB00601B710B820B930B209192
S1130200E4003091E5004091E6005091E7000BDCFA
S1130210C9011F910F9108958F929F92AF92BF923F
S1130220CF92DF92EF92FF92CF93DF93F090910100
S1130230A0919201B0E0AF19B109C0919301D0919E
S1130240940128EE33E01CDC209195013091960155
S11302502C1B3D0B40E050E0E6DB49015A012093A2
S1130260E4003093E5004093E6005093E7002F2D1F
S113027030E0A8EEB3E0F8DB6B017C01DE01A50100
S1130280940104DCC61AD70AE80AF90AC092E80005
S1130290D092E900E092EA00F092EB00DF91CF9176
S11302A0FF90EF90DF90CF90BF90AF909F908F9092
S11302B0089580916301909164016CDF90936701CC
S11302C08093660108951F920F920FB60F92112426
S11302D02F933F934F938F939F93EF93FF9324B167
S11302E035B140917700415040937700E42FF0E01E
S11302F0EE0FFF1FED5DFE4F80E094E0821B930B39
S113030091838083411103C080E280937700FF9141
S1130310EF919F918F914F913F912F910F900FBE2D
S11303200F901F901895CF92DF92EF92FF920F9348
S11303301F93CF93DF938C01EB01FA0123812003F8
S11303406001219FD00C1124EE24D7FCE094FE2CF4
S113035040811EC0842F90E0DC011197AA0FBB1FBF
S1130360AC0FBD1F2D913C91DC01AA0FBB1FAC0F3C
S1130370BD1F2D933C93DF01A80FB91F1396AC91B9
S1130380BB27A7FDB0956ADBC60ED71EE81EF91E73
S1130390415001F7198308832181328140E050E004
S11303A0C701B60140DBC901DF91CF911F910F91C5
S11303B0FF90EF90DF90CF9008953398E3E2F1E05F
S11303C080E090E021913191820F931F21E0E33688
S11303D0F207C1F7339A9C0165E0369527956A9533
S11303E0E1F7309364012093630173E09695879558
S11303F07A95E1F7909322018093210140E650E041
S113040068E671E090DF9093200180931F011092C1
S1130410650180916301909164018233910510F428
S113042081E004C0893E934018F082E08093650126
S113043008955091F200309178009091C201909308
S1130440F200692F6095609378008091F3008C30FE
S113045010F02FEF01C020E0591719F01092F300AB
S113046005C08D3018F48F5F8093F3007091F30012
S11304707C3011F44FEF01C040E0892F8323809337
S1130480EF00773008F03FEF39233093EE002095EA
S1130490562325232093ED0049234093EC008D7FC0
S11304A090E025FD916045FD926036FD946037FD36
S11304B098609093F1008093F0000895CF93809119
S11304C0F40080FF0FC081E007D88091660190910D
S11304D06701C39708F05FC081E08093F60080E075
S11304E0DAD759C08091EF0082FF04C081E0D3D7EE
S11304F0C1E013C084FF04C082E0CDD7C2E00DC0C8
S11305008091EC0083FF04C081E0E6D7C8E005C019
S11305108091F6008111BFD7C0E01092F60080915F
S1130520ED0083FF0EC08091100182FF04C080E0C3
S1130530D3D7C06206C00CD8882311F0C06101C0B3
S1130540C0648091100185FF04C08F7D80931001E9
S1130550C4608091100184FF04C08F7E80931001D9
S1130560C068C7FF06C088EE93E0A7D988EC90E086
S113057011C0C6FF03C084EF91E009C0C3FF03C0EC
S113058080E293E004C0C77331F088EE93E095D91C
S113059082E390E0B2D988E1B3D28091100180FF68
S11305A002C088E003C081FF03C080E1CF91A2C2F2
S11305B0CF910895EF92FF920F931F93CF93DF9300
S11305C08B01861B970B853691055CF48C392FEFD4
S11305D0920754F02AE0289FE001299FD00D1124AE
S11305E005C0C0EDD7E002C0C0E3D8EF2091F7000A
S11305F03091F800280F391F293E83E038073CF07A
S113060088EE93E09093F8008093F7000BC037FDD9
S113061005C03093F8002093F70004C01092F8004E
S11306201092F7002091F7003091F80045E0429FC6
S1130630C001439F900D112464E170E0E1D97B0176
S11306408091F9009091FA00801B910B49E750E0EA
S113065063EA71E02AE0FC012E9FC0012F9F900DF8
S1130660112461DE1093FA000093F90022E3289F1D
S1130670F001299FF00D1124CE018E0D9F1D8E0FC8
S11306809F1F65E070E0BCD99B0177FF02C020E0AA
S113069030E0C9012536310514F084E690E0D093AA
S11306A09E01C0939D01F093AC01E093AB01F092E5
S11306B0A201E092A10190939C0180939B01DF91A0
S11306C0CF911F910F91FF90EF9008950F931F9377
S11306D0CF93DF938091F00080FF0BC08091F500F1
S11306E091E089278093F50080918F008064809346
S11306F08F008091F40080FD04C0809165018370B7
S113070029F08091F5008E7F8093F50080918F0011
S113071086FF39C08091970190E05DDDEC01CC0F3C
S1130720DD1FCC0FDD1FD695C79500911F011091D9
S1130730200116950795B801CE013CDF9091F50094
S113074090FF02C090E002C080E090E097D68091D4
S1130750F500982F917080FF03C08091970101C02C
S113076080E080939001911102C0C0E0D0E0D0936A
S1130770AE01C093AD0180911F018093AF0110932E
S1130780A00100939F018091F50080FF06C084E0E2
S1130790DF91CF911F910F91ADC184E0DF91CF9193
S11307A01F910F91ADC160911F017091200180E0F4
S11307B090E000CFCF93DF93C0916601D0916701A1
S11307C02091970130E060918000862F90E0A9018C
S11307D0481B590B4C175D0798F4820F931FC817D9
S11307E0D90770F4653051F48091F50080FF06C09C
S11307F088EE93E062D880E991E07FD88AE001C076
S113080085E0809380008091F500837009F00BC02F
S113081080918F0081FF19C08091810090918200A6
S1130820C817D90728F4D0938200C09381000DC063
S11308304496C817D90748F072D88CED95E03DD896
S113084088E893E1DF91CF9158C8DF91CF91089563
S113085044E050E066E070E087E991E043D946E087
S113086050E060E070E081E991E03CC946E050E08E
S113087060E070E081E991E045C917BA18BA14BA8A
S113088015BA11BA12BAF89444E050E066E070E088
S113089087E991E037D9FFCF20E030E0A901440F88
S11308A0551FFA01EA5DFF4FE491E81305C0FA0110
S11308B0E95DFF4F849108952F5F3F4F2A31310541
S11308C069F70895282F87FD81958E3018F06EE022
S11308D077D8892F27FF05C0882319F09EE0981B3D
S11308E0892F0895CF933FD181E011D1C091FC00AD
S11308F0CC2319F0C630C1F50FC027D185E38A9502
S1130900F1F7000037D180E002D18091B1018093EA
S1130910FB00C091FC0028C08091B201811101C08C
S11309201BC08DEF90E033D78091FD0085FF14C08C
S11309308091B1019091B301891303C01092B20167
S11309400BC09091B201923049F48D3010F48F5F56
S113095001C080E08093B101C0E007C0882311F09A
S11309608150F8CF8DE0F6CFCF5F8091FC008630C8
S113097021F48091B001DBD010C0E091FB00F0E0E5
S1130980EC54FE4F8081D3D08091FB008D3010F465
S11309908F5F01C080E08093FB00C093FC00CF9187
S11309A0DBC00F931F93CF93DF931F92CDB7DEB7B6
S11309B0182F842F698370DF082F8091B301810F72
S11309C081DF69810AC0E82FF0E0EC54FE4F008318
S11309D08D3010F48F5F01C080E06150A0F70F905C
S11309E0DF91CF911F910F91089540E262E08EEF65
S11309F0D8DF8091B301885065DF8093B30181E033
S1130A008093B201089540E262E086E0CADF8091FB
S1130A10B301885F57DF8093B30182E08093B20112
S1130A200895CF93A0D0C7E081E071D0C150E1F721
S1130A3093D01092B1011092B3011092FB00109266
S1130A40FC001092B00140E26EE080E0AADF109258
S1130A50B2018091FD0081608D7F8093FD0089E06B
S1130A608093FF00CF910895FF920F931F93CF932C
S1130A70DF93EB019091B301890F24DF182FF82E37
S1130A8002E023C009DF803811F4016001C00E7F49
S1130A90013049F4EF2DF0E0EC54FE4F9081982B97
S1130AA09083812F0BC0E12FF0E0EC54FE4F808344
S1130AB01D3018F4812F8F5F01C080E000FF02C059
S1130AC003E001C000E0F12E182F89918111DACFE3
S1130AD0DF91CF911F910F91FF9008959091B301F1
S1130AE0890FF0DEE82FF0E0EC54FE4F808180683F
S1130AF0808308959091B001982B9093B00108954C
S1130B009091B001809589238093B0010895882342
S1130B1011F0C09A01C0C0988AE18A95F1F700C02B
S1130B20C29A8AE18A95F1F700C0C298089525B364
S1130B30982F9F71207E922B95BB98B386958695AE
S1130B408873977C892B88BB089585B38F6185BB97
S1130B5088B3886388BB089584B38F6184BB87B3EB
S1130B60886387BB089584B3807E84BB87B3877C06
S1130B7087BB089586B3887393B3880F880F9F71DA
S1130B80892B80958093C2010895009711F0FC0190
S1130B9009940895EBE0F1E080818E7F80830895CD
S1130BA010920C0187E080930D0184E080930E0184
S1130BB0EBE0F1E08081816080830895EBE0F1E077
S1130BC080818E7F808308951092F4000895EBE075
S1130BD0F1E080818E7F80838091F5008D7F80930A
S1130BE0F500089560EB70E080E03ECF67EB70E0C5
S1130BF080E03ACF80EC84DF81E08093F4000895B4
S1130C0080EC7EDFEBE0F1E08081806180830895F9
S1130C10F7DF809192018093090182E080930A01B9
S1130C206EEB70E080E020CFEBDF80919101809348
S1130C30090181E080930A0165EC70E080E014CF43
S1130C4080E45EDFEBE0F1E080818E7F80830895B5
S1130C5080E856DFA5CF80E853CF20910901309179
S1130C600A018091630190916401313039F49093C9
S1130C709401809393012093910106C0909396016F
S1130C808093950120939201C7DAF0CDCF93DF933F
S1130C90CDB7DEB727970FB6F894DEBF0FBECDBF32
S1130CA087E0E4E9F0E0DE01119601900D928A9567
S1130CB0E1F78091F0009091F1009C012074347070
S1130CC0232B31F080919A018F3568F48B5F09C032
S1130CD080789870892B49F080919A01863018F0B9
S1130CE0855080939A011092840080910B0184FFB7
S1130CF010C080919A018F3541F020E242E8BE0194
S1130D006B5F7F4F90E03FD204C08EE48D838FE40D
S1130D108E83BE016F5F7F4F80E0A6DE27960FB6FD
S1130D20F894DEBF0FBECDBFDF91CF910895CF936E
S1130D30DF9300D000D0CDB7DEB780E290E2A0E22E
S1130D40B0E089839A83AB83BC838091F000909157
S1130D50F1009C0120743470232B31F0809109013F
S1130D608A3F68F48F5F09C080789870892B39F0C6
S1130D70809109018B3018F0815080930901809192
S1130D800B0184FF0FC020E243E0BE016F5F7F4F81
S1130D908091090190E0F7D18DD58091F5008260B2
S1130DA08093F500BE016F5F7F4F83E05DDE0F909F
S1130DB00F900F900F90DF91CF910895CF93DF9311
S1130DC0CDB7DEB727970FB6F894DEBF0FBECDBF01
S1130DD087E0EBE9F0E0DE01119601900D928A952F
S1130DE0E1F78091F0009091F100807C9927892BA4
S1130DF049F081E090919901911180E080939901EB
S1130E001092840080910B0184FF0DC080919901A0
S1130E10882321F08FE48D838EE404C08FE48C83D7
S1130E2086E48D838E83BE016F5F7F4F80E01CDE7E
S1130E3082E054DE27960FB6F894DEBF0FBECDBF16
S1130E40DF91CF910895CF93DF93CDB7DEB7279786
S1130E500FB6F894DEBF0FBECDBF87E0E2EAF0E044
S1130E60DE01119601900D928A95E1F78091F000D0
S1130E709091F1009C0120743470232B31F0809107
S1130E809801833668F48F5F09C080789870892B45
S1130E9039F080919801823018F081508093980144
S1130EA020E242E8BE016B5F7F4F8091980190E0A1
S1130EB06AD18091100182FF04C080910B0184FFEC
S1130EC009C020E242E8BE016E5F7F4F80910F01AE
S1130ED090E059D119821CD3882319F0898181604B
S1130EE0898326D3882319F089818860898389813D
S1130EF0811102C080E28983BE016F5F7F4F80E071
S1130F00B3DD27960FB6F894DEBF0FBECDBFDF91D9
S1130F10CF91089580E4EEDD43CECF93DF93CDB738
S1130F20DEB727970FB6F894DEBF0FBECDBF87E0BC
S1130F30E9EAF0E0DE01119601900D928A95E1F75D
S1130F408091F0009091F1009C0120743470232B67
S1130F5031F0809197018A3F68F48B5F09C08078F3
S1130F609870892B49F0809197018F3118F0855042
S1130F70809397011092840020E244E8BE016F5FE1
S1130F807F4F8091970190E0FED0BE016F5F7F4F4D
S1130F9080E06ADD80910B0184FF03C080E8AADD54
S1130FA002C080E8ADDD27960FB6F894DEBF0FBE11
S1130FB0CDBFDF91CF91089580E89CCDCF93DF938F
S1130FC0CDB7DEB727970FB6F894DEBF0FBECDBFFF
S1130FD087E0E9EAF0E0DE01119601900D928A952E
S1130FE0E1F78091650180FF03C06CEC70E012C0F2
S1130FF081FF03C063ED70E00DC020E244E8BE0150
S11310006F5F7F4F8091660190916701BCD0BE01F4
S11310106F5F7F4F80E028DD27960FB6F894DEBF20
S11310200FBECDBFDF91CF9108951F93CF93DF9370
S1131030C0E0D0E017E01C9F90011D9F300D1124EB
S1131040265A3F4FF90194913196A591B491F90133
S11310503396659174912B5F3F4FF90145915491FB
S1131060981303C08093020106C02196CE30D105A7
S113107011F790930201A0930301B09304016093CC
S11310800501709306014093070150930801DF9115
S1131090CF911F91089581E080930101C6DF809173
S11310A003019091040171CD0F931F93CF93DF93AC
S11310B083E890E06CD34091F0005091F10080916E
S11310C0830085FD506880918F0084FD5064809179
S11310D0010160E070E095E0969F9001979F300DCC
S11310E0112424543F4FF90114913196A591B491E0
S11310F0F9013396C491F9013496D49118130BC0B5
S1131100A423B523AB2B39F01D2F1F730D2F007CA7
S1131110C81307C027C06F5F7F4F60327105E1F6C7
S113112021C080910701909108012FDDD6FF02C0F4
S11311306ADC02C007FD59DCC09301018C2F75DF06
S1131140809103019091040120DD1123B9F0110F66
S113115010938500109284008091830081608093B5
S113116083000CC08BE091E012D380910501909133
S11311700601DF91CF911F910F9107CDDF91CF91A0
S11311801F910F910895CF93DF9347FF05C04F77C9
S1131190FB01E40FF11D04C0FB01E40FF11D1082FB
S11311A0CAE0D0E0BE0118D4805D8293CB014150E7
S11311B0009721F04111F6CF01C022934150E8F786
S11311C0DF91CF910895CF92DF92EF92FF920F9328
S11311D01F93CF93DF93122F6B017C01CC24F7FC78
S11311E0C394DD24EE24FF240C2DCC2039F09095FB
S11311F08095709561957F4F8F4F9F4FEA01C10F86
S1131200D11D18822AE0C22ED12CE12CF12CA70189
S1131210960109D4605D6A93B901CA011150611540
S113122071058105910519F01111F1CF08C0112341
S113123031F0002321F021978DE28883115080E260
S113124001C08A931150E8F7DF91CF911F910F915C
S1131250FF90EF90DF90CF900895CF93DF93CDB7B9
S1131260DEB72C970FB6F894DEBF0FBECDBF2CE0CF
S1131270AE014F5F5F4FA7DFCE0101968FD32C964F
S11312800FB6F894DEBF0FBECDBFDF91CF910895A6
S1131290CF93DF9300D000D000D0CDB7DEB720E2EB
S11312A046E0BE016F5F7F4F6EDFCE01019676D3BD
S11312B026960FB6F894DEBF0FBECDBFDF91CF9157
S11312C0089512BA8EE381BB18BA8FE387BB15BAAF
S11312D08FE184BB85E083BF12BE88B7816088BF7D
S11312E089B7816089BF8CE085BD89EF83BD89B7EB
S11312F0806889BF1FBC8BE08EBD8FE790E09BBDEB
S11313008ABD88E088B985EC87B98FE886B982E020
S11313108BB988E18AB986E880BD10BC82E289B9BC
S11313200895CF93DF931F92CDB7DEB71982C9DF3B
S11313308FDA72D776DB449A78942FEF80E792E0C5
S1131340215080409040E1F700C000008091870068
S11313508F3069F46AED70E080E086DB2FEF83ED77
S113136090E3215080409040E1F700C0000093DEFC
S113137088EE93E0A2D288EC90E0BFD21ED813DAB4
S113138081E089D0809190008F7B80939000809140
S1131390900086FFFCCF4DD88091F0009091F10031
S11313A091FF03C080E293E006C08091EF00817E4C
S11313B031F088EE93E081D288E290E09ED2809171
S11313C0EF00811177D20FD280918F0083FF06C086
S11313D080EB94E072D288EC90E08FD2EED78091CB
S11313E08F0080FD66D760DE69D870D9E3D980911B
S11313F08F0085FFC7CF809166019091670148DF18
S1131400809121019091220143DF80911F019091ED
S113141020013EDF87EC90E0C1D28091AD01909134
S1131420AE0136DF80919F019091A00131DF609180
S11314309D0170919E01882777FD8095982F0DDF7F
S11314406091AB017091AC01882777FD8095982F4E
S113145004DF6091A1017091A201882777FD809536
S1131460982FFBDE87EC90E099D280919B019091BC
S11314709C010EDF81EE90E091D284CF43989C01D1
S11314808536910510F024E630E030931201209364
S11314901101439A089599B79E7F99BF80931301D0
S11314A09FED9093880080FF09C080911401909172
S11314B0150190931701809316010AC081FF08C09B
S11314C08091140190911501909319018093180152
S11314D089B7816089BF089599B79E7F99BF90911C
S11314E010019B7F90931001882371F08091140167
S11314F0909115019093170180931601909319010F
S11315008093180110920F0189B7816089BF0895F3
S113151080911801909119012091140130911501C5
S1131520821B930B892F8095881F8827881F089515
S113153080911401909115012091160130911701A9
S1131540821B930B892F8095881F8827881F0895F5
S113155089B78E7F89BFDCDF882359F0E9DF8823D0
S113156041F08091100184608093100181E08093A8
S11315700F0189B7816089BF80911001847008953B
S11315801F920F920FB60F9211242F933F934F93F4
S11315905F938F939F93439840911A0150911B013D
S11315A04436510530F082B3806382BB2CE93FEFAF
S11315B003C0959820E030E08091110190911201D0
S11315C0840F951F820F931F90931B0180931A0120
S11315D086EF82BF88B7816088BF80918700807F53
S11315E08058809387009F918F915F914F913F9195
S11315F02F910F900FBE0F901F9018951F920F926E
S11316000FB60F9211242F933F934F935F936F93D1
S11316107F938F939F93AF93BF93EF93FF938091A7
S113162087008F70813049F028F0823049F0833090
S113163069F40BC094988CEB01C082EC82BF06C0A5
S113164080EE82BF449A439A01C017D980918700E3
S11316508F78813809F081C082B3837F9091100123
S113166093FF05C0977F9093100182BB76C090FFD3
S113167002C0846002C091FD886082BB4091100169
S1131680842F8770853019F08630E9F51DC080916C
S11316901801909119012091140130911501821BB8
S11316A0930B181619067CF180910F019091980103
S11316B0891728F04B7F40614093100124C08F5F4D
S11316C080930F0182E01DC0809114019091150157
S11316D02091160130911701821B930B18161906DD
S11316E094F080910F0190919801891730F0842F24
S11316F08B7F80618093100106C08F5F80930F0100
S113170081E0809313012091100190911301892F9E
S11317108227837019F028622093100180911001B0
S11317208C7F892B909188008923809310019FEFEF
S11317309093880080FF06C0809114019091150158
S1131740019607C081FF09C0809114019091150191
S11317500197909315018093140180918700982F2D
S11317609F709F3019F08F5F80938700FF91EF91F6
S1131770BF91AF919F918F917F916F915F914F91A5
S11317803F912F910F900FBE0F901F901895FC0161
S1131790908190FF27C0977E9F7D908381812281D5
S11317A0821750F091FF02C09E7F908390819062D7
S11317B09064908320E002C0282F2F5F93818913C7
S11317C00BC080818860806182FB992790F931E0A9
S11317D0932790FB82F904C0891718F080818061F7
S11317E080832183089510928F0080918900815015
S11317F080938900811113C084E08093890081E083
S113180080938F0080918E00815080938E0081118F
S113181006C08AE080938E0081E480938F008091DB
S11318208D00815019F080938D0008C082E0809370
S11318308D0080918F00806280938F0080918A0058
S1131840815080938A00811134C088EC80938A008F
S113185040918F00842F826080938F0080918B0051
S1131860815080938B00811124C086E080938B008B
S1131870842F866080938F0080918C008E3519F0C0
S11318808F5F80938C0060918C0050919A01262F79
S113189030E0852F90E001972817390719F44E603E
S11318A040938F00651305C080918F008061809301
S11318B08F00089510928C0008959C0140E050E040
S11318C060E472E48FE090E0AED0DA01C901887F71
S11318D0AA27BB27892B51F043E0369527954A95D3
S11318E0E1F7215031093BBD2ABD04C081E090E0FD
S11318F09BBD8ABD1DBC1CBC08952091990121117A
S113190004C020911C01222339F090931E0180937E
S11319101D018FB580648FBD10921C01089581E074
S113192080931C0108951F920F920FB60F921124F9
S11319302F933F934F935F936F937F938F939F93D3
S1131940AF93BF93EF93FF9380911D0190911E017C
S1131950009731F0019790931E0180931D0103C0FD
S11319608FB58F738FBDBED780E990E010DF369AB4
S1131970FF91EF91BF91AF919F918F917F916F9163
S11319805F914F913F912F910F900FBE0F901F9039
S113199018955E9A8CB95E9BFECF08951F93CF93E2
S11319A0DF93EC0110E002C01F5FF3DFFE01E10FE3
S11319B0F11D80818111F8CFDF91CF911F9108959E
S11319C0991B79E004C0991F961708F0961B881F8D
S11319D07A95C9F780950895AA1BBB1B51E107C0EE
S11319E0AA1FBB1FA617B70710F0A61BB70B881FAB
S11319F0991F5A95A9F780959095BC01CD0108953A
S1131A0097FB072E16F4009406D077FD08D0E4DF88
S1131A1007FC05D03EF4909581959F4F08957095ED
S1131A2061957F4F0895052E97FB16F4009406D018
S1131A3057FD0CD035D007FC09D07EF490958095E5
S1131A40709561957F4F8F4F9F4F089550954095A6
S1131A50309521953F4F4F4F5F4F089505D0332365
S1131A6012F48A1B9B0B0DC0A29FB001B39FC0014F
S1131A70A39F01D0B29F700D811D1124911D089563
S1131A80F3DFB7FF0895821B930B0895EDDFA59F45
S1131A90900DB49F900DA49F800D911D1124089565
S1131AA0A1E21A2EAA1BBB1BFD010DC0AA1FBB1F5E
S1131AB0EE1FFF1FA217B307E407F50720F0A21BD0
S1131AC0B30BE40BF50B661F771F881F991F1A943D
S1131AD069F760957095809590959B01AC01BD0167
S1131AE0CF010895DC01CB01FC01E199FECF06C0D2
S1131AF0FFBBEEBBE09A31960DB20D9241505040BF
S1131B00B8F70895DC01A40FB51F4150504040F0D0
S1131B10CB01840F951F2E9105D041505040D8F72A
S1131B200895262FE199FECF9FBB8EBBE09A0197C3
S1131B300DB2021631F02DBB0FB6F894E29AE19A79
S10B1B400FBE0895F894FFCFD5
S1131B4814F6030B15212C3741494F5354534F496D
S1131B5841372C21150B0220FF0400014042403B71
S1131B6805FFFF020000000FFF01C80600010A007C
S1131B78010032004F464620202000534E442020C6
S1131B8820002020202020200020202020B04300F6
S1131B982020204F46460020444F4E452000503216
S1131BA8202020200050312020202000455252209F
S1131BB830310045525220303200414320455252C0
S1071BC8000A0D00FE
S9030000FC
