S00C0000706964312E73726563AA
S113000019C133C132C170CA30C12FC12EC12DC133
S11300102CC141C92AC129C128C127C153C125C145
S11300201CC923C122C1ABC2BBC2BAC2B9C2B8C2C5
S1130030B7C2B6C2B5C2B4C2B3C2B2C2B1C299C227
S11300409AC295C2ADC281C2AAC281C282C283C20F
S113005084C285C286C287C288C2A2C2A1C2A0C20B
S11300609FC29EC29DC29CC29BC29AC28CC291C2B4
S113007094C28BC295C294C293C292C291C290C2DE
S11300808FC285C262C287C28BC28AC266C288C25C
S113009087C286C285C284C283C282C281C280C230
S11300A07FC27EC26AC27CC27BC27AC279C278C273
S11300B077C276C275C274C273C272C271C270C290
S11300C06FC26EC26DC26CC26BC26AC269C268C2C0
S11300D067C266C265C264C263C262C261C260C2F0
S11300E05FC25EC25DC25CC25BC25AC259C258C220
S11300F057C256C255C254C253C252C251C250C250
S11301004FC24EC24DC24CC24BC24AC249C248C27F
S113011047C246C245C244C243C242C241C240C2AF
S11301203FC23EC23DC23CC23BC23AC239C238C2DF
S113013037C236C235C234C233C232C231C230C20F
S11301402FC22EC22DC21DC20182068506B605032A
S1130150B20526065304022206B905AA0505A00520
S11301605B0500000B59045B05670404A005080542
S113017000000C59040805670406A805BE04000025
S1130180095904BE04670407A805740400000A5949
S11301900474046704086D046F0400000D6E046F9A
S11301A004000001060003A801000102400100024E
S11301B0052802000101800300830140050082013B
S11301C000050400046805020007A80500010B28C7
S11301D00B0083052804008201000404000668045F
S11301E0020005A80400010C280C00830428060062
S11301F0820100060400076806020004A806000144
S113020009000700820100070400056807020006D0
S1130210A80700010A0009000206000900010814E9
S113022008008301000A000207000A00010D140DF2
S11302300083010011241FBECFE5D4E0DEBFCDBF93
S113024010E0A0E6B0E0E0E2F9E102C005900D9212
S1130250A03BB107D9F720E0A0EBB0E001C01D92AC
S1130260AE3FB207E1F706D759CBCACEBC0180E056
S113027090E01ADA28E73BE044EE5EEBA3DA23E1F0
S11302803AE14CEC53E480D9E3D9862F972F0895B3
S11302904398E0EBF0E040EC50E080E090E0219106
S11302A03191820F931FE417F507C9F7439A969586
S11302B0879596958795969587959093D900809381
S11302C0D80008951F920F920FB60F9211242F9306
S11302D08F939F93EF93FF9384B195B12091600026
S11302E02223FCF49093BF008093BE009093BD0042
S11302F08093BC009093BB008093BA009093B900A4
S11303008093B8009093B7008093B6009093B500A3
S11303108093B4009093B3008093B2001092600075
S11303200EC0E22FEE0FFF0BE055FF4F9183808349
S1130330273011F02F5F01C020E020936000FF916F
S1130340EF919F918F912F910F900FBE0F901F905F
S113035018953091C600209161009091EC00909323
S1130360C600492F4095409361008091C7008C30AE
S113037010F06FEF01C060E0391741F01092C70030
S1130380892F82238093C30050E014C08D3018F469
S11303908F5F8093C7005091C7005C3009F445C05B
S11303A0892F82238093C300573018F050E02FEF39
S11303B001C050E029232093C200609534233623E2
S11303C03093C10059235093C000877790E030FDEB
S11303D005C09093C5008093C40005C091609093BC
S11303E0C5008093C40050FF09C08091C40090915F
S11303F0C50092609093C5008093C40021FF09C09A
S11304008091C4009091C50094609093C50080933E
S1130410C40022FF10C08091C4009091C500986070
S11304209093C5008093C4000895832F8223809302
S1130430C3005FEFBCCF08958091C40084FF03C064
S113044081E09DD604C085FF02C082E098D68091E9
S1130450C300807349F088EE93E019D882E390E0FA
S113046037D882E08093C8008091C3008823E4F4E5
S11304708091D00082FF08C0C8D688EE93E007D8E8
S113048082E390E025D810C098D6882339F088EE0E
S113049093E0FDD784E690E01BD806C084EF91E09A
S11304A0F6D782E390E014D88091C80081111AC075
S11304B08091D00084FF0AC08F7E8093D00088EEA4
S11304C093E0E5D788EC90E003D80FC085FF0DC01A
S11304D08F7D8093D00088EE93E0D9D782E390E0BB
S11304E0F7D703C081508093C80080E394D18091F2
S11304F0D00080FF03C080E188D1089581FF02C04D
S113050080E283D108958091C40086FF06C0909153
S1130510C90081E089278093C9008091C90088239C
S113052029F08AE01CD680E470D1089580E017D6C3
S113053080E471D10895482F50E0FA01B097E13971
S1130540F10570F5ED5EFF4F09948FE308958BE597
S113055008958FE4089586E608958DE608958DE75D
S1130560089587E008958FE708958FE6089580E859
S1130570089580E8089580E4089588E0089580E06F
S1130580089583E6089589E3089581E7089584E54D
S113059008958EE5089583E7089589E7089586E030
S11305A00895982F87FD81958E3078F0382F3695F1
S11305B023E9329F212D112426952695220F322FCF
S11305C0330F330F330F321B831B99232CF48823EF
S11305D019F09EE0981B892F0895CF9381E022D1D2
S11305E08091CB00882319F08630F1F512C046D1F2
S11305F037D185E38A95F1F7000047D138D180E0FF
S113060011D18091DB008093CA00C091CB00CF5FF1
S11306102FC08091DC00882381F18CEC90E009D715
S11306208091CC0085FF23C08091DB009091DD0098
S1130630891304C01092DC00C0E01AC09091DC0061
S1130640923049F48D3010F48F5F01C080E08093C4
S1130650DB00C0E00DC0882311F0815001C08DE0A3
S11306608093DB00C0E004C0C82FCF5F01C0C0E0AE
S11306708091CB00863031F401C0C0E08091DA0073
S1130680E1D010C0E091CA00F0E0E252FF4F808157
S1130690D9D09091CA009D3010F49F5F01C090E0C2
S11306A09093CA00C093CB00CF9108951F93CF932A
S11306B0DF93182FC62F842F3EDFD82F8091DD00C3
S11306C0810F6FDF90E00AC0E82FF0E0E252FF4FA5
S11306D0D0838D3010F48F5F01C0892FC150A0F7F3
S11306E0DF91CF911F91089540E262E08EEFDEDF4B
S11306F08091DD00885055DF8093DD0081E0809398
S1130700DC00089540E262E086E0D0DF8091DD0005
S1130710885F47DF8093DD0082E08093DC000895EA
S1130720CF93ACD0C7E081E07DD0C150E1F79FD03A
S11307301092DB001092DD001092CA001092CB00E0
S11307401092DA0040E26EE080E0B0DF1092DC004C
S1130750ECECF0E0808181608D7F808389E0809380
S1130760CE00CF910895DF92EF92FF920F931F93E3
S1130770CF93DF93EB019091DD00890F12DF182FE7
S1130780D82E02E0F12C0F2EF3E0EF2EF02D26C030
S1130790D2DE803819F4902F916002C0902F9E7F92
S11307A0913051F4ED2DF0E0E252FF4F9081892B0E
S11307B08083812F0E2D10C0E12FF0E0E252FF4F15
S11307C080831D3018F4812F8F5F01C08F2D90FF1F
S11307D002C00E2D01C00F2DD12E182F8991811129
S11307E0D7CFDF91CF911F910F91FF90EF90DF90C2
S11307F008959091DD00890FD4DEE82FF0E0E252F5
S1130800FF4F80818068808308959091DA00892B5E
S11308108093DA0008959091DA008095982390935C
S1130820DA000895882311F0C09A01C0C0988AE1C3
S11308308A95F1F700C0C29A8AE18A95F1F700C05F
S1130840C298089595B3282F2F71907E922B95BB53
S113085098B3869586958873977C892B88BB089571
S113086085B38F6185BB88B3886388BB089584B3DF
S11308708F6184BB87B3886387BB089584B3807E0C
S113088084BB87B3877C87BB089586B3887393B38F
S1130890880F880F9F71892B80958093EC000895B1
S11308A01092EF000895E2EFF0E080818E7F808364
S11308B008951092F30087E08093F40084E080931D
S11308C0F500E2EFF0E08081816080830895E2EF3B
S11308D0F0E080818E7F80830895089508956EE905
S11308E070E080E040DF0895CF93DF93CDB7DEB7AB
S11308F027970FB6F894DEBF0FBECDBF87E0E4E7BD
S1130900F0E0DE01119601900D928A95E1F7809155
S1130910C4009091C5009C0122703470232B41F0D7
S1130920809162008A3F78F48F5F809362000BC0ED
S113093084709870892B39F0809162008B3018F0A4
S11309408150809362008091F20084FF09C020E20C
S113095043E8BE016C5F7F4F8091620090E01DD33D
S1130960BE016F5F7F4F80E0FEDE27960FB6F894DE
S1130970DEBF0FBECDBFDF91CF910895CF93DF933C
S1130980CDB7DEB727970FB6F894DEBF0FBECDBF45
S113099087E0EBE7F0E0DE01119601900D928A9575
S11309A0E1F78091C4009091C5009C0122703470DD
S11309B0232B41F0809163008A3F78F48F5F80930A
S11309C063000BC084709870892B39F080916300A8
S11309D08B3018F08150809363008091F20084FF83
S11309E009C020E243E8BE016C5F7F4F8091630041
S11309F090E0D3D2BE016F5F7F4F80E0B4DE2796D4
S1130A000FB6F894DEBF0FBECDBFDF91CF9108952E
S1130A10CF93DF93CDB7DEB727970FB6F894DEBF39
S1130A200FBECDBF87E0E2E8F0E0DE011196019051
S1130A300D928A95E1F78091C4009091C5009C01C4
S1130A4022703470232B49F0809164008F3518F4A0
S1130A508B5F8093640024DF0CC084709870892BB2
S1130A6041F080916400863018F0855080936400D2
S1130A7017DF8091F20084FF10C0809164008F35ED
S1130A8041F020E242E8BE016B5F7F4F90E085D2E7
S1130A9004C08EE48D838FE48E83BE016F5F7F4F2D
S1130AA080E061DE27960FB6F894DEBF0FBECDBF9F
S1130AB0DF91CF910895CF93DF93CDB7DEB727971A
S1130AC00FB6F894DEBF0FBECDBF87E0E9E8F0E0D3
S1130AD0DE01119601900D928A95E1F78091C40090
S1130AE09091C50086709927892B41F081E09091FF
S1130AF06500911180E080936500D2DE8091F20060
S1130B0084FF0EC080916500882329F08FE48D83D3
S1130B108EE48E8305C08FE48C8386E48D838E837C
S1130B20BE016F5F7F4F80E01EDE82E062DE2796AB
S1130B300FB6F894DEBF0FBECDBFDF91CF910895FD
S1130B4083E069DEE2EFF0E08081806180830895D4
S1130B50F7DF089582E05FDEE2EFF0E080818E7FD0
S1130B608083089581E057DEA4DE089581E053DE9A
S1130B700895CF93DF93CDB7DEB727970FB6F894D8
S1130B80DEBF0FBECDBF87E0E0E9F0E0DE011196E5
S1130B9001900D928A95E1F78091C4009091C5006F
S1130BA09C0122703470232B41F0809166008336BF
S1130BB078F48F5F809366000BC084709870892BE3
S1130BC039F080916600823018F08150809366007D
S1130BD020E242E8BE016B5F7F4F8091660090E0A7
S1130BE0DCD18091D00082FF04C08091F20084FFA8
S1130BF009C020E242E8BE016E5F7F4F8091FD0094
S1130C0090E0CBD119820DD3882319F089818160BA
S1130C10898315D3882319F0898188608983898120
S1130C20811102C080E28983BE016F5F7F4F80E043
S1130C309ADD27960FB6F894DEBF0FBECDBFDF91C5
S1130C40CF91089582E0E1DD34DE0895CF93DF9300
S1130C50CDB7DEB727970FB6F894DEBF0FBECDBF72
S1130C6087E0E7E9F0E0DE01119601900D928A95A4
S1130C70E1F78091C4009091C5009C01227034700A
S1130C80232B71F08091670090916800823D91055B
S1130C9028F40596909368008093670001DE11C0E4
S1130CA084709870892B69F0809167009091680036
S1130CB08F31910528F00597909368008093670021
S1130CC0EFDD20E244E8BE016F5F7F4F8091670053
S1130CD09091680062D1BE016F5F7F4F80E043DD79
S1130CE08091F20084FF03C081E08FDD02C081E0C7
S1130CF092DD27960FB6F894DEBF0FBECDBFDF910D
S1130D00CF91089581E081DD0895CF93DF93CDB72E
S1130D10DEB727970FB6F894DEBF0FBECDBF87E0CE
S1130D20E7E9F0E0DE01119601900D928A95E1F772
S1130D308091D8009091D90099DA20E244E8BE016C
S1130D406F5F7F4F2AD1BE016F5F7F4F80E00BDD65
S1130D5027960FB6F894DEBF0FBECDBFDF91CF91BB
S1130D60089581E08093ED0020E030E0C901880F10
S1130D70991F880F991F880F991F821B930B885BFB
S1130D809E4FFC016491319645915491B42FA52F47
S1130D90FC01339645915491742F452F0596FC011F
S1130DA085919491582F613079F46093F600E7EFC0
S1130DB0F0E0B083A183E9EFF0E070834183EBEFCF
S1130DC0F0E05083918314C02F5F3F4F2D303105E5
S1130DD009F0CCCF6093F600E7EFF0E0B083A18395
S1130DE0E9EFF0E070834183EBEFF0E0508391830F
S1130DF0E091F700F091F800309709F0099510920E
S1130E00EF00EEEEF0E080818E7F82608083E2EF7F
S1130E10F0E080818E7F8D7F80830895FF920F9311
S1130E201F93CF93DF938EEE90E003D34091C400E1
S1130E305091C5008091EE0085FD5068B091ED00A1
S1130E4080E090E09C01220F331F220F331F280FF4
S1130E50391F2D553E4FF901A49131966591749136
S1130E60F9013396C491F90134962491BA1315C04B
S1130E7064237523672B89F0D22FDF7326FB0027A9
S1130E8000F9F22EFF1CFF24FF1C10E0F0FA10F909
S1130E9000FB11F9BC1306C070C001968D31910599
S1130EA089F66BC0E091FB00F091FC00309709F0EB
S1130EB00995F0FA10F900FB11F911FF02C022DCC8
S1130EC002C010FD11DCC093ED0020E030E0C90148
S1130ED0880F991F880F991F880F991F821B930BE6
S1130EE0885B9E4FFC016491319645915491B42FD7
S1130EF0A52FFC01339645915491742F452F0596E7
S1130F00FC0185919491582FC6130FC06093F6008D
S1130F10E7EFF0E0B083A183E9EFF0E07083418371
S1130F20EBEFF0E05083918314C02F5F3F4F2D30DF
S1130F30310509F0CCCF6093F600E7EFF0E0B08321
S1130F40A183E9EFF0E070834183EBEFF0E050839D
S1130F509183E091F700F091F800309709F009953A
S1130F60DD23A9F0DD0FD093F0001092EF00EEEE38
S1130F70F0E08081816080830AC082EF90E059D2E2
S1130F80E091F900F091FA00309709F00995DF91AA
S1130F90CF911F910F91FF900895CF93DF93FC01A0
S1130FA0522F44232CF44F77EB01C40FD11D04C0FE
S1130FB0EB01C40FD11D18829F01ADECBCEC80D4B1
S1130FC0969587959695879596958795DC01AA0FB2
S1130FD0BB1FBC01660F771F660F771F660F771F55
S1130FE06A0F7B1FE61BF70BE05DEA93FC0141509F
S1130FF0009729F4842F8150411104C007C0411186
S1131000DBCF04C0FE0152938150E8F7DF91CF910A
S1131010089512BA8EE381BB18BA8FE387BB15BA61
S11310208FE184BB85E083BF12BE88B7816088BF2F
S113103089B7816089BF8CE085BD89EF83BD89B79D
S1131040806889BF1FBC8BE08EBD8FE790E09BBD9D
S11310508ABD449A88E088B985EC87B98FE886B957
S113106082E08BB988E18AB986E880BD10BC82E24F
S113107089B90895CF93DF93CDB7DEB72A970FB61A
S1131080F894DEBF0FBECDBFC4DF4ADB789469DEBF
S113109081E075D065EA70E080E065DBE12CF12C3D
S11310A0D12C00E710E0C12CF801808186FFFCCF31
S11310B0EFD84FD92091C4003091C50031FF07C04B
S11310C080E293E0E4D188E290E002D20AC0809109
S11310D0C300877431F088EE93E0D9D188E290E0C0
S11310E0F7D19CDEA9D90FDAF801808182FF32C0E2
S11310F0F9E0DF122EC020E245E0BE016F5F7F4FB2
S1131100C7014BDFCE0101962AD286EA90E027D2AE
S113111020E245E0BE016F5F7F4F8091D80090913F
S1131120D9003BDFCE0101961AD286EA90E017D2AD
S11311308091D10086FF03C081E30CD202C080E31A
S113114009D28CEA90E00BD28FEFE81AF80ADC2C73
S113115001C0D394F80180818F7B8083A5CF8093D5
S1131160D2009091D100292F2F77882321F0206479
S11311702093D10008959F739093D100089599B757
S11311809E7F99BF8093D30080FF09C0809169003E
S113119090916A0090936C0080936B000AC081FF69
S11311A008C08091690090916A0090936E008093CA
S11311B06D0089B7816089BF089589B78E7F89BF23
S11311C08091690090916A00AC01465F5F4F209165
S11311D06D0030916E002417350780F00A97209136
S11311E06B0030916C008217930740F08091D0001F
S11311F084608093D00081E08093FD0089B7816092
S113120089BF8091D0008470089589B78E7F89BF8B
S11312108091D0008B7F8093D00089B7816089BF93
S1131220089581E04091690050916A0020916D0019
S113123030916E002417350708F480E0089581E0AA
S11312404091690050916A0020916B0030916C00CC
S11312504217530708F480E008951F920F920FB6C7
S11312600F9211248F939F9343989091D40080916F
S1131270D500981708F4949A86EF82BF80916F0086
S1131280807F805880936F009F918F910F900FBE45
S11312900F901F9018951F920F920FB60F92112462
S11312A02F933F934F938F939F9380916F008F70F1
S11312B0813051F028F0823051F0833091F40CC029
S11312C094988CEB82BF0DC082EC82BF0AC080EE82
S11312D082BF449A439A05C082B3837E82BB109234
S11312E0D40080916F008F78813809F08FC092B359
S11312F0937F8091D00083FF05C0877F8093D000C7
S113130092BB71C080FF02C0946002C081FD9860EE
S113131092BB4091D000842F8770853019F08630BD
S1131320D1F51DC02091690030916A0080916D0053
S113133090916E002817390770F18091FD0090910B
S11313406600891728F04B7F40614093D00023C08A
S11313508F5F8093FD0082E08093D3001CC02091B6
S1131360690030916A0080916B0090916C00821743
S1131370930788F08091FD0090916600891728F00A
S11313804B7F40614093D00006C08F5F8093FD0087
S113139081E08093D3008091D0009091D300292FD5
S11313A02827237019F088628093D0008091D000A0
S11313B08C7F892B8093D00080FF0AC080916900C4
S11313C090916A00019690936A00809369000BC023
S11313D081FF09C08091690090916A000197909300
S11313E06A00809369008091D400893061F410927E
S11313F0D4008091D2008093D5008091D100806880
S11314008093D10003C08F5F8093D40080916F00DC
S1131410982F9F709F3019F08F5F80936F009F917A
S11314208F914F913F912F910F900FBE0F901F906E
S11314301895FC01808180FF29C0877E8F7D808381
S113144081819281891758F0908191FF02C09E7F1B
S11314509083908190629064908320E002C0282F52
S11314602F5F938189130CC080818860806182FB27
S1131470332730F991E0932790FB82F9808305C0EC
S1131480891718F0808180618083218308959C01ED
S113149040E050E060E472E48FE090E0F6D1DA01DD
S11314A0C901887FAA27BB27892B59F03695279530
S11314B03695279536952795215031093BBD2ABD90
S11314C004C081E090E09BBD8ABD1DBC1CBC089596
S11314D020916500222339F09093D7008093D600A1
S11314E08FB580648FBD08951F920F920FB60F922F
S11314F011242F933F934F935F936F937F938F9315
S11315009F93AF93BF93EF93FF938091D6009091F5
S1131510D700009731F001979093D7008093D600BD
S113152003C08FB58F738FBD58D880E790E081DFFB
S1131530369AFF91EF91BF91AF919F918F917F91D7
S11315406F915F914F913F912F910F900FBE0F902C
S11315501F9018955E9A8CB95E9BFECF08951F93D9
S1131560CF93DF93EC018881882349F010E01F5F5B
S1131570F1DFFE01E10FF11D80818111F8CFDF91D0
S1131580CF911F9108955058BB27AA270ED0E0C0D1
S1131590D1D030F0D6D020F031F49F3F11F41EF4B6
S11315A0C6C00EF4E095E7FBBCC0E92FE2D080F39F
S11315B0BA17620773078407950718F071F49EF54C
S11315C0FAC00EF4E0950B2EBA2FA02D0B01B90131
S11315D090010C01CA01A0011124FF27591B99F0A5
S11315E0593F50F4503E68F11A16F040A22F232FB1
S11315F0342F4427585FF3CF469537952795A79501
S1131600F0405395C9F77EF41F16BA0B620B730BA7
S1131610840BBAF09150A1F0FF0FBB1F661F771F18
S1131620881FC2F70EC0BA0F621F731F841F48F4CD
S1131630879577956795B795F7959E3F08F0B3CF53
S11316409395880F08F09927EE0F9795879508953D
S113165098D088F09F5790F0B92F9927B751A0F0F0
S1131660D1F0660F771F881F991F1AF0BA95C9F732
S113167012C0B13081F09FD0B1E008959CC0672FB3
S1131680782F8827B85F39F0B93FCCF386957795E2
S11316906795B395D9F73EF49095809570956195CB
S11316A07F4F8F4F9F4F0895E89409C097FB3EF4F6
S11316B090958095709561957F4F8F4F9F4F99239B
S11316C0A9F0F92F96E9BB279395F6958795779519
S11316D06795B795F111F8CFFAF4BB0F11F460FFD9
S11316E01BC06F5F7F4F8F4F9F4F16C0882311F031
S11316F096E911C0772321F09EE8872F762F05C045
S1131700662371F096E8862F70E060E02AF09A95DF
S1131710660F771F881FDAF7880F9695879597F9D4
S1131720089597F99F6780E870E060E008959FEF5F
S113173080EC089500240A94161617061806090664
S1131740089500240A941216130614060506089533
S1131750092E0394000C11F4882352F0BB0F40F4BB
S1131760BF2B11F460FF04C06F5F7F4F8F4F9F4FFB
S1131770089557FD9058440F551F59F05F3F71F07D
S11317804795880F97FB991F61F09F3F79F08795E4
S11317900895121613061406551FF2CF4695F1DF6D
S11317A008C0161617061806991FF1CF86957105FD
S11317B0610508940895E894BB2766277727CB0131
S11317C097F908950BD0C4CFB5DF28F0BADF18F02D
S11317D0952309F0A6CFABCF1124EECFCADFA0F337
S11317E0959FD1F3950F50E0551F629FF001729FB2
S11317F0BB27F00DB11D639FAA27F00DB11DAA1FD1
S1131800649F6627B00DA11D661F829F2227B00D1D
S1131810A11D621F739FB00DA11D621F839FA00DA8
S1131820611D221F749F3327A00D611D231F849FF8
S1131830600D211D822F762F6A2F11249F5750404F
S11318408AF0E1F088234AF0EE0FFF1FBB1F661FEA
S1131850771F881F91505040A9F79E3F510570F0A3
S113186060CFAACF5F3FECF3983EDCF38695779583
S11318706795B795F795E7959F5FC1F7FE2B880F9E
S1131880911D9695879597F90895052E97FB16F463
S1131890009406D057FD0CD01FD007FC09D07EF46D
S11318A090958095709561957F4F8F4F9F4F0895C8
S11318B050954095309521953F4F4F4F5F4F089578
S11318C0A29FB001B39FC001A39F01D0B29F700D2E
S11318D0811D1124911D0895A1E21A2EAA1BBB1B80
S11318E0FD010DC0AA1FBB1FEE1FFF1FA217B307E8
S11318F0E407F50720F0A21BB30BE40BF50B661FFE
S1131900771F881F991F1A9469F7609570958095C1
S113191090959B01AC01BD01CF010895F894FFCFD0
S1131920FFFFB4191E010A41000080008000800FEF
S1131930010032005032202020200050312020208D
S113194020004F464620202000534E4420202000F3
S11319502020202020200020202020B043002044EC
S11319604F4E452000202020202020000A0D00009A
S9030000FC
