:10000000CEC0E8C0E7C0B9CCE5C0E4C0E3C0E2C000
:10001000E1C06ACBDFC0DEC0DDC0DCC0B2C1DAC087
:1000200025CBD8C0D7C01678C3009101320A011E73
:10003000303F4F3F3106325B334F3466536D356D81
:10004000367D3707387F396F2E802C802D405F0832
:100050002000B0634177433946714E54445E50737B
:100060004579553E473D5250202020004F464620BE
:10007000202000534E44202020002020202020203B
:100080000020202020B04300015C075E071106031A
:10009000090623078605022007CC06020605FC0593
:1000A000990600000B94059906A20504F6052C0696
:1000B00000000C94052C06B00506EA056706000052
:1000C0000994056706C10507DE05670600000A9466
:1000D000056706C105081306CC0500000D1306CC04
:1000E0000500000ED005C805BE0501C000038A0149
:1000F00000010240010002050A0200010180020025
:1001000002050A030081014003000201600500822C
:100110000100058000044A054000078A0500010B24
:100120000A0B0081050A0B0002052A040082010067
:10013000048000064A044000058A0400010C0A0CF1
:100140000081040A0C0002042A06008201000680D5
:1001500000074A064000048A0600010900070082E1
:100160000100078000054A074000068A0700010ACF
:1001700000090002060A09000108050800830100C1
:100180000A0002070A0A00010D050D0083010001A3
:1001900000400E000200400E000ED50101001124A7
:1001A0001FBECFE5D4E0DEBFCDBF10E0A0E6B0E0DB
:1001B000E0E4FCE102C005900D92A83EB107D9F73A
:1001C00021E0A8EEB0E001C01D92A63EB207E1F723
:1001D000ACD734CD15CF0F931F932091E800309109
:1001E000E9004091EA005091EB00DC01BADC00919B
:1001F000EC001091ED002091EE003091EF00600FC7
:10020000711F821F931F28EE33E040E050E076DC40
:10021000C9011F910F9108950F931F93DC0111964F
:1002200028EE33E098DC0091EC001091ED00209175
:10023000EE003091EF00601B710B820B930B20914D
:10024000E8003091E9004091EA005091EB0056DC63
:10025000C9011F910F9108958F929F92AF92BF9203
:10026000CF92DF92EF92FF92CF93DF93F090B301A2
:10027000A091B401B0E0AF19B109C091B501D0911E
:10028000B60128EE33E067DC2091B7013091B80168
:100290002C1B3D0B40E050E031DC49015A0120931A
:1002A000E8003093E9004093EA005093EB002F2DD3
:1002B00030E0A8EEB3E043DC6B017C01DE01A50178
:1002C00094014FDCC61AD70AE80AF90AC092EC007A
:1002D000D092ED00E092EE00F092EF00DF91CF912E
:1002E000FF90EF90DF90CF90BF90AF909F908F9056
:1002F000089587E886B9E0EFF0E080E090E0219192
:100300003191820F931F21E0E033F207C1F72FE80C
:1003100026B99C0145E0369527954A95E1F730933B
:10032000AF012093AE0153E0969587955A95E1F77A
:10033000909331018093300140E650E062E371E038
:100340003BD29093AD018093AC011092B0018091AB
:10035000AE019091AF018233910510F481E004C0A9
:10036000893E934018F082E08093B0010895809117
:10037000AE019091AF012FDF9093B2018093B10154
:1003800008951F920F920FB60F9211242F933F934F
:100390004F938F939F93EF93FF9324B135B1409187
:1003A0007700415040937700E42FF0E0EE0FFF1FFD
:1003B000E051FF4F80E094E0821B930B9183808398
:1003C000411103C080E280937700FF91EF919F91EC
:1003D0008F914F913F912F910F900FBE0F901F90D3
:1003E000189550916001409178009091CF019093C1
:1003F0006001692F609560937800809161018C3075
:1004000010F02FEF01C020E0591719F01092610190
:1004100005C08D3018F48F5F809361017091610188
:100420007C3011F43FEF01C030E0892F84238093AA
:100430005D01773008F04FEF492340935C01209530
:100440005623252320935B01392330935A018D7F56
:1004500090E025FD916035FD926046FD946047FD7A
:10046000986020FD906130FD906290935F018093D1
:100470005E010895FC0180E009C09191892798E010
:100480002CE8869508F482279A95D9F76150A8F749
:100490000895CF938091620180FF25C081E07CD8D0
:1004A0008091B001837039F48091B1019091B201D3
:1004B0008833910554F080919601837009F06DC0E6
:1004C00081E04BD81092630168C0C3970CF065C0FF
:1004D00080919601837009F460C080E03ED881E08D
:1004E000809363015AC08091CF018471843111F4EB
:1004F00080E019C080915D0182FF04C081E02DD8A9
:10050000C1E013C084FF04C082E027D8C2E00DC060
:1005100080915A0183FF04C081E03ED8C8E005C045
:1005200080916301811119D8C0E01092630180911C
:100530005B0183FF10C080E889BF8091960182FF34
:1005400004C080E029D8C06206C073D8882311F0A7
:10055000C06101C0C0648091960185FF03C080E244
:1005600035D8C4608091960184FF03C080E12ED805
:10057000C068C7FF03C08CE090E00EC0C6FF03C098
:100580008CE590E009C0C3FF03C080E690E004C0A2
:10059000C77319F084E690E078DA88E16DD2809133
:1005A000960180FF02C088E003C081FF03C080E1A4
:1005B000CF915CC2CF91089580915E0190915F01CF
:1005C00094FF05C020B131E0232720B9169A95FF8A
:1005D00003C0029A169A01C002988091620180FDC0
:1005E00004C08091B001837009F00098039B04C09F
:1005F0008091B90194D6169A169B17C08091B901C3
:1006000090E00ADE40B16091AC017091AD01880FBD
:10061000991F880F991F90D6009B06C02091B901A1
:100620002F3F11F484EF91E08AD784E000991EC235
:1006300023C2909179008091B901981721F0039A13
:1006400080937900089503980895CF93DF93C09124
:10065000B101D091B2018091B001837031F0119B52
:100660003EC025DA84E190E037C02091B90130E046
:1006700060917A00862F90E0A901481B590B4C1716
:100680005D0774F4820F931FC817D9074CF46530C7
:1006900029F4009B03C084E390E0F7D98AE001C00D
:1006A00085E080937A0080B1837009F009C0119BC6
:1006B00016C080917B0090917C00C817D9072CF45C
:1006C000D0937C00C0937B000AC043968C179D0793
:1006D00034F4EDD98AE190E0DF91CF91D6C9DF9172
:1006E000CF91089546E050E062E070E083EB91E046
:1006F00085DA66E083EB91E0BDDE682F80E090E074
:100700008CCA44E050E068E070E089EB91E076DA72
:1007100064E089EB91E0AEDE682F81E090E07DCA75
:10072000CF93DF9344E050E068E070E089EB91E024
:100730004DDA46E050E062E070E083EB91E046DAAB
:1007400064E089EB91E096DEC82F81E090E04EDA1C
:100750008C1751F044E050E06CE270E089EB91E0DE
:100760002CDACFDFC1E001C0C0E066E083EB91E0AE
:1007700081DED82F80E090E039DA8D1749F046E02D
:1007800050E066E270E083EB91E017DAABDFC26025
:100790008C2FDF91CF910895F89417BA18BA14BA34
:1007A00015BA82E081BB8DE890E08AD9AADF8CE996
:1007B00090E086D912BAFFCFCF92DF92EF92FF92EC
:1007C0000F931F93CF93DF938C01EB01FA012381E9
:1007D00020036001219FD00C1124EE24D7FCE0946B
:1007E000FE2C40811EC0842F90E0DC011197AA0FDF
:1007F000BB1FAC0FBD1F2D913C91DC01AA0FBB1F8D
:10080000AC0FBD1F2D933C93DF01A80FB91F1396AA
:10081000AC91BB27A7FDB0958CD9C60ED71EE81E9C
:10082000F91E415001F7198308832181328140E08C
:1008300050E0C701B60162D9C901DF91CF911F9184
:100840000F91FF90EF90DF90CF90089520E030E07F
:10085000A901440F551FFA01E05DFF4FE491E81331
:1008600005C0FA01EF5CFF4F849108952F5F3F4F61
:100870002C31310569F70895282F87FD81958E3039
:1008800018F06EE02FD9892F27FF05C0882319F0B3
:100890009EE0981B892F0895CF9321D181E0F3D05A
:1008A000C0916501CC2319F0C630C1F50FC009D144
:1008B00085E38A95F1F7000019D180E0E4D08091BA
:1008C000BE0180936401C091650128C08091BF0181
:1008D000811101C01BC086E691E0CFD780916601EF
:1008E00085FF14C08091BE019091C001891303C09F
:1008F0001092BF010BC09091BF01923049F48D302E
:1009000010F48F5F01C080E08093BE01C0E007C09B
:10091000882311F08150F8CF8DE0F6CFCF5F809122
:100920006501863021F48091BD01BDD010C0E091F9
:100930006401F0E0EF53FE4F8081B5D080916401F7
:100940008D3010F48F5F01C080E080936401C0930C
:100950006501CF91BDC00F931F93CF93DF931F927B
:10096000CDB7DEB7182F842F698370DF082F8091F1
:10097000C001810F81DF69810AC0E82FF0E0EF53E9
:10098000FE4F00838D3010F48F5F01C080E0615016
:10099000A0F70F90DF91CF911F910F91089540E242
:1009A00062E08EEFD8DF8091C001885065DF8093D0
:1009B000C00181E08093BF01089540E262E086E0DB
:1009C000CADF8091C001885F57DF8093C00182E059
:1009D0008093BF010895CF9382D0C7E081E053D0C8
:1009E000C150E1F775D01092BE011092C001109273
:1009F0006401109265011092BD0140E26EE080E05A
:100A0000AADF1092BF018091660181608D7F809383
:100A1000660189E080936801CF9108951F93CF9379
:100A2000DF93EB019091C001890F26DF182F0BC0D7
:100A30000DDFE12FF0E0EF53FE4F80831D3010F407
:100A40001F5F01C010E089918111F2CFDF91CF913A
:100A50001F9108959091C001890F0EDFE82FF0E0FB
:100A6000EF53FE4F80818068808308959091BD018F
:100A7000982B9093BD0108959091BD018095892395
:100A80008093BD010895882311F0C09A01C0C098D9
:100A90008AE18A95F1F700C0C29A8AE18A95F1F756
:100AA00000C0C298089525B3982F9F71207E922B85
:100AB00095BB98B3869586958873977C892B88BB60
:100AC000089585B38F6185BB88B3886388BB08951B
:100AD00084B38F6184BB87B3886387BB089584B375
:100AE000807E84BB87B3877C87BB089586B3887379
:100AF00093B3880F880F9F71892B80958093CF01C6
:100B00000895009711F0FC010994089580917401F3
:100B10008E7F809374018091780185FD04C080915F
:100B200072018093B90108951092750187E0809356
:100B3000760184E080937701E4E7F1E080818160D1
:100B400080830895809174018E7F809374018091D9
:100B5000780185FD04C0809172018093BB010895E6
:100B6000809174018E7F809374018091780185FD5E
:100B700004C0809172018093BC01089510926201BB
:100B80000895E4E7F1E080818E7F808301980895E5
:100B900067EA70E080E042CF6EEA70E080E03ECF2E
:100BA00080EC6ADF81E080936201089580EC64DF6D
:100BB000E4E7F1E08081806180830895F7DF809130
:100BC000B4018093720182E08093730165EB70E061
:100BD00080E024CFEBDF8091B3018093720181E04C
:100BE000809373016CEB70E080E018CFDFDF8091C1
:100BF000BC01809372010895D9DF8091BB0180937D
:100C000072010895E4E7F1E080818E7F808380E4C3
:100C100033CF80E831DF88DF8091B90180937201A2
:100C2000089580E829CF209172013091730180915D
:100C3000AE019091AF01313039F49093B6018093B9
:100C4000B5012093B30106C09093B8018093B7011A
:100C50002093B40101DB46CD47E050E06CE670E044
:100C600080ED91E0AAD780915E0190915F019C0197
:100C700020743470232B31F0809172018F3568F429
:100C80008B5F09C080789870892B49F08091720140
:100C9000863018F085508093720110927E0080910A
:100CA000740184FF10C0809172018F3530F442E8E6
:100CB00064ED71E090E024D206C08EE48093D4010C
:100CC0008FE48093D50160ED71E080E0A7CE44E031
:100CD00050E068E670E080ED91E06FD780915E01B2
:100CE00090915F019C0120743470232B31F080912E
:100CF00072018A3F68F48F5F09C080789870892BF1
:100D000039F0809172018B3018F08150809372011C
:100D10008091740184FF09C043E060ED71E080912F
:100D2000720190E0EDD126D6019A60ED71E083E08A
:100D300075CE47E050E063E770E080ED91E03DD78D
:100D400080915E0190915F01807C9927892B49F009
:100D500081E090917201911180E080937201109274
:100D60007E008091740184FF11C0809172018823FC
:100D700029F08FE48093D4018EE406C08FE4809341
:100D8000D30186E48093D4018093D50160ED71E0B6
:100D900080E044DE82E05ECE47E050E06AE770E04B
:100DA00080ED91E00AD780915E0190915F019C01F6
:100DB00020743470232B31F08091BA01833668F4AB
:100DC0008F5F09C080789870892B39F08091BA01C3
:100DD000823018F081508093BA0142E864ED71E0EE
:100DE0008091BA0190E08CD18091960182FF04C07D
:100DF0008091740184FF07C042E861ED71E0809149
:100E0000950190E07DD11092D001EBD3882329F099
:100E10008091D00181608093D001F7D3882329F09D
:100E20008091D00188608093D0018091D0018111A0
:100E300003C080E28093D00160ED71E080E0EECDF0
:100E400073DE80E413CE47E050E061E870E080EDAF
:100E500091E0B3D680915E0190915F019C01207476
:100E6000347040917201232B21F04F3F59F04B5FBA
:100E700007C080789870892B39F04F3118F04550B1
:100E80004093720110927E00809172018F3F41F079
:100E900044E860ED71E090E033D160ED71E002C0B4
:100EA00063EC70E080E0BADD8091740184FF02C0E1
:100EB00080E8DCCD80E8E0CD80E8D8CD47E050E0A8
:100EC00061E870E080ED91E078D68091B00180FF1C
:100ED00003C06AEC70E013C081FF03C061ED70E0F5
:100EE0000EC06091B1017091B201882777FD8095A5
:100EF000982F24E840ED51E0B6D060ED71E080E03D
:100F00008DCD0F931F93CF93DF93182FC0E0D0E0C8
:100F100007E00C9FB0010D9F700D112468577F4FA3
:100F200047E050E08BE691E048D680916B01811755
:100F300021F02196CE30D10561F7DF91CF911F913D
:100F40000F91089581E080936A01DBDF80916C014D
:100F500090916D01D6CDAF92BF92CF92DF92EF927A
:100F6000FF920F931F93CF93DF9300D000D01F9277
:100F7000CDB7DEB78DE790E080D400915E0110918F
:100F80005F0180917D0085FD106814991064D090F8
:100F90006A01E12CF12C35E0A32EAE9CB001AF9C90
:100FA000700D112466517F4F45E050E0CE0101964F
:100FB00004D689818D110FC02A813B8120233123E2
:100FC000232B49F0DC808D819FE0B92EB82220EFE1
:100FD000C22EC82207C08FEFE81AF80A84E2E8168A
:100FE000F104D9F680916A01D81629F1C0927801EE
:100FF000809170019091710184DDC6FE02C0DDDC3C
:1010000002C0C7FCCCDCD0926A018D2D7ADF8091C2
:101010006C0190916D0175DDBB20A9F0BB0CBB0C80
:10102000BB0CB0927F0010927E0080917D008160A9
:1010300080937D0008C084E791E01FD480916E0109
:1010400090916F015EDD0F900F900F900F900F90B9
:10105000DF91CF911F910F91FF90EF90DF90CF9094
:10106000BF90AF900895CF92DF92EF92FF920F93CF
:101070001F93CF93DF93122F2223C9F197FF09C04B
:1010800090958095709561957F4F8F4F9F4F01E0B0
:1010900001C000E017FF05C01F77EA01C10FD11D95
:1010A00004C0EA01C10FD11D18822AE0C22ED12C42
:1010B000E12CF12CA701960121D5605D6A93B9015D
:1010C000CA011150611571058105910519F01111C1
:1010D000F1CF08C0112331F0002321F021978DE2D8
:1010E0008883115080E201C08A931150E8F7DF91A4
:1010F000CF911F910F91FF90EF90DF90CF900895C7
:10110000FB01242FBC0180E090E0AF01ACCF2CE0CC
:1011100049E751E0A8DF89E791E0D2C446E069E7FA
:1011200071E0EEDF89E791E0CBC412BA8EE381BBB8
:1011300018BA8FE387BB15BA8FE184BB85E083BF04
:1011400012BE81E088BF8CE085BD89EF83BD81E858
:1011500089BF1FBC8BE08EBD8FE790E09BBD8ABD31
:1011600088E088B985EC87B98FE886B982E08BB9C9
:1011700088E18AB986E880BD10BC82E289B910B8DE
:1011800012B8CEDAC82F68D826DC449A7894CC23DB
:10119000A9F068ED70E080E041DC4C2F405D61E03B
:1011A00085E0D9DB84E590E070D42FEF83ED90E308
:1011B000215080409040E1F700C000008EED90E0AB
:1011C0007FD48091B30190E0A9DF8091B501909127
:1011D000B601A4DF8091B40190E0A0DF8091B70157
:1011E0009091B8019BDF8EED90E06AD42FEF81EEF5
:1011F00094E0215080409040E1F700C000002FD2E1
:10120000882369F061EE70E080E008DC2FEF83ED69
:1012100090E3215080409040E1F700C0000092DE52
:1012200088E690E032D481E098D1809189008F7B6C
:10123000809389002EE088E190E00FB6F894A8959D
:1012400081BD0FBE21BDCAEDD1E08091890086FF2E
:10125000FCCFA895C6D880915E0190915F01882748
:101260009272892B19F080E690E006C080915D01B2
:10127000817E19F084E690E008D480915D018111AF
:1012800079D327D3139B03C080E490E0FED331D8F9
:1012900010996DD860DEFDD8CCD98ED9D6D9159BE2
:1012A00036C08091B1019091B20138DF8091AE01DA
:1012B0009091AF0133DF8091AC019091AD012EDFB1
:1012C0008EEB90E0FDD38881998128DF8A819B8114
:1012D00025DF6C817D81882777FD8095982F17DF2A
:1012E00068857985882777FD8095982F10DF6E8136
:1012F0007F81882777FD8095982F09DF8EEB90E01E
:10130000DFD38A859B850ADF8EED90E0D9D3F894F0
:10131000809189008F7B80938900789496CF823367
:1013200008F482E38F502CE0829FC0011124909337
:101330008E0180938D0108954F925F926F927F92FC
:101340009F92AF92BF92CF92DF92EF92FF920F9354
:101350001F93CF93DF935C017B01942E9C01261B8E
:10136000370B2D3581E038075CF4243A8EEF3807CF
:1013700054F08BE2829F8001839F100D112405C0E1
:1013800008E91AE302C008E615EC92FC1FC083E2EC
:10139000829FA001839F500D1124662757FD609501
:1013A000762F80918F0190919001A0919101B09141
:1013B0009201840F951FA61FB71F80938F019093F2
:1013C0009001A0939101B093920108C010928F01F7
:1013D0001092900110929101109292012D3581E0AE
:1013E000380764F437FD0EC0ACE5B1E0A21BB30BC7
:1013F00020918D0130918E01AED308C060E070E085
:10140000CB0104C060E271EA87E090E040908F0178
:101410005090900160909101709092016415750553
:10142000860597054CF460938F017093900180932B
:101430009101909392010AC077FE08C010928F012B
:1014400010929001109291011092920160918F017F
:1014500070919001809191019091920124E630E089
:1014600040E050E04BD36901809193019091940149
:101470008E199F098830910574F4893F2FEF9207E8
:101480006CF020E931E0829FE001839FD00D929FB4
:10149000D00D112405C0C8EBDBE002C0C8E4D4EFD6
:1014A000F0929401E092930190FE21C0B801882748
:1014B00077FD8095982F2601662457FC6094762C42
:1014C000640D751D861D971D2E01662457FC6094C2
:1014D000762C640D751D861D971D24E130E040E0DB
:1014E00050E00CD3253F81E0380744F402C020E0EF
:1014F00030E037FF05C020E030E002C024EF31E0EB
:10150000EAEDF1E0B182A082F382E28215830483E6
:10151000D782C682D187C08722873387C901DF91EE
:10152000CF911F910F91FF90EF90DF90CF90BF90E0
:10153000AF909F907F906F905F904F900895F89438
:101540009C01253F81E0380710F024EF31E0309313
:101550009801209397017894089590E899BF80931B
:1015600099019FED9093810080FF09C080919A01BD
:1015700090919B0190939D0180939C010AC081FFF3
:1015800008C080919A0190919B0190939F01809354
:101590009E0181E889BF089590E899BF90919601D6
:1015A0009B7F90939601882371F080919A0190918E
:1015B0009B0190939D0180939C0190939F01809348
:1015C0009E011092950181E889BF089590E899BF26
:1015D00080959091960198239093960181E889BF18
:1015E000089580E889BF80919E0190919F0120918C
:1015F0009A0130919B01821B930B892F809591E872
:1016000099BF881F8827881F089580E889BF809127
:101610009A0190919B0120919C0130919D01821B28
:10162000930B892F809591E899BF881F8827881F81
:10163000089580E889BFD5DF882359F0E6DF882345
:1016400041F08091960184608093960181E08093BF
:10165000950181E889BF809196018470089581E0A9
:10166000909182009F3009F080E008951F920F92C0
:101670000FB60F9211242F933F934F935F938F9345
:101680009F9343984091A0015091A101443F81E074
:10169000580730F082B3806382BB2CE03EEF03C07A
:1016A000959820E030E08091970190919801840F07
:1016B000951F820F931F9093A1018093A00186EF45
:1016C00082BF81E088BF80918200807F80588093B4
:1016D00082009F918F915F914F913F912F910F9039
:1016E0000FBE0F901F9018951F920F920FB60F927A
:1016F00011242F933F934F935F936F937F938F9317
:101700009F93AF93BF93EF93FF93809182008F706D
:10171000813049F028F0823049F0833069F40BC001
:1017200094988CEB01C081ED82BF06C082EC82BF31
:1017300088E188B901C030D8809182008F788138E3
:1017400009F081C082B3837F9091960193FF05C019
:10175000977F9093960182BB76C090FF02C0846011
:1017600002C091FD886082BB40919601842F8770F2
:10177000853019F08630E9F51DC080919E01909169
:101780009F0120919A0130919B01821B930B1816A7
:1017900019067CF1809195019091BA01891728F082
:1017A0004B7F40614093960124C08F5F80939501E9
:1017B00082E01DC080919A0190919B0120919C0133
:1017C00030919D01821B930B1816190694F080919D
:1017D00095019091BA01891730F0842F8B7F806139
:1017E0008093960106C08F5F8093950181E080937E
:1017F00099012091960190919901892F82278370F8
:1018000019F0286220939601809196018C7F892B94
:10181000909181008923809396019FEF909381009E
:1018200080FF06C080919A0190919B01019607C0AC
:1018300081FF09C080919A0190919B01019790933B
:101840009B0180939A0180918200982F9F709F3016
:1018500019F08F5F80938200FF91EF91BF91AF915C
:101860009F918F917F916F915F914F913F912F91B8
:101870000F900FBE0F901F901895FC01908190FF64
:1018800027C0977E9F7D908381812281821750F0AF
:1018900091FF02C09E7F90839081906290649083BC
:1018A00020E002C0282F2F5F938189130BC0808115
:1018B0008860806182FB992790F931E0932790FB43
:1018C00082F904C0891718F08081806180832183A8
:1018D000089512B880918300815080938300811114
:1018E0000FC084E080938300109A8091880081501B
:1018F00080938800811104C084E180938800169A47
:1019000080918700815019F08093870004C082E0A5
:1019100080938700159A8091840081508093840081
:10192000811127C088EC80938400119A80918500F2
:1019300081508093850081111CC086E080938500D2
:10194000129A809186008E3519F08F5F8093860001
:1019500040918600242F30E08091BC0190E00197F7
:101960002817390709F4139A8091BC01481301C064
:10197000149A08951092860008951F920F920FB640
:101980000F9211242F933F934F935F936F937F9305
:101990008F939F93AF93BF93EF93FF937DD7209146
:1019A000A201223099F120F4213009F050C00FC07B
:1019B000233021F0253009F04AC015C08091A301E1
:1019C0009091A4019093A6018093A50144C08091B9
:1019D000A7019091A80101979093A8018093A70176
:1019E000892BC9F13BC0E1993BC06091A501709181
:1019F000A601CB0102969093A6018093A50142E037
:101A000050E089EA91E0E2D022E028C08091AA016A
:101A1000882319F18091A901882349F090E001976A
:101A20009BBD8ABD1DBC1CBC8FB5806402C08FB538
:101A30008F738FBD8091AA012AE0829FC00111247B
:101A400002979093A8018093A70121E007C08FB56A
:101A50008F738FBD03C025E001C020E02093A20159
:101A600089E890E00ADF369AFF91EF91BF91AF913C
:101A70009F918F917F916F915F914F913F912F91A6
:101A80000F900FBE0F901F9018952091BB01211150
:101A900004C02091AB01222349F09093A4018093CC
:101AA000A30183E08093A2011092AB01089581E02D
:101AB0008093AB0108955E9A8CB95E9BFECF08952A
:101AC0001F93CF93DF93EC0110E002C01F5FF3DFA1
:101AD000FE01E10FF11D80818111F8CFDF91CF91DF
:101AE0001F910895991B79E004C0991F961708F07B
:101AF000961B881F7A95C9F780950895052E97FB48
:101B000016F4009406D057FD0CD035D007FC09D050
:101B10007EF490958095709561957F4F8F4F9F4F84
:101B2000089550954095309521953F4F4F4F5F4F09
:101B3000089505D0332312F48A1B9B0B0DC0A29F7E
:101B4000B001B39FC001A39F01D0B29F700D811D52
:101B50001124911D0895F3DFB7FF0895821B930BA5
:101B60000895EDDFA59F900DB49F900DA49F800D6B
:101B7000911D11240895A1E21A2EAA1BBB1BFD0181
:101B80000DC0AA1FBB1FEE1FFF1FA217B307E4075C
:101B9000F50720F0A21BB30BE40BF50B661F771FB4
:101BA000881F991F1A9469F7609570958095909594
:101BB0009B01AC01BD01CF010895FB01DC0102C016
:101BC00005900D9241505040D8F70895DC01CB01AB
:101BD000FC01E199FECF06C0FFBBEEBBE09A319657
:101BE0000DB20D9241505040B8F70895E199FECFE3
:101BF0009FBB8EBBE09A99278DB30895DC01A40F9B
:101C0000B51F4150504040F0CB01840F951F2E91DD
:101C100005D041505040D8F70895262FE199FECFC6
:101C20009FBB8EBBE09A01970DB2021631F02DBB1F
:101C30000FB6F894E29AE19A0FBE0895F894FFCF98
:101C400014F6030B15212C3741494F5354534F4978
:101C500041372C21150B0220FF1F05FF7F020000DA
:101C600000FF0F01C806000114010032000A0D41F7
:101C7000432073796E63206C6F7374000A0D547582
:101C8000726E204F4646002020204F4646002044DA
:101C90004F4E45200050322020202000503120207F
:101CA00020200020554E52454700455252203031E9
:101CB00000455252203032004552522045000A0D54
:081CC00000455252204143008F
:00000001FF
