S00C0000706964312E73726563AA
S113000093C0ADC0ACC017CCAAC0A9C0A8C0A7C03B
S1130010A6C0A8CAA4C0A3C0A2C0A1C0B5C19FC0A5
S11300207FCA9DC09CC0016A0887066707036407EE
S11300301608F705021308AE075C07054A076907A7
S113004000000BFD0569070B06044A07360600008D
S11300500CFD0536060B06065207FB06000009FDDB
S113006005FB060B06075207B20600000AFD05B29F
S1130070060B06082906140600000D1C06140600CB
S1130080000E44071806110601060003A80100012A
S113009002400100020528020001018003008301DF
S11300A0400500820100050400046805020007A859
S11300B00500010B280B00830528040082010004BD
S11300C00400066804020005A80400010C280C00C2
S11300D08304280600820100060400076806020063
S11300E004A80600010900070082010007040005B6
S11300F06807020006A80700010A00090002062892
S1130100090001081408008301000A000207280AF4
S113011000010D140D008301000100400E000200D7
S1130120400E000E7601010011241FBECFE5D4E07D
S1130130DEBFCDBF10E0A0E6B0E0ECE0FAE102C023
S113014005900D92A03CB107D9F721E0A0ECB0E0F6
S113015001C01D92A536B207E1F7CDD855CC50CFDA
S11301600F931F932091C0003091C1004091C200B1
S11301705091C300DC012EDC0091C4001091C50035
S11301802091C6003091C700600F711F821F931F1A
S113019028EE33E040E050E0F0DBC9011F910F91FD
S11301A008950F931F939C012F5F3F4FA8EEB3E078
S11301B0FFDB0091C4001091C5002091C60030916E
S11301C0C700601B710B820B930B2091C000309110
S11301D0C1004091C2005091C300CFDBC9011F91FF
S11301E00F9108958F929F92AF92BF92CF92DF9218
S11301F0EF92FF92CF93DF93F0903101A0915101E0
S1130200B0E0AF19B109C0914901D0914A0128EE7B
S113021033E0DADB20914D0130914E012C1B3D0B74
S113022040E050E0AADB49015A012093C00030931A
S1130230C1004093C2005093C3002F2D30E0A8EEBC
S1130240B3E0B6DB6B017C01DE01A5019401C2DBE6
S1130250C61AD70AE80AF90AC092C400D092C500A7
S1130260E092C600F092C700DF91CF91FF90EF902B
S1130270DF90CF90BF90AF909F908F900895CF92D2
S1130280DF92EF92FF924398C0906300D090640095
S1130290E0906500F09066002091600030E040E05E
S11302A050E0C701B60147DB30932E0120932D01A6
S11302B082E0F694E794D794C7948A95D1F7D092C4
S11302C00401C0920301439AFF90EF90DF90CF9016
S11302D0089580912D0190912E0142DF9093300179
S11302E080932F010895FF920F931F93CF93DF9371
S11302F0FC01CB012085211118C027814181328165
S1130300A42FB32FA20FB11DA20FB11D2D913C91AB
S11303104381548165817681421B530B61097109C4
S1130320438354836583768305C0178213821482C2
S113033015821682D181F280438154816581768150
S11303408C0120E030E0C781AD2FBF2DAC0FB11D73
S1130350AC0FB11D8D939C93CF5FC783400F511F8A
S1130360621F731FA081CA1302C017821086A08562
S1130370A111E9CF4383548365837683DF91CF91C1
S11303801F910F91FF9008951F920F920FB60F9235
S113039011242F933F934F935F936F937F938F9386
S11303A09F93AF93BF93EF93FF9384B195B160E0B4
S11303B074E0681B790B80E690E095DFFF91EF9184
S11303C0BF91AF919F918F917F916F915F914F9169
S11303D03F912F910F900FBE0F901F901895FC0125
S11303E0208130E040E050E0638174818581968112
S11303F0A2DAC90108955091CE003091690090911C
S113040064019093CE00692F609560936900809198
S1130410CF008C3010F02FEF01C020E0591719F0F5
S11304201092CF0005C08D3018F48F5F8093CF00F9
S11304307091CF007C3011F44FEF01C040E0892F60
S113044083238093CB00773008F03FEF3923309338
S1130450CA002095562325232093C900492340939D
S1130460C800877F90E020FF01C091609093CD0089
S11304708093CC0040FF09C08091CC009091CD00C6
S113048092609093CD008093CC0031FF09C080919D
S1130490CC009091CD0094609093CD008093CC00DB
S11304A032FF09C08091CC009091CD009860909368
S11304B0CD008093CC000895CF938091FC0080FF01
S11304C00FC081E0D9D780912F0190913001C3975B
S11304D008F05FC081E08093D00080E0ACD759C0C1
S11304E08091CB0084FF04C081E0A5D7C1E013C094
S11304F085FF04C082E09FD7C2E00DC08091C80090
S113050087FF04C081E0B8D7C8E005C08091D0005F
S1130510811191D7C0E01092D0008091C90087FF6B
S11305200EC08091EE0082FF04C080E0A5D7C062B7
S113053006C0DED7882311F0C06101C0C064809179
S1130540EE0085FF04C08F7D8093EE00C46080912F
S1130550EE0084FF04C08F7E8093EE00C068C7FF66
S113056006C088EE93E01BD988EC90E011C0C6FF6A
S113057003C084EF91E009C0C3FF03C080E293E0AD
S113058004C0C77331F088EE93E009D982E390E0A8
S113059026D980E3E2D28091EE0080FF02C080E1A0
S11305A003C081FF03C080E2CF91D1C2CF910895EF
S11305B00F931F93CF93DF93861B970B8531910580
S11305C05CF48C3E2FEF920754F02FE0289FE0015B
S11305D0299FD00D112405C0C8EED3E002C0C8E1A4
S11305E0DCEF2091D5003091D600181619060CF0D6
S11305F00FC0820F931F8B3091051CF08AE090E0AE
S113060002C097FD05C09093D6008093D50004C026
S11306101092D6001092D5008091D5009091D6000A
S11306202FE0289F8001299F100D112480916D00D7
S113063090916E009093D8008093D7008AE690E062
S113064052DE8091D7009091D80020916D003091B6
S11306506E00821B930B40E5489F9001499F300D2B
S11306601124CE01800F911F820F931F65E070E06B
S11306704FD9CB0177FF02C080E090E0833391052E
S113068014F082E390E0D0933601C09335013093A7
S113069048012093470110933D0100933C0190933E
S11306A0330180933201DF91CF911F910F9108950F
S11306B08091CC0086FF07C08091F00091E08927EB
S11306C08093F000ABD68091FC0080FF05C0809140
S11306D0F0008E7F8093F0008091F00087FF18C0B7
S11306E08091390190913A015CDD9093D20080931E
S11306F0D10060910101709102015ADF8093D3000F
S11307001092D4009091F00090FD01C080E078D662
S11307108091F00080FF0FC080E419D280913901EC
S1130720809334018091D1009091D2009093500134
S113073080934F0108C0109234011092500110921E
S11307404F0180E40AD2809101019091020108DDF9
S113075080934C01809101019091020190933801A2
S113076080933701089580912F0190913001209159
S1130770390130913A01E09173004E2F50E0B901F4
S1130780641B750B6817790798F4240F351F8217BB
S1130790930770F4E53051F48091F00080FF06C0B7
S11307A088EE93E0FCD780E991E019D88AE001C093
S11307B085E0809373000895CF93DF93CDB7DEB7C0
S11307C02A970FB6F894DEBF0FBECDBF4AE050E0C3
S11307D060E070E0CE01019607D9898180933901E8
S11307E010923A018A8180933E018B8180933B0170
S11307F08C8180934B018D81809331018E81809314
S113080051018F81988590934A018093490189858C
S11308109A8590934E0180934D012A960FB6F894D1
S1130820DEBF0FBECDBFDF91CF9108950895883309
S113083009F454C018F5813309F46EC090F48D3274
S113084009F452C038F4803209F452C08C3209F0F1
S113085064C048C08E3209F445C0803309F05DC0DD
S11308602FC0843399F130F4823361F1833309F07A
S113087054C02AC0863371F178F52AC08E3409F445
S113088041C078F48334D1F130F4893349F18134AF
S113089009F043C031C08534D9F1B0F18634E9F5AB
S11308A02FC08235B9F128F48F3451F08035A9F581
S11308B02DC08F35D9F0803BE9F0833571F508C040
S11308C08FE308958BE508958FE4089586E60895EF
S11308D08DE608958DE7089587E008958FE70895DC
S11308E08FE6089580E8089580E4089588E00895E7
S11308F080E0089583E6089587E7089589E30895DD
S113090081E7089584E508958EE5089583E70895C1
S113091089E7089580E5089586E00895282F87FDE6
S113092081958E3018F06EE0D3D7892F27FF05C04C
S1130930882319F09EE0981B892F0895CF9381E0B6
S113094013D1C091DA00CC2319F0C630D1F511C00F
S113095037D128D185E38A95F1F7000038D129D120
S113096080E002D1809153018093D900C091DA00D4
S113097028C080915401811101C01BC08BED90E00F
S1130980E2D68091DB0085FF14C0809153019091E1
S11309905501891303C0109254010BC09091540166
S11309A0923049F48D3010F48F5F01C080E0809361
S11309B05301C0E007C0882311F08150F8CF8DE0C7
S11309C0F6CFCF5F8091DA00863021F48091520116
S11309D0DBD010C0E091D900F0E0EA5AFE4F8081EC
S11309E0D3D08091D9008D3010F48F5F01C080E0A6
S11309F08093D900C093DA00CF9108950F931F9389
S1130A00CF93DF931F92CDB7DEB7182F842F69835E
S1130A100EDF082F80915501810F80DF69810AC0A4
S1130A20E82FF0E0EA5AFE4F00838D3010F48F5F18
S1130A3001C080E06150A0F70F90DF91CF911F912A
S1130A400F91089540E262E08EEFD8DF8091550166
S1130A50885064DF8093550181E0809354010895A8
S1130A6040E262E086E0CADF80915501885F56DF8C
S1130A708093550182E0809354010895CF93A0D0D0
S1130A80C7E081E071D0C150E1F793D010925301D7
S1130A90109255011092D9001092DA00109252016E
S1130AA040E26EE080E0AADF109254018091DB0006
S1130AB081608D7F8093DB0089E08093DD00CF919E
S1130AC00895FF920F931F93CF93DF93EB019091BF
S1130AD05501890F23DF182FF82E02E023C0A7DE6B
S1130AE0803811F4016001C00E7F013049F4EF2D0C
S1130AF0F0E0EA5AFE4F9081982B9083812F0BC02F
S1130B00E12FF0E0EA5AFE4F80831D3018F4812F64
S1130B108F5F01C080E000FF02C003E001C000E07D
S1130B20F12E182F89918111DACFDF91CF911F9186
S1130B300F91FF90089590915501890FEFDEE82FF2
S1130B40F0E0EA5AFE4F8081806880830895909196
S1130B505201982B909352010895909152018095DF
S1130B608923809352010895882311F0C09A01C00B
S1130B70C0988AE18A95F1F700C0C29A8AE18A9501
S1130B80F1F700C0C298089525B3982F9F71207E75
S1130B90922B95BB98B3869586958873977C892B01
S1130BA088BB089585B38F6185BB88B3886388BB90
S1130BB0089584B38F6184BB87B3886387BB08952A
S1130BC084B3807E84BB87B3877C87BB089586B358
S1130BD0887393B3880F880F9F71892B80958093B6
S1130BE064010895009711F0FC0109940895E7EE5B
S1130BF0F0E080818E7F808308951092E80087E082
S1130C008093E90084E08093EA00E7EEF0E08081DD
S1130C10816080830895E7EEF0E080818E7F808399
S1130C2008951092FC00089568EA70E080E049CFCE
S1130C306FEA70E080E045CF80912D0190912E0104
S1130C4090934E0180934D018091EC00809351016B
S1130C50C9CA80912D0190912E0190934A018093ED
S1130C6049018091EB0080933101BCCACF93DF939B
S1130C70CDB7DEB727970FB6F894DEBF0FBECDBF52
S1130C8087E0EEE7F0E0DE01119601900D928A957F
S1130C90E1F78091CC009091CD009C0122703470DA
S1130CA0232B31F080914B018F3568F48B5F09C0A1
S1130CB084709870892B49F080914B01863018F02C
S1130CC0855080934B01109275008091E70084FF5A
S1130CD010C080914B018F3541F020E242E8BE0103
S1130CE06B5F7F4F90E0B6D204C08EE48D838FE4B7
S1130CF08E83BE016F5F7F4F80E0E3DE27960FB6E1
S1130D00F894DEBF0FBECDBFDF91CF910895CF938E
S1130D10DF93CDB7DEB727970FB6F894DEBF0FBECB
S1130D20CDBF87E0E5E8F0E0DE01119601900D9279
S1130D308A95E1F720E244E8BE016F5F7F4F80911E
S1130D402F019091300186D2BE016F5F7F4F80E00A
S1130D50B8DE27960FB6F894DEBF0FBECDBFDF9185
S1130D60CF910895CF93DF93CDB7DEB727970FB612
S1130D70F894DEBF0FBECDBF87E0ECE8F0E0DE0103
S1130D80119601900D928A95E1F78091CC00909193
S1130D90CD009C0122703470232B31F08091EC0043
S1130DA08A3F68F48F5F09C084709870892B39F08A
S1130DB08091EC008B3018F081508093EC0080918E
S1130DC0E70084FF09C020E243E8BE016C5F7F4F67
S1130DD08091EC0090E03ED2BE016F5F7F4F80E0D7
S1130DE070DE09D527960FB6F894DEBF0FBECDBFCF
S1130DF0DF91CF910895CF93DF93CDB7DEB72797D7
S1130E000FB6F894DEBF0FBECDBF87E0E3E9F0E094
S1130E10DE01119601900D928A95E1F78091CC0044
S1130E209091CD009C0122703470232B31F080917D
S1130E30EB008A3F68F48F5F09C084709870892B37
S1130E4039F08091EB008B3018F081508093EB00E7
S1130E508091E70084FF09C020E243E8BE016C5F93
S1130E607F4F8091EB0090E0F5D1BE016F5F7F4F23
S1130E7080E027DEC0D427960FB6F894DEBF0FBEFD
S1130E80CDBFDF91CF91089583E067DE81E0809349
S1130E90FC00089583E061DEE7EEF0E0808180618C
S1130EA080830895F7DF809131018093EB00809176
S1130EB051018093EC00089582E04FDEE7EEF0E00C
S1130EC080818E7F8083089581E047DE96CE81E025
S1130ED044CECF93DF93CDB7DEB727970FB6F89400
S1130EE0DEBF0FBECDBF87E0EAE9F0E0DE01119678
S1130EF001900D928A95E1F78091CC009091CD00FC
S1130F0086709927892B49F081E090913B019111DA
S1130F1080E080933B01109275008091E70084FF8C
S1130F200DC080913B01882321F08FE48D838EE4F2
S1130F3004C08FE48C8386E48D838E83BE016F5F4F
S1130F407F4F80E0BEDD82E0F6DD27960FB6F89491
S1130F50DEBF0FBECDBFDF91CF910895CF93DF9356
S1130F60CDB7DEB727970FB6F894DEBF0FBECDBF5F
S1130F7087E0E1EAF0E0DE01119601900D928A9596
S1130F80E1F78091CC009091CD009C0122703470E7
S1130F9040913E01232B21F0433658F44F5F07C0A4
S1130FA084709870892B29F0423018F04150409396
S1130FB03E0120E242E8BE016B5F7F4F80913E011B
S1130FC090E048D18091EE0082FF04C08091E70058
S1130FD084FF09C020E242E8BE016E5F7F4F80912A
S1130FE0ED0090E037D1198263D2882319F089810A
S1130FF0816089836DD2882319F08981886089830F
S11310008981811102C080E28983BE016F5F7F4FB5
S113101080E057DD27960FB6F894DEBF0FBECDBF34
S1131020DF91CF91089582E092DDE7CDCF93DF93F6
S1131030CDB7DEB727970FB6F894DEBF0FBECDBF8E
S113104087E0E5E8F0E0DE01119601900D928A95C3
S1131050E1F72091CC003091CD00A9014270547089
S11310608091390190913A01452B29F0823D9105F7
S113107070F4059608C024703870232B51F08F311A
S1131080910528F0059790933A01809339011092C5
S1131090750020E244E8BE016F5F7F4F8091390103
S11310A090913A01D7D0BE016F5F7F4F80E009DD98
S11310B08091E70084FF03C081E049DD02C081E044
S11310C04CDD27960FB6F894DEBF0FBECDBFDF917F
S11310D0CF91089581E03BCD1F93CF93DF93C0E080
S11310E0D0E017E01C9F90011D9F300D11242A5D54
S11310F03F4FF90194913196A591B491F90133963A
S1131100659174912B5F3F4FF90145915491981368
S113111003C08093E00006C02196CE30D10511F7BC
S11311209093E000A093E100B093E2006093E300A9
S11311307093E4004093E5005093E600DF91CF9173
S11311401F91089581E08093DF00C6DF8091E10064
S11311509091E20047CDFF920F931F93CF93DF93BB
S113116084E790E0F0D24091CC005091CD00809182
S1131170740085FD50689091FB0080914B01981795
S113118008F050648091DF0060E070E095E0969F85
S11311909001979F300D112428573F4FF901149166
S11311A03196A591B491F9013396D491F90134960D
S11311B0249118130EC0A423B523AB2B51F0C22FD6
S11311C0CF7326FB002700F9F22EFF1CFF24FF1C1F
S11311D006C06F5F7F4F60327105C9F6D82F10E0EB
S11311E0F0FA10F900FB11F9D81709F18091E50024
S11311F09091E600F7DC11FF02C032DC02C010FD62
S113120021DCD093DF008D2F67DF8091E100909186
S1131210E200E8DCCC23C1F0CC0FC093760010923E
S11312207500809174008160809374000DC087EE16
S113123090E089D28091E3009091E400DF91CF9116
S11312401F910F91FF90CECCDF91CF911F910F9101
S1131250FF900895CF93DF9347FF05C04F77FB01BD
S1131260E40FF11D04C0FB01E40FF11D1082CAE07C
S1131270D0E0BE0139D3805D8293CB014150009709
S113128021F04111F6CF01C022934150E8F7DF91DC
S1131290CF91089580EC82BB8EE381BB18BA8FE3B3
S11312A087BB15BA8FE184BB85E083BF12BE88B7C4
S11312B0816088BF89B7816089BF8CE085BD89EF73
S11312C083BD89B7806889BF1FBC8BE08EBD8FE763
S11312D090E09BBD8ABD88E088B985EC87B98FE82A
S11312E086B982E08BB988E18AB986E880BD10BCF2
S11312F082E289B90895CF93DF93CDB7DEB72B97F8
S11313000FB6F894DEBF0FBECDBF1B86C3DF54DA21
S113131069D7B4DB449A78942FEF80E792E02150A8
S113132080409040E1F700C00000809178008F3049
S113133069F466EB70E080E0C4DB2FEF83ED90E3AB
S1131340215080409040E1F700C00000FBDE88EEB1
S113135093E025D288EC90E042D260D02FEF81EE6A
S113136094E0215080409040E1F700C0000081E00B
S113137062D080917A008F7B80937A0010E0809114
S11313807A0086FFFCCF7BD7111102C0A2D714E0EC
S1131390115031D88091CC009091CD0091FF03C0C1
S11313A080E293E006C08091CB00877431F088EE30
S11313B093E0F5D188E290E012D28091CB008111C4
S11313C01AD220D2C8DE78D873D9CDD980917A00C8
S11313D082FF10C020E246E0BE016F5F7F4F809124
S11313E003019091040136DFCE0101965FD28DEBAB
S11313F090E05CD280917A008F7B80937A00BFCF9B
S113140099B79E7F99BF8093F1008091F0008F7708
S11314108093F00089B7816089BF089589B78E7F72
S113142089BF8CE28093F20083E08093EF0089B758
S1131430816089BF089599B79E7F99BF8093F30017
S11314409FED9093790080FF09C08091F400909102
S1131450F5009093F7008093F6000AC081FF08C05E
S11314608091F4009091F5009093F9008093F80036
S113147089B7816089BF089599B79E7F99BF90917C
S1131480EE009B7F9093EE00882371F08091F4002E
S11314909091F5009093F7008093F6009093F900F3
S11314A08093F8001092ED0089B7816089BF089598
S11314B08091F8009091F9002091F4003091F500AA
S11314C0821B930B892F8095881F8827881F089576
S11314D08091F4009091F5002091F6003091F7008E
S11314E0821B930B892F8095881F8827881F089556
S11314F089B78E7F89BFDCDF882359F0E9DF882331
S113150041F08091EE0084608093EE0081E080934E
S1131510ED0089B7816089BF8091EE0084700895E1
S11315201F920F920FB60F9211248F939F9343989B
S11315309091F2008091FA00981720F482B38063AE
S113154082BB01C0959886EF82BF80917800807F2E
S11315508058809378009F918F910F900FBE0F90C9
S11315601F9018951F920F920FB60F9211242F936C
S11315703F934F935F936F937F938F939F93AF9317
S1131580BF93EF93FF93809178008F70813049F07F
S113159028F0823049F0833069F40BC094988CEBC6
S11315A001C082EC82BF06C080EE82BF449A439A97
S11315B001C03CD9809178008F78813809F0A9C0A6
S11315C082B3837F9091EE0093FF05C0977F909341
S11315D0EE0082BB76C090FF02C0846002C091FD21
S11315E0886082BB4091EE00842F8770853019F0AB
S11315F08630E9F51DC08091F8009091F9002091A2
S1131600F4003091F500821B930B181619067CF137
S11316108091ED0090913E01891728F04B7F406145
S11316204093EE0024C08F5F8093ED0082E01DC0E4
S11316308091F4009091F5002091F6003091F7002C
S1131640821B930B1816190694F08091ED0090916B
S11316503E01891730F0842F8B7F80618093EE00E8
S113166006C08F5F8093ED0081E08093F3002091AA
S1131670EE009091F300892F8227837019F028627D
S11316802093EE008091EE008C7F892B909179005D
S113169089238093EE009FEF9093790080FF06C02A
S11316A08091F4009091F500019607C081FF09C074
S11316B08091F4009091F50001979093F500809348
S11316C0F4008091F2008C32B1F48091EF00833009
S11316D079F41092EF008091F00080688093F0001C
S11316E080E690E07CD6909302018093010103C0D0
S11316F08F5F8093EF008091F200813339F4109270
S1131700F2008091F1008093FA0003C08F5F809310
S1131710F20080917800982F9F709F3019F08F5FAE
S113172080937800FF91EF91BF91AF919F918F913A
S11317307F916F915F914F913F912F910F900FBEC9
S11317400F901F901895FC01908190FF27C0977E01
S11317509F7D908381812281821750F091FF02C086
S11317609E7F9083908190629064908320E002C079
S1131770282F2F5F938189130BC08081886080613B
S113178082FB992790F931E0932790FB82F904C0FA
S1131790891718F0808180618083218308959C01DA
S11317A040E050E060E472E48FE090E0E6D0DA01DB
S11317B0C901887FAA27BB27892B51F043E03695BE
S11317C027954A95E1F7215031093BBD2ABD04C054
S11317D081E090E09BBD8ABD1DBC1CBC0895209196
S11317E03B01222339F09093FE008093FD008FB5D6
S11317F080648FBD0895109200011092FF00109232
S1131800FB0008958091FF009091000183369105BB
S113181061F4109200011092FF008091FB008E355C
S113182049F08F5F8093FB00089501969093000127
S11318308093FF0008951F920F920FB60F92112408
S11318402F933F934F935F936F937F938F939F93C4
S1131850AF93BF93EF93FF938091FD009091FE00AF
S1131860009731F001979093FE008093FD0003C030
S11318708FB58F738FBD62D88AE790E064DF369AA4
S1131880FF91EF91BF91AF919F918F917F916F9154
S11318905F914F913F912F910F900FBE0F901F902A
S11318A018955E9A8CB95E9BFECF08951F93CF93D3
S11318B0DF93EC0110E002C01F5FF3DFFE01E10FD4
S11318C0F11D80818111F8CFDF91CF911F9108958F
S11318D0991B79E004C0991F961708F0961B881F7E
S11318E07A95C9F780950895AA1BBB1B51E107C0DF
S11318F0AA1FBB1FA617B70710F0A61BB70B881F9C
S1131900991F5A95A9F780959095BC01CD0108952A
S113191097FB072E16F4009406D077FD08D0E4DF79
S113192007FC05D03EF4909581959F4F08957095DE
S113193061957F4F0895A1E21A2EAA1BBB1BFD01DE
S11319400DC0AA1FBB1FEE1FFF1FA217B307E4079A
S1131950F50720F0A21BB30BE40BF50B661F771FF2
S1131960881F991F1A9469F76095709580959095D2
S11319709B01AC01BD01CF010895052E97FB16F420
S1131980009406D057FD0CD0D6DF07FC09D07EF4B6
S113199090958095709561957F4F8F4F9F4F0895D7
S11319A050954095309521953F4F4F4F5F4F089587
S11319B0A29FB001B39FC001A39F01D0B29F700D3D
S11319C0811D1124911D0895F3DFB7FF0895821B33
S11319D0930B0895EDDFA59F900DB49F900DA49FE8
S11319E0800D911D11240895DC01CB01FC01E199C6
S11319F0FECF06C0FFBBEEBBE09A31960DB20D924E
S10F1A0041505040B8F70895F894FFCF0F
S1131A0C140501000000000001FF043F0100000068
S1131A1C00000105020000000FFF010032004F46D8
S1131A2C462020200020202020B0430050322020CB
S1131A3C20200050312020202000534E4420202010
S1131A4C002020202020200020444F4E4520002040
S1131A5C20204F464600414320455252000A0D00B7
S9030000FC
