:1000000093C0ADC0ACC07BCCAAC0A9C0A8C0A7C0DB
:10001000A6C0CBCAA4C0A3C0A2C0A1C0B5C19FC086
:100020009FCA9DC09CC0018B08A1068B070388074F
:100030003C080606023908D2078007056E078D07BF
:1000400000000B0C068D071A06046E075006000010
:100050000C0C0650061A060676071A070000090C53
:10006000061A072306077607CC0600000A0C06CC02
:100070000623060843062E0600000D36062E06004F
:10008000000E68073206200601060003A8010001E1
:1000900002400100020528020001018003008301E3
:1000A000400500820100050400046805020007A85D
:1000B0000500010B280B00830528040082010004C1
:1000C0000400066804020005A80400010C280C00C6
:1000D0008304280600820100060400076806020067
:1000E00004A80600010900070082010007040005BA
:1000F0006807020006A80700010A00090002062896
:10010000090001081408008301000A000207280AF8
:1001100000010D140D008301000100400E000200DB
:10012000400E000E7601010011241FBECFE5D4E081
:10013000DEBFCDBF10E0A0E6B0E0E4E1FBE102C02D
:1001400005900D92A83CB107D9F721E0A8ECB0E0EA
:1001500001C01D92AA36B207E1F7EAD8D9CC50CF38
:100160000F931F932091C8003091C9004091CA009D
:100170005091CB00DC0192DC0091CC001091CD00BD
:100180002091CE003091CF00600F711F821F931F0E
:1001900028EE33E040E050E054DCC9011F910F919C
:1001A00008950F931F939C012F5F3F4FA8EEB3E07C
:1001B00063DC0091CC001091CD002091CE003091F5
:1001C000CF00601B710B820B930B2091C800309104
:1001D000C9004091CA005091CB0033DCC9011F9186
:1001E0000F9108958F929F92AF92BF92CF92DF921C
:1001F000EF92FF92CF93DF93F0903B01A0913C01EF
:10020000B0E0AF19B109C0913D01D0913E0128EE97
:1002100033E03EDC20913F01309140012C1B3D0B2F
:1002200040E050E00EDC49015A012093C8003093B1
:10023000C9004093CA005093CB002F2D30E0A8EEA8
:10024000B3E01ADC6B017C01DE01A501940126DC20
:10025000C61AD70AE80AF90AC092CC00D092CD009B
:10026000E092CE00F092CF00DF91CF91FF90EF901F
:10027000DF90CF90BF90AF909F908F900895CF92D6
:10028000DF92EF92FF923398C0906300D0906400A9
:10029000E0906500F09066002091600030E040E062
:1002A00050E0C701B601ABDB30933401209333013A
:1002B00082E0F694E794D794C7948A95D1F7D092C8
:1002C0000A01C0920901339AFF90EF90DF90CF901E
:1002D0000895809133019091340142DF909336016B
:1002E000809335010895FF920F931F93CF93DF936F
:1002F000FC01CB012085211118C027814181328169
:10030000A42FB32FA20FB11DA20FB11D2D913C91AF
:100310004381548165817681421B530B61097109C8
:10032000438354836583768305C0178213821482C6
:1003300015821682D181F280438154816581768154
:100340008C0120E030E0C781AD2FBF2DAC0FB11D77
:10035000AC0FB11D8D939C93CF5FC783400F511F8E
:10036000621F731FA081CA1302C017821086A08566
:10037000A111E9CF4383548365837683DF91CF91C5
:100380001F910F91FF9008951F920F920FB60F9239
:1003900011242F933F934F935F936F937F938F938A
:1003A0009F93AF93BF93EF93FF9384B195B160E0B8
:1003B00074E0681B790B80E690E095DFFF91EF9188
:1003C000BF91AF919F918F917F916F915F914F916D
:1003D0003F912F910F900FBE0F901F901895FC0129
:1003E000208130E040E050E0638174818581968116
:1003F00006DBC90108955091D600309169009091B3
:1004000069019093D600692F60956093690080918F
:10041000D7008C3010F02FEF01C020E0591719F0F1
:100420001092D70005C08D3018F48F5F8093D700ED
:100430007091D7007C3011F44FEF01C040E0892F5C
:1004400083238093D300773008F03FEF3923309334
:10045000D2002095562325232093D1004923409391
:10046000D000877F90E020FF01C091609093D5007D
:100470008093D40040FF09C08091D4009091D500B2
:1004800092609093D5008093D40031FF09C0809191
:10049000D4009091D50094609093D5008093D400BF
:1004A00032FF09C08091D4009091D500986090935C
:1004B000D5008093D4000895CF938091D80080FF19
:1004C0000FC081E0F9D78091350190913601C39733
:1004D00008F05FC081E08093D90080E0CCD759C09C
:1004E0008091D30084FF04C081E0C5D7C1E013C070
:1004F00085FF04C082E0BFD7C2E00DC08091D0006C
:1005000087FF04C081E0D8D7C8E005C08091D9003A
:100510008111B1D7C0E01092D9008091D10087FF3E
:100520000EC08091F70082FF04C080E0C5D7C06292
:1005300006C0FED7882311F0C06101C0C06480915D
:10054000F70085FF04C08F7D8093F700C460809121
:10055000F70084FF04C08F7E8093F700C068C7FF58
:1005600006C088EE93E095D988EC90E011C0C6FFF4
:1005700003C084EF91E009C0C3FF03C080E293E0B1
:1005800004C0C77331F088EE93E083D982E390E032
:10059000A0D980E3F1D28091F70080FF02C080E112
:1005A00003C081FF03C080E2CF91E0C2CF910895E4
:1005B00080E690E014DF909308018093070108958E
:1005C0000F931F93CF93DF93861B970B8531910574
:1005D0005CF48C3E2FEF920754F02FE0289FE0014F
:1005E000299FD00D112405C0C8EED3E002C0C8E198
:1005F000DCEF2091DE003091DF00181619060CF0B8
:100600000FC0820F931F8B3091051CF08AE090E0A1
:1006100002C097FD05C09093DF008093DE0004C008
:100620001092DF001092DE008091DE009091DF00DA
:100630002FE0289F8001299F100D112480916D00CB
:1006400090916E009093E1008093E0008AE690E044
:100650004ADE8091E0009091E10020916D003091A0
:100660006E00821B930B40E5489F9001499F300D1F
:100670001124CE01800F911F820F931F65E070E05F
:10068000ABD9CB0177FF02C080E090E083339105C6
:1006900014F082E390E0D0934501C093440130937D
:1006A0005301209352011093490100934801909304
:1006B000420180934101DF91CF911F910F910895E5
:1006C0008091D40086FF07C08091F90091E08927CE
:1006D0008093F900C3D68091D80080FF05C0809137
:1006E000F9008E7F8093F9008091F90087FF17C091
:1006F0008091370190E055DD9093DB008093DA0024
:1007000060910701709108015BDF8093DC0010921B
:10071000DD009091F90090FD01C080E091D68091BC
:10072000F90080FF0FC080E421D2809137018093CF
:1007300043018091DA009091DB0090935601809301
:10074000550108C0109243011092560110925501B4
:1007500080E412D2809107019091080101DD80931D
:100760005401809107019091080190934701809373
:10077000460108951DDF609107017091080180E036
:1007800090E01ECFCF93DF93C0913501D091360119
:100790002091370130E060917300862F90E0A9012D
:1007A000481B590B4C175D0798F4820F931FC8170D
:1007B000D90770F4653051F48091F90080FF06C0CC
:1007C00088EE93E066D880E991E083D88AE001C0A2
:1007D00085E0809373008091F900837009F00BC06D
:1007E0008091810081FF19C0809174009091750003
:1007F000C817D90728F4D0937500C09374000DC0B2
:100800000A96C817D90748F076D88CED95E041D8FC
:1008100088E893E1DF91CF915CC8DF91CF91089593
:100820004AE050E060E070E087E391E041C917BA28
:1008300018BA14BA15BA11BA12BAF8944AE050E0CC
:1008400060E070E087E391E043D9FFCF883309F49B
:1008500054C018F5813309F46EC090F48D3209F458
:1008600052C038F4803209F452C08C3209F064C0AE
:1008700048C08E3209F445C0803309F05DC02FC0F6
:10088000843399F130F4823361F1833309F054C039
:100890002AC0863371F178F52AC08E3409F441C03C
:1008A00078F48334D1F130F4893349F1813409F09B
:1008B00043C031C08534D9F1B0F18634E9F52FC099
:1008C0008235B9F128F48F3451F08035A9F52DC067
:1008D0008F35D9F0803BE9F0833571F508C08FE39F
:1008E00008958BE508958FE4089586E608958DE6D2
:1008F00008958DE7089587E008958FE708958FE6BE
:10090000089580E8089580E4089588E0089580E0DF
:10091000089583E6089587E7089589E3089581E7B8
:10092000089584E508958EE5089583E7089589E79D
:10093000089580E5089586E00895282F87FD819524
:100940008E3018F06EE028D8892F27FF05C0882345
:1009500019F09EE0981B892F0895CF9381E013D161
:10096000C091E300CC2319F0C630D1F511C037D1C6
:1009700028D185E38A95F1F7000038D129D180E0AC
:1009800002D1809158018093E200C091E30028C019
:1009900080915901811101C01BC084EE90E0F0D616
:1009A0008091E40085FF14C08091580190915A0114
:1009B000891303C0109259010BC0909159019230D4
:1009C00049F48D3010F48F5F01C080E080935801AE
:1009D000C0E007C0882311F08150F8CF8DE0F6CF3A
:1009E000CF5F8091E300863021F480915701DBD006
:1009F00010C0E091E200F0E0E55AFE4F8081D3D0D4
:100A00008091E2008D3010F48F5F01C080E0809310
:100A1000E200C093E300CF9108950F931F93CF930B
:100A2000DF931F92CDB7DEB7182F842F69830EDFB7
:100A3000082F80915A01810F80DF69810AC0E82F59
:100A4000F0E0E55AFE4F00838D3010F48F5F01C057
:100A500080E06150A0F70F90DF91CF911F910F912F
:100A6000089540E262E08EEFD8DF80915A0188500D
:100A700064DF80935A0181E080935901089540E238
:100A800062E086E0CADF80915A01885F56DF80937A
:100A90005A0182E0809359010895CF93A0D0C7E016
:100AA00081E071D0C150E1F793D0109258011092BB
:100AB0005A011092E2001092E3001092570140E2B6
:100AC0006EE080E0AADF109259018091E40081601D
:100AD0008D7F8093E40089E08093E600CF910895B4
:100AE000FF920F931F93CF93DF93EB0190915A01E5
:100AF000890F23DF182FF82E02E023C0A7DE8038ED
:100B000011F4016001C00E7F013049F4EF2DF0E0D7
:100B1000E55AFE4F9081982B9083812F0BC0E12FD7
:100B2000F0E0E55AFE4F80831D3018F4812F8F5F6F
:100B300001C080E000FF02C003E001C000E0F12E30
:100B4000182F89918111DACFDF91CF911F910F91E9
:100B5000FF90089590915A01890FEFDEE82FF0E0A1
:100B6000E55AFE4F808180688083089590915701F7
:100B7000982B909357010895909157018095892360
:100B8000809357010895882311F0C09A01C0C0983E
:100B90008AE18A95F1F700C0C29A8AE18A95F1F755
:100BA00000C0C298089525B3982F9F71207E922B84
:100BB00095BB98B3869586958873977C892B88BB5F
:100BC000089585B38F6185BB88B3886388BB08951A
:100BD00084B38F6184BB87B3886387BB089584B374
:100BE000807E84BB87B3877C87BB089586B3887378
:100BF00093B3880F880F9F71892B8095809369012B
:100C00000895009711F0FC0109940895E0EFF0E0D9
:100C100080818E7F808308951092F10087E0809319
:100C2000F20084E08093F300E0EFF0E080818160E7
:100C300080830895E0EFF0E080818E7F80830895C7
:100C40001092D8000895E0EFF0E080818E7F8083DD
:100C50008091F9008D7F8093F900089560EB70E03A
:100C600080E03ECF67EB70E080E03ACF80913301C7
:100C7000909134019093400180933F018091F50061
:100C800080933C01AFCA80913301909134019093DD
:100C90003E0180933D018091F40080933B01A2CA04
:100CA000CF93DF93CDB7DEB727970FB6F894DEBFAB
:100CB0000FBECDBF87E0E6E8F0E0DE0111960190BF
:100CC0000D928A95E1F78091D4009091D5009C0116
:100CD00022703470232B31F080913A018F3568F403
:100CE0008B5F09C084709870892B49F080913A011C
:100CF000863018F0855080933A01109277008091E9
:100D0000F00084FF10C080913A018F3541F020E25D
:100D100042E8BE016B5F7F4F90E0BAD204C08EE420
:100D20008D838FE48E83BE016F5F7F4F80E0D8DEBE
:100D300027960FB6F894DEBF0FBECDBFDF91CF91DF
:100D40000895CF93DF93CDB7DEB727970FB6F8940A
:100D5000DEBF0FBECDBF87E0EDE8F0E0DE0111960B
:100D600001900D928A95E1F720E244E8BE016F5FA1
:100D70007F4F80913501909136018AD2BE016F5F1D
:100D80007F4F80E0ADDE27960FB6F894DEBF0FBE32
:100D9000CDBFDF91CF910895CF93DF93CDB7DEB76D
:100DA00027970FB6F894DEBF0FBECDBF87E0E4E90A
:100DB000F0E0DE01119601900D928A95E1F78091A5
:100DC000D4009091D5009C0122703470232B31F017
:100DD0008091F5008A3F68F48F5F09C08470987035
:100DE000892B39F08091F5008B3018F08150809379
:100DF000F5008091F00084FF0FC020E243E8BE01BF
:100E00006C5F7F4F8091F50090E042D23FD580919A
:100E1000F90082608093F900BE016F5F7F4F80E030
:100E20005FDE27960FB6F894DEBF0FBECDBFDF9111
:100E3000CF910895CF93DF93CDB7DEB727970FB645
:100E4000F894DEBF0FBECDBF87E0EBE9F0E0DE0136
:100E5000119601900D928A95E1F78091D4009091BE
:100E6000D5009C0122703470232B31F08091F40066
:100E70008A3F68F48F5F09C084709870892B39F0BD
:100E80008091F4008B3018F081508093F4008091B1
:100E9000F00084FF0FC020E243E8BE016C5F7F4F8B
:100EA0008091F40090E0F4D1F1D48091F900826057
:100EB0008093F900BE016F5F7F4F80E011DE2796BF
:100EC0000FB6F894DEBF0FBECDBFDF91CF9108956E
:100ED00083E052DE81E08093D800089583E04CDE09
:100EE000E0EFF0E08081806180830895F7DF8091FA
:100EF0003B018093F40080913C018093F5000895BC
:100F000082E03ADEE0EFF0E080818E7F808308951A
:100F100081E032DE81CE81E02FCECF93DF93CDB75B
:100F2000DEB727970FB6F894DEBF0FBECDBF87E0C0
:100F3000E2EAF0E0DE01119601900D928A95E1F768
:100F40008091D4009091D50086709927892B49F023
:100F500081E090913901911180E0809339011092E4
:100F600077008091F00084FF0DC0809139018823C3
:100F700021F08FE48D838EE404C08FE48C8386E4BB
:100F80008D838E83BE016F5F7F4F80E0A9DD82E09D
:100F9000E1DD27960FB6F894DEBF0FBECDBFDF911F
:100FA000CF910895CF93DF93CDB7DEB727970FB6D4
:100FB000F894DEBF0FBECDBF87E0E9EAF0E0DE01C6
:100FC000119601900D928A95E1F78091D40090914D
:100FD000D5009C0122703470232B31F080913801B0
:100FE000833668F48F5F09C084709870892B39F05C
:100FF00080913801823018F081508093380120E2CE
:1010000042E8BE016B5F7F4F8091380190E040D194
:101010008091F70082FF04C08091F00084FF09C036
:1010200020E242E8BE016E5F7F4F8091F60090E0C3
:101030002FD119825DD2882319F08981816089833B
:1010400067D2882319F08981886089838981811119
:1010500002C080E28983BE016F5F7F4F80E040DD88
:1010600027960FB6F894DEBF0FBECDBFDF91CF91AC
:10107000089582E07BDDD0CDCF93DF93CDB7DEB78F
:1010800027970FB6F894DEBF0FBECDBF87E0EDE81F
:10109000F0E0DE01119601900D928A95E1F78091C2
:1010A000D4009091D5009C0122703470232B31F034
:1010B000809137018A3F68F48B5F09C08470987013
:1010C000892B49F0809137018F3118F0855080933A
:1010D00037011092770020E244E8BE016F5F7F4F36
:1010E0008091370190E0D4D0BE016F5F7F4F80E0E8
:1010F000F7DC8091F00084FF03C081E037DD02C09F
:1011000081E03ADD27960FB6F894DEBF0FBECDBF63
:10111000DF91CF91089581E029CD1F93CF93DF9385
:10112000C0E0D0E017E01C9F90011D9F300D1124FE
:101130002A5D3F4FF90194913196A591B491F9013F
:101140003396659174912B5F3F4FF901459154910E
:10115000981303C08093E90006C02196CE30D105D4
:1011600011F79093E900A093EA00B093EB0060932D
:10117000EC007093ED004093EE005093EF00DF9190
:10118000CF911F91089581E08093E800C6DF8091A0
:10119000EA009091EB0035CDFF920F931F93CF9310
:1011A000DF9386E790E0ECD24091D4005091D500D7
:1011B0008091760085FD50688091810084FD5064A7
:1011C0008091E80060E070E095E0969F9001979F25
:1011D000300D112428573F4FF90114913196A591F4
:1011E000B491F9013396D491F901349624911813EE
:1011F0000EC0A423B523AB2B51F0C22FCF7326FB17
:10120000002700F9F22EFF1CFF24FF1C06C06F5FB1
:101210007F4F60327105C9F6D82F10E0F0FA10F94F
:1012200000FB11F9D81709F18091EE009091EF00C1
:10123000E8DC11FF02C023DC02C010FD12DCD093F9
:10124000E8008D2F6ADF8091EA009091EB00D9DCF5
:10125000CC23C1F0CC0FC09378001092770080911E
:1012600076008160809376000DC080EF90E088D298
:101270008091EC009091ED00DF91CF911F910F9143
:10128000FF90BFCCDF91CF911F910F91FF900895F8
:10129000CF93DF9347FF05C04F77FB01E40FF11DAC
:1012A00004C0FB01E40FF11D1082CAE0D0E0BE01D2
:1012B0007FD3805D8293CB014150009721F0411193
:1012C000F6CF01C022934150E8F7DF91CF91089506
:1012D00012BA8EE381BB18BA8FE387BB15BA8FE1D0
:1012E00084BB85E083BF12BE88B7816088BF89B7A1
:1012F000816089BF8CE085BD89EF83BD89B7806837
:1013000089BF1FBC8BE08EBD8FE790E09BBD8ABD7F
:1013100088E088B985EC87B98FE886B982E08BB917
:1013200088E18AB986E880BD10BC82E289B9089557
:10133000CF93DF93CDB7DEB72B970FB6F894DEBF10
:101340000FBECDBF1B86C4DF6BDA4CD7A6DB449A39
:1013500078942FEF80E792E0215080409040E1F7B1
:1013600000C0000080917A008F3069F46EEB70E06D
:1013700080E0B6DB2FEF83ED90E32150804090407A
:10138000E1F700C00000FFDE88EE93E082D288EC37
:1013900090E09FD2EFD92FEF80E792E0215080407C
:1013A0009040E1F700C0000081E065D080918200AC
:1013B0008F7B809382008091820086FFFCCF1BD8B8
:1013C0008091D4009091D50091FF03C080E293E01A
:1013D00006C08091D300877431F088EE93E059D233
:1013E00088E290E076D28091D30081114FD2F4D17F
:1013F0008091810083FF06C080EB94E04AD288ECA4
:1014000090E067D23CD78091810080FD62D7C4DE36
:1014100053D856D9B7D98091810085FFC7CF20E234
:1014200046E0BE016F5F7F4F8091090190910A01F4
:101430002FDFCE0101969ED285EC90E09BD2B6CFF5
:1014400099B79E7F99BF8093FA008091F9008F77BA
:101450008093F90089B7816089BF089589B78E7F2D
:1014600089BF8CE28093FB0083E08093F80089B70A
:10147000816089BF089599B79E7F99BF8093FC00D2
:101480009FED90937B0080FF09C08091FD009091BB
:10149000FE00909300018093FF000AC081FF08C006
:1014A0008091FD009091FE009093020180930101D4
:1014B00089B7816089BF089599B79E7F99BF909140
:1014C000F7009B7F9093F700882371F08091FD00D7
:1014D0009091FE00909300018093FF009093020191
:1014E000809301011092F60089B7816089BF089549
:1014F00080910101909102012091FD003091FE0048
:10150000821B930B892F8095881F8827881F089539
:101510008091FD009091FE002091FF00309100012C
:10152000821B930B892F8095881F8827881F089519
:1015300089B78E7F89BFDCDF882359F0E9DF8823F4
:1015400041F08091F70084608093F70081E0809300
:10155000F60089B7816089BF8091F7008470089593
:101560001F920F920FB60F9211248F939F9343985F
:101570009091FB0080910301981720F482B380635F
:1015800082BB01C0959886EF82BF88B7816088BF13
:1015900080917A00807F805880937A009F918F910C
:1015A0000F900FBE0F901F9018951F920F920FB6BD
:1015B0000F9211242F933F934F935F936F937F93D9
:1015C0008F939F93AF93BF93EF93FF9380917A0094
:1015D0008F70813049F028F0823049F0833069F40F
:1015E0000BC094988CEB01C082EC82BF06C080EEE9
:1015F00082BF449A439A01C01AD980917A008F78A9
:10160000813809F0A3C082B3837F9091F70093FFE4
:1016100005C0977F9093F70082BB76C090FF02C011
:10162000846002C091FD886082BB4091F700842FE6
:101630008770853019F08630E9F51DC08091010171
:10164000909102012091FD003091FE00821B930BCE
:10165000181619067CF18091F600909138018917CF
:1016600028F04B7F40614093F70024C08F5F809348
:10167000F60082E01DC08091FD009091FE00209157
:10168000FF0030910001821B930B1816190694F08D
:101690008091F60090913801891730F0842F8B7F6C
:1016A00080618093F70006C08F5F8093F60081E031
:1016B0008093FC002091F7009091FC00892F8227F5
:1016C000837019F028622093F7008091F7008C7FD7
:1016D000892B90917B0089238093F7009FEF909353
:1016E0007B0080FF06C08091FD009091FE00019676
:1016F00007C081FF09C08091FD009091FE00019715
:101700009093FE008093FD008091FB008C3281F469
:101710008091F800833049F41092F8008091F9002C
:1017200080688093F90044D703C08F5F8093F800EE
:101730008091FB00813339F41092FB008091FA0014
:101740008093030103C08F5F8093FB0080917A0038
:10175000982F9F709F3019F08F5F80937A00FF91D0
:10176000EF91BF91AF919F918F917F916F915F9119
:101770004F913F912F910F900FBE0F901F90189592
:10178000FC01908190FF27C0977E9F7D908381818F
:101790002281821750F091FF02C09E7F908390813A
:1017A00090629064908320E002C0282F2F5F938185
:1017B00089130BC080818860806182FB992790F932
:1017C00031E0932790FB82F904C0891718F08081DB
:1017D00080618083218308951092810080917C0034
:1017E000815019F080937C0006C084E080937C00D7
:1017F00081E08093810080918000815019F0809376
:10180000800008C082E08093800080918100806227
:101810008093810080917D00815080937D008111B3
:1018200034C088EC80937D0040918100842F8260D9
:101830008093810080917E00815080937E00811191
:1018400024C086E080937E00842F86608093810090
:1018500080917F008E3519F08F5F80937F006091BB
:101860007F0050913A01262F30E0852F90E00197BC
:101870002817390719F44E6040938100651305C09D
:1018800080918100806180938100089510927F0093
:1018900008959C0140E050E060E472E48FE090E045
:1018A000D0D0DA01C901887FAA27BB27892B51F044
:1018B00043E0369527954A95E1F7215031093BBD24
:1018C0002ABD04C081E090E09BBD8ABD1DBC1CBC4C
:1018D000089520913901211104C02091040122238F
:1018E00039F090930601809305018FB580648FBD18
:1018F00010920401089581E08093040108951F92DD
:101900000F920FB60F9211242F933F934F935F9333
:101910006F937F938F939F93AF93BF93EF93FF93B7
:101920008091050190910601009731F00197909305
:1019300006018093050103C08FB58F738FBD0DD84D
:1019400082E890E01DDF369AFF91EF91BF91AF9151
:101950009F918F917F916F915F914F913F912F91C7
:101960000F900FBE0F901F9018955E9A8CB95E9BDA
:10197000FECF08951F93CF93DF93EC0110E002C0D8
:101980001F5FF3DFFE01E10FF11D80818111F8CFB0
:10199000DF91CF911F910895991B79E004C0991FA1
:1019A000961708F0961B881F7A95C9F780950895B9
:1019B000AA1BBB1B51E107C0AA1FBB1FA617B70775
:1019C00010F0A61BB70B881F991F5A95A9F7809591
:1019D0009095BC01CD01089597FB072E16F4009455
:1019E00006D077FD08D0E4DF07FC05D03EF49095E3
:1019F00081959F4F0895709561957F4F0895A1E25D
:101A00001A2EAA1BBB1BFD010DC0AA1FBB1FEE1F78
:101A1000FF1FA217B307E407F50720F0A21BB30BC3
:101A2000E40BF50B661F771F881F991F1A9469F73F
:101A300060957095809590959B01AC01BD01CF019B
:101A40000895052E97FB16F4009406D057FD0CD090
:101A5000D6DF07FC09D07EF490958095709561954E
:101A60007F4F8F4F9F4F089550954095309521950A
:101A70003F4F4F4F5F4F0895A29FB001B39FC001EA
:101A8000A39F01D0B29F700D811D1124911D089557
:101A9000F3DFB7FF0895821B930B0895EDDFA59F39
:101AA000900DB49F900DA49F800D911D1124089559
:101AB000DC01CB01FC01E199FECF06C0FFBBEEBB10
:101AC000E09A31960DB20D9241505040B8F708950A
:101AD000DC01A40FB51F4150504040F0CB01840FF2
:101AE000951F2E9105D041505040D8F70895262FCC
:101AF000E199FECF9FBB8EBBE09A01970DB2021613
:101B000031F02DBB0FB6F894E29AE19A0FBE08951A
:041B1000F894FFCF77
:101B1400140B01000000000001FF044A0100000052
:101B240000000105FFFF020000000FFF01C80600CE
:101B34000100010032004F464620202000202020D2
:101B440020B043005032202020200050312020209B
:101B54002000534E4420202000202020202020005C
:101B640020444F4E4520002020204F46460041434C
:081B740020455252000A0D0049
:00000001FF
