S00C0000706964312E73726563AA
S1130000CEC0E8C0E7C02ECDE5C0E4C0E3C0E2C086
S1130010E1C0C9CBDFC0DEC0DDC0DCC0B0C1DAC026
S113002085CBD8C0D7C01678C3009101320A011E0F
S1130030303F4F3F3106325B334F3466536D356D7D
S1130040367D3707387F396F2E802C802D405F082E
S11300502000B0634177433946714E54445E507377
S11300604579553E473D5250202020004F464620BA
S1130070202000534E442020200020202020202037
S11300800020202020B0430001B307B50764060315
S11300905C067A07D50502770723075506054F0640
S11300A0F00600000BE305F006F1050449067F069F
S11300B000000CE3057F06FF05063D06BA060000B6
S11300C009E305BA061006073106BA0600000AE37A
S11300D005BA0610060866061F0600000D66061F10
S11300E00600000E23061B060D0601C000038A014C
S11300F000010240010002050A0200010180020021
S113010002050A0300810140030002016005008228
S11301100100058000044A054000078A0500010B20
S11301200A0B0081050A0B0002052A040082010063
S1130130048000064A044000058A0400010C0A0CED
S11301400081040A0C0002042A06008201000680D1
S113015000074A064000048A0600010900070082DD
S11301600100078000054A074000068A0700010ACB
S113017000090002060A09000108050800830100BD
S11301800A0002070A0A00010D050D00830100019F
S113019000400E000200400E000ED50101001124A3
S11301A01FBECFE5D4E0DEBFCDBF10E0A0E6B0E0D7
S11301B0EAE2FDE102C005900D92A03DB107D9F736
S11301C021E0A0EDB0E001C01D92A03DB207E1F72F
S11301D005D8A9CD15CF0F931F932091D00030914E
S11301E0D1004091D2005091D300DC012FDD009169
S11301F0D4001091D5002091D6003091D700600F23
S1130200711F821F931F28EE33E040E050E0EBDCC7
S1130210C9011F910F9108950F931F93DC0111964B
S113022028EE33E00DDD0091D4001091D50020912B
S1130230D6003091D700601B710B820B930B209179
S1130240D0003091D1004091D2005091D300CBDC4A
S1130250C9011F910F9108958F929F92AF92BF92FF
S1130260CF92DF92EF92FF92CF93DF93F0908901C8
S1130270A0918A01B0E0AF19B109C0918B01D0916E
S11302808C0128EE33E0DCDC20918D0130918E016D
S11302902C1B3D0B40E050E0A6DC49015A012093A1
S11302A0D0003093D1004093D2005093D3002F2D2F
S11302B030E0A8EEB3E0B8DC6B017C01DE01A501FF
S11302C09401C4DCC61AD70AE80AF90AC092D40019
S11302D0D092D500E092D600F092D700DF91CF9172
S11302E0FF90EF90DF90CF90BF90AF909F908F9052
S11302F008953398EBE1F1E080E090E021913191B1
S1130300820F931F21E0EB35F207C1F7339A9C016A
S113031045E0369527954A95E1F730935C012093A3
S11303205B0153E0969587955A95E1F790931A01EE
S11303308093190140E650E060E671E08CD290931E
S113034018018093170110925D0180915B019091D7
S11303505C018233910510F481E004C0893E93402E
S113036018F082E080935D01089580915B01909183
S11303705C0131DF90935F0180935E0108951F92C9
S11303800F920FB60F9211242F933F934F938F9395
S11303909F93EF93FF9324B135B14091770041507F
S11303A040937700E42FF0E0EE0FFF1FE55EFE4F71
S11303B080E094E0821B930B91838083411103C0FE
S11303C080E280937700FF91EF919F918F914F91FD
S11303D03F912F910F900FBE0F901F901895509141
S11303E0DE00409178009091A9019093DE00692F7E
S11303F06095609378008091DF008C3010F02FEFCF
S113040001C020E0591719F01092DF0005C08D30AB
S113041018F48F5F8093DF007091DF007C3011F45B
S11304203FEF01C030E0892F84238093DB007730D5
S113043008F04FEF49234093DA00209556232523F3
S11304402093D90039233093D8008D7F90E025FD87
S1130450916035FD926046FD946047FD986020FDF3
S1130460906130FD90629093DD008093DC000895EC
S1130470FC0180E009C09191892798E02CE88695D9
S113048008F482279A95D9F76150A8F70895CF9375
S11304908091E00080FF25C081E0E8D880915D0173
S11304A0837039F480915E0190915F0188339105E6
S11304B054F080910101837009F06DC081E0B5D8DA
S11304C01092E20068C0C3970CF065C080910101EE
S11304D0837009F460C080E0A8D881E08093E200D2
S11304E05AC08091A9018471843111F480E019C04B
S11304F08091DB0082FF04C081E097D8C1E013C083
S113050084FF04C082E091D8C2E00DC08091D8007D
S113051083FF04C081E0AAD8C8E005C08091E2004E
S1130520811183D8C0E01092E2008091D90083FF4A
S11305300EC08091010182FF04C080E097D8C062A0
S113054006C0DCD8882311F0C06101C0C06480916A
S1130550010185FF04C08F7D80930101C4608091F7
S1130560010184FF04C08F7E80930101C068C7FF2E
S113057003C08CE090E00EC0C6FF03C08CE590E0A1
S113058009C0C3FF03C080E690E004C0C77319F03C
S113059084E690E0EFDA88E1BED28091010180FF29
S11305A002C088E003C081FF03C080E1CF91ADC2E7
S11305B0CF9108950F931F93CF93DF938091DC0025
S11305C09091DD0094FF0BC02091E10031E02327DE
S11305D02093E100209189002064209389002091D8
S11305E0E10095FF09C024602093E1008091890017
S11305F080648093890003C02B7F2093E100809165
S1130600E00080FD04C080915D01837029F0809139
S1130610E1008E7F8093E1008091E10083FF08C0B8
S113062080918F01EAD6809189008064809389004B
S11306308091890086FF36C080918F0190E0ECDDC7
S1130640EC01CC0FDD1FCC0FDD1F009117011091C1
S113065018014091E100B801CE01DCD690E0209170
S1130660E10020FF06C020918F012F3F11F484E6A2
S113067090E0CED78091E100982F917080FF03C065
S113068080918F0101C080E080938801911102C0A4
S1130690C0E0D0E0D0939601C093950110939401EB
S11306A0009393018091E10080FF06C084E0DF9114
S11306B0CF911F910F9129C284E0DF91CF911F91B7
S11306C00F9129C290918F01209179008091E100CE
S11306D0291731F088608093E100909379000895A0
S11306E0877F8093E1000895CF93DF93C0915E01EB
S11306F0D0915F0180915D01837041F08091890008
S113070081FF43C049DA84E190E03CC020918F012D
S113071030E060917A00862F90E0A901481B590BC4
S11307204C175D0784F4820F931FC817D9075CF434
S1130730653039F48091E10080FF03C084E390E0E8
S113074019DA8AE001C085E080937A008091E100A3
S1130750837009F00BC08091890081FF16C08091DD
S11307607B0090917C00C817D9072CF4D0937C00AF
S1130770C0937B000AC043968C179D0734F40CDAAF
S11307808AE190E0DF91CF91F5C9DF91CF9108958F
S113079046E050E062E070E089E891E0A4DA66E0C7
S11307A089E891E065DE682F80E090E0ABCA44E020
S11307B050E068E070E08FE891E095DA64E08FE85B
S11307C091E056DE682F81E090E09CCACF93DF93DE
S11307D044E050E068E070E08FE891E06CDA46E0D5
S11307E050E062E070E089E891E065DA64E08FE867
S11307F091E03EDEC82F81E090E06DDA8C1751F075
S113080044E050E06CE270E08FE891E04BDACFDF37
S1130810C1E001C0C0E066E089E891E029DED82F9C
S113082080E090E058DA8D1749F046E050E066E247
S113083070E089E891E036DAABDFC2608C2FDF919B
S1130840CF910895F89417BA18BA14BA15BA11BA10
S113085012BAADDFFFCFCF92DF92EF92FF920F93E8
S11308601F93CF93DF938C01EB01FA0123812003C3
S11308706001219FD00C1124EE24D7FCE094FE2CBF
S113088040811EC0842F90E0DC011197AA0FBB1F8A
S1130890AC0FBD1F2D913C91DC01AA0FBB1FAC0F07
S11308A0BD1F2D933C93DF01A80FB91F1396AC9184
S11308B0BB27A7FDB095B2D9C60ED71EE81EF91EF8
S11308C0415001F7198308832181328140E050E0CF
S11308D0C701B60188D9C901DF91CF911F910F914A
S11308E0FF90EF90DF90CF90089520E030E0A901D1
S11308F0440F551FFA01E05DFF4FE491E81305C072
S1130900FA01EF5CFF4F849108952F5F3F4F2C3124
S1130910310569F70895282F87FD81958E3018F0E9
S11309206EE055D9892F27FF05C0882319F09EE072
S1130930981B892F0895CF9321D181E0F3D0C091E2
S1130940E400CC2319F0C630C1F50FC009D185E30A
S11309508A95F1F7000019D180E0E4D080919801E4
S11309608093E300C091E40028C080919901811133
S113097001C01BC085EE90E0DFD78091E50085FFC4
S113098014C08091980190919A01891303C0109228
S113099099010BC090919901923049F48D3010F473
S11309A08F5F01C080E080939801C0E007C0882376
S11309B011F08150F8CF8DE0F6CFCF5F8091E40045
S11309C0863021F480919701BDD010C0E091E300FE
S11309D0F0E0E556FE4F8081B5D08091E3008D3084
S11309E010F48F5F01C080E08093E300C093E400C3
S11309F0CF91BDC00F931F93CF93DF931F92CDB7B9
S1130A00DEB7182F842F698370DF082F80919A0135
S1130A10810F81DF69810AC0E82FF0E0E556FE4FBF
S1130A2000838D3010F48F5F01C080E06150A0F727
S1130A300F90DF91CF911F910F91089540E262E0F2
S1130A408EEFD8DF80919A01885065DF80939A01F8
S1130A5081E080939901089540E262E086E0CADF74
S1130A6080919A01885F57DF80939A0182E0809396
S1130A7099010895CF9382D0C7E081E053D0C1504B
S1130A80E1F775D01092980110929A011092E30048
S1130A901092E4001092970140E26EE080E0AADF39
S1130AA0109299018091E50081608D7F8093E5002B
S1130AB089E08093E700CF9108951F93CF93DF934C
S1130AC0EB0190919A01890F26DF182F0BC00DDFDF
S1130AD0E12FF0E0E556FE4F80831D3010F41F5FD8
S1130AE001C010E089918111F2CFDF91CF911F9164
S1130AF0089590919A01890F0EDFE82FF0E0E556F2
S1130B00FE4F808180688083089590919701982B8F
S1130B1090939701089590919701809589238093EC
S1130B2097010895882311F0C09A01C0C0988AE102
S1130B308A95F1F700C0C29A8AE18A95F1F700C05C
S1130B40C298089525B3982F9F71207E922B95BB50
S1130B5098B3869586958873977C892B88BB08956E
S1130B6085B38F6185BB88B3886388BB089584B3DC
S1130B708F6184BB87B3886387BB089584B3807E09
S1130B8084BB87B3877C87BB089586B3887393B38C
S1130B90880F880F9F71892B80958093A9010895F0
S1130BA0009711F0FC01099408958091F3008E7F61
S1130BB08093F3008091F70085FD04C08091F100DB
S1130BC080938F0108951092F40087E08093F500DC
S1130BD084E08093F600E3EFF0E08081816080831D
S1130BE008958091F3008E7F8093F3008091F70045
S1130BF085FD04C08091F100809391010895809156
S1130C00F3008E7F8093F3008091F70085FD04C08C
S1130C108091F1008093920108951092E00008956C
S1130C20E3EFF0E080818E7F80838091E1008D7F0F
S1130C308093E10008956EE870E080E03ECF65E9BE
S1130C4070E080E03ACF80EC66DF81E08093E000E2
S1130C50089580EC60DFE3EFF0E0808180618083C1
S1130C600895F7DF80918A018093F10082E08093F8
S1130C70F2006CE970E080E020CFEBDF8091890125
S1130C808093F10081E08093F20063EA70E080E0F9
S1130C9014CFDFDF809192018093F1000895D9DFB2
S1130CA0809191018093F1000895E3EFF0E0808159
S1130CB08E7F808380E42FCF80E82DDF84DF8091D6
S1130CC08F018093F100089580E825CF2091F100F1
S1130CD03091F20080915B0190915C01313039F4E4
S1130CE090938C0180938B012093890106C090938B
S1130CF08E0180938D0120938A01AEDA49CD47E0BD
S1130D0050E06CE670E08AEA91E0CCD78091DC0098
S1130D109091DD009C0120743470232B31F080917C
S1130D20F1008F3568F48B5F09C080789870892B47
S1130D3049F08091F100863018F085508093F100DD
S1130D4010927E008091F30084FF10C08091F10026
S1130D508F3530F442E86EEA71E090E02AD206C0A2
S1130D608EE48093AE018FE48093AF016AEA71E070
S1130D7080E0A3CE44E050E068E670E08AEA91E0C7
S1130D8091D78091DC009091DD009C012074347037
S1130D90232B31F08091F1008A3F68F48F5F09C002
S1130DA080789870892B39F08091F1008B3018F09D
S1130DB081508093F1008091F30084FF0DC043E0E3
S1130DC06AEA71E08091F10090E0F3D148D6809115
S1130DD0E10082608093E1006AEA71E083E06DCE15
S1130DE047E050E063E770E08AEA91E05BD78091E6
S1130DF0DC009091DD00807C9927892B49F081E00B
S1130E009091F100911180E08093F10010927E00A6
S1130E108091F30084FF11C08091F100882329F0B0
S1130E208FE48093AE018EE406C08FE48093AD011D
S1130E3086E48093AE018093AF016AEA71E080E0BA
S1130E403CDE82E056CE47E050E06AE770E08AEA92
S1130E5091E028D78091DC009091DD009C01207402
S1130E603470232B31F080919001833668F48F5FC6
S1130E7009C080789870892B39F080919001823074
S1130E8018F081508093900142E86EEA71E08091FD
S1130E90900190E08ED18091010182FF04C0809185
S1130EA0F30084FF07C042E86BEA71E0809100011F
S1130EB090E07FD11092AA01F5D3882329F0809184
S1130EC0AA0181608093AA0103D4882329F0809128
S1130ED0AA0188608093AA018091AA01811103C0AC
S1130EE080E28093AA016AEA71E080E0E6CD6BDEDD
S1130EF080E40BCE47E050E061E870E08AEA91E0DC
S1130F00D1D68091DC009091DD009C012074347076
S1130F104091F100232B21F04F3F59F04B5F07C064
S1130F2080789870892B39F04F3118F045504093F0
S1130F30F10010927E008091F1008F3F41F044E86F
S1130F406AEA71E090E035D16AEA71E002C06AEAC7
S1130F5070E080E0B2DD8091F30084FF02C080E89D
S1130F60D4CD80E8D8CD80E8D0CD47E050E061E82A
S1130F7070E08AEA91E096D680915D0180FF03C01B
S1130F8061EB70E013C081FF03C068EB70E00EC03A
S1130F9060915E0170915F01882777FD8095982F9D
S1130FA024E84AEA51E0B8D06AEA71E080E085CDED
S1130FB00F931F93CF93DF93182FC0E0D0E007E087
S1130FC00C9FB0010D9F700D112468577F4F47E0AF
S1130FD050E08AEE90E066D68091EA00811721F015
S1130FE02196CE30D10561F7DF91CF911F910F91FA
S1130FF0089581E08093E900DBDF8091EB0090911C
S1131000EC00CECDAF92BF92CF92DF92EF92FF92DF
S11310100F931F93CF93DF9300D000D01F92CDB7CF
S1131020DEB78DE790E088D40091DC001091DD00FC
S113103080917D0085FD10688091890084FD106495
S1131040D090E900E12CF12C35E0A32EAE9CB00148
S1131050AF9C700D112466517F4F45E050E0CE01E6
S1131060019620D689818D110FC02A813B812023CE
S11310703123232B49F0DC808D819FE0B92EB822E7
S113108020EFC22EC82207C08FEFE81AF80A84E2C4
S1131090E816F104D9F68091E900D81629F1C09236
S11310A0F7008091EF009091F0007ADDC6FE02C057
S11310B0D3DC02C0C7FCC2DCD092E9008D2D78DFFE
S11310C08091EB009091EC006BDDBB20A9F0BB0C90
S11310D0BB0CBB0CB0927F0010927E0080917D000F
S11310E0816080937D0008C083EF90E025D48091D7
S11310F0ED009091EE0054DD0F900F900F900F9043
S11311000F90DF91CF911F910F91FF90EF90DF909F
S1131110CF90BF90AF900895CF92DF92EF92FF925D
S11311200F931F93CF93DF93122F2223C9F197FFBD
S113113009C090958095709561957F4F8F4F9F4F13
S113114001E001C000E017FF05C01F77EA01C10FED
S1131150D11D04C0EA01C10FD11D18822AE0C22E9C
S1131160D12CE12CF12CA70196013DD5605D6A9349
S1131170B901CA011150611571058105910519F074
S11311801111F1CF08C0112331F0002321F0219770
S11311908DE28883115080E201C08A931150E8F7F0
S11311A0DF91CF911F910F91FF90EF90DF90CF903F
S11311B00895FB01242FBC0180E090E0AF01ACCF87
S11311C02CE044EB51E0A8DF84EB91E0EEC446E070
S11311D064EB71E0EEDF84EB91E0E7C4CF93DF933F
S11311E01F92CDB7DEB7198212BA8EE381BB18BA4B
S11311F08FE387BB15BA8FE184BB85E083BF12BE42
S113120081E088BF89B7816089BF8CE085BD89EFA3
S113121083BD89B7806889BF1FBC8BE08EBD8FE713
S113122090E09BBD8ABD88E088B985EC87B98FE8DA
S113123086B982E08BB988E18AB986E880BD10BCA2
S113124082E289B9C3DA898307D814DC449A789492
S113125089818823A9F06FEB70E080E02EDC49815E
S1131260405D61E085E0C6DB84E590E083D42FEF48
S113127083ED90E3215080409040E1F700C00000EE
S11312808091890190E0A3DF80918B0190918C0182
S11312909EDF80918A0190E09ADF80918D01909188
S11312A08E0195DF85EC90E080D42FEF81EE94E001
S11312B0215080409040E1F700C0000080918100FF
S11312C08F3069F468EC70E080E0F7DB2FEF83ED9A
S11312D090E3215080409040E1F700C0000089DE97
S11312E088E690E047D481E0A0D180918A008F7B8A
S11312F080938A002EE088E190E00FB6F894A895D8
S113130081BD0FBE21BD80918A0086FFFCCFA895C8
S113131066D88091DC009091DD0088279272892B39
S113132019F080E690E006C08091DB00817E19F020
S113133084E690E01FD48091DB00811190D328D300
S11313408091890083FF03C080E490E013D4D1D757
S11313508091890080FD09D855DE99D8B3D92AD95E
S1131360C3D98091890085FF42C080915E0190912C
S11313705F012DDF80915B0190915C0128DF8091FA
S113138017019091180123DF85EA90E00ED4809133
S11313909501909196011BDF8091930190919401A6
S11313A016DF6091CA017091CB01882777FD809583
S11313B0982F06DF6091CE017091CF01882777FDC9
S11313C08095982FFDDE6091CC017091CD01882726
S11313D077FD8095982FF4DE85EA90E0E6D380913E
S11313E0C8019091C901F3DE85EC90E0DED38091D1
S11313F08A008F7B80938A0086CF823308F482E34D
S11314008F502CE0829FC00111249093F9008093A7
S1131410F80008957F928F929F92AF92BF92CF92DD
S1131420DF92EF92FF920F931F93CF93DF936B01A1
S1131430742E861B970B8D3521E092075CF4843A59
S11314402EEF920754F02BE2289F8001299F100D64
S1131450112405C008E91AE302C008E615EC72FC81
S11314601FC023E2289FA001299F500D1124662745
S113147057FD6095762F8090FA009090FB00A09025
S1131480FC00B090FD00840E951EA61EB71E80922F
S1131490FA009092FB00A092FC00B092FD0008C0FC
S11314A01092FA001092FB001092FC001092FD00C2
S11314B08D3521E0920764F497FD0EC0ACE5B1E0F0
S11314C0A81BB90B2091F8003091F900B9D308C0DA
S11314D060E070E0CB0104C060E271EA87E090E074
S11314E08090FA009090FB00A090FC00B090FD006A
S11314F0681579058A059B054CF46093FA0070938E
S1131500FB008093FC009093FD000AC0B7FE08C066
S11315101092FA001092FB001092FC001092FD0051
S11315206091FA007091FB008091FC009091FD00A5
S113153024E630E040E050E056D379018091FE008B
S11315409091FF008C199D098830910574F4893FAE
S11315502FEF92076CF020E931E0829FE001839F36
S1131560D00D929FD00D112405C0C8EBDBE002C062
S1131570C8E4D4EFD092FF00C092FE0070FE20C0F9
S1131580B801882777FD8095982F4701AA2497FCF6
S1131590A094BA2C680D791D8A1D9B1D4E01AA24A6
S11315A097FCA094BA2C680D791D8A1D9B1D24E616
S11315B030E040E050E017D3253631054CF402C04A
S11315C020E030E0C90137FF05C080E090E002C0B0
S11315D084E690E01093CB010093CA01D093CF012D
S11315E0C093CE01F092CD01E092CC019093C90159
S11315F08093C801DF91CF911F910F91FF90EF90DD
S1131600DF90CF90BF90AF909F908F907F90089580
S113161043989C018536910510F024E630E0309320
S1131620030120930201439A089599B79E7F99BFBD
S1131630809304019FED9093820080FF09C0809104
S113164005019091060190930801809307010AC057
S113165081FF08C0809105019091060190930A01D1
S11316608093090189B7816089BF089599B79E7FE6
S113167099BF909101019B7F90930101882371F0A0
S113168080910501909106019093080180930701D0
S113169090930A01809309011092000189B7816037
S11316A089BF089589B78E7F89BF80910901909180
S11316B00A012091050130910601821B930B892FA9
S11316C0809599B7916099BF881F8827881F0895CE
S11316D089B78E7F89BF8091050190910601209181
S11316E0070130910801821B930B892F809599B7CC
S11316F0916099BF881F8827881F089589B78E7FB6
S113170089BFD0DF882359F0E3DF882341F080913B
S1131710010184608093010181E08093000189B715
S1131720816089BF80910101847008951F920F9296
S11317300FB60F9211242F933F934F935F938F9380
S11317409F93439840910B0150910C0144365105ED
S113175030F082B3806382BB2CE93FEF03C09598DD
S113176020E030E08091020190910301840F951FE5
S1131770820F931F90930C0180930B0186EF82BF1D
S113178081E088BF80918100807F805880938100B0
S11317909F918F915F914F913F912F910F900FBE29
S11317A00F901F9018951F920F920FB60F9211244D
S11317B02F933F934F935F936F937F938F939F9355
S11317C0AF93BF93EF93FF93809181008F7081302B
S11317D049F028F0823049F0833069F40BC09498C2
S11317E08CEB01C081ED82BF06C082EC82BF449ABB
S11317F0439A01C027D8809181008F78813809F0FD
S113180081C082B3837F9091010193FF05C0977FCC
S11318109093010182BB76C090FF02C0846002C035
S113182091FD886082BB40910101842F87708530CF
S113183019F08630E9F51DC08091090190910A01E3
S11318402091050130910601821B930B181619068D
S11318507CF18091000190919001891728F04B7FD1
S113186040614093010124C08F5F8093000182E0B6
S11318701DC08091050190910601209107013091CE
S11318800801821B930B1816190694F0809100012D
S113189090919001891730F0842F8B7F8061809321
S11318A0010106C08F5F8093000181E080930401F1
S11318B02091010190910401892F8227837019F0EE
S11318C0286220930101809101018C7F892B9091E2
S11318D082008923809301019FEF9093820080FF0F
S11318E006C08091050190910601019607C081FF11
S11318F009C080910501909106010197909306011A
S11319008093050180918100982F9F709F3019F07A
S11319108F5F80938100FF91EF91BF91AF919F9171
S11319208F917F916F915F914F913F912F910F9084
S11319300FBE0F901F901895FC01908190FF27C057
S1131940977E9F7D908381812281821750F091FF41
S113195002C09E7F9083908190629064908320E087
S113196002C0282F2F5F938189130BC08081886068
S1131970806182FB992790F931E0932790FB82F9EB
S113198004C0891718F080818061808321830895C1
S1131990109289008091830081508093830081118B
S11319A013C084E08093830081E080938900809158
S11319B08800815080938800811106C084E180935F
S11319C0880081E48093890080918700815019F018
S11319D08093870008C082E080938700809189000B
S11319E08062809389008091840081508093840078
S11319F0811134C088EC8093840040918900842F45
S1131A008260809389008091850081508093850055
S1131A10811124C086E080938500842F86608093A2
S1131A208900809186008E3519F08F5F809386003F
S1131A306091860050919201262F30E0852F90E02E
S1131A4001972817390719F44E60409389006513EC
S1131A5005C0809189008061809389000895109267
S1131A60860008951F920F920FB60F9211242F93A0
S1131A703F934F935F936F937F938F939F93AF9312
S1131A80BF93EF93FF9357D720910D01223099F123
S1131A9020F4213009F050C00FC0233021F025304C
S1131AA009F04AC015C080910E0190910F019093E6
S1131AB011018093100144C080911201909113018F
S1131AC001979093130180931201892BC9F13BC0B4
S1131AD0E1993BC06091100170911101CB01029614
S1131AE0909311018093100142E050E084E191E071
S1131AF0E2D022E028C080911501882319F1809159
S1131B001401882349F090E001979BBD8ABD1DBC58
S1131B101CBC8FB5806402C08FB58F738FBD80915C
S1131B2015012AE0829FC0011124029790931301AA
S1131B308093120121E007C08FB58F738FBD03C05E
S1131B4025E001C020E020930D018AE890E0F4DE56
S1131B50369AFF91EF91BF91AF919F918F917F91B1
S1131B606F915F914F913F912F910F900FBE0F9006
S1131B701F90189520919101211104C02091160104
S1131B80222349F090930F0180930E0183E0809308
S1131B900D0110921601089581E0809316010895B5
S1131BA05E9A8CB95E9BFECF08951F93CF93DF930B
S1131BB0EC0110E002C01F5FF3DFFE01E10FF11D35
S1131BC080818111F8CFDF91CF911F910895991BE6
S1131BD079E004C0991F961708F0961B881F7A9520
S1131BE0C9F780950895052E97FB16F4009406D046
S1131BF057FD0CD035D007FC09D07EF49095809524
S1131C00709561957F4F8F4F9F4F089550954095E4
S1131C10309521953F4F4F4F5F4F089505D03323A3
S1131C2012F48A1B9B0B0DC0A29FB001B39FC0018D
S1131C30A39F01D0B29F700D811D1124911D0895A1
S1131C40F3DFB7FF0895821B930B0895EDDFA59F83
S1131C50900DB49F900DA49F800D911D11240895A3
S1131C60A1E21A2EAA1BBB1BFD010DC0AA1FBB1F9C
S1131C70EE1FFF1FA217B307E407F50720F0A21B0E
S1131C80B30BE40BF50B661F771F881F991F1A947B
S1131C9069F760957095809590959B01AC01BD01A5
S1131CA0CF010895FB01DC0102C005900D92415063
S1131CB05040D8F70895DC01CB01FC01E199FECF37
S1131CC006C0FFBBEEBBE09A31960DB20D924150B7
S1131CD05040B8F70895E199FECF9FBB8EBBE09AC0
S1131CE099278DB30895DC01A40FB51F41505040CE
S1131CF040F0CB01840F951F2E9105D041505040E8
S1131D00D8F70895262FE199FECF9FBB8EBBE09AAA
S1131D1001970DB2021631F02DBB0FB6F894E29A7A
S10D1D20E19A0FBE0895F894FFCF76
S1131D2A14F6030B15212C3741494F5354534F4989
S1131D3A41372C21150B0220FF1F05FF7F020000EB
S1131D4A000FFF01C8060001140001003200202020
S1131D5A204F46460020444F4E4520005032202052
S1131D6A2020005031202020200020554E52454783
S1131D7A004552522030310045525220303200453B
S1131D8A52522045000A0D00455252204143000098
S9030000FC
