S00C0000706964312E73726563AA
S1130000CEC0E8C0E7C0B2CCE5C0E4C0E3C0E2C003
S1130010E1C063CBDFC0DEC0DDC0DCC0EDC1DAC04F
S11300201ECBD8C0D7C018821C038806320A011E12
S1130030303F4F3F3106325B334F3466536D356D7D
S1130040367D3707387F396F2E802C802D405F082E
S11300502000B0634177433946714E54445E507377
S11300604579553E473D5250202020004F464620BA
S1130070202000534E442020200020202020202037
S11300800020202020B04300014C074E0734060313
S11300902C061A07AF05021707CC062506051F060E
S11300A09D0600000BBD059D06C5050419063D0609
S11300B000000CBD053D06D305060D0671060000C3
S11300C009BD057106E505070106710600000ABDB4
S11300D0057106E505083606F30500000D3606F33E
S11300E00500000EF705EC05E10501C000038A01D7
S11300F000010240010002050A0200010180020021
S113010002050A0300810140030002016005008228
S11301100100058000044A054000078A0500010B20
S11301200A0B0081050A0B0002052A040082010063
S1130130048000064A044000058A0400010C0A0CED
S11301400081040A0C0002042A06008201000680D1
S113015000074A064000048A0600010900070082DD
S11301600100078000054A074000068A0700010ACB
S113017000090002060A09000108050800830100BD
S11301800A0002070A0A00010D050D00830100019F
S113019000400E000200400E000ED50301001124A1
S11301A01FBECFE5D4E0DEBFCDBF11E0A0E6B0E0D6
S11301B0EEE3FCE102C005900D92A234B107D9F739
S11301C022E0A2E4B1E001C01D92A933B207E1F735
S11301D097D733CD15CF0F931F93209142013091C0
S11301E043014091440150914501DC01B9DC009187
S11301F04601109147012091480130914901600F57
S1130200711F821F931F68577C4E8F4F9F4F20E1B1
S113021037E240E050E071DCC9011F910F9108956D
S1130220CF92DF92EF92FF920F931F93C0904201FF
S1130230D0904301E0904401F090450120E137E281
S1130240DC0188DC009146011091470120914801AE
S113025030914901601B710B820B930B970186014E
S11302603595279517950795600F711F821F931F6A
S1130270A701960142DCC9011F910F91FF90EF90F5
S1130280DF90CF9008958F929F92AF92BF92CF92BA
S1130290DF92EF92FF92CF93DF93C0910802D09147
S11302A0090240910A0250910B024C1B5D0BF09025
S11302B00602A0910702B0E0AF19B10920E137E2CC
S11302C049DC4A0195948794AA2497FCA094BA2CFB
S11302D0680D791D8A1D9B1D9A01442737FD4095A1
S11302E0542F0BDC49015A012093420130934301FE
S11302F040934401509345012F2D30E0A0E1B7E233
S11303001DDC6B017C01DE01A501940129DCC61A08
S1130310D70AE80AF90AC0924601D0924701E0924E
S11303204801F0924901DF91CF91FF90EF90DF9067
S1130330CF90BF90AF909F908F90089587E886B933
S1130340EAE4F1E080E090E021913191820F931F83
S113035021E0EA38F207C1F72FE826B99C01F5E05D
S113036036952795FA95E1F73093FD012093FC012A
S113037040E650E06AE871E0A3E096958795AA9577
S1130380E1F743D29093FB018093FA011092FE01AE
S11303908091FC019091FD018233910510F481E07C
S11303A004C0893E934018F082E08093FE010895D2
S11303B08091FA019091FB010EDF909300028093EB
S11303C0FF010895813059F4609306028091FA0187
S11303D09091FB0190930902809308020895823062
S11303E051F4609307028091FA019091FB0190937C
S11303F00B0280930A0208951F920F920FB60F9278
S113040011242F933F934F938F939F93EF93FF93D5
S113041024B135B140917700415040937700E42FE7
S1130420F0E0EE0FFF1FE65BFE4F80E094E0821BDE
S1130430930B91838083411103C080E28093770002
S1130440FF91EF919F918F914F913F912F910F9039
S11304500FBE0F901F9018954091B201542F5095E4
S1130460809122028093B201682F60959091B3012C
S1130470481751F09C3010F090E001C09FEF1092AB
S1130480B30120E030E013C09D3019F09F5F9093DA
S1130490B3019091B301963020F09C3029F020E014
S11304A004C020E030E002C02FEF3FEF90E0E1E035
S11304B0F2E08083752F78237183352B38233283C0
S11304C0462349234383822384830895FC0180E0E7
S11304D009C09191892798E02CE8869508F4822731
S11304E09A95D9F76150A8F70895CF939091B501E3
S11304F090FF1AC081E049D88091FE01837039F4DD
S11305008091FF0190910002883391053CF0809125
S1130510D001837009F064C081E004C0C3970CF07B
S11305205FC080E013D85CC0809101028471843183
S113053011F480E015C08091020282FF04C081E0C2
S113054005D8C1E00FC084FF04C082E0FFD7C2E039
S113055009C091FF06C08091D001837011F481E03D
S1130560F5D7C0E08091050283FF04C081E00DD877
S1130570C86014C08091040283FF10C080E889BF62
S11305808091D00182FF04C080E0FFD7C06206C022
S113059049D8882311F0C06101C0C0648091D001A2
S11305A085FF03C080E20BD8C4608091D00184FF32
S11305B003C080E104D8C068C7FF03C08CE090E0AA
S11305C00EC0C6FF03C08CE590E009C0C3FF03C0A2
S11305D080E690E004C0C77319F084E690E04EDA38
S11305E088E173D28091D00180FF02C088E003C00B
S11305F081FF03C080E1CF9162C2CF9108958091C1
S1130600040280FF05C080B191E0892780B9169A61
S11306108091050280FF03C0029A169A01C00298D5
S11306208091B50180FD04C08091FE01837009F0C2
S11306300098039B04C080910C026AD6169A169BFC
S113064013C080910C0290E0EBDD40B16091FA019F
S11306507091FB016AD6009B06C020910C022F3FCB
S113066011F484EF91E064D784E0009928C22DC28C
S11306709091780080910C02981721F0039A80934E
S11306807800089503980895CF93DF93C091FF01F4
S1130690D09100028091FE01837031F0119B3EC025
S11306A0FFD984E190E037C020910C0230E06091E2
S11306B07900862F90E0A901481B590B4C175D0760
S11306C074F4820F931FC817D9074CF4653029F4CA
S11306D0009B03C084E390E0D1D98AE001C085E0A7
S11306E08093790080B1837009F009C0119B16C012
S11306F080917A0090917B00C817D9072CF4D0938D
S11307007B00C0937A000AC043968C179D0734F48B
S1130710C7D98AE190E0DF91CF91B0C9DF91CF9141
S1130720089546E050E062E070E086E092E065DA29
S113073066E086E092E0CADE682F80E090E06CCA52
S113074044E050E068E070E08CE092E056DA64E067
S11307508CE092E0BBDE682F81E090E05DCACF932D
S1130760DF9344E050E068E070E08CE092E02DDA42
S113077046E050E062E070E086E092E026DA64E071
S11307808CE092E0A3DEC82F81E090E02EDA8C1793
S113079051F044E050E06CE270E08CE092E00CDA5E
S11307A0CFDFC1E001C0C0E066E086E092E08EDE0B
S11307B0D82F80E090E019DA8D1749F046E050E038
S11307C066E270E086E092E0F7D9ABDFC2608C2F7E
S11307D0DF91CF910895F89417BA18BA14BA15BADC
S11307E012BA82E081BB80E990E062D9A9DF81EA94
S11307F090E05ED98091B40190E065D986EB90E0F9
S113080057D98CEB90E054D9FFCFCF92DF92EF927F
S1130810FF920F931F93CF93DF938C01EB01FA01A7
S1130820238120036001219FD00C1124EE24D7FCE6
S1130830E094FE2C40811EC0842F90E0DC011197CF
S1130840AA0FBB1FAC0FBD1F2D913C91DC01AA0F59
S1130850BB1FAC0FBD1F2D933C93DF01A80FB91F25
S11308601396AC91BB27A7FDB09562D9C60ED71ECF
S1130870E81EF91E415001F7198308832181328152
S113088040E050E0C701B60138D9C901DF91CF91EA
S11308901F910F91FF90EF90DF90CF90089520E08B
S11308A030E0A901440F551FFA01E05DFF4FE491C8
S11308B0E81305C0FA01EF5CFF4F849108952F5FA0
S11308C03F4F2C31310569F70895282F87FD819515
S11308D08E3018F06EE005D9892F27FF05C08823D4
S11308E019F09EE0981B892F0895CF9321D181E0C0
S11308F0F3D0C091B701CC2319F0C630C1F50FC0B5
S113090009D185E38A95F1F7000019D180E0E4D09C
S1130910809111028093B601C091B70128C08091E3
S11309201202811101C01BC088EB91E09FD7809116
S1130930B80185FF14C080911102909113028913AC
S113094003C0109212020BC090911202923049F42B
S11309508D3010F48F5F01C080E080931102C0E0FD
S113096007C0882311F08150F8CF8DE0F6CFCF5F18
S11309708091B701863021F480911002BDD010C05F
S1130980E091B601F0E0EC5EFD4F8081B5D080913E
S1130990B6018D3010F48F5F01C080E08093B60102
S11309A0C093B701CF91BDC00F931F93CF93DF9333
S11309B01F92CDB7DEB7182F842F698370DF082FFD
S11309C080911302810F81DF69810AC0E82FF0E072
S11309D0EC5EFD4F00838D3010F48F5F01C080E02A
S11309E06150A0F70F90DF91CF911F910F9108955F
S11309F040E262E08EEFD8DF80911302885065DF19
S1130A008093130281E080931202089540E262E031
S1130A1086E0CADF80911302885F57DF8093130258
S1130A2082E0809312020895CF9382D0C7E081E0E0
S1130A3053D0C150E1F775D01092110210921302F5
S1130A401092B6011092B7011092100240E26EE0CB
S1130A5080E0AADF109212028091B80181608D7F3C
S1130A608093B80189E08093BA01CF9108951F93D0
S1130A70CF93DF93EB0190911302890F26DF182F98
S1130A800BC00DDFE12FF0E0EC5EFD4F80831D30E5
S1130A9010F41F5F01C010E089918111F2CFDF9142
S1130AA0CF911F91089590911302890F0EDFE82FC3
S1130AB0F0E0EC5EFD4F8081806880830895909122
S1130AC01002982B90931002089590911002809533
S1130AD08923809310020895882311F0C09A01C0DD
S1130AE0C0988AE18A95F1F700C0C29A8AE18A9592
S1130AF0F1F700C0C298089525B3982F9F71207E06
S1130B00922B95BB98B3869586958873977C892B91
S1130B1088BB089585B38F6185BB88B3886388BB20
S1130B20089584B38F6184BB87B3886387BB0895BA
S1130B3084B3807E84BB87B3877C87BB089586B3E8
S1130B40887393B3880F880F9F71892B8095809346
S1130B5022020895009711F0FC01099408958091F0
S1130B607C008E7F80937C008091C60185FD04C04B
S1130B708091C40180930C02089510927D00ECE7EB
S1130B80F0E0808181608083089580917C008E7F75
S1130B9080937C008091C60185FD04C08091C401CE
S1130BA080930E02089580917C008E7F80937C0058
S1130BB08091C60185FD04C08091C40180930F0219
S1130BC0089582E08093B5010895ECE7F0E0808118
S1130BD08E7F80830198089581E08093B50165EC50
S1130BE070E080E044CF6CEC70E080E040CF80ECBB
S1130BF06CCF80EC6ADFECE7F0E080818061808379
S1130C000895F7DF809107028093C40182E0809306
S1130C10C50163ED70E080E02ACFEBDF809106022E
S1130C208093C40181E08093C5016AED70E080E0A7
S1130C301ECFDFDF80910F028093C4010895D9DFB6
S1130C4080910E028093C4010895ECE7F0E0808166
S1130C508E7F808380E439CF80E837DF8EDF809118
S1130C600C028093C401089580E82FCF6091C401E1
S1130C708091C501A7DB07DB54CD47E050E06CE66B
S1130C8070E083E292E098D78091030286FF06C069
S1130C908091C4018F3558F48B5F07C087FF09C06A
S1130CA08091C401863018F085508093C40110925D
S1130CB0810080917C0084FF10C08091C4018F3535
S1130CC030F442E867E272E090E013D206C08EE4AA
S1130CD0809327028FE48093280263E272E080E02D
S1130CE0C6CE44E050E068E670E083E292E064D768
S1130CF08091030286FF06C08091C4018A3F58F4A4
S1130D008F5F07C087FF07C08091C4018B3018F044
S1130D1081508093C40180917C0084FF08C043E02B
S1130D2063E272E08091C40190E0E3D102C01BD67B
S1130D30019A63E272E083E09ACE47E050E063E711
S1130D4070E083E292E038D780910302807C49F01E
S1130D5081E09091C401911180E08093C4011092CC
S1130D60810080917C0084FF11C08091C40188239C
S1130D7029F08FE4809327028EE406C08FE48093E9
S1130D80260286E4809327028093280263E272E0BD
S1130D9080E06DDE82E087CE47E050E06AE770E0F5
S1130DA083E292E009D79091030280910D0296FFAD
S1130DB004C0833648F48F5F05C097FF05C08230B6
S1130DC018F0815080930D0242E867E272E080914E
S1130DD00D0290E08ED18091D00182FF04C08091F9
S1130DE07C0084FF07C042E864E272E08091CF0196
S1130DF090E07FD110922302EDD3882329F08091D3
S1130E002302816080932302F9D3882329F08091FF
S1130E10230288608093230280912302811103C0FE
S1130E2080E28093230263E272E080E020CEA5DEBC
S1130E3080E445CE47E050E061E870E083E292E070
S1130E40BBD6909103028091C40196FF04C08F3FEA
S1130E5049F08B5F05C097FF07C08F3118F08550AC
S1130E608093C401109281008091C4018F3F41F0AE
S1130E7044E863E272E090E03CD163E272E002C0D5
S1130E8061EE70E080E0F3DD80917C0084FF02C0BD
S1130E9080E815CE80E819CE80E811CE47E050E016
S1130EA061E870E083E292E087D68091FE0180FFE2
S1130EB003C068EE70E013C081FF03C06FEE70E002
S1130EC00EC06091FF0170910002882777FD809524
S1130ED0982F24E843E252E0BFD063E272E080E05E
S1130EE0C6CD0F931F93CF93DF93182FC0E0D0E0AC
S1130EF007E00C9FB0010D9F700D112468577F4FC0
S1130F0047E050E08DEB91E057D68091BD01811709
S1130F1021F02196CE30D10561F7DF91CF911F9159
S1130F200F91089581E08093BC01DBDF8091BE01C5
S1130F309091BF010FCEAF92BF92CF92DF92EF920A
S1130F40FF920F931F93CF93DF9300D000D01F9293
S1130F50CDB7DEB780E890E089D40091020210E0BA
S1130F608091040285FD11608091050285FD126067
S1130F708091800085FD1068149910641092B50169
S1130F80D090BC01E12CF12C35E0A32EAE9CB00135
S1130F90AF9C700D112466517F4F45E050E0CE01A7
S1130FA001960AD689818D110FC02A813B812023A5
S1130FB03123232B49F0DC808D819FE0B92EB822A8
S1130FC020EFC22EC82207C08FEFE81AF80A84E285
S1130FD0E816F104D9F68091BC01D81629F1C09223
S1130FE0C6018091C2019091C301B4DDC6FE02C066
S1130FF00DDD02C0C7FCFCDCD092BC018D2D71DF7D
S11310008091BE019091BF01A5DDBB20A9F0BB0C6E
S1131010BB0CBB0CB09282001092810080918000C6
S113102081608093800008C08CE790E01FD4809199
S1131030C0019091C1018EDD0F900F900F900F9021
S11310400F90DF91CF911F910F91FF90EF90DF9060
S1131050CF90BF90AF900895CF92DF92EF92FF921E
S11310600F931F93CF93DF93122F2223C9F197FF7E
S113107009C090958095709561957F4F8F4F9F4FD4
S113108001E001C000E017FF05C01F77EA01C10FAE
S1131090D11D04C0EA01C10FD11D18822AE0C22E5D
S11310A0D12CE12CF12CA701960127D5605D6A9320
S11310B0B901CA011150611571058105910519F035
S11310C01111F1CF08C0112331F0002321F0219731
S11310D08DE28883115080E201C08A931150E8F7B1
S11310E0DF91CF911F910F91FF90EF90DF90CF9000
S11310F00895FB01242FBC0180E090E0AF01ACCF48
S113110012BA8EE381BB18BA8FE387BB15BA8FE19D
S113111084BB85E083BF12BE81E088BF8CE085BDBF
S113112089EF83BD81E889BF1FBC8BE08EBD8FE74B
S113113090E09BBD8ABD88E088B985EC87B98FE8CB
S113114086B982E08BB988E18AB986E880BD10BC93
S113115082E289B910B812B802DBC82F94D864DCD3
S1131160449A789486EF90E0A3D4CC23A9F061E26A
S113117071E080E07CDC4C2F405D61E085E014DCB4
S113118084E590E07BD42FEF83ED90E32150804001
S11311909040E1F700C000002FEF81EE94E0215071
S11311A080409040E1F700C0000052D2882369F0EB
S11311B067E271E080E05BDC2FEF83ED90E3215088
S11311C080409040E1F700C00000ACDE88E690E08B
S11311D055D4C4E101C0B2D8C150E9F781E0B6D119
S11311E0F89480918C008F7B80938C0078942EE00F
S11311F088E190E00FB6F894A89581BD0FBE21BD9B
S11312008EE291E055D48091060290E05CD4809106
S113121008029091090257D48091070290E053D4B8
S113122080910A0290910B024ED48EE191E040D459
S1131230CDE2D2E080918C0086FFFCCFA8950CD93A
S113124080910502817219F080E690E006C08091D9
S11312500202817E19F084E690E010D480910202AB
S1131260811181D32FD3139B03C080E490E006D473
S113127065D810999DD85FDE38D9FAD9C0D904DA77
S1131280159B36C08091FF01909100021CD480917F
S1131290FC019091FD0117D48091FA019091FB011A
S11312A012D48CED90E004D4888199810CD48A8185
S11312B09B8109D46C817D81882777FD8095982F47
S11312C009D468857985882777FD8095982F02D47D
S11312D06E817F81882777FD8095982FFBD38CEDD5
S11312E090E0E6D38A859B85EED38EE191E0E0D34E
S11312F080918D009091B401981710F48093B401FB
S1131300F89480918C008F7B80938C00789492CF9A
S1131310823308F482E38F502CE0829FC0011124B1
S11313209093C8018093C70108954F925F926F9282
S11313307F929F92AF92BF92CF92DF92EF92FF92F1
S11313400F931F93CF93DF935C017B01942E9C0139
S1131350261B370B2D3581E038075CF4243A8EEFD9
S1131360380754F08BE2829F8001839F100D112473
S113137005C008E91AE302C008E615EC92FC1FC098
S113138083E2829FA001839F500D1124662757FD9D
S11313906095762F8091C9019091CA01A091CB01EB
S11313A0B091CC01840F951FA61FB71F8093C9016C
S11313B09093CA01A093CB01B093CC0108C01092C2
S11313C0C9011092CA011092CB011092CC012D35A3
S11313D081E0380764F437FD0EC0ACE5B1E0A21B30
S11313E0B30B2091C7013091C801B4D308C060E0A9
S11313F070E0CB0104C060E271EA87E090E04090C5
S1131400C9015090CA016090CB017090CC01641561
S11314107505860597054CF46093C9017093CA015C
S11314208093CB019093CC010AC077FE08C0109240
S1131430C9011092CA011092CB011092CC016091A3
S1131440C9017091CA018091CB019091CC0124E62D
S113145030E040E050E051D369018091CD0190919A
S1131460CE018E199F098830910574F4893F2FEFBE
S113147092076CF020E931E0829FE001839FD00D58
S1131480929FD00D112405C0C8EBDBE002C0C8E474
S1131490D4EFF092CE01E092CD0190FE21C0B801CC
S11314A0882777FD8095982F2601662457FC609441
S11314B0762C640D751D861D971D2E01662457FC20
S11314C06094762C640D751D861D971D24E130E013
S11314D040E050E012D3253F81E0380744F402C0D5
S11314E020E030E037FF05C020E030E002C024EF08
S11314F031E0EDE2F2E0B182A082F382E282158370
S11315000483D782C682D187C08722873387C901E3
S1131510DF91CF911F910F91FF90EF90DF90CF90CB
S1131520BF90AF909F907F906F905F904F90089581
S1131530F8949C01253F81E0380710F024EF31E056
S11315403093D2012093D1017894089590E899BF03
S11315508093D3019FED9093840080FF09C0809114
S1131560D4019091D5019093D7018093D6010AC0FC
S113157081FF08C08091D4019091D5019093D90145
S11315808093D80181E889BF089590E899BF90912C
S1131590D0019B7F9093D001882371F08091D40176
S11315A09091D5019093D7018093D6019093D9015E
S11315B08093D8011092CF0181E889BF089590E803
S11315C099BF80959091D00198239093D00181E8A0
S11315D089BF089580E889BF8091D8019091D9018D
S11315E02091D4013091D501821B930B892F8095D2
S11315F091E899BF881F8827881F089580E889BFCC
S11316008091D4019091D5012091D6013091D701D8
S1131610821B930B892F809591E899BF881F882797
S1131620881F089580E889BFD5DF882359F0E6DF55
S1131630882341F08091D00184608093D00181E0BF
S11316408093CF0181E889BF8091D001847008958F
S113165081E0909185009F3009F080E008951F9209
S11316600F920FB60F9211242F933F934F935F93D2
S11316708F939F9343984091DA015091DB01443F4B
S113168081E0580730F082B3806382BB2CE03EEFE8
S113169003C0959820E030E08091D1019091D2016F
S11316A0840F951F820F931F9093DB018093DA01BF
S11316B086EF82BF81E088BF80918500807F80585B
S11316C0809385009F918F915F914F913F912F91CE
S11316D00F900FBE0F901F9018951F920F920FB688
S11316E00F9211242F933F934F935F936F937F93A4
S11316F08F939F93AF93BF93EF93FF938091850054
S11317008F70813049F028F0823049F0833069F4D9
S11317100BC094988CEB01C081ED82BF06C082ECB3
S113172082BF88E188B901C056D8809185008F783E
S1131730813809F081C082B3837F9091D00193FFF7
S113174005C0977F9093D00182BB76C090FF02C002
S1131750846002C091FD886082BB4091D001842FD7
S11317608770853019F08630E9F51DC08091D80165
S11317709091D9012091D4013091D501821B930B12
S1131780181619067CF18091CF0190910D028917EA
S113179028F04B7F40614093D00124C08F5F809339
S11317A0CF0182E01DC08091D4019091D501209198
S11317B0D6013091D701821B930B1816190694F0A9
S11317C08091CF0190910D02891730F0842F8B7F87
S11317D080618093D00106C08F5F8093CF0181E048
S11317E08093D3012091D0019091D301892F822736
S11317F0837019F028622093D0018091D0018C7FEE
S1131800892B9091840089238093D0019FEF90933A
S1131810840080FF06C08091D4019091D501019687
S113182007C081FF09C08091D4019091D50101972F
S11318309093D5018093D40180918500982F9F7057
S11318409F3019F08F5F80938500FF91EF91BF91D6
S1131850AF919F918F917F916F915F914F913F9144
S11318602F910F900FBE0F901F901895FC0190813F
S113187090FF27C0977E9F7D90838181228182176C
S113188050F091FF02C09E7F90839081906290649B
S1131890908320E002C0282F2F5F938189130BC00F
S11318A080818860806182FB992790F931E09327D9
S11318B090FB82F904C0891718F0808180618083CD
S11318C02183089512B88091860081508093860008
S11318D081110FC084E080938600109A80918B0060
S11318E0815080938B00811104C084E180938B002C
S11318F0169A80918A00815019F080938A0004C05E
S113190082E080938A00159A8091870081508093A9
S11319108700811127C088EC80938700119A8091F9
S1131920880081508093880081111CC086E08093D8
S11319308800129A809189008E3519F08F5F809308
S1131940890040918900242F30E080910F0290E0BB
S113195001972817390709F4139A80910F02481345
S113196001C0149A08951092890008951F920F924D
S11319700FB60F9211242F933F934F935F936F935E
S11319807F938F939F93AF93BF93EF93FF93ADD7C1
S11319902091DC01223099F120F4213009F050C06B
S11319A00FC0233021F0253009F04AC015C08091C2
S11319B0DD019091DE019093E0018093DF0144C04A
S11319C08091E1019091E20101979093E20180936B
S11319D0E101892BC9F13BC0E1993BC06091DF0172
S11319E07091E001CB0102969093E0018093DF01B6
S11319F042E050E083EE91E0E8D022E028C08091FC
S1131A00E401882319F18091E301882349F090E0EF
S1131A1001979BBD8ABD1DBC1CBC8FB5806402C0F0
S1131A208FB58F738FBD8091E4012AE0829FC0013E
S1131A30112402979093E2018093E10121E007C011
S1131A408FB58F738FBD03C025E001C020E02093C4
S1131A50DC018CE890E00ADF369AFF91EF91BF91A8
S1131A60AF919F918F917F916F915F914F913F9132
S1131A702F910F900FBE0F901F90189520910E027A
S1131A80211104C02091E501222349F09093DE0145
S1131A908093DD0183E08093DC011092E5010895D9
S1131AA081E08093E50108955D9BFECF8CB9089594
S1131AB0CF93DF93EC0101C0F7DF89918111FCCF53
S1131AC0DF91CF91089546E066EE71E012DB86EE79
S1131AD091E0EECF2CE046EE51E0BEDA86EE91E0E6
S1131AE0E7CF991B79E004C0991F961708F0961B5D
S1131AF0881F7A95C9F780950895052E97FB16F4EB
S1131B00009406D057FD0CD035D007FC09D07EF4E4
S1131B1090958095709561957F4F8F4F9F4F089555
S1131B2050954095309521953F4F4F4F5F4F089505
S1131B3005D0332312F48A1B9B0B0DC0A29FB00166
S1131B40B39FC001A39F01D0B29F700D811D1124CA
S1131B50911D0895F3DFB7FF0895821B930B089539
S1131B60EDDFA59F900DB49F900DA49F800D911D56
S1131B7011240895A1E21A2EAA1BBB1BFD010DC05E
S1131B80AA1FBB1FEE1FFF1FA217B307E407F50729
S1131B9020F0A21BB30BE40BF50B661F771F881F05
S1131BA0991F1A9469F760957095809590959B019B
S1131BB0AC01BD01CF010895FB01DC0102C0059019
S1131BC00D9241505040D8F70895DC01CB01FC013F
S1131BD0E199FECF06C0FFBBEEBBE09A31960DB291
S1131BE00D9241505040B8F70895E199FECF9FBB44
S1131BF08EBBE09A99278DB30895DC01A40FB51F1D
S1131C004150504040F0CB01840F951F2E9105D0D8
S1131C1041505040D8F70895262FE199FECF9FBB3D
S1131C208EBBE09A01970DB2021631F02DBB0FB6B0
S1111C30F894E29AE19A0FBE0895F894FFCF5B
S1131C3E14F6030B15212C3741494F5354534F4976
S1131C4E41372C21150B02201F05FF7F00000704CE
S1131C5E02000000FF0F01C806000114010032004B
S1131C6E0D0A41432073796E63206C6F73740D0AF1
S1131C7E004D61782E206D61696E206C6F6F70203F
S1131C8E74696D653A00206D730D0A005475726E99
S1131C9E204F4646002020204F46460020444F4EFB
S1131CAE45200050322020202000503120202020BA
S1131CBE0020554E524547004552522030310045C2
S1131CCE5252203032000D0A0D0A4C616D696E615C
S1131CDE746F7220636F6E74726F6C6C65722076A3
S1131CEE302E3530312062792041766567610D0AD8
S1131CFE0045525220450045525220414300436153
S1131D0E6C6962726174696F6E20646174613A20E9
S1051D1E0000BF
S9030000FC
