:10000000ADC0C7C0C6C01DCDC4C0C3C0C2C0C1C082
:10001000C0C082CBBEC0BDC0BCC0BBC024C2B9C0C2
:100020003DCBB7C0B6C0303F4F3F3106325B334F98
:100030003466536D356D367D3707387F396F2E80C6
:100040002C802D405F082000B06341774339467112
:100050004E54445E507345795250019408AA069458
:100060000703910745080D06024208DB07890705CB
:100070007707960700000B130696072106047707FB
:10008000590600000C130659062106067F072307B0
:10009000000009130623072A06077F07D50600007C
:1000A0000A1306D5062A06084B06350600000D3D44
:1000B00006350600000E71073906270601C0000349
:1000C000A801000102400100020528020001018090
:1000D00003008301400500820100058000046805DB
:1000E000400007A80500010B280B00830528040029
:1000F000820100048000066804400005A804000195
:100100000C280C00830428060082010006800007EA
:100110006806400004A806000109000700820100EB
:10012000078000056807400006A80700010A0009CB
:1001300000020628090001081408008301000A00D3
:100140000207280A00010D140D0083010001004080
:100150000E000200400E000ED501010011241FBE4A
:10016000CFE5D4E0DEBFCDBF10E0A0E6B0E0E4E62E
:10017000FCE102C005900D92A43EB107D9F721E041
:10018000A4EEB0E001C01D92AA3AB207E1F757D938
:1001900067CD36CF0F931F932091E4003091E50097
:1001A0004091E6005091E700DC0120DD0091E8007D
:1001B0001091E9002091EA003091EB00600F711F6F
:1001C000821F931F28EE33E040E050E0DCDCC901E1
:1001D0001F910F9108950F931F939C012F5F3F4F25
:1001E000A8EEB3E0F1DC0091E8001091E900209165
:1001F000EA003091EB00601B710B820B930B209196
:10020000E4003091E5004091E6005091E700BBDC4E
:10021000C9011F910F9108958F929F92AF92BF9243
:10022000CF92DF92EF92FF92CF93DF93F09078011D
:10023000A0917901B0E0AF19B109C0917A01D091D4
:100240007B0128EE33E0CCDC20917C0130917D01F4
:100250002C1B3D0B40E050E096DC49015A012093F5
:10026000E4003093E5004093E6005093E7002F2D23
:1002700030E0A8EEB3E0A8DC6B017C01DE01A50153
:100280009401B4DCC61AD70AE80AF90AC092E80059
:10029000D092E900E092EA00F092EB00DF91CF917A
:1002A000FF90EF90DF90CF90BF90AF909F908F9096
:1002B000089580914B0190914C016CDF90934E0119
:1002C00080934D010895CF92DF92EF92FF920F93AA
:1002D0001F93CF93DF938C01EB01FA01238120035D
:1002E0006001219FD00C1124EE24D7FCE094FE2C59
:1002F00040811EC0842F90E0DC011197AA0FBB1F24
:10030000AC0FBD1F2D913C91DC01AA0FBB1FAC0FA0
:10031000BD1F2D933C93DF01A80FB91F1396AC911D
:10032000BB27A7FDB0954ADCC60ED71EE81EF91EF6
:10033000415001F7198308832181328140E050E068
:10034000C701B60120DCC901DF91CF911F910F9148
:10035000FF90EF90DF90CF900895CF92DF92EF92D1
:10036000FF923398C0907A00D0907B00E0907C00A0
:10037000F0907D002091770030E040E050E0C70130
:10038000B601DFDB30934C0120934B01D701C6014E
:1003900062E0B695A795979587956A95D1F7909362
:1003A00022018093210140E650E06FE471E08BDF91
:1003B0009093200180931F01339AFF90EF90DF907C
:1003C000CF900895FF920F931F93CF93DF93FC017B
:1003D000CB012085211118C0278141813281A42FB2
:1003E000B32FA20FB11DA20FB11D2D913C914381DE
:1003F000548165817681421B530B610971094383E6
:1004000054836583768305C0178213821482158214
:100410001682D181F28043815481658176818C017D
:1004200020E030E0C781AD2FBF2DAC0FB11DAC0F68
:10043000B11D8D939C93CF5FC783400F511F621FE7
:10044000731FA081CA1302C017821086A085A11154
:10045000E9CF4383548365837683DF91CF911F91E6
:100460000F91FF9008951F920F920FB60F921124D3
:100470002F933F934F935F936F937F938F939F93AC
:10048000AF93BF93EF93FF9384B195B160E074E0B5
:10049000681B790B87E790E095DFFF91EF91BF91A3
:1004A000AF919F918F917F916F915F914F913F910C
:1004B0002F910F900FBE0F901F9018955091F20042
:1004C000309180009091A9019093F200692F60957E
:1004D000609380008091F3008C3010F02FEF01C00A
:1004E00020E0591719F01092F30005C08D3018F470
:1004F0008F5F8093F3007091F3007C3011F44FEF25
:1005000001C040E0892F83238093EF00773008F00B
:100510003FEF39233093EE00209556232523209377
:10052000ED0049234093EC008D7F90E025FD916024
:1005300045FD926036FD946037FD98609093F10020
:100540008093F0000895CF938091F40080FF0FC056
:1005500081E050D880914D0190914E01C39708F0F1
:100560005FC081E08093F60080E023D859C080917D
:10057000EF0082FF04C081E01CD8C1E013C084FFFB
:1005800004C082E016D8C2E00DC08091EC0083FF69
:1005900004C081E02FD8C8E005C08091F600811129
:1005A00008D8C0E01092F6008091ED0083FF0EC0E5
:1005B0008091100182FF04C080E01CD8C06206C098
:1005C00055D8882311F0C06101C0C064809110012A
:1005D00085FF04C08F7D80931001C460809110015D
:1005E00084FF04C08F7E80931001C068C7FF06C0DF
:1005F00088EE93E0F0D988EC90E011C0C6FF03C00C
:1006000084EF91E009C0C3FF03C080E293E004C01F
:10061000C77331F088EE93E0DED982E390E0FBD936
:1006200088E1B1D28091100180FF02C088E003C050
:1006300081FF03C080E1CF91A0C2CF910895EF92D6
:10064000FF920F931F93CF93DF938B01861B970B22
:10065000853691055CF48C392FEF920754F02AE02F
:10066000289FE001299FD00D112405C0C0EDD7E0DF
:1006700002C0C0E3D8EF2091F7003091F800280FB6
:10068000391F293E83E038073CF088EE93E09093D1
:10069000F8008093F7000BC037FD05C03093F800D9
:1006A0002093F70004C01092F8001092F7002091F8
:1006B000F7003091F80045E0429FC001439F900D44
:1006C000112464E170E02ADA7B018091F9009091B5
:1006D000FA00801B910B41E850E06AE871E02AE0E3
:1006E000FC012E9FC0012F9F900D1124ECDD109373
:1006F000FA000093F90022E3289FF001299FF00DF2
:100700001124CE018E0D9F1D8E0F9F1F65E070E09E
:1007100005DA9B0177FF02C020E030E0C9012536F1
:10072000310514F084E690E0D0938501C0938401F4
:10073000F0939301E0939201F0928901E092880195
:100740009093830180938201DF91CF911F910F914C
:10075000FF90EF9008950F931F93CF93DF938091B5
:10076000F00080FF0BC08091F50091E08927809315
:10077000F500809197008064809397008091F40049
:1007800080FF05C08091F5008E7F8093F5008091F9
:10079000970086FF3AC080917E0190E01CDD25E045
:1007A000289FE001299FD00D1124D695C79500916F
:1007B0001F011091200116950795B801CE013FDF6A
:1007C0009091F50090FF02C090E002C080E090E0C0
:1007D000E3D68091F500982F917080FF03C080913F
:1007E0007E0101C080E080937701911102C0C0E0DA
:1007F000D0E0D0939501C093940180911F01809324
:10080000960110938701009386018091F50080FF87
:1008100006C084E0DF91CF911F910F91AEC184E0BB
:10082000DF91CF911F910F91AEC160911F01709127
:10083000200180E090E003CFCF93DF93C0914D0182
:10084000D0914E0120917E0130E060918800862F8A
:1008500090E0A901481B590B4C175D0798F4820FD3
:10086000931FC817D90770F4653051F48091F500D3
:1008700080FF06C088EE93E0AED880E991E0CBD847
:100880008AE001C085E0809388008091F500837044
:1008900009F00BC08091970081FF19C080918900F9
:1008A00090918A00C817D90728F4D0938A00C09382
:1008B00089000DC00F96C817D90748F0BED88CED37
:1008C00095E089D888E893E1DF91CF91A4C8DF91C2
:1008D000CF91089544E050E066E070E08EE791E04B
:1008E0008FD946E050E060E070E088E791E088C989
:1008F00046E050E060E070E088E791E091C917BA07
:1009000018BA14BA15BA11BA12BAF89444E050E001
:1009100066E070E08EE791E083D9FFCF20E030E021
:10092000A901440F551FFA01EA5DFF4FE491E81356
:1009300005C0FA01E95DFF4F849108952F5F3F4F95
:100940002A31310569F70895282F87FD81958E306A
:1009500018F06EE0C3D8892F27FF05C0882319F04F
:100960009EE0981B892F0895CF9381E013D1C09109
:10097000FC00CC2319F0C630D1F511C037D128D1F5
:1009800085E38A95F1F7000038D129D180E002D1C2
:10099000809198018093FB00C091FC0028C0809159
:1009A0009901811101C01BC08DEF90E07ED780912D
:1009B000FD0085FF14C08091980190919A018913E0
:1009C00003C0109299010BC090919901923049F4A3
:1009D0008D3010F48F5F01C080E080939801C0E0FB
:1009E00007C0882311F08150F8CF8DE0F6CFCF5F9C
:1009F0008091FC00863021F480919701DBD010C0FB
:100A0000E091FB00F0E0E556FE4F8081D3D080916D
:100A1000FB008D3010F48F5F01C080E08093FB00FD
:100A2000C093FC00CF9108950F931F93CF93DF9352
:100A30001F92CDB7DEB7182F842F69836FDF082F81
:100A400080919A01810F80DF69810AC0E82FF0E070
:100A5000E556FE4F00838D3010F48F5F01C080E0BB
:100A60006150A0F70F90DF91CF911F910F910895E2
:100A700040E262E08EEFD8DF80919A01885064DF17
:100A800080939A0181E080939901089540E262E0A9
:100A900086E0CADF80919A01885F56DF80939A01D1
:100AA00082E0809399010895CF93A0D0C7E081E0C0
:100AB00071D0C150E1F793D01092980110929A0131
:100AC0001092FB001092FC001092970140E26EE041
:100AD00080E0AADF109299018091FD0081608D7FF6
:100AE0008093FD0089E08093FF00CF910895FF92ED
:100AF0000F931F93CF93DF93EB0190919A01890F8E
:100B000023DF182FF82E02E023C008DF803811F40D
:100B1000016001C00E7F013049F4EF2DF0E0E55691
:100B2000FE4F9081982B9083812F0BC0E12FF0E036
:100B3000E556FE4F80831D3018F4812F8F5F01C072
:100B400080E000FF02C003E001C000E0F12E182F9A
:100B500089918111DACFDF91CF911F910F91FF9091
:100B6000089590919A01890FEFDEE82FF0E0E556A5
:100B7000FE4F808180688083089590919701982B23
:100B80009093970108959091970180958923809380
:100B900097010895882311F0C09A01C0C0988AE196
:100BA0008A95F1F700C0C29A8AE18A95F1F700C0F0
:100BB000C298089525B3982F9F71207E922B95BBE4
:100BC00098B3869586958873977C892B88BB089502
:100BD00085B38F6185BB88B3886388BB089584B370
:100BE0008F6184BB87B3886387BB089584B3807E9D
:100BF00084BB87B3877C87BB089586B3887393B320
:100C0000880F880F9F71892B80958093A901089583
:100C1000009711F0FC0109940895E9E0F1E080816A
:100C20008E7F8083089510920A0187E080930B01E4
:100C300084E080930C01E9E0F1E0808181608083B1
:100C40000895E9E0F1E080818E7F8083089510921D
:100C5000F4000895E9E0F1E080818E7F8083809147
:100C6000F5008D7F8093F500089566EC70E080E0DC
:100C70003ECF6DEC70E080E03ACF80914B019091D7
:100C80004C0190937D0180937C0180910E018093B3
:100C90007901C2DA2DCE80914B0190914C01909355
:100CA0007B0180937A0180910D0180937801B4DA01
:100CB0001FCECF93DF93CDB7DEB727970FB6F8944B
:100CC000DEBF0FBECDBF87E0ECE9F0E0DE0111969C
:100CD00001900D928A95E1F78091F0009091F100DA
:100CE0009C0120743470232B31F0809181018F3569
:100CF00068F48B5F09C080789870892B49F08091E7
:100D00008101863018F085508093810110928C000B
:100D10008091090184FF10C0809181018F3541F0DD
:100D200020E242E8BE016B5F7F4F90E0BAD204C080
:100D30008EE48D838FE48E83BE016F5F7F4F80E0F2
:100D4000D6DE27960FB6F894DEBF0FBECDBFDF917B
:100D5000CF910895CF93DF93CDB7DEB727970FB626
:100D6000F894DEBF0FBECDBF87E0E3EAF0E0DE011E
:100D7000119601900D928A95E1F720E244E8BE01B8
:100D80006F5F7F4F80914D0190914E018AD2BE01DD
:100D90006F5F7F4F80E0ABDE27960FB6F894DEBF23
:100DA0000FBECDBFDF91CF910895CF93DF93CDB725
:100DB000DEB727970FB6F894DEBF0FBECDBF87E032
:100DC000EAEAF0E0DE01119601900D928A95E1F7D2
:100DD0008091F0009091F1009C0120743470232BDD
:100DE00031F080910E018A3F68F48F5F09C08078EE
:100DF0009870892B39F080910E018B3018F081505A
:100E000080930E018091090184FF0FC020E243E826
:100E1000BE016C5F7F4F80910E0190E042D2D8D529
:100E20008091F50082608093F500BE016F5F7F4F77
:100E300080E05DDE27960FB6F894DEBF0FBECDBF13
:100E4000DF91CF910895CF93DF93CDB7DEB727978A
:100E50000FB6F894DEBF0FBECDBF87E0E1EBF0E048
:100E6000DE01119601900D928A95E1F78091F000D4
:100E70009091F1009C0120743470232B31F080910B
:100E80000D018A3F68F48F5F09C080789870892BC4
:100E900039F080910D018B3018F0815080930D0155
:100EA0008091090184FF0FC020E243E8BE016C5F1E
:100EB0007F4F80910D0190E0F4D18AD58091F500AB
:100EC00082608093F500BE016F5F7F4F80E00FDE90
:100ED00027960FB6F894DEBF0FBECDBFDF91CF913E
:100EE000089580EC50DE81E08093F400089580EC5A
:100EF0004ADEE9E0F1E08081806180830895F7DFD8
:100F00008091780180930D018091790180930E0189
:100F1000089580E438DEE9E0F1E080818E7F80830F
:100F2000089580E830DE7FCE80E82DCECF93DF932A
:100F3000CDB7DEB727970FB6F894DEBF0FBECDBF93
:100F400087E0E8EBF0E0DE01119601900D928A95C2
:100F5000E1F78091F0009091F100807C9927892B36
:100F600049F081E090918001911180E080938001AF
:100F700010928C008091090184FF0DC08091800146
:100F8000882321F08FE48D838EE404C08FE48C836A
:100F900086E48D838E83BE016F5F7F4F80E0A7DD87
:100FA00082E0DFDD27960FB6F894DEBF0FBECDBF1F
:100FB000DF91CF910895CF93DF93CDB7DEB7279719
:100FC0000FB6F894DEBF0FBECDBF87E0EFEBF0E0C9
:100FD000DE01119601900D928A95E1F78091F00063
:100FE0009091F1009C0120743470232B31F080919A
:100FF0007F01833668F48F5F09C080789870892BF1
:1010000039F080917F01823018F0815080937F0108
:1010100020E242E8BE016B5F7F4F80917F0190E04C
:1010200040D18091100182FF04C08091090184FFAA
:1010300009C020E242E8BE016E5F7F4F80910F0140
:1010400090E02FD11982F2D2882319F08981816032
:101050008983FCD2882319F08981886089838981FA
:10106000811102C080E28983BE016F5F7F4F80E003
:101070003EDD27960FB6F894DEBF0FBECDBFDF91E1
:10108000CF91089580E479DDCECDCF93DF93CDB7B6
:10109000DEB727970FB6F894DEBF0FBECDBF87E04F
:1010A000E3EAF0E0DE01119601900D928A95E1F7F6
:1010B0008091F0009091F1009C0120743470232BFA
:1010C00031F080917E018A3F68F48B5F09C080789F
:1010D0009870892B49F080917E018F3118F08550EE
:1010E00080937E0110928C0020E244E8BE016F5F85
:1010F0007F4F80917E0190E0D4D0BE016F5F7F4F23
:1011000080E0F5DC8091090184FF03C080E835DDD3
:1011100002C080E838DD27960FB6F894DEBF0FBE18
:10112000CDBFDF91CF91089580E827CD1F93CF9356
:10113000DF93C0E0D0E017E01C9F90011D9F300DB1
:101140001124265A3F4FF90194913196A591B491FB
:10115000F9013396659174912B5F3F4FF9014591E9
:101160005491981303C08093020106C02196CE309B
:10117000D10511F790930201A0930301B0930401EC
:101180006093050170930601409307015093080195
:10119000DF91CF911F91089581E080930101C6DF17
:1011A000809103019091040133CDFF920F931F931F
:1011B000CF93DF938BE890E078D34091F00050918B
:1011C000F10080918B0085FD50688091970084FD2F
:1011D00050648091010160E070E095E0969F90017D
:1011E000979F300D112424543F4FF90114913196EB
:1011F000A591B491F9013396D491F90134962491D3
:1012000018130EC0A423B523AB2B51F0C22FCF73FC
:1012100026FB002700F9F22EFF1CFF24FF1C06C04E
:101220006F5F7F4F60327105C9F6D82F10E0F0FA7A
:1012300010F900FB11F9D81709F18091070190917D
:101240000801E6DC11FF02C021DC02C010FD10DC49
:10125000D09301018D2F6ADF8091030190910401E9
:10126000D7DCCC23C1F0CC0FC0938D0010928C0042
:1012700080918B00816080938B000DC089E091E0AC
:1012800014D38091050190910601DF91CF911F91B8
:101290000F91FF90BDCCDF91CF911F910F91FF90E7
:1012A0000895CF93DF9347FF05C04F77FB01E40F0D
:1012B000F11D04C0FB01E40FF11D1082CAE0D0E073
:1012C000BE0118D4805D8293CB014150009721F07C
:1012D0004111F6CF01C022934150E8F7DF91CF9141
:1012E0000895CF92DF92EF92FF920F931F93CF93C7
:1012F000DF93122F6B017C01CC24F7FCC394DD2417
:10130000EE24FF240C2DCC2039F09095809570951B
:1013100061957F4F8F4F9F4FEA01C10FD11D1882FA
:101320002AE0C22ED12CE12CF12CA70196012BD45E
:10133000605D6A93B901CA0111506115710581059B
:10134000910519F01111F1CF08C0112331F00023DC
:1013500021F021978DE28883115080E201C08A93A9
:101360001150E8F7DF91CF911F910F91FF90EF900F
:10137000DF90CF900895CF93DF93CDB7DEB72C9752
:101380000FB6F894DEBF0FBECDBF2CE0AE014F5FAD
:101390005F4FA7DFCE0101968FD32C960FB6F8943E
:1013A000DEBF0FBECDBFDF91CF910895CF93DF9306
:1013B00000D000D000D0CDB7DEB720E246E0BE01BD
:1013C0006F5F7F4F6EDFCE01019676D326960FB604
:1013D000F894DEBF0FBECDBFDF91CF91089512BA52
:1013E0008EE381BB18BA8FE387BB15BA8FE184BB4C
:1013F00085E083BF12BE88B7816088BF89B78160EE
:1014000089BF8CE085BD89EF83BD89B7806889BFBE
:101410001FBC8BE08EBD8FE790E09BBD8ABD88E04E
:1014200088B985EC87B98FE886B982E08BB988E105
:101430008AB986E880BD10BC82E289B90895CF934D
:10144000DF931F92CDB7DEB71982C9DF43DAE4D646
:101450002BDB449A78942FEF80E792E02150804074
:101460009040E1F700C0000080918F008F3069F458
:1014700064ED70E080E03BDB2FEF83ED90E32150E3
:1014800080409040E1F700C0000086DE88EE93E0E7
:10149000A2D288EC90E0BFD260D7C7D981E089D0D2
:1014A000809198008F7B809398008091980086FFB0
:1014B000FCCF04D88091F0009091F10091FF03C01F
:1014C00080E293E006C08091EF00817E31F088EEEB
:1014D00093E081D288E290E09ED28091EF0081116A
:1014E00077D20FD28091970083FF06C080EB94E003
:1014F00072D288EC90E08FD230D78091970080FD37
:10150000D8D653DE20D827D997D98091970085FF68
:10151000C7CF80914D0190914E0148DF809121010C
:101520009091220143DF80911F01909120013EDFC5
:101530008BED90E0C1D2809194019091950136DFBE
:10154000809186019091870131DF609184017091D3
:101550008501882777FD8095982F0DDF6091920196
:1015600070919301882777FD8095982F04DF609113
:10157000880170918901882777FD8095982FFBDE7F
:101580008BED90E099D280918201909183010EDFE2
:1015900080EE90E091D284CF43989C0185369105EE
:1015A00010F024E630E03093120120931101439AA9
:1015B000089599B79E7F99BF809313019FED9093F3
:1015C000900080FF09C080911401909115019093C3
:1015D0001701809316010AC081FF08C08091140191
:1015E00090911501909319018093180189B781603A
:1015F00089BF089599B79E7F99BF909110019B7FF5
:1016000090931001882371F080911401909115013D
:1016100090931701809316019093190180931801FC
:1016200010920F0189B7816089BF089580911801D8
:10163000909119012091140130911501821B930B97
:10164000892F8095881F8827881F0895809114010D
:10165000909115012091160130911701821B930B77
:10166000892F8095881F8827881F089589B78E7FC6
:1016700089BFDCDF882359F0E9DF882341F08091BE
:10168000100184608093100181E080930F0189B77D
:10169000816089BF80911001847008951F920F921C
:1016A0000FB60F9211242F933F934F935F938F9315
:1016B0009F93439840911A0150911B014436510564
:1016C00030F082B3806382BB2CE93FEF03C0959872
:1016D00020E030E08091110190911201840F951F5C
:1016E000820F931F90931B0180931A0186EF82BF94
:1016F00088B7816088BF80918F00807F80588093F9
:101700008F009F918F915F914F913F912F910F90FB
:101710000FBE0F901F9018951F920F920FB60F9249
:1017200011242F933F934F935F936F937F938F93E6
:101730009F93AF93BF93EF93FF9380918F008F7030
:10174000813049F028F0823049F0833069F40BC0D1
:1017500094988CEB01C082EC82BF06C080EE82BF01
:10176000449A439A01C0CBD880918F008F788138FA
:1017700009F081C082B3837F9091100193FF05C06F
:10178000977F9093100182BB76C090FF02C0846067
:1017900002C091FD886082BB40911001842F877048
:1017A000853019F08630E9F51DC0809118019091BF
:1017B00019012091140130911501821B930B181609
:1017C00019067CF180910F0190917F01891728F013
:1017D0004B7F40614093100124C08F5F80930F01C5
:1017E00082E01DC080911401909115012091160195
:1017F00030911701821B930B1816190694F08091F3
:101800000F0190917F01891730F0842F8B7F8061C9
:101810008093100106C08F5F80930F0181E0809359
:1018200013012091100190911301892F8227837059
:1018300019F0286220931001809110018C7F892B70
:10184000909190008923809310019FEF90939000D6
:1018500080FF06C08091140190911501019607C088
:1018600081FF09C080911401909115010197909317
:1018700015018093140180918F00982F9F709F30E5
:1018800019F08F5F80938F00FF91EF91BF91AF911F
:101890009F918F917F916F915F914F913F912F9188
:1018A0000F900FBE0F901F901895FC01908190FF34
:1018B00027C0977E9F7D908381812281821750F07F
:1018C00091FF02C09E7F908390819062906490838C
:1018D00020E002C0282F2F5F938189130BC08081E5
:1018E0008860806182FB992790F931E0932790FB13
:1018F00082F904C0891718F0808180618083218378
:1019000008951092970080919100815080939100EA
:10191000811113C084E08093910081E0809397004F
:1019200080919600815080939600811106C08AE0D4
:101930008093960081E48093970080919500815078
:1019400019F08093950008C082E080939500809103
:1019500097008062809397008091920081508093DD
:101960009200811134C088EC8093920040919700DE
:10197000842F8260809397008091930081508093A0
:101980009300811124C086E080939300842F8660A9
:1019900080939700809194008E3519F08F5F80932B
:1019A00094006091940050918101262F30E0852FA2
:1019B00090E001972817390719F44E60409397007B
:1019C000651305C08091970080618093970008950A
:1019D0001092940008959C0140E050E060E472E4AD
:1019E0008FE090E0D0D0DA01C901887FAA27BB2719
:1019F000892B51F043E0369527954A95E1F7215020
:101A000031093BBD2ABD04C081E090E09BBD8ABD89
:101A10001DBC1CBC089520918001211104C020919F
:101A20001C01222339F090931E0180931D018FB574
:101A300080648FBD10921C01089581E080931C0189
:101A400008951F920F920FB60F9211242F933F9378
:101A50004F935F936F937F938F939F93AF93BF93B6
:101A6000EF93FF9380911D0190911E01009731F03B
:101A7000019790931E0180931D0103C08FB58F7352
:101A80008FBD72D788E990E010DF369AFF91EF9111
:101A9000BF91AF919F918F917F916F915F914F9186
:101AA0003F912F910F900FBE0F901F9018955E9A47
:101AB0008CB95E9BFECF08951F93CF93DF93EC010B
:101AC00010E002C01F5FF3DFFE01E10FF11D808116
:101AD0008111F8CFDF91CF911F910895991B79E083
:101AE00004C0991F961708F0961B881F7A95C9F7AE
:101AF00080950895AA1BBB1B51E107C0AA1FBB1FFD
:101B0000A617B70710F0A61BB70B881F991F5A9589
:101B1000A9F780959095BC01CD01089597FB072EFC
:101B200016F4009406D077FD08D0E4DF07FC05D05A
:101B30003EF4909581959F4F0895709561957F4FE4
:101B40000895A1E21A2EAA1BBB1BFD010DC0AA1FFE
:101B5000BB1FEE1FFF1FA217B307E407F50720F016
:101B6000A21BB30BE40BF50B661F771F881F991F91
:101B70001A9469F760957095809590959B01AC01DA
:101B8000BD01CF010895052E97FB16F4009406D0F1
:101B900057FD0CD0D6DF07FC09D07EF490958095D8
:101BA000709561957F4F8F4F9F4F08955095409549
:101BB000309521953F4F4F4F5F4F089505D0332308
:101BC00012F48A1B9B0B0DC0A29FB001B39FC001F2
:101BD000A39F01D0B29F700D811D1124911D089506
:101BE000F3DFB7FF0895821B930B0895EDDFA59FE8
:101BF000900DB49F900DA49F800D911D1124089508
:101C0000DC01CB01FC01E199FECF06C0FFBBEEBBBE
:101C1000E09A31960DB20D9241505040B8F70895B8
:101C2000DC01A40FB51F4150504040F0CB01840FA0
:101C3000951F2E9105D041505040D8F70895262F7A
:101C4000E199FECF9FBB8EBBE09A01970DB20216C1
:101C500031F02DBB0FB6F894E29AE19A0FBE0895C9
:041C6000F894FFCF26
:101C640014F6030B15212C3741494F5354534F4954
:101C740041372C21150B0214230100000000000140
:101C8400FF0400014042403B05FFFF020000000F3B
:101C9400FF01C80600010A00010032004F46462039
:101CA40020200020202020B043005032202020207B
:101CB4000050312020202000534E442020200020BA
:101CC40020202020200020444F4E452000202020AA
:101CD4004F46460041432045525200202020200018
:041CE4000A0D0000E5
:00000001FF
