:1000000093C0ADC0ACC0B4CCAAC0A9C0A8C0A7C0A2
:10001000A6C046CBA4C0A3C0A2C0A1C09CC19FC023
:100020001DCB9DC09CC0017A089306770703740717
:100030002608E605022308BE076C07055A0779075C
:1000400000000BEC057907FA05045A074206000088
:100050000CEC054206FA050662070707000009ECEA
:10006000050707FA05076207BE0600000AEC05BE91
:1000700006FA05083506000600000D2806000600F1
:10008000000E54070406500701060003A8010001F2
:1000900002400100020528020001018003008301E3
:1000A000400500820100050400046805020007A85D
:1000B0000500010B280B00830528040082010004C1
:1000C0000400066804020005A80400010C280C00C6
:1000D0008304280600820100060400076806020067
:1000E00004A80600010900070082010007040005BA
:1000F0006807020006A80700010A00090002062896
:10010000090001081408008301000A000207280AF8
:1001100000010D140D008301000100400E000200DB
:10012000400E000EF601010011241FBECFE5D4E001
:10013000DEBFCDBF10E0A0E6B0E0E4E4FBE102C02A
:1001400005900D92A43CB107D9F721E0A4ECB0E0F2
:1001500001C01D92A435B207E1F7E0D8F1CC50CF31
:100160000F931F932091C4003091C5004091C600A9
:100170005091C700DC01CADC0091C8001091C90091
:100180002091CA003091CB00600F711F821F931F16
:1001900028EE33E040E050E08CDCC9011F910F9164
:1001A00008950F931F939C012F5F3F4FA8EEB3E07C
:1001B0009BDC0091C8001091C9002091CA003091C9
:1001C000CB00601B710B820B930B2091C40030910C
:1001D000C5004091C6005091C7006BDCC9011F915A
:1001E0000F9108958F929F92AF92BF92CF92DF921C
:1001F000EF92FF92CF93DF93F0902001A091400106
:10020000B0E0AF19B109C0913801D091390128EEA1
:1002100033E076DC20913C0130913D012C1B3D0BFD
:1002200040E050E046DC49015A012093C40030937D
:10023000C5004093C6005093C7002F2D30E0A8EEB4
:10024000B3E052DC6B017C01DE01A50194015EDCB0
:10025000C61AD70AE80AF90AC092C800D092C900A3
:10026000E092CA00F092CB00DF91CF91FF90EF9027
:10027000DF90CF90BF90AF909F908F90089543985C
:100280002091600030E040E050E0609163007091A8
:1002900064008091650090916600E9DB30931D0158
:1002A00020931C01439AC9015BDF90931F01809347
:1002B0001E010895FF920F931F93CF93DF93FC01CC
:1002C000CB012085211118C0278141813281A42FC3
:1002D000B32FA20FB11DA20FB11D2D913C914381EF
:1002E000548165817681421B530B610971094383F7
:1002F00054836583768305C0178213821482158226
:100300001682D181F28043815481658176818C018E
:1003100020E030E0C781AD2FBF2DAC0FB11DAC0F79
:10032000B11D8D939C93CF5FC783400F511F621FF8
:10033000731FA081CA1302C017821086A085A11165
:10034000E9CF4383548365837683DF91CF911F91F7
:100350000F91FF9008951F920F920FB60F921124E4
:100360002F933F934F935F936F937F938F939F93BD
:10037000AF93BF93EF93FF9384B195B160E074E0C6
:10038000681B790B80E690E095DFFF91EF91BF91BC
:10039000AF919F918F917F916F915F914F913F911D
:1003A0002F910F900FBE0F901F901895FC01208188
:1003B00030E040E050E0638174818581968157DBB5
:1003C000C90108955091D200309169009091530174
:1003D0009093D200692F6095609369008091D3005B
:1003E0008C3010F02FEF01C020E0591719F0109257
:1003F000D30005C08D3018F48F5F8093D3007091C7
:10040000D3007C3011F44FEF01C040E0892F8323EB
:100410008093CF00773008F03FEF39233093CE0040
:100420002095562325232093CD0049234093CC00CB
:10043000877F90E020FF01C091609093D10080936E
:10044000D00040FF09C08091D0009091D10092600F
:100450009093D1008093D00031FF09C08091D000EB
:100460009091D10094609093D1008093D00032FF9E
:1004700009C08091D0009091D10098609093D100F4
:100480008093D0000895CF93DF938091010181FF85
:1004900003C081E08FD873C080FF0AC080911E0125
:1004A00090911F01C39708F06AC080E065D867C0CB
:1004B00082FF06C08091CF00807311F480E15CD888
:1004C0008091CF0084FF04C081E056D8C1E00FC006
:1004D00085FF04C082E050D8C2E009C08091CC0002
:1004E00087FF04C081E066D8C8E001C0C0E0809109
:1004F000CD0087FF0EC08091F30082FF04C080E032
:1005000059D8C06206C092D8882311F0C06101C0DA
:10051000C0648091F30085FF04C08F7D8093F30059
:10052000C4608091F30084FF04C08F7E8093F30049
:10053000C068D091D400DC23D7FF06C088EE93E0DA
:10054000CBD988EC90E012C0D6FF03C084EF91E0D5
:100550000AC0D3FF03C080E293E005C08D2F8773EC
:1005600031F088EE93E0B8D982E390E0D5D98FEFEF
:100570008093D400D37019F08BEF8093D40080E384
:10058000DBD28091F30080FF02C080E103C081FFD5
:1005900004C080E2DF91CF91C9C2DF91CF9108956D
:1005A0000F931F93CF93DF93861B970B8531910594
:1005B0005CF48C3E2FEF920754F02FE0289FE0016F
:1005C000299FD00D112405C0C8EED3E002C0C8E1B8
:1005D000DCEF2091DA003091DB00181619060CF0E0
:1005E0000FC0820F931F8B3091051CF08AE090E0C2
:1005F00002C097FD05C09093DB008093DA0004C031
:100600001092DB001092DA008091DA009091DB000A
:100610002FE0289F8001299F100D112480916D00EB
:1006200090916E009093DD008093DC008AE690E06C
:1006300041DE8091DC009091DD0020916D003091D1
:100640006E00821B930B40E5489F9001499F300D3F
:100650001124CE01800F911F820F931F65E070E07F
:10066000F3D9CB0177FF02C080E090E0833391059E
:1006700014F082E390E0D0932501C09324013093DD
:1006800037012093360110932C0100932B01909396
:10069000220180932101DF91CF911F910F91089545
:1006A0008091D00086FF07C08091D50091E0892716
:1006B0008093D50054D78091010180FD1092D50020
:1006C00080911E0190911F012091280130912901F4
:1006D000E09173004E2F50E0B901641B750B681751
:1006E000790798F4240F351F8217930770F4E530CB
:1006F00051F48091D500882331F088EE93E0ECD856
:1007000080E991E009D98AE001C085E08093730017
:100710008091F50087FF18C08091280190912901F0
:1007200040DD9093D7008093D600609106017091D0
:10073000070136DF8093D8001092D9009091D50040
:10074000911101C080E0FDD68091D500882379F019
:1007500080E4ECD180912801809323018091D60020
:100760009091D70090933F0180933E0108C0109272
:10077000230110923F0110923E0180E4DDD180916F
:10078000060190910701ECDC80933B01809106010A
:100790009091070190932701809326010895CF93AC
:1007A000DF93CDB7DEB72A970FB6F894DEBF0FBE42
:1007B000CDBF4AE050E060E070E0CE010196B0D9D4
:1007C000898180932801109229018A8180932D01CB
:1007D0008B8180932A018C8180933A018D81809353
:1007E00020018E81809340018F81988590933901FB
:1007F0008093380189859A8590933D0180933C01CF
:100800002A960FB6F894DEBF0FBECDBFDF91CF9111
:1008100008950895883309F452C018F5813309F416
:100820006AC090F48D3209F450C038F4803209F473
:1008300050C08C3209F060C046C08E3209F443C00B
:10084000803309F059C02DC0843389F130F48233EC
:1008500051F1833309F050C028C0863361F168F547
:1008600028C08E34F1F170F48434E9F130F4893326
:1008700041F1833409F040C030C08534C1F1863481
:10088000D9F52DC08235A9F128F48F3451F0803587
:1008900099F52BC08F35D9F0803BE9F0833561F5B0
:1008A00008C08FE308958BE508958FE4089586E6E8
:1008B00008958DE608958DE7089587E008958FE700
:1008C00008958FE6089580E8089580E4089588E00B
:1008D000089580E0089583E6089589E3089581E707
:1008E000089584E508958EE5089583E7089589E7DE
:1008F000089580E5089586E00895282F87FD819565
:100900008E3018F06EE080D8892F27FF05C088232D
:1009100019F09EE0981B892F0895CF9381E013D1A1
:10092000C091DF00CC2319F0C630D1F511C037D10A
:1009300028D185E38A95F1F7000038D129D180E0EC
:1009400002D1809142018093DE00C091DF0028C077
:1009500080914301811101C01BC080EE90E090D7CF
:100960008091E00085FF14C0809142019091440184
:10097000891303C0109243010BC090914301923040
:1009800049F48D3010F48F5F01C080E08093420104
:10099000C0E007C0882311F08150F8CF8DE0F6CF7A
:1009A000CF5F8091DF00863021F480914101DBD060
:1009B00010C0E091DE00F0E0EB5BFE4F8081D3D011
:1009C0008091DE008D3010F48F5F01C080E0809355
:1009D000DE00C093DF00CF9108950F931F93CF9354
:1009E000DF931F92CDB7DEB7182F842F698312DFF4
:1009F000082F80914401810F80DF69810AC0E82FB0
:100A0000F0E0EB5BFE4F00838D3010F48F5F01C090
:100A100080E06150A0F70F90DF91CF911F910F916F
:100A2000089540E262E08EEFD8DF80914401885063
:100A300064DF8093440181E080934301089540E2A4
:100A400062E086E0CADF80914401885F56DF8093D0
:100A5000440182E0809343010895CF93A0D0C7E082
:100A600081E071D0C150E1F793D010924201109211
:100A700044011092DE001092DF001092410140E22A
:100A80006EE080E0AADF109243018091E000816077
:100A90008D7F8093E00089E08093E200CF910895FC
:100AA000FF920F931F93CF93DF93EB01909144013B
:100AB000890F23DF182FF82E02E023C0ABDE803829
:100AC00011F4016001C00E7F013049F4EF2DF0E018
:100AD000EB5BFE4F9081982B9083812F0BC0E12F11
:100AE000F0E0EB5BFE4F80831D3018F4812F8F5FA9
:100AF00001C080E000FF02C003E001C000E0F12E71
:100B0000182F89918111DACFDF91CF911F910F9129
:100B1000FF90089590914401890FEFDEE82FF0E0F7
:100B2000EB5BFE4F80818068808308959091410146
:100B3000982B9093410108959091410180958923CC
:100B4000809341010895882311F0C09A01C0C09894
:100B50008AE18A95F1F700C0C29A8AE18A95F1F795
:100B600000C0C298089525B3982F9F71207E922BC4
:100B700095BB98B3869586958873977C892B88BB9F
:100B8000089585B38F6185BB88B3886388BB08955A
:100B900084B38F6184BB87B3886387BB089584B3B4
:100BA000807E84BB87B3877C87BB089586B38873B8
:100BB00093B3880F880F9F71892B80958093530181
:100BC0000895009711F0FC0109940895ECEEF0E00F
:100BD00080818E7F808308951092ED0087E080935E
:100BE000EE0084E08093EF00ECEEF0E08081816025
:100BF00080830895ECEEF0E080818E7F80830895FD
:100C00006EEA70E080E04CCFCF93DF93CDB7DEB7D4
:100C100027970FB6F894DEBF0FBECDBF81E080935B
:100C2000010187E0EDE7F0E0DE01119601900D9201
:100C30008A95E1F7BE016F5F7F4F80E031DF279635
:100C40000FB6F894DEBF0FBECDBFDF91CF910895F0
:100C500080911C0190911D0190933D0180933C0176
:100C60008091F10080934001BDCA80911C01909158
:100C70001D0190933901809338018091F000809399
:100C80002001B0CACF93DF93CDB7DEB727970FB659
:100C9000F894DEBF0FBECDBF87E0E4E8F0E0DE01F0
:100CA000119601900D928A95E1F78091D000909174
:100CB000D1009C0122703470232B31F080913A01D5
:100CC0008F3568F48B5F09C084709870892B49F068
:100CD00080913A01863018F0855080933A01109245
:100CE00075008091EC0084FF10C080913A018F352F
:100CF00041F020E242E8BE016B5F7F4F90E0BDD241
:100D000004C08EE48D838FE48E83BE016F5F7F4FBE
:100D100080E0C6DE27960FB6F894DEBF0FBECDBFCB
:100D2000DF91CF910895CF93DF93CDB7DEB72797AB
:100D30000FB6F894DEBF0FBECDBF87E0EBE8F0E062
:100D4000DE01119601900D928A95E1F720E244E8C8
:100D5000BE016F5F7F4F80911E0190911F018DD268
:100D6000BE016F5F7F4F80E09BDE27960FB6F89441
:100D7000DEBF0FBECDBFDF91CF910895CF93DF933C
:100D8000CDB7DEB727970FB6F894DEBF0FBECDBF45
:100D900087E0E2E9F0E0DE01119601900D928A957C
:100DA000E1F78091D0009091D1009C0122703470C5
:100DB000232B31F08091F1008A3F68F48F5F09C0E6
:100DC00084709870892B39F08091F1008B3018F085
:100DD00081508093F1008091EC0084FF09C020E2F3
:100DE00043E8BE016C5F7F4F8091F10090E045D2F7
:100DF000BE016F5F7F4F80E053DE9AD527960FB616
:100E0000F894DEBF0FBECDBFDF91CF910895CF9391
:100E1000DF93CDB7DEB727970FB6F894DEBF0FBECE
:100E2000CDBF87E0E9E9F0E0DE01119601900D9277
:100E30008A95E1F78091D0009091D1009C012270B9
:100E40003470232B31F08091F0008A3F68F48F5F7B
:100E500009C084709870892B39F08091F0008B3034
:100E600018F081508093F0008091EC0084FF09C05D
:100E700020E243E8BE016C5F7F4F8091F00090E07C
:100E8000FCD1BE016F5F7F4F80E00ADE51D527960F
:100E90000FB6F894DEBF0FBECDBFDF91CF9108959E
:100EA00084E08093010144C583E046DE82E08093C4
:100EB0000101089583E040DEECEEF0E08081806186
:100EC00080830895F7DF809120018093F000809166
:100ED00040018093F100089582E02EDEECEEF0E018
:100EE00080818E7F8083089581E026DE75CE81E04B
:100EF00023CECF93DF93CDB7DEB727970FB6F89405
:100F0000DEBF0FBECDBF87E0E0EAF0E0DE01119664
:100F100001900D928A95E1F78091D0009091D100D7
:100F200086709927892B49F081E090912A019111CF
:100F300080E080932A01109275008091EC0084FF7C
:100F40000DC080912A01882321F08FE48D838EE4E7
:100F500004C08FE48C8386E48D838E83BE016F5F33
:100F60007F4F80E09DDD82E0D5DD27960FB6F894B7
:100F7000DEBF0FBECDBFDF91CF910895CF93DF933A
:100F8000CDB7DEB727970FB6F894DEBF0FBECDBF43
:100F900087E0E7EAF0E0DE01119601900D928A9574
:100FA000E1F78091D0009091D1009C0122703470C3
:100FB00040912D01232B21F0433658F44F5F07C099
:100FC00084709870892B29F0423018F0415040937A
:100FD0002D0120E242E8BE016B5F7F4F80912D0121
:100FE00090E04BD18091F30082FF04C08091EC002F
:100FF00084FF09C020E242E8BE016E5F7F4F80910E
:10100000F20090E03AD11982F1D2882319F0898157
:1010100081608983FBD2882319F089818860898364
:101020008981811102C080E28983BE016F5F7F4F99
:1010300080E036DD27960FB6F894DEBF0FBECDBF39
:10104000DF91CF91089582E071DDC6CDCF93DF931C
:10105000CDB7DEB727970FB6F894DEBF0FBECDBF72
:1010600087E0EBE8F0E0DE01119601900D928A95A1
:10107000E1F72091D0003091D100A9014270547065
:101080008091280190912901452B29F0823D9105FD
:1010900070F4059608C024703870232B51F08F31FE
:1010A000910528F0059790932901809328011092CB
:1010B000750020E244E8BE016F5F7F4F80912801F8
:1010C00090912901DAD0BE016F5F7F4F80E0E8DCAC
:1010D0008091EC0084FF03C081E028DD02C081E044
:1010E0002BDD27960FB6F894DEBF0FBECDBFDF9184
:1010F000CF91089581E01ADD1092010108951F93A8
:10110000CF93DF93C0E0D0E017E01C9F90011D9FBC
:10111000300D11242A5D3F4FF90194913196A5912C
:10112000B491F9013396659174912B5F3F4FF901AA
:1011300045915491981303C08093E50006C0219611
:10114000CE30D10511F79093E500A093E600B0935F
:10115000E7006093E8007093E9004093EA00509341
:10116000EB00DF91CF911F91089581E08093E4001F
:10117000C6DF8091E6009091E70023CDFF920F93A8
:101180001F93CF93DF9384E790E07AD34091D00010
:101190005091D1008091740085FD506890910001BC
:1011A00080913A01981708F050648091E40060E063
:1011B00070E095E0969F9001979F300D112428577D
:1011C0003F4FF90114913196A591B491F9013396ED
:1011D000D491F9013496249118130EC0A423B52399
:1011E000AB2B51F0C22FCF7326FB002700F9F22E54
:1011F000FF1CFF24FF1C06C06F5F7F4F603271052C
:10120000C9F6D82F10E0F0FA10F900FB11F9D81741
:1012100009F18091EA009091EB00D3DC11FF02C04C
:101220000EDC02C010FDFDDBD093E4008D2F67DFE4
:101230008091E6009091E700C4DCCC23C1F0CC0F94
:10124000C093760010927500809174008160809345
:1012500074000DC08CEE90E013D38091E800909163
:10126000E900DF91CF911F910F91FF90AACCDF9100
:10127000CF911F910F91FF900895CF93DF9347FF78
:1012800005C04F77FB01E40FF11D04C0FB01E40F23
:10129000F11D1082CAE0D0E0BE01C2D3805D82930E
:1012A000CB014150009721F04111F6CF01C02293AC
:1012B0004150E8F7DF91CF91089512BA8EE381BBD8
:1012C00018BA8FE387BB15BA8FE184BB85E083BF73
:1012D00012BE88B7816088BF89B7816089BF8CE002
:1012E00085BD89EF83BD89B7806889BF1FBC8BE04E
:1012F0008EBD8FE790E09BBD8ABD449A88E088B997
:1013000085EC87B98FE886B982E08BB988E18AB924
:1013100086E880BD10BC82E289B90895CF93DF933F
:10132000CDB7DEB72B970FB6F894DEBF0FBECDBF9B
:101330001B86C3DF34DA56D790DB17DF789404C0FE
:1013400065EB70E080E0ACDB2FEF80E792E02150AE
:1013500080409040E1F700C00000809178008F301D
:1013600079F388EE93E0B8D288EC90E0D5D2F7D04C
:101370002FEF81EE94E0215080409040E1F700C0D3
:10138000000081E0F9D0809179008F7B8093790013
:101390008091790086FFFCCF72D714D88091D0005D
:1013A0009091D10091FF03C080E293E006C080914C
:1013B000CF00877431F088EE93E08ED288E290E01F
:1013C000ABD28091CF008111B3D2B9D2D7DE5BD836
:1013D00067D98091790082FFD6CF20E246E0BE0136
:1013E0006F5F7F4F80911E0190911F0146DFCE01FC
:1013F0000196F8D220E246E0BE016F5F7F4F8091F8
:101400001C0190911D0139DFCE010196EBD220E243
:1014100046E0BE016F5F7F4F8091230190E02DDF9A
:10142000CE010196DFD220E246E0BE016F5F7F4F22
:1014300080913E0190913F0120DFCE010196D2D2F2
:1014400020E248E0BE016F5F7F4F80913B0190E05A
:1014500014DFCE010196C6D220E246E0BE016F5FE6
:101460007F4F809126019091270107DFCE010196E1
:10147000B9D28CEB90E0B6D28091240190912501F5
:1014800020E346E0BE016F5F7F4F97FD02C0F5DEAF
:1014900006C0919581959109F0DE8DE29ED2CE0134
:1014A0000196A0D28CEB90E09DD280913601909174
:1014B000370120E346E0BE016F5F7F4F97FD02C01A
:1014C000DCDE06C0919581959109D7DE8DE285D24B
:1014D000CE01019687D28CEB90E084D280912B01D3
:1014E00090912C0120E346E0BE016F5F7F4F97FD96
:1014F00002C0C3DE06C0919581959109BEDE8DE2E2
:101500006CD2CE0101966ED220E246E0BE016F5F42
:101510007F4F8091210190912201AFDECE01019693
:1015200061D220E246E0BE016F5F7F4F8091F600FE
:1015300090E0A3DECE01019655D281EC90E052D22C
:1015400022CF99B79E7F99BF8093F6008091F500D6
:101550008F778093F50089B7816089BF089589B737
:101560008E7F89BF8CE28093F70083E08093F40044
:1015700089B7816089BF089599B79E7F99BF80938D
:10158000F80080FF09C08091F9009091FA009093D3
:10159000FC008093FB000AC081FF08C08091F90025
:1015A0009091FA009093FE008093FD0089B78160CE
:1015B00089BF089599B79E7F99BF9091F3009B7F53
:1015C0009093F300882371F08091F9009091FA00D4
:1015D0009093FC008093FB009093FE008093FD00AD
:1015E0001092F20089B7816089BF08958091FD0053
:1015F0009091FE002091F9003091FA00821B930B2C
:10160000892F8095881F8827881F08958091F90069
:101610009091FA002091FB003091FC00821B930B0B
:10162000892F8095881F8827881F089589B78E7F06
:1016300089BFDCDF882359F0E9DF882341F08091FE
:10164000F30084608093F30081E08093F20089B717
:10165000816089BF8091F300847008951F920F927A
:101660000FB60F9211248F939F9343989091F70098
:101670008091FF00981720F482B3806382BB01C081
:10168000959886EF82BF80917800807F8058809304
:1016900078009F918F910F900FBE0F901F9018951B
:1016A0001F920F920FB60F9211242F933F934F93D7
:1016B0005F936F937F938F939F93AF93BF93EF93BA
:1016C000FF9390917800892F8F70813051F028F02E
:1016D000823069F0833089F40FC094988CEB82BF1C
:1016E0000CC082EC82BF97FD08C0369A06C080EE1F
:1016F00082BF449A439A01C08CD8809178008F7839
:10170000813809F0A3C082B3837F9091F30093FFE7
:1017100005C0977F9093F30082BB70C090FF02C01A
:10172000846002C091FD886082BB4091F300842FE9
:101730008770853019F08630E9F51DC08091FD0075
:101740009091FE002091F9003091FA00821B930BDA
:10175000181619067CF18091F20090912D018917DD
:1017600028F04B7F40614093F30024C08F5F80934B
:10177000F20082E01DC08091F9009091FA00209162
:10178000FB003091FC00821B930B1816190694F095
:101790008091F20090912D01891730F0842F8B7F7A
:1017A00080618093F30006C08F5F8093F20081E038
:1017B0008093F8002091F3009091F800892F822700
:1017C000837019F028622093F3008091F3008C7FDE
:1017D000892B8093F30080FF06C08091F9009091DF
:1017E000FA00019607C081FF09C08091F90090912D
:1017F000FA0001979093FA008093F9008091F70026
:101800008C32B1F48091F400833079F41092F400BA
:101810008091F50080688093F50080E690E0C6D561
:10182000909307018093060103C08F5F8093F400BB
:101830008091F700813339F41092F7008091F6001F
:101840008093FF0003C08F5F8093F7008091780042
:10185000982F9F709F3019F08F5F80937800FF91D1
:10186000EF91BF91AF919F918F917F916F915F9118
:101870004F913F912F910F900FBE0F901F90189591
:10188000FC01908190FF27C0977E9F7D908381818E
:101890002281821750F091FF02C09E7F9083908139
:1018A00090629064908320E002C0282F2F5F938184
:1018B00089130BC080818860806182FB992790F931
:1018C00031E0932790FB82F904C0891718F08081DA
:1018D00080618083218308959C0140E050E060E4B2
:1018E00072E48FE090E0E5D0DA01C901887FAA2791
:1018F000BB27892B51F043E0369527954A95E1F7B0
:10190000215031093BBD2ABD04C081E090E09BBD60
:101910008ABD1DBC1CBC089520912A01222339F0E8
:1019200090930301809302018FB580648FBD089569
:101930001092050110920401109200010895809107
:101940000401909105018336910561F4109205011F
:1019500010920401809100018F3549F08F5F8093D0
:101960000001089501969093050180930401089564
:101970001F920F920FB60F9211242F933F934F9304
:101980005F936F937F938F939F93AF93BF93EF93E7
:10199000FF938091020190910301009731F001972C
:1019A000909303018093020103C08FB58F738FBDA5
:1019B000B4D789E790E064DFFF91EF91BF91AF91D9
:1019C0009F918F917F916F915F914F913F912F9157
:1019D0000F900FBE0F901F9018955E9A8CB95E9B6A
:1019E000FECF08951F93CF93DF93EC0110E002C068
:1019F0001F5FF3DFFE01E10FF11D80818111F8CF40
:101A0000DF91CF911F910895991B79E004C0991F30
:101A1000961708F0961B881F7A95C9F78095089548
:101A2000AA1BBB1B51E107C0AA1FBB1FA617B70704
:101A300010F0A61BB70B881F991F5A95A9F7809520
:101A40009095BC01CD01089597FB072E16F40094E4
:101A500006D077FD08D0E4DF07FC05D03EF4909572
:101A600081959F4F0895709561957F4F0895A1E2EC
:101A70001A2EAA1BBB1BFD010DC0AA1FBB1FEE1F08
:101A8000FF1FA217B307E407F50720F0A21BB30B53
:101A9000E40BF50B661F771F881F991F1A9469F7CF
:101AA00060957095809590959B01AC01BD01CF012B
:101AB0000895052E97FB16F4009406D057FD0CD020
:101AC000D6DF07FC09D07EF49095809570956195DE
:101AD0007F4F8F4F9F4F089550954095309521959A
:101AE0003F4F4F4F5F4F0895A29FB001B39FC0017A
:101AF000A39F01D0B29F700D811D1124911D0895E7
:101B0000F3DFB7FF0895821B930B0895EDDFA59FC8
:101B1000900DB49F900DA49F800D911D11240895E8
:101B2000DC01CB01FC01E199FECF06C0FFBBEEBB9F
:101B3000E09A31960DB20D9241505040B8F7089599
:041B4000F894FFCF47
:101B44000A0801000000000001FF042E010000004B
:101B540000000105020000000F01003200202020D7
:101B64004F4646004F46462020200020202020B02B
:101B7400430050322020202000503120202020001B
:101B8400534E4420202000202020202020002044E8
:101B94004F4E452000414320455252002020202032
:041BA400000A0D0026
:00000001FF
