S00C0000706964312E73726563AA
S113000019C133C132C11ACD30C12FC12EC12DC186
S11300102CC1C3CB2AC129C128C127C104C225C10F
S11300209ACB23C122C1A9C4B9C4B8C4B7C4B6C445
S1130030B5C4B4C4B3C4B2C4B1C4B0C4AFC497C427
S113004098C493C4ABC47FC4A8C47FC480C481C40F
S113005082C483C484C485C486C4A0C49FC49EC40B
S11300609DC49CC49BC49AC499C498C48AC48FC4B4
S113007092C489C493C492C491C490C48FC48EC4DE
S11300808DC483C460C485C489C488C464C486C45C
S113009085C484C483C482C481C480C47FC47EC430
S11300A07DC47CC468C47AC479C478C477C476C473
S11300B075C474C473C472C471C470C46FC46EC490
S11300C06DC46CC46BC46AC469C468C467C466C4C0
S11300D065C464C463C462C461C460C45FC45EC4F0
S11300E05DC45CC45BC45AC459C458C457C456C420
S11300F055C454C453C452C451C450C44FC44EC450
S11301004DC44CC44BC44AC449C448C447C446C47F
S113011045C444C443C442C441C440C43FC43EC4AF
S11301203DC43CC43BC43AC439C438C437C436C4DF
S113013035C434C433C432C431C430C42FC42EC40F
S11301402DC42CC42BC41BC4010B09B1073F0803E5
S11301503B08AF088F0602AB0842083308052108A4
S1130160DC0700000B9506DC07A3060421085E07E4
S113017000000C95065E07A3060629081407000074
S11301800995061407A306072908CA0600000A955C
S113019006CA06A30608BC06A90600000DAE06A9F9
S11301A006000001060003A801000102400100024C
S11301B0052802000101800300830140050082013B
S11301C000050400046805020007A80500010B28C7
S11301D00B0083052804008201000404000668045F
S11301E0020005A80400010C280C00830428060062
S11301F0820100060400076806020004A806000144
S113020009000700820100070400056807020006D0
S1130210A80700010A0009000206000900010814E9
S113022008008301000A000207000A00010D140DF2
S11302300083010011241FBECFE5D4E0DEBFCDBF93
S113024010E0A0E6B0E0ECEFFBE102C005900D92F7
S1130250A63BB107D9F721E0A6EBB0E001C01D929F
S1130260A434B207E1F7D5D8C7CCCACE0F931F93F5
S11302702091B6003091B7004091B8005091B90078
S1130280DC018CDC0091BA001091BB002091BC0011
S11302903091BD00600F711F821F931F28EE33E061
S11302A040E050E04EDC822F932F1F910F91089570
S11302B00F931F939C012F5F3F4FA8EEB3E05CDCCC
S11302C00091BA001091BB002091BC003091BD0098
S11302D0601B710B820B930B2091B6003091B70019
S11302E04091B8005091B9002CDC822F932F1F91BC
S11302F00F9108958F929F92AF92BF92CF92DF9207
S1130300EF92FF92CF93DF93B0901001C091280138
S1130310D0912901A0913001B0E0AB19B10928EEC8
S113032033E036DC20912C0130912D012C1B3D0B48
S113033040E050E006DC69017A012093B600309376
S1130340B7004093B8005093B9002B2D30E0A8EECD
S1130350B3E012DC4B015C01DE01A70196011EDC57
S1130360861A970AA80AB90A8092BA009092BB002A
S1130370A092BC00B092BD00DF91CF91FF90EF90AE
S1130380DF90CF90BF90AF909F908F9008950F9380
S11303901F93FC01CB012085211117C0A781B0E078
S11303A0AA0FBB1F21813281A20FB31F2D913C9153
S11303B04381548165817681421B530B6109710924
S11303C0438354836583768305C017821382148222
S11303D0158216828C0120E030E06781A62FB0E000
S11303E0AA0FBB1F41815281A40FB51F8D939C930B
S11303F0A62FAF5FA7834381548165817681400F27
S1130400511F621F731F4383548365837683408126
S1130410A41303C01782108603C040854111DDCFA9
S11304201F910F9108951F920F920FB60F921124EE
S11304302F933F934F935F936F937F938F939F93E8
S1130440AF93BF93EF93FF9384B195B160E074E0F1
S1130450681B790B80E690E09ADFFF91EF91BF91E2
S1130460AF919F918F917F916F915F914F913F9148
S11304702F910F900FBE0F901F901895FC012081B3
S113048030E040E050E0638174818581968137DB00
S1130490822F932F0895439880E690E0EFDF9093A6
S11304A00D0180930C01439AE1DE90930F01809338
S11304B00E0108953091C400209169009091430188
S11304C09093C400492F4095409369008091C500E2
S11304D08C3010F06FEF01C060E0391741F01092DA
S11304E0C500892F82238093C10050E014C08D3051
S11304F018F48F5F8093C5005091C5005C3009F4F7
S113050045C0892F82238093C100573018F050E0F2
S11305102FEF01C050E029232093C00060953423BD
S113052036233093BF0059235093BE00877790E061
S113053030FD05C09093C3008093C20005C0916054
S11305409093C3008093C20050FF09C08091C20001
S11305509091C30092609093C3008093C20021FFE6
S113056009C08091C2009091C30094609093C3002D
S11305708093C20022FF10C08091C2009091C300FA
S113058098609093C3008093C2000895832F8223C0
S11305908093C1005FEFBCCF0895CF938091C100D9
S11305A084FF04C081E065D8C1E00FC085FF04C0AA
S11305B082E05FD8C2E009C08091BE00882324F4A1
S11305C081E075D8C8E001C0C0E08091BF008823F5
S11305D074F48091E70082FF04C080E068D8C062B0
S11305E006C0A1D8882311F0C06101C0C064809105
S11305F0E70085FF04C08F7D8093E700C46080918D
S1130600E70084FF04C08F7E8093E700C068809178
S1130610C700C8233CF488EE93E0E3D988EC90E06B
S113062001DA1BC0C6FF07C084EF91E0DAD982E388
S113063090E0F8D912C0C3FF07C080E293E0D1D99B
S113064082E390E0EFD909C08C2F877331F088EEF4
S113065093E0C7D982E390E0E5D9C37021F48FEF2A
S11306608093C70003C08BEF8093C70080E3D1D28F
S11306708091E70080FF03C080E1C5D204C081FF00
S113068002C080E2C0D2CF910895EF92FF920F93FF
S11306901F93CF93DF93861B970B853191055CF4F1
S11306A08C3E2FEF920774F02FE0289F7001299F52
S11306B0F00C11240DC00F2EF8EEEF2EF3E0FF2EF8
S11306C0F02D06C00F2EF8E1EF2EFCEFFF2EF02DDB
S11306D02091CE003091CF00181619062CF01092FC
S11306E0CF001092CE0017C0820F931F8B3091055C
S11306F03CF08AE090E09093CF008093CE000BC052
S113070099232CF09093CF008093CE0004C01092D4
S1130710CF001092CE008091CE009091CF002FE0B8
S1130720289F8001299F100D1124CDE6D0E08881F7
S113073099819093D1008093D0008AE690E027DEDF
S11307408091D0009091D10028813981821B930B34
S113075040E5489F9001499F300D1124C701800F47
S1130760911F820F931F65E070E0B6D9862F972FF3
S1130770992314F480E090E08333910514F082E32C
S113078090E0F0921501E092140130932701209338
S1130790260110931C0100931B0190931201809376
S11307A01101DF91CF911F910F91FF90EF90089568
S11307B08091C20086FF07C09091C80081E089271C
S11307C08093C8004FD78091C60080FD1092C80066
S11307D0209118013091190180910E0190910F011F
S11307E0A9014A5051094817590728F0265F3F4F7D
S11307F08217930740F48091C9008B3038F48F5FDF
S11308008093C90003C01092C9000EC08091C90032
S11308108A3051F48091C800882331F088EE93E047
S1130820E0D880E991E0FED88091E9008823D4F4EF
S113083080911801909119013BDD9093CB00809336
S1130840CA006091F6007091F7001FDF8093CC001E
S11308501092CD009091C800992311F0F3D602C0F4
S113086080E0F0D68091C800882379F080E4CBD171
S113087080911801809313018091CA009091CB005C
S113088090932F0180932E0108C0109213011092AF
S11308902F0110922E0180E4BCD18091F60090913A
S11308A0F700E4DC80932B018091F6009091F7002F
S11308B090931701809316010895CF93DF93CDB7DA
S11308C0DEB72A970FB6F894DEBF0FBECDBF4AE05D
S11308D050E060E070E0CE0101967ED9898180937A
S11308E01801109219018A8180931D018B818093D4
S11308F01A018C8180932A018D81809310018E814D
S1130900809330018F8198859093290180932801E9
S113091089859A8590932D0180932C012A960FB690
S1130920F894DEBF0FBECDBFDF91CF910895089537
S11309300895482F50E0FA01B097E139F10570F5B8
S1130940ED5EFF4F09948FE308958BE508958FE4DE
S1130950089586E608958DE608958DE7089587E065
S113096008958FE708958FE6089580E8089580E854
S1130970089580E4089588E0089580E0089583E66A
S1130980089589E3089581E7089584E508958EE53F
S1130990089583E7089589E7089586E00895982FD8
S11309A087FD81958E3078F0382F369523E9329F74
S11309B0212D112426952695220F322F330F330F24
S11309C0330F321B831B99232CF4882319F09EE0E8
S11309D0981B892F0895CF9381E022D18091D30071
S11309E0882319F08630F1F512C046D137D185E35A
S11309F08A95F1F7000047D138D180E011D1809178
S1130A0032018093D200C091D300CF5F2FC0809178
S1130A103301882381F184ED90E0B5D78091D4002F
S1130A2085FF23C08091320190913401891304C061
S1130A3010923301C0E01AC090913301923049F40E
S1130A408D3010F48F5F01C080E080933201C0E0EC
S1130A500DC0882311F0815001C08DE080933201D4
S1130A60C0E004C0C82FCF5F01C0C0E08091D300B4
S1130A70863031F401C0C0E080913101E1D010C072
S1130A80E091D200F0E0EB5CFE4F8081D9D09091F0
S1130A90D2009D3010F49F5F01C090E09093D2008B
S1130AA0C093D300CF9108951F93CF93DF93182F52
S1130AB0C62F842F3EDFD82F80913401810F6FDF42
S1130AC090E00AC0E82FF0E0EB5CFE4FD0838D305D
S1130AD010F48F5F01C0892FC150A0F7DF91CF912F
S1130AE01F91089540E262E08EEFDEDF80913401D1
S1130AF0885055DF8093340181E080933301089559
S1130B0040E262E086E0D0DF80913401885F47DF15
S1130B108093340182E0809333010895CF93ACD065
S1130B20C7E081E07DD0C150E1F79FD0109232013F
S1130B30109234011092D2001092D300109231011D
S1130B4040E26EE080E0B0DF10923301E4EDF0E0CB
S1130B50808181608D7F808389E08093D600CF91EE
S1130B600895DF92EF92FF920F931F93CF93DF9339
S1130B70EB0190913401890F12DF182FD82E02E077
S1130B80F12C0F2EF3E0EF2EF02D26C0D2DE8038AC
S1130B9019F4902F916002C0902F9E7F913051F4F0
S1130BA0ED2DF0E0EB5CFE4F9081892B8083812F4B
S1130BB00E2D10C0E12FF0E0EB5CFE4F80831D3062
S1130BC018F4812F8F5F01C08F2D90FF02C00E2D6E
S1130BD001C00F2DD12E182F89918111D7CFDF910C
S1130BE0CF911F910F91FF90EF90DF900895909116
S1130BF03401890FD4DEE82FF0E0EB5CFE4F8081F6
S1130C0080688083089590913101892B809331010C
S1130C10089590913101809598239093310108951E
S1130C20882311F0C09A01C0C0988AE18A95F1F72F
S1130C3000C0C29A8AE18A95F1F700C0C29808956B
S1130C4095B3282F2F71907E922B95BB98B38695E0
S1130C5086958873977C892B88BB089585B38F61AB
S1130C6085BB88B3886388BB089584B38F6184BBD4
S1130C7087B3886387BB089584B3807E84BB87B3BE
S1130C80877C87BB089586B3887393B3880F880FD6
S1130C909F71892B80958093430108950F931F932F
S1130CA0CF93DF93EB0140E050E09A01220F331F12
S1130CB0220F331F220F331F241B350B285B3E4F9B
S1130CC0F90194913196A591B4910A2F1B2FF90142
S1130CD03396A591B4912B5F3F4FF901259134913F
S1130CE0E22F891308C0988309831A83AB83BC83DA
S1130CF0ED833E830CC04F5F5F4F4D305105A9F625
S1130D00988309831A83AB83BC83ED833E83DF918D
S1130D10CF911F910F910895109274000895E0EE01
S1130D20F0E080818E7F808308951092E10087E057
S1130D308093E20084E08093E300E0EEF0E08081C1
S1130D40816080830895E0EEF0E080818E7F80836F
S1130D50089566EA70E080E004DF089580910C0154
S1130D6090910D0190932D0180932C018091E500C9
S1130D7080933001BFDA089580910C0190910D01A8
S1130D8090932901809328018091E40080931001BD
S1130D90B1DA0895CF93DF93CDB7DEB727970FB6B7
S1130DA0F894DEBF0FBECDBF87E0ECE7F0E0DE01D4
S1130DB0119601900D928A95E1F78091C20090916D
S1130DC0C3009C0122703470232B41F08091E50014
S1130DD08A3F78F48F5F8093E5000BC0847098702D
S1130DE0892B39F08091E5008B3018F08150809385
S1130DF0E5008091E00084FF09C020E243E8BE01E1
S1130E006C5F7F4F8091E50090E096D2BE016F5FEA
S1130E107F4F80E0A6DE27960FB6F894DEBF0FBEA4
S1130E20CDBFDF91CF910895CF93DF93CDB7DEB7D8
S1130E3027970FB6F894DEBF0FBECDBF87E0E3E877
S1130E40F0E0DE01119601900D928A95E1F7809110
S1130E50C2009091C3009C0122703470232B41F096
S1130E608091E4008A3F78F48F5F8093E4000BC0A4
S1130E7084709870892B39F08091E4008B3018F0DD
S1130E8081508093E4008091E00084FF09C020E257
S1130E9043E8BE016C5F7F4F8091E40090E04CD248
S1130EA0BE016F5F7F4F80E05CDE27960FB6F8943B
S1130EB0DEBF0FBECDBFDF91CF910895CF93DF93F7
S1130EC0CDB7DEB727970FB6F894DEBF0FBECDBF00
S1130ED087E0EAE8F0E0DE01119601900D928A9530
S1130EE0E1F78091C2009091C3009C01227034709C
S1130EF0232B49F080912A018F3518F48B5F80935E
S1130F002A010ADF0CC084709870892B41F080910B
S1130F102A01863018F0855080932A01FDDE8091E5
S1130F20E00084FF10C080912A018F3541F020E257
S1130F3042E8BE016B5F7F4F90E0FED104C08EE4B7
S1130F408D838FE48E83BE016F5F7F4F80E009DE67
S1130F5027960FB6F894DEBF0FBECDBFDF91CF91B9
S1130F600895CF93DF93CDB7DEB727970FB6F894E4
S1130F70DEBF0FBECDBF87E0E1E9F0E0DE011196F0
S1130F8001900D928A95E1F720E244E8BE016F5F7B
S1130F907F4F80910E0190910F01CED1BE016F5F02
S1130FA07F4F80E0DEDD27960FB6F894DEBF0FBEDC
S1130FB0CDBFDF91CF910895CF93DF93CDB7DEB747
S1130FC027970FB6F894DEBF0FBECDBF87E0E8E9E0
S1130FD0F0E0DE01119601900D928A95E1F780917F
S1130FE0C2009091C30086709927892B41F081E05B
S1130FF090911A01911180E080931A018DDE809105
S1131000E00084FF0EC080911A01882329F08FE448
S11310108D838EE48E8305C08FE48C8386E48D8378
S11310208E83BE016F5F7F4F80E09BDD82E0DFDD5A
S113103027960FB6F894DEBF0FBECDBFDF91CF91D8
S1131040089583E0E6DDE0EEF0E080818061808356
S11310500895F7DF809110018093E40080913001BE
S11310608093E500089582E0D4DDE0EEF0E0808135
S11310708E7F8083089581E0CCDD57DE089581E082
S1131080C8DD0895CF93DF93CDB7DEB727970FB6AA
S1131090F894DEBF0FBECDBF87E0EFE9F0E0DE01DC
S11310A0119601900D928A95E1F78091C20090917A
S11310B0C3009C0122703470232B41F080911D01E8
S11310C0833678F48F5F80931D010BC08470987011
S11310D0892B39F080911D01823018F08150809362
S11310E01D0120E242E8BE016B5F7F4F80911D012C
S11310F090E022D18091E70082FF04C08091E0005B
S113110084FF09C020E242E8BE016E5F7F4F8091F8
S1131110E60090E011D11982E6D2882319F0898182
S113112081608983F0D2882319F08981886089835A
S11311308981811102C080E28983BE016F5F7F4F84
S113114080E00FDD27960FB6F894DEBF0FBECDBF4B
S1131150DF91CF91089582E056DDE7DD0895CF93C6
S1131160DF93CDB7DEB727970FB6F894DEBF0FBE77
S1131170CDBF87E0E1E9F0E0DE01119601900D9228
S11311808A95E1F78091C2009091C3009C0122707E
S11311903470232B71F08091180190911901823DD4
S11311A0910528F405969093190180931801B4DDF4
S11311B011C084709870892B69F080911801909106
S11311C019018F31910528F00597909319018093A7
S11311D01801A2DD20E244E8BE016F5F7F4F8091D9
S11311E0180190911901A8D0BE016F5F7F4F80E074
S11311F0B8DC8091E00084FF03C081E004DD02C01C
S113120081E007DD27960FB6F894DEBF0FBECDBF91
S1131210DF91CF91089581E0F6DC089581E0809319
S1131220D80069ED70E03ADDE091DA00F091DB007E
S1131230309709F009950895FF920F931F93CF9368
S1131240DF9383E790E09FD36091C2007091C30065
S11312508091730085FD70688091D80020E030E0B3
S1131260A901440F551F440F551F420F531F4D55DD
S11312705E4FFA0194913196A591B491FA01339697
S1131280C491FA0134964491891315C0A623B72357
S1131290AB2B89F0142F1F7346FB002700F9F42EA3
S11312A0FF1CFF24FF1CD0E0F0FAD0F900FBD1F9B9
S11312B08C1307C031C02F5F3F4F2D31310581F6AC
S11312C02BC0E091DE00F091DF00309709F0099522
S11312D0F0FAD0F900FBD1F9D1FF02C011DC02C051
S11312E0D0FD00DCC093D80069ED70E08C2FD6DC13
S11312F0E091DA00F091DB00309709F009951123B1
S1131300A9F0110F1093750010927400E3E7F0E058
S11313108081816080830AC080EE90E034D3E091C4
S1131320DC00F091DD00309709F00995DF91CF9151
S11313301F910F91FF900895CF93DF93FC01522FDB
S113134044232CF44F77EB01C40FD11D04C0EB01EF
S1131350C40FD11D18829F01ADECBCEC0DD4969541
S113136087959695879596958795DC01AA0FBB1F5F
S1131370BC01660F771F660F771F660F771F6A0F12
S11313807B1FE61BF70BE05DEA93FC0141500097DD
S113139029F4842F8150411104C007C04111DBCFCF
S11313A004C0FE0152938150E8F7DF91CF91089574
S11313B012BA8EE381BB18BA8FE387BB15BA8FE1EB
S11313C084BB85E083BF12BE88B7816088BF89B7BC
S11313D0816089BF8CE085BD89EF83BD89B7806852
S11313E089BF1FBC8BE08EBD8FE790E09BBD8ABD9B
S11313F0449A88E088B985EC87B98FE886B982E099
S11314008BB988E18AB986E880BD10BC82E289B9CB
S11314100895CF93DF93CDB7DEB72B970FB6F8942B
S1131420DEBF0FBECDBF1B86C3DF47DA63D776DBD3
S1131430F5DE789488EE93E0D4D288EC90E0F2D292
S11314402FEF81EE94E0215080409040E1F700C0FE
S1131450000081E00ED108E710E0F801808186FFEA
S1131460FCCF19D827D88091C2009091C30091FF76
S113147007C080E293E0B5D288E290E0D3D20AC0FC
S11314808091C100877431F088EE93E0AAD288E29B
S113149090E0C8D2D1DE81D88BD9F801808182FF57
S11314A0CBC020E246E0BE016F5F7F4F80910E010A
S11314B090910F0141DFCE010196FAD220E246E07D
S11314C0BE016F5F7F4F80910C0190910D0134DF5D
S11314D0CE010196EDD220E246E0BE016F5F7F4F60
S11314E08091130190E028DFCE010196E1D220E241
S11314F046E0BE016F5F7F4F80912E0190912F01D6
S11315001BDFCE010196D4D220E248E0BE016F5F1A
S11315107F4F80912B0190E00FDFCE010196C8D25E
S113152020E246E0BE016F5F7F4F809116019091EB
S1131530170102DFCE010196BBD28DEA90E0B8D24A
S11315408091140190911501992354F020E346E011
S1131550BE016F5F7F4FF0DECE010196A9D20EC0AF
S113156020E346E0BE016F5F7F4F9195819591091D
S1131570E3DE8DE298D2CE0101969AD28DEA90E014
S113158097D28091260190912701992354F020E36A
S113159046E0BE016F5F7F4FCFDECE01019688D259
S11315A00EC020E346E0BE016F5F7F4F91958195A9
S11315B09109C2DE8DE277D2CE01019679D28DEA0D
S11315C090E076D280911B0190911C01992354F0F4
S11315D020E346E0BE016F5F7F4FAEDECE01019691
S11315E067D20EC020E346E0BE016F5F7F4F919546
S11315F081959109A1DE8DE256D2CE01019658D291
S113160020E246E0BE016F5F7F4F8091110190910F
S1131610120192DECE0101964BD220E246E0BE01D9
S11316206F5F7F4F8091EA0090E086DECE010196E5
S11316303FD282EB90E03CD27BD9F80180818F7B52
S113164080830BCF8093EA009091E900292F2F77B4
S1131650882321F020642093E90008959F739093D8
S1131660E90008958CE28093EB0083E08093E80026
S1131670089599B79E7F99BF8093EC0080FF09C0BD
S11316808091ED009091EE009093F0008093EF0034
S11316900AC081FF08C08091ED009091EE00909304
S11316A0F2008093F10089B7816089BF089599B7EA
S11316B09E7F99BF9091E7009B7F9093E7008823DA
S11316C071F08091ED009091EE009093F000809382
S11316D0EF009093F2008093F1001092E60089B736
S11316E0816089BF08958091F1009091F20020916A
S11316F0ED003091EE00821B930B892F8095881F9B
S11317008827881F08958091ED009091EE00209124
S1131710EF003091F000821B930B892F8095881F76
S11317208827881F089589B78E7F89BFDCDF8823C7
S113173059F0E9DF882341F08091E70084608093C9
S1131740E70081E08093E60089B7816089BF8091DA
S1131750E700847008951F920F920FB60F92112420
S11317608F939F9343989091EB008091F300981787
S113177020F482B3806382BB01C0959886EF82BF58
S113178080917700807F8058809377009F918F911C
S11317900F900FBE0F901F9018951F920F920FB6C7
S11317A00F9211242F933F934F935F936F937F93E3
S11317B08F939F93AF93BF93EF93FF9380917700A1
S11317C08F70813051F028F0823079F0833099F4B1
S11317D011C094988CEB82BF0EC082EC82BF8091C2
S11317E07700882344F0369A06C080EE82BF449A7C
S11317F0439A01C09CD8809177008F78813809F092
S1131800A8C092B3937F8091E70083FF05C0877FD0
S11318108093E70092BB75C080FF02C0946002C051
S113182081FD986092BB4091E700842F87708530DA
S113183019F08630F1F51FC08091F1009091F2000B
S11318402091ED003091EE00821B930B18161906BF
S113185084F18091E60090911D01891728F04B7F57
S113186040614093E70025C08F5F8093E60082E0EB
S11318708093EC001EC08091ED009091EE002091C9
S1131880EF003091F000821B930B181619068CF0B0
S11318908091E60090911D01891728F04B7F4061EB
S11318A04093E70006C08F5F8093E60081E0809359
S11318B0EC008091E7009091EC00292F28272370F9
S11318C019F088628093E7008091E7008C7F892B70
S11318D08093E70080FF0AC08091ED009091EE00B4
S11318E001969093EE008093ED000BC081FF09C038
S11318F08091ED009091EE0001979093EE0080931B
S1131900ED008091EB008C32B1F48091E8008330DB
S113191079F41092E8008091E90080688093E900EE
S113192080E690E0ABD59093F7008093F60003C077
S11319308F5F8093E8008091EB00813339F410923B
S1131940EB008091EA008093F30003C08F5F8093E3
S1131950EB0080917700982F9F709F3019F08F5F74
S113196080937700FF91EF91BF91AF919F918F91F9
S11319707F916F915F914F913F912F910F900FBE87
S11319800F901F901895FC01808180FF29C0877EED
S11319908F7D808381819281891758F0908191FF96
S11319A002C09E7F9083908190629064908320E037
S11319B002C0282F2F5F938189130CC08081886017
S11319C0806182FB332730F991E0932790FB82F901
S11319D0808305C0891718F080818061808321830A
S11319E008959C0140E050E060E472E48FE090E0F0
S11319F0A8D0DA01C901887FAA27BB27892B59F00F
S1131A003695279536952795369527952150310992
S1131A103BBD2ABD04C081E090E09BBD8ABD1DBCD6
S1131A201CBC089520911A01222339F09093F500EB
S1131A308093F4008FB580648FBD08951F920F9238
S1131A400FB60F9211242F933F934F935F936F938D
S1131A507F938F939F93AF93BF93EF93FF93809163
S1131A60F4009091F500009731F001979093F50000
S1131A708093F40003C08FB58F738FBDACD788E714
S1131A8090E081DFFF91EF91BF91AF919F918F9192
S1131A907F916F915F914F913F912F910F900FBE66
S1131AA00F901F9018955E9A8CB95E9BFECF089597
S1131AB01F93CF93DF93EC018881882349F010E0D2
S1131AC01F5FF1DFFE01E10FF11D80818111F8CF6D
S1131AD0DF91CF911F91089597FB072E16F4009480
S1131AE006D077FD08D064D007FC05D03EF490956D
S1131AF081959F4F0895709561957F4F0895A1E258
S1131B001A2EAA1BBB1BFD010DC0AA1FBB1FEE1F73
S1131B10FF1FA217B307E407F50720F0A21BB30BBE
S1131B20E40BF50B661F771F881F991F1A9469F73A
S1131B3060957095809590959B01AC01BD01CF0196
S1131B400895052E97FB16F4009406D057FD0CD08B
S1131B50D6DF07FC09D07EF4909580957095619549
S1131B607F4F8F4F9F4F0895509540953095219505
S1131B703F4F4F4F5F4F0895A29FB001B39FC001E5
S1131B80A39F01D0B29F700D811D1124911D089552
S1131B90F3DFB7FF0895821B930B0895EDDFA59F34
S1131BA0900DB49F900DA49F800D911D1124089554
S1131BB0AA1BBB1B51E107C0AA1FBB1FA617B7076F
S1131BC010F0A61BB70B881F991F5A95A9F780958B
S1131BD09095BC01CD010895DC01CB01FC01E19994
S1131BE0FECF06C0FFBBEEBBE09A31960DB20D925C
S10F1BF041505040B8F70895F894FFCF1E
S1131BFC0AF800000000000001FF041E01000000B0
S1131C0C000001020000000F0100320050322020BD
S1131C1C202000503120202020004F464620202038
S1131C2C0020202020B04300534E442020200020CC
S1131C3C20202020200020444F4E4520002020202E
S1091C4C20000A0D000057
S9030000FC
