:10000000CEC0E8C0E7C0ABCCE5C0E4C0E3C0E2C00E
:10001000E1C05CCBDFC0DEC0DDC0DCC0EDC1DAC05A
:1000200017CBD8C0D7C018821C038806320A011E1D
:10003000303F4F3F3106325B334F3466536D356D81
:10004000367D3707387F396F2E802C802D405F0832
:100050002000B0634177433946714E54445E50737B
:100060004579553E473D5250202020004F464620BE
:10007000202000534E44202020002020202020203B
:100080000020202020B0430001420744072A060335
:1000900022061007A505020D07C2061B0605150658
:1000A000930600000BB3059306BB05040F06330649
:1000B00000000CB3053306C90506030667060000F9
:1000C00009B3056706DB0507F705670600000AB3F5
:1000D000056706DB05082C06E90500000D2C06E97E
:1000E0000500000EED05E205D70501C000038A01F9
:1000F00000010240010002050A0200010180020025
:1001000002050A030081014003000201600500822C
:100110000100058000044A054000078A0500010B24
:100120000A0B0081050A0B0002052A040082010067
:10013000048000064A044000058A0400010C0A0CF1
:100140000081040A0C0002042A06008201000680D5
:1001500000074A064000048A0600010900070082E1
:100160000100078000054A074000068A0700010ACF
:1001700000090002060A09000108050800830100C1
:100180000A0002070A0A00010D050D0083010001A3
:1001900000400E000200400E000ED50301001124A5
:1001A0001FBECFE5D4E0DEBFCDBF10E0A0E6B0E0DB
:1001B000E4E2FCE102C005900D92AC3EB107D9F734
:1001C00021E0ACEEB0E001C01D92A23EB207E1F723
:1001D0009BD726CD15CF0F931F932091EC00309124
:1001E000ED004091EE005091EF00DC01ACDC00919D
:1001F000F0001091F1002091F2003091F300600FB7
:10020000711F821F931F68577C4E8F4F9F4F20E1B5
:1002100037E240E050E064DCC9011F910F9108957E
:10022000CF92DF92EF92FF920F931F93C090EC005A
:10023000D090ED00E090EE00F090EF0020E137E28A
:10024000DC017BDC0091F0001091F1002091F200C4
:100250003091F300601B710B820B930B97018601A9
:100260003595279517950795600F711F821F931F6E
:10027000A701960135DCC9011F910F91FF90EF9006
:10028000DF90CF9008958F929F92AF92BF92CF92BE
:10029000DF92EF92FF92CF93DF93C091B101D091A3
:1002A000B2014091B3015091B4014C1B5D0BF09031
:1002B000AF01A091B001B0E0AF19B10920E137E280
:1002C0003CDC4A0195948794AA2497FCA094BA2C0C
:1002D000680D791D8A1D9B1D9A01442737FD4095A5
:1002E000542FFEDB49015A012093EC003093ED00BE
:1002F0004093EE005093EF002F2D30E0A0E1B7E2E5
:1003000010DC6B017C01DE01A50194011CDCC61A26
:10031000D70AE80AF90AC092F000D092F100E09200
:10032000F200F092F300DF91CF91FF90EF90DF9019
:10033000CF90BF90AF909F908F90089587E886B937
:10034000E4EFF0E080E090E021913191820F931F83
:1003500021E0E433F207C1F72FE826B99C01F5E06C
:1003600036952795FA95E1F73093A6012093A501DC
:1003700040E650E064E371E0A3E096958795AA9586
:10038000E1F739D29093A4018093A3011092A701C1
:100390008091A5019091A6018233910510F481E02E
:1003A00004C0893E934018F082E08093A70108952D
:1003B0008091A3019091A4010EDF9093A9018093F5
:1003C000A8010895813059F46093AF018091A30191
:1003D0009091A4019093B2018093B101089582306D
:1003E00051F46093B0018091A3019091A401909386
:1003F000B4018093B30108951F920F920FB60F922C
:1004000011242F933F934F938F939F93EF93FF93D9
:1004100024B135B140917700415040937700E42FEB
:10042000F0E0EE0FFF1FEC50FF4F80E094E0821BE6
:10043000930B91838083411103C080E28093770006
:10044000FF91EF919F918F914F913F912F910F903D
:100450000FBE0F901F90189540915C01542F50953E
:100460008091CB0180935C01682F609590915D0134
:10047000481751F09C3010F090E001C09FEF1092AF
:100480005D0120E030E013C09D3019F09F5F909334
:100490005D0190915D01963020F09C3029F020E0C4
:1004A00004C020E030E002C02FEF3FEF90E0EAEA26
:1004B000F1E08083752F78237183352B38233283C5
:1004C000462349234383822384830895FC0180E0EB
:1004D00009C09191892798E02CE8869508F4822735
:1004E0009A95D9F76150A8F70895CF9390915E013E
:1004F00090FF1AC081E042D88091A701837039F43F
:100500008091A8019091A901883391053CF08091D8
:100510008D01837009F064C081E004C0C3970CF0C2
:100520005FC080E00CD85CC08091AA0184718431E6
:1005300011F480E015C08091AB0182FF04C081E01E
:10054000FED7C1E00FC084FF04C082E0F8D7C2E04C
:1005500009C091FF06C080918D01837011F481E084
:10056000EED7C0E08091AE0183FF04C081E006D8E1
:10057000C86014C08091AD0183FF10C080E889BFBE
:1005800080918D0182FF04C080E0F8D7C06206C070
:1005900042D8882311F0C06101C0C06480918D01F0
:1005A00085FF03C080E204D8C46080918D0184FF80
:1005B00003C080E1FDD7C068C7FF03C08CE090E0B6
:1005C0000EC0C6FF03C08CE590E009C0C3FF03C0A6
:1005D00080E690E004C0C77319F084E690E047DA43
:1005E00088E169D280918D0180FF02C088E003C05C
:1005F00081FF03C080E1CF9158C2CF9108958091CF
:10060000AD0180FF05C080B191E0892780B9169ABD
:100610008091AE0180FF03C0029A169A01C0029831
:1006200080915E0180FD04C08091A701837009F074
:100630000098039B04C08091B50163D6169A169B5F
:1006400013C08091B50190E0EBDD40B16091A30152
:100650007091A40163D6009B06C02091B5012F3F85
:1006600011F484EF91E05DD784E000991EC223C2AB
:10067000909178008091B501981721F0039A8093AA
:100680007800089503980895CF93DF93C091A8014F
:10069000D091A9018091A701837031F0119B3EC0D8
:1006A000F8D984E190E037C02091B50130E0609145
:1006B0007900862F90E0A901481B590B4C175D0764
:1006C00074F4820F931FC817D9074CF4653029F4CE
:1006D000009B03C084E390E0CAD98AE001C085E0B2
:1006E0008093790080B1837009F009C0119B16C016
:1006F00080917A0090917B00C817D9072CF4D09391
:100700007B00C0937A000AC043968C179D0734F48F
:10071000C0D98AE190E0DF91CF91A9C9DF91CF9153
:10072000089546E050E062E070E08FEA91E058DA28
:1007300066E08FEA91E0CADE682F80E090E05FCA51
:1007400044E050E068E070E085EB91E049DA64E075
:1007500085EB91E0BBDE682F81E090E050CACF933B
:10076000DF9344E050E068E070E085EB91E020DA50
:1007700046E050E062E070E08FEA91E019DA64E070
:1007800085EB91E0A3DEC82F81E090E021DA8C17A1
:1007900051F044E050E06CE270E085EB91E0FFD96D
:1007A000CFDFC1E001C0C0E066E08FEA91E08EDEFD
:1007B000D82F80E090E00CDA8D1749F046E050E049
:1007C00066E270E08FEA91E0EAD9ABDFC2608C2F7D
:1007D000DF91CF910895F89417BA18BA14BA15BAE0
:1007E00082E081BB80E990E05DD9AADF8FE990E0EB
:1007F00059D912BAFFCFCF92DF92EF92FF920F93A7
:100800001F93CF93DF938C01EB01FA012381200327
:100810006001219FD00C1124EE24D7FCE094FE2C23
:1008200040811EC0842F90E0DC011197AA0FBB1FEE
:10083000AC0FBD1F2D913C91DC01AA0FBB1FAC0F6B
:10084000BD1F2D933C93DF01A80FB91F1396AC91E8
:10085000BB27A7FDB0955FD9C60ED71EE81EF91EAF
:10086000415001F7198308832181328140E050E033
:10087000C701B60135D9C901DF91CF911F910F9101
:10088000FF90EF90DF90CF90089520E030E0A90135
:10089000440F551FFA01E05DFF4FE491E81305C0D6
:1008A000FA01EF5CFF4F849108952F5F3F4F2C3189
:1008B000310569F70895282F87FD81958E3018F04E
:1008C0006EE002D9892F27FF05C0882319F09EE02A
:1008D000981B892F0895CF9321D181E0F3D0C09147
:1008E0006001CC2319F0C630C1F50FC009D185E3F2
:1008F0008A95F1F7000019D180E0E4D08091BA0127
:1009000080935F01C091600128C08091BB0181117B
:1009100001C01BC081E691E0A2D78091610185FFF3
:1009200014C08091BA019091BC01891303C0109248
:10093000BB010BC09091BB01923049F48D3010F493
:100940008F5F01C080E08093BA01C0E007C08823B8
:1009500011F08150F8CF8DE0F6CFCF5F809160012C
:10096000863021F48091B901BDD010C0E0915F01C3
:10097000F0E0E354FE4F8081B5D080915F018D306F
:1009800010F48F5F01C080E080935F01C09360012D
:10099000CF91BDC00F931F93CF93DF931F92CDB71D
:1009A000DEB7182F842F698370DF082F8091BC0178
:1009B000810F81DF69810AC0E82FF0E0E354FE4F28
:1009C00000838D3010F48F5F01C080E06150A0F78C
:1009D0000F90DF91CF911F910F91089540E262E057
:1009E0008EEFD8DF8091BC01885065DF8093BC0119
:1009F00081E08093BB01089540E262E086E0CADFB7
:100A00008091BC01885F57DF8093BC0182E08093B6
:100A1000BB010895CF9382D0C7E081E053D0C1508D
:100A2000E1F775D01092BA011092BC0110925F01EB
:100A3000109260011092B90140E26EE080E0AADFFE
:100A40001092BB018091610181608D7F8093610173
:100A500089E080936301CF9108951F93CF93DF9333
:100A6000EB019091BC01890F26DF182F0BC00DDF21
:100A7000E12FF0E0E354FE4F80831D3010F41F5F40
:100A800001C010E089918111F2CFDF91CF911F91C8
:100A900008959091BC01890F0EDFE82FF0E0E35438
:100AA000FE4F80818068808308959091B901982BD2
:100AB0009093B90108959091B9018095892380930D
:100AC000B9010895882311F0C09A01C0C0988AE145
:100AD0008A95F1F700C0C29A8AE18A95F1F700C0C1
:100AE000C298089525B3982F9F71207E922B95BBB5
:100AF00098B3869586958873977C892B88BB0895D3
:100B000085B38F6185BB88B3886388BB089584B340
:100B10008F6184BB87B3886387BB089584B3807E6D
:100B200084BB87B3877C87BB089586B3887393B3F0
:100B3000880F880F9F71892B80958093CB01089532
:100B4000009711F0FC010994089580917C008E7F3C
:100B500080937C0080916F0185FD04C080916D01C0
:100B60008093B501089510927D00ECE7F0E080815C
:100B700081608083089580917C008E7F80937C00CB
:100B800080916F0185FD04C080916D018093B70154
:100B9000089580917C008E7F80937C0080916F010E
:100BA00085FD04C080916D018093B801089582E0B5
:100BB00080935E010895ECE7F0E080818E7F808372
:100BC0000198089581E080935E016AEA70E080E018
:100BD00044CF61EB70E080E040CF80EC6CCF80ECE4
:100BE0006ADFECE7F0E08081806180830895F7DFC1
:100BF0008091B00180936D0182E080936E0168EB7B
:100C000070E080E02ACFEBDF8091AF0180936D012F
:100C100081E080936E016FEB70E080E01ECFDFDF3C
:100C20008091B80180936D010895D9DF8091B7015B
:100C300080936D010895ECE7F0E080818E7F8083E2
:100C400080E439CF80E837DF8EDF8091B501809373
:100C50006D01089580E82FCF60916D0180916E0144
:100C6000B1DB11DB5ECD47E050E06CE670E08CEC70
:100C700091E095D78091AC0186FF06C080916D010F
:100C80008F3558F48B5F07C087FF09C080916D01D5
:100C9000863018F0855080936D011092810080910C
:100CA0007C0084FF10C080916D018F3530F442E8E4
:100CB00060ED71E090E013D206C08EE48093D00125
:100CC0008FE48093D1016CEC71E080E0C6CE44E00B
:100CD00050E068E670E08CEC91E061D78091AC0167
:100CE00086FF06C080916D018A3F58F48F5F07C070
:100CF00087FF07C080916D018B3018F08150809381
:100D00006D0180917C0084FF08C043E06CEC71E0D1
:100D100080916D0190E0E3D102C01ED6019A6CEC87
:100D200071E083E09ACE47E050E063E770E08CEC3E
:100D300091E035D78091AC01807C49F081E09091C1
:100D40006D01911180E080936D011092810080917E
:100D50007C0084FF11C080916D01882329F08FE40D
:100D60008093D0018EE406C08FE48093CF0186E4A7
:100D70008093D0018093D1016CEC71E080E06DDE56
:100D800082E087CE47E050E06AE770E08CEC91E0CB
:100D900006D79091AC018091B60196FF04C08336CE
:100DA00048F48F5F05C097FF05C0823018F081506E
:100DB0008093B60142E860ED71E08091B60190E069
:100DC0008ED180918D0182FF04C080917C0084FFD0
:100DD00007C042E86DEC71E080918C0190E07FD11A
:100DE0001092CC01F0D3882329F08091CC0181604E
:100DF0008093CC01FCD3882329F08091CC018860BA
:100E00008093CC018091CC01811103C080E280935A
:100E1000CC016CEC71E080E020CEA5DE80E445CE14
:100E200047E050E061E870E08CEC91E0B8D690913A
:100E3000AC0180916D0196FF04C08F3F49F08B5F3C
:100E400005C097FF07C08F3118F0855080936D0162
:100E50001092810080916D018F3F41F044E86CEC6D
:100E600071E090E03CD16CEC71E002C066EC70E0A7
:100E700080E0F3DD80917C0084FF02C080E815CE25
:100E800080E819CE80E811CE47E050E061E870E0DC
:100E90008CEC91E084D68091A70180FF03C06DECBB
:100EA00070E013C081FF03C064ED70E00EC060917C
:100EB000A8017091A901882777FD8095982F24E8D3
:100EC0004CEC51E0BFD06CEC71E080E0C6CD0F93EC
:100ED0001F93CF93DF93182FC0E0D0E007E00C9F63
:100EE000B0010D9F700D112468577F4F47E050E00F
:100EF00086E691E054D680916601811721F0219613
:100F0000CE30D10561F7DF91CF911F910F910895F8
:100F100081E080936501DBDF80916701909168013A
:100F20000FCEAF92BF92CF92DF92EF92FF920F93CC
:100F30001F93CF93DF9300D000D01F92CDB7DEB7C1
:100F400080E890E08CD40091AB0110E08091AD017D
:100F500085FD11608091AE0185FD12608091800059
:100F600085FD10681499106410925E01D09065019F
:100F7000E12CF12C35E0A32EAE9CB001AF9C700D9E
:100F8000112466517F4F45E050E0CE01019607D60F
:100F900089818D110FC02A813B8120233123232B8E
:100FA00049F0DC808D819FE0B92EB82220EFC22E5F
:100FB000C82207C08FEFE81AF80A84E2E816F104A5
:100FC000D9F680916501D81629F1C0926F01809100
:100FD0006B0190916C01B4DDC6FE02C00DDD02C054
:100FE000C7FCFCDCD09265018D2D71DF809167011B
:100FF00090916801A5DDBB20A9F0BB0CBB0CBB0C1C
:10100000B092820010928100809180008160809374
:10101000800008C08CE790E022D480916901909113
:101020006A018EDD0F900F900F900F900F90DF915F
:10103000CF911F910F91FF90EF90DF90CF90BF90D5
:10104000AF900895CF92DF92EF92FF920F931F938C
:10105000CF93DF93122F2223C9F197FF09C09095F8
:101060008095709561957F4F8F4F9F4F01E001C034
:1010700000E017FF05C01F77EA01C10FD11D04C0B2
:10108000EA01C10FD11D18822AE0C22ED12CE12C19
:10109000F12CA701960124D5605D6A93B901CA01BC
:1010A0001150611571058105910519F01111F1CFEC
:1010B00008C0112331F0002321F021978DE28883AD
:1010C000115080E201C08A931150E8F7DF91CF916F
:1010D0001F910F91FF90EF90DF90CF900895FB014B
:1010E000242FBC0180E090E0AF01ACCF2CE040E7C2
:1010F00051E0A8DF80E791E0D5C446E060E771E009
:10110000EEDF80E791E0CEC412BA8EE381BB18BA5D
:101110008FE387BB15BA8FE184BB85E083BF12BE26
:1011200081E088BF8CE085BD89EF83BD81E889BF00
:101130001FBC8BE08EBD8FE790E09BBD8ABD88E031
:1011400088B985EC87B98FE886B982E08BB988E1E8
:101150008AB986E880BD10BC82E289B910B812B89D
:10116000FEDAC82F90D856DC449A7894CC23A9F0A4
:101170006BED70E080E071DC4C2F405D61E085E05C
:1011800009DC84E590E073D42FEF83ED90E32150E8
:1011900080409040E1F700C0000081EE90E082D4F2
:1011A0008091AF0190E0A9DF8091B1019091B201EF
:1011B000A4DF8091B00190E0A0DF8091B301909115
:1011C000B4019BDF81EE90E06DD42FEF81EE94E0CF
:1011D000215080409040E1F700C0000032D28823C7
:1011E00069F064EE70E080E038DC2FEF83ED90E38F
:1011F000215080409040E1F700C0000089DE88E681
:1012000090E035D4C4E101C099D8C150E9F781E03C
:1012100096D1F89480918C008F7B80938C00789489
:101220002EE088E190E00FB6F894A89581BD0FBE3E
:1012300021BDC6EDD1E080918C0086FFFCCFA89542
:101240000BD98091AE01817219F080E690E006C062
:101250008091AB01817E19F084E690E008D4809102
:10126000AB01811179D327D3139B03C080E490E0B5
:10127000FED364D810999CD854DE37D9F9D9BFD998
:1012800003DA159B36C08091A8019091A90135DF42
:101290008091A5019091A60130DF8091A3019091EA
:1012A000A4012BDF81EC90E0FDD38881998125DFBB
:1012B0008A819B8122DF6C817D81882777FD8095E3
:1012C000982F14DF68857985882777FD8095982F7A
:1012D0000DDF6E817F81882777FD8095982F06DF4F
:1012E00081EC90E0DFD38A859B8507DF81EE90E07B
:1012F000D9D3F89480918C008F7B80938C00789464
:101300009ACF823308F482E38F502CE0829FC00191
:101310001124909385018093840108954F925F92E8
:101320006F927F929F92AF92BF92CF92DF92EF9295
:10133000FF920F931F93CF93DF935C017B01942E59
:101340009C01261B370B2D3581E038075CF4243ACD
:101350008EEF380754F08BE2829F8001839F100D3F
:10136000112405C008E91AE302C008E615EC92FC56
:101370001FC083E2829FA001839F500D1124662726
:1013800057FD6095762F8091860190918701A091FD
:101390008801B0918901840F951FA61FB71F809304
:1013A000860190938701A0938801B093890108C0BA
:1013B0001092860110928701109288011092890183
:1013C0002D3581E0380764F437FD0EC0ACE5B1E09F
:1013D000A21BB30B2091840130918501AED308C0CC
:1013E00060E070E0CB0104C060E271EA87E090E069
:1013F000409086015090870160908801709089012B
:1014000064157505860597054CF460938601709305
:10141000870180938801909389010AC077FE08C0F4
:101420001092860110928701109288011092890112
:101430006091860170918701809188019091890166
:1014400024E630E040E050E04BD3690180918A010E
:1014500090918B018E199F098830910574F4893F12
:101460002FEF92076CF020E931E0829FE001839F2B
:10147000D00D929FD00D112405C0C8EBDBE002C057
:10148000C8E4D4EFF0928B01E0928A0190FE21C073
:10149000B801882777FD8095982F2601662457FC90
:1014A0006094762C640D751D861D971D2E01662493
:1014B00057FC6094762C640D751D861D971D24E1E4
:1014C00030E040E050E00CD3253F81E0380744F4A1
:1014D00002C020E030E037FF05C020E030E002C06D
:1014E00024EF31E0E6EDF1E0B182A082F382E28206
:1014F00015830483D782C682D187C087228733872A
:10150000C901DF91CF911F910F91FF90EF90DF9074
:10151000CF90BF90AF909F907F906F905F904F90D3
:101520000895F8949C01253F81E0380710F024EFDE
:1015300031E030938F0120938E017894089590E8E4
:1015400099BF809390019FED9093840080FF09C024
:1015500080919101909192019093940180939301D5
:101560000AC081FF08C080919101909192019093EF
:1015700096018093950181E889BF089590E899BF0D
:1015800090918D019B7F90938D01882371F08091C4
:101590009101909192019093940180939301909383
:1015A00096018093950110928C0181E889BF08957E
:1015B00090E899BF809590918D01982390938D012B
:1015C00081E889BF089580E889BF80919501909155
:1015D00096012091910130919201821B930B892FEA
:1015E000809591E899BF881F8827881F089580E813
:1015F00089BF809191019091920120919301309146
:101600009401821B930B892F809591E899BF881FC5
:101610008827881F089580E889BFD5DF882359F07F
:10162000E6DF882341F080918D01846080938D01F5
:1016300081E080938C0181E889BF80918D01847065
:10164000089581E0909185009F3009F080E0089531
:101650001F920F920FB60F9211242F933F934F9327
:101660005F938F939F934398409197015091980176
:10167000443F81E0580730F082B3806382BB2CE0A6
:101680003EEF03C0959820E030E080918E0190916C
:101690008F01840F951F820F931F90939801809361
:1016A000970186EF82BF81E088BF80918500807FAF
:1016B0008058809385009F918F915F914F913F91CA
:1016C0002F910F900FBE0F901F9018951F920F92A1
:1016D0000FB60F9211242F933F934F935F936F9305
:1016E0007F938F939F93AF93BF93EF93FF938091DB
:1016F00085008F70813049F028F0823049F08330C6
:1017000069F40BC094988CEB01C081ED82BF06C0D8
:1017100082EC82BF88E188B901C05DD880918500E4
:101720008F78813809F081C082B3837F90918D01D9
:1017300093FF05C0977F90938D0182BB76C090FF89
:1017400002C0846002C091FD886082BB40918D011F
:10175000842F8770853019F08630E9F51DC080919F
:101760009501909196012091910130919201821BF7
:10177000930B181619067CF180918C019091B6019B
:10178000891728F04B7F406140938D0124C08F5F03
:1017900080938C0182E01DC0809191019091920113
:1017A0002091930130919401821B930B1816190616
:1017B00094F080918C019091B601891730F0842FBC
:1017C0008B7F806180938D0106C08F5F80938C0139
:1017D00081E08093900120918D0190919001892F5B
:1017E0008227837019F0286220938D0180918D01EA
:1017F0008C7F892B90918400892380938D019FEFAA
:101800009093840080FF06C0809191019091920195
:10181000019607C081FF09C08091910190919201CA
:101820000197909392018093910180918500982F68
:101830009F709F3019F08F5F80938500FF91EF912B
:10184000BF91AF919F918F917F916F915F914F91D8
:101850003F912F910F900FBE0F901F901895FC0194
:10186000908190FF27C0977E9F7D90838181228108
:10187000821750F091FF02C09E7F9083908190620A
:101880009064908320E002C0282F2F5F93818913FA
:101890000BC080818860806182FB992790F931E0DC
:1018A000932790FB82F904C0891718F0808180612A
:1018B00080832183089512B880918600815080939F
:1018C000860081110FC084E080938600109A809179
:1018D0008B00815080938B00811104C084E1809340
:1018E0008B00169A80918A00815019F080938A00AB
:1018F00004C082E080938A00159A8091870081500D
:1019000080938700811127C088EC80938700119A0B
:101910008091880081508093880081111CC086E0EE
:1019200080938800129A809189008E3519F08F5F1C
:101930008093890040918900242F30E08091B80184
:1019400090E001972817390709F4139A8091B8019C
:10195000481301C0149A08951092890008951F92A7
:101960000F920FB60F9211242F933F934F935F93D3
:101970006F937F938F939F93AF93BF93EF93FF9357
:10198000AAD720919901223099F120F4213009F051
:1019900050C00FC0233021F0253009F04AC015C0D7
:1019A00080919A0190919B0190939D0180939C015D
:1019B00044C080919E0190919F01019790939F0157
:1019C00080939E01892BC9F13BC0E1993BC0609196
:1019D0009C0170919D01CB01029690939D01809393
:1019E0009C0142E050E080EA91E0E2D022E028C091
:1019F0008091A101882319F18091A001882349F0E9
:101A000090E001979BBD8ABD1DBC1CBC8FB5806456
:101A100002C08FB58F738FBD8091A1012AE0829F94
:101A2000C0011124029790939F0180939E0121E0B1
:101A300007C08FB58F738FBD03C025E001C020E0C4
:101A4000209399018CE890E00ADF369AFF91EF919C
:101A5000BF91AF919F918F917F916F915F914F91C6
:101A60003F912F910F900FBE0F901F9018952091CE
:101A7000B701211104C02091A201222349F09093C3
:101A80009B0180939A0183E0809399011092A201B7
:101A9000089581E08093A20108955E9A8CB95E9BBF
:101AA000FECF08951F93CF93DF93EC0110E002C0A7
:101AB0001F5FF3DFFE01E10FF11D80818111F8CF7F
:101AC000DF91CF911F910895991B79E004C0991F70
:101AD000961708F0961B881F7A95C9F78095089588
:101AE000052E97FB16F4009406D057FD0CD035D088
:101AF00007FC09D07EF490958095709561957F4F95
:101B00008F4F9F4F089550954095309521953F4FA9
:101B10004F4F5F4F089505D0332312F48A1B9B0B60
:101B20000DC0A29FB001B39FC001A39F01D0B29F7F
:101B3000700D811D1124911D0895F3DFB7FF0895E5
:101B4000821B930B0895EDDFA59F900DB49F900D20
:101B5000A49F800D911D11240895A1E21A2EAA1BA5
:101B6000BB1BFD010DC0AA1FBB1FEE1FFF1FA2174D
:101B7000B307E407F50720F0A21BB30BE40BF50B4A
:101B8000661F771F881F991F1A9469F760957095D3
:101B9000809590959B01AC01BD01CF010895FB019B
:101BA000DC0102C005900D9241505040D8F70895D5
:101BB000DC01CB01FC01E199FECF06C0FFBBEEBB0F
:101BC000E09A31960DB20D9241505040B8F7089509
:101BD000E199FECF9FBB8EBBE09A99278DB3089504
:101BE000DC01A40FB51F4150504040F0CB01840FE1
:101BF000951F2E9105D041505040D8F70895262FBB
:101C0000E199FECF9FBB8EBBE09A01970DB2021601
:101C100031F02DBB0FB6F894E29AE19A0FBE089509
:041C2000F894FFCF66
:101C240014F6030B15212C3741494F5354534F4994
:101C340041372C21150B02201F05FF7F00000704EC
:101C440002000000FF0F01C8060001140100320069
:101C54000A0D41432073796E63206C6F7374000A1C
:101C64000D5475726E204F4646002020204F464684
:101C74000020444F4E4520005032202020200050A8
:101C840031202020200020554E5245470045525215
:101C94002030310045525220303200455252204506
:0C1CA400000A0D00455252204143000090
:00000001FF
