:10000000B4C0CEC0CDC010CDCBC0CAC0C9C0C8C05E
:10001000C7C09DCBC5C0C4C0C3C0C2C096C1C0C00C
:1000200058CBBEC0BDC01991BF00B101320A011E3C
:10003000303F4F3F3106325B334F3466536D356D81
:10004000367D3707387F396F2E802C802D405F0832
:100050002000B0634177433946714E54445E50737B
:100060004579553E473D525001BD07BF070C060379
:1000700009066A07AB050267070207010605E105E5
:10008000BD0600000BB105BD06BF0504E10527064E
:1000900000000CB1052706BF0506F5057706000030
:1000A00009B1057706C80507E905770600000AB11A
:1000B000057706C805080E06D70500000D0E06D701
:1000C0000500000EDB05D305C50501C00003A8012E
:1000D0000001024001000205280200010180030026
:1000E000830140050082010005800004680540008E
:1000F00007A80500010B280B0083052804008201D6
:1001000000048000066804400005A80400010C28D3
:100110000C008304280600820100068000076806A0
:10012000400004A8060001090007008201000780C2
:1001300000056807400006A80700010A0009000240
:100140000628090001081408008301000A000207BC
:10015000280A00010D140D008301000100400E006B
:100160000200400E000ED501010011241FBECFE594
:10017000D4E0DEBFCDBF10E0A0E6B0E0E0E2FDE1FC
:1001800002C005900D92A23FB107D9F721E0A2EF7E
:10019000B0E001C01D92A83DB207E1F75FD8BECD27
:1001A0002FCF0F931F932091F2003091F3004091D5
:1001B000F4005091F500DC0139DD0091F60010915A
:1001C000F7002091F8003091F900600F711F821F35
:1001D000931F28EE33E040E050E0F5DCC9011F91A9
:1001E0000F9108950F931F93DC01119628EE33E0D1
:1001F00017DD0091F6001091F7002091F800309182
:10020000F900601B710B820B930B2091F20030916F
:10021000F3004091F4005091F500D5DCC9011F9125
:100220000F9108958F929F92AF92BF92CF92DF92DB
:10023000EF92FF92CF93DF93F090AE01A091AF01C8
:10024000B0E0AF19B109C091B001D091B10128EE71
:1002500033E0E6DC2091B2013091B3012C1B3D0B61
:1002600040E050E0B0DC49015A012093F2003093A5
:10027000F3004093F4005093F5002F2D30E0A8EEEA
:10028000B3E0C2DC6B017C01DE01A5019401CEDC90
:10029000C61AD70AE80AF90AC092F600D092F70007
:1002A000E092F800F092F900DF91CF91FF90EF908B
:1002B000DF90CF90BF90AF909F908F90089533982C
:1002C000E0E4F1E080E090E021913191820F931F12
:1002D00021E0E038F207C1F7339A9C0145E03695FA
:1002E00027954A95E1F7309381012093800153E0EF
:1002F000969587955A95E1F790933F0180933E013B
:1003000040E650E065E871E07CD290933D01809337
:100310003C01109282018091800190918101823391
:10032000910510F481E004C0893E934018F082E00A
:10033000809382010895809180019091810131DF45
:10034000909384018093830108951F920F920FB6BA
:100350000F9211242F933F934F938F939F93EF937B
:10036000FF9324B135B1409177004150409377001D
:10037000E42FF0E0EE0FFF1FE05CFE4F80E094E022
:10038000821B930B91838083411103C080E2809391
:100390007700FF91EF919F918F914F913F912F9116
:1003A0000F900FBE0F901F90189550910001309143
:1003B00078009091CF0190930001692F6095609330
:1003C0007800809101018C3010F02FEF01C020E007
:1003D000591719F01092010105C08D3018F48F5F84
:1003E00080930101709101017C3011F44FEF01C045
:1003F00040E0892F83238093FD00773008F03FEFA2
:1004000039233093FC002095562325232093FB00AD
:1004100049234093FA008D7F90E025FD916045FDD2
:10042000926036FD946037FD98609093FF00809352
:10043000FE000895FC0180E009C09191892798E0B1
:100440002CE8869508F482279A95D9F76150A8F789
:100450000895CF938091020180FF25C081E0E5D807
:1004600080918201837039F480918301909184019D
:100470008833910554F080912601837009F073C090
:1004800081E0B2D8109204016EC0C3970CF06BC02B
:1004900080912601837009F466C080E0A5D881E0D0
:1004A0008093040160C08091CF018471843111F484
:1004B00080E019C08091FD0082FF04C081E094D8E3
:1004C000C1E013C084FF04C082E08ED8C2E00DC03A
:1004D0008091FA0083FF04C081E0A7D8C8E005C07E
:1004E00080910401811180D8C0E0109204018091B4
:1004F000FB0083FF0EC08091260182FF04C080E0D4
:1005000094D8C06206C0CDD8882311F0C06101C064
:10051000C0648091260185FF04C08F7D80932601F1
:10052000C4608091260184FF04C08F7E80932601E1
:10053000C068C7FF06C088EE93E073DA88EC90E0ED
:1005400011C0C6FF03C084EF91E009C0C3FF03C020
:1005500080E293E004C0C77331F088EE93E061DA83
:1005600082E390E05FDA88E1ACD28091260180FFDF
:1005700002C088E003C081FF03C080E1CF919BC22D
:10058000CF91089580913C0190913D01969587957A
:1005900080C70F931F93CF93DF938091FE0080FF5E
:1005A0000BC08091030191E0892780930301809122
:1005B0008F00806480938F008091020180FD04C0D1
:1005C00080918201837029F0809103018E7F809356
:1005D000030180918F0086FF40C08091B40190E0BC
:1005E00001DEEC01CC0FDD1FCC0FDD1FD695C795CA
:1005F00000913C0110913D0116950795B801CE017F
:1006000061D79091030190FF06C09091B4019F3F84
:1006100029F090E005C080E090E002C084E690E020
:10062000D6D780910301982F917080FF03C08091ED
:10063000B40101C080E08093AD01911102C0C0E01F
:10064000D0E0D093BB01C093BA0180913C0180936C
:10065000BC011093B9010093B8018091030180FFA0
:1006600006C084E0DF91CF911F910F9124C284E0F6
:10067000DF91CF911F910F9124C2CF93DF93C0914F
:100680008301D091840180918201837059F080911F
:100690008F0081FF4CC0C7D980E293E0C2D980EDC2
:1006A00097E042C02091B40130E060917900862F3C
:1006B00090E0A901481B590B4C175D079CF4820F71
:1006C000931FC817D90774F4653051F48091030162
:1006D00080FF06C088EE93E0A4D980E991E0A2D91A
:1006E0008AE001C085E080937900809103018370E6
:1006F00009F00BC080918F0081FF19C080917A00B2
:1007000090917B00C817D9072CF4D0937B00C0933D
:100710007A000DC043968C179D074CF484D98CED5C
:1007200095E07FD988E893E1DF91CF917BC9DF9194
:10073000CF910895CF9366E08EEA91E07BDEC82FDB
:1007400046E050E061E070E08EEA91E0C7DA6C2F9D
:1007500080E090E0CF91D1CACF9364E084EB91E048
:1007600069DEC82F44E050E068E070E084EB91E07F
:10077000B5DA6C2F87E090E0CF91BFCACF93DF93BB
:1007800044E050E068E070E084EB91E08FDA64E0F0
:1007900084EB91E04FDEC82F87E090E097DA8C176A
:1007A00049F044E06CE270E084EB91E099D8D4DF4A
:1007B000C1E001C0C0E046E050E061E070E08EEAD8
:1007C00091E074DA66E08EEA91E034DED82F80E0C2
:1007D00090E07CDA8D1741F046E066E270E08EEA48
:1007E00091E07ED8A7DFC2608C2FDF91CF91089572
:1007F00017BA18BA14BA15BA11BA12BAF894ACDF0B
:10080000FFCFCF92DF92EF92FF920F931F93CF9380
:10081000DF938C01EB01FA01238120036001219F0A
:10082000D00C1124EE24D7FCE094FE2C40811EC095
:10083000842F90E0DC011197AA0FBB1FAC0FBD1FE6
:100840002D913C91DC01AA0FBB1FAC0FBD1F2D9356
:100850003C93DF01A80FB91F1396AC91BB27A7FDEE
:10086000B095CCD9C60ED71EE81EF91E415001F72F
:10087000198308832181328140E050E0C701B6012D
:10088000A2D9C901DF91CF911F910F91FF90EF90F5
:10089000DF90CF90089520E030E0A901440F551F6C
:1008A000FA01E05DFF4FE491E81305C0FA01EF5C47
:1008B000FF4F849108952F5F3F4F2C31310569F729
:1008C0000895282F87FD81958E3018F06EE05CD951
:1008D000892F27FF05C0882319F09EE0981B892FD8
:1008E0000895CF9321D181E0F3D0C0910601CC23AC
:1008F00019F0C630C1F50FC009D185E38A95F1F72B
:10090000000019D180E0E4D08091BE018093050100
:10091000C091060128C08091BF01811101C01BC098
:1009200087E091E0E8D78091070185FF14C08091AE
:10093000BE019091C001891303C01092BF010BC08A
:100940009091BF01923049F48D3010F48F5F01C057
:1009500080E08093BE01C0E007C0882311F0815081
:10096000F8CF8DE0F6CFCF5F80910601863021F47D
:100970008091BD01BDD010C0E0910501F0E0EF53C2
:10098000FE4F8081B5D0809105018D3010F48F5FCE
:1009900001C080E080930501C0930601CF91BDC0E6
:1009A0000F931F93CF93DF931F92CDB7DEB7182F0E
:1009B000842F698370DF082F8091C001810F81DF50
:1009C00069810AC0E82FF0E0EF53FE4F00838D30BD
:1009D00010F48F5F01C080E06150A0F70F90DF91AD
:1009E000CF911F910F91089540E262E08EEFD8DF22
:1009F0008091C001885065DF8093C00181E08093C1
:100A0000BF01089540E262E086E0CADF8091C00144
:100A1000885F57DF8093C00182E08093BF01089513
:100A2000CF9382D0C7E081E053D0C150E1F775D0B9
:100A30001092BE011092C0011092050110920601A1
:100A40001092BD0140E26EE080E0AADF1092BF018B
:100A50008091070181608D7F8093070189E08093F9
:100A60000901CF9108951F93CF93DF93EB019091EC
:100A7000C001890F26DF182F0BC00DDFE12FF0E03A
:100A8000EF53FE4F80831D3010F41F5F01C010E054
:100A900089918111F2CFDF91CF911F9108959091AB
:100AA000C001890F0EDFE82FF0E0EF53FE4F808189
:100AB0008068808308959091BD01982B9093BD012B
:100AC00008959091BD01809589238093BD0108957B
:100AD000882311F0C09A01C0C0988AE18A95F1F785
:100AE00000C0C29A8AE18A95F1F700C0C2980895C1
:100AF00025B3982F9F71207E922B95BB98B3869536
:100B000086958873977C892B88BB089585B38F6100
:100B100085BB88B3886388BB089584B38F6184BB29
:100B200087B3886387BB089584B3807E84BB87B313
:100B3000877C87BB089586B3887393B3880F880F2B
:100B40009F71892B80958093CF010895009711F0B4
:100B5000FC0109940895E5E1F1E080818E7F8083B6
:100B600008951092160187E08093170184E0809326
:100B70001801E5E1F1E08081816080830895E5E17D
:100B8000F1E080818E7F80830895109202010895A4
:100B9000E5E1F1E080818E7F8083809103018D7F8C
:100BA00080930301089560EB70E080E05CCF67EB19
:100BB00070E080E058CF80EC84DF81E08093020118
:100BC000089580EC7EDFE5E1F1E080818061808343
:100BD0000895F7DF8091AF018093130182E0809345
:100BE00014016EEB70E080E03ECFEBDF8091AE0150
:100BF0008093130181E08093140165EC70E080E044
:100C000032CF80E45EDFE5E1F1E080818E7F80839A
:100C1000089580E856DFA5CF80E853CF20911301D7
:100C2000309114018091800190918101313039F42B
:100C30009093B1018093B0012093AE0106C09093D0
:100C4000B3018093B2012093AF01ECDA73CDCF935F
:100C5000DF93CDB7DEB727970FB6F894DEBF0FBE90
:100C6000CDBF87E0E4E9F0E0DE01119601900D923E
:100C70008A95E1F78091FE009091FF009C0120741D
:100C80003470232B31F08091B7018F3568F48B5F7E
:100C900009C080789870892B49F08091B70186301F
:100CA00018F085508093B70110927D008091150156
:100CB00084FF0FC08091B7018F3538F442E8BE0140
:100CC0006B5F7F4F90E090D204C08EE48D838FE401
:100CD0008E83BE016F5F7F4F80E0C5DE27960FB623
:100CE000F894DEBF0FBECDBFDF91CF910895CF93B3
:100CF000DF9300D000D0CDB7DEB780E290E2A0E273
:100D0000B0E089839A83AB83BC838091FE0090918D
:100D1000FF009C0120743470232B31F0809113016B
:100D20008A3F68F48F5F09C080789870892B39F00A
:100D3000809113018B3018F08150809313018091C2
:100D4000150184FF0EC043E0BE016F5F7F4F8091AD
:100D5000130190E049D262D68091030182608093B2
:100D60000301BE016F5F7F4F83E07DDE0F900F9028
:100D70000F900F90DF91CF910895CF93DF93CDB770
:100D8000DEB727970FB6F894DEBF0FBECDBF87E062
:100D9000EBE9F0E0DE01119601900D928A95E1F702
:100DA0008091FE009091FF00807C9927892B49F06B
:100DB00081E09091B601911180E08093B60110928C
:100DC0007D008091150184FF0DC08091B6018823BC
:100DD00021F08FE48D838EE404C08FE48C8386E45D
:100DE0008D838E83BE016F5F7F4F80E03CDE82E0AB
:100DF00056DE27960FB6F894DEBF0FBECDBFDF914B
:100E0000CF910895CF93DF93CDB7DEB727970FB675
:100E1000F894DEBF0FBECDBF87E0E2EAF0E0DE016E
:100E2000119601900D928A95E1F78091FE009091C4
:100E3000FF009C0120743470232B31F08091B501A8
:100E4000833668F48F5F09C080789870892B39F0F9
:100E50008091B501823018F081508093B50142E84D
:100E6000BE016B5F7F4F8091B50190E0BDD1809155
:100E7000260182FF04C08091150184FF08C042E86A
:100E8000BE016E5F7F4F8091250190E0ADD1198248
:100E9000E8D3882319F0898181608983F2D388237C
:100EA00019F08981886089838981811102C080E27B
:100EB0008983BE016F5F7F4F80E0D5DD27960FB637
:100EC000F894DEBF0FBECDBFDF91CF91089580E4CF
:100ED000F2DD47CECF93DF93CDB7DEB727970FB6BE
:100EE000F894DEBF0FBECDBF87E0E9EAF0E0DE0197
:100EF000119601900D928A95E1F78091FE009091F4
:100F0000FF009C0120743470232B31F08091B401D8
:100F10008F3F69F08B5F09C080789870892B49F00A
:100F20008091B4018F3118F085508093B4011092F4
:100F30007D008091B4018F3F51F044E8BE016F5FA6
:100F40007F4F90E051D1BE016F5F7F4F02C06CECCC
:100F500070E080E088DD8091150184FF03C080E8A7
:100F6000AADD02C080E8ADDD27960FB6F894DEBF9B
:100F70000FBECDBFDF91CF91089580E89CCDCF9378
:100F8000DF93CDB7DEB727970FB6F894DEBF0FBE5D
:100F9000CDBF87E0E9EAF0E0DE01119601900D9205
:100FA0008A95E1F78091820180FF03C063ED70E0D4
:100FB00015C081FF03C06AED70E010C0609183012D
:100FC00070918401882777FD8095982F24E8AE01E1
:100FD0004F5F5F4FBCD0BE016F5F7F4F80E043DD4E
:100FE00027960FB6F894DEBF0FBECDBFDF91CF912D
:100FF00008950F931F93CF93DF93182FC0E0D0E095
:1010000007E00C9FB0010D9F700D112468597F4FB0
:1010100047E08CE091E064D480910C01811721F0CD
:101020002196CE30D10569F7DF91CF911F910F91B5
:10103000089581E080930B01DCDF80910D01909198
:101040000E0184CDAF92BF92CF92DF92EF92FF92CA
:101050000F931F93CF93DF9300D000D01F92CDB793
:10106000DEB78CE790E047D40091FE001091FF00BE
:1010700080917C0085FD106880918F0084FD106454
:10108000D0900B01E12CF12C35E0A32EAE9CB001E9
:10109000AF9C700D112466537F4F45E0CE01019641
:1010A0001FD489818D110FC02A813B8120233123D8
:1010B000232B49F0DC808D819FE3C92EC82220ECD0
:1010C000B22EB82207C08FEFE81AF80A80E2E816BD
:1010D000F104E1F680910B01D81609F1809111011C
:1010E0009091120133DDB6FE02C08CDC02C0B7FC69
:1010F0007BDCD0920B018D2D7CDF80910D019091D6
:101100000E0124DDCC2099F0CC0CC0927E00109210
:101110007D0080917C00816080937C0008C085E127
:1011200091E0E9D380910F01909110010FDD0F90B4
:101130000F900F900F900F90DF91CF911F910F9113
:10114000FF90EF90DF90CF90BF90AF900895CF9237
:10115000DF92EF92FF920F931F93CF93DF93122FA3
:101160002223C9F197FF09C09095809570956195EC
:101170007F4F8F4F9F4F01E001C000E017FF05C078
:101180001F77EA01C10FD11D04C0EA01C10FD11DB3
:1011900018822AE0C22ED12CE12CF12CA701960155
:1011A00012D5605D6A93B901CA01115061157105CC
:1011B0008105910519F01111F1CF08C0112331F00B
:1011C000002321F021978DE28883115080E201C035
:1011D0008A931150E8F7DF91CF911F910F91FF9003
:1011E000EF90DF90CF900895FB01242FBC0180E0A9
:1011F00090E0AF01ACCFCF93DF93CDB7DEB72C97A4
:101200000FB6F894DEBF0FBECDBF2CE0AE014F5F2E
:101210005F4F9DDFCE010196A5D42C960FB6F894B2
:10122000DEBF0FBECDBFDF91CF910895CF93DF9387
:1012300000D000D000D0CDB7DEB746E0BE016F5F72
:101240007F4FD2DFCE0101968DD426960FB6F8944B
:10125000DEBF0FBECDBFDF91CF910895CF93DF9357
:101260001F92CDB7DEB7198212BA8EE381BB18BACE
:101270008FE387BB15BA8FE184BB85E083BF12BEC5
:1012800088B7816088BF89B7816089BF8CE085BDE0
:1012900089EF83BD89B7806889BF1FBC8BE08EBD95
:1012A0008FE790E09BBD8ABD88E088B985EC87B95F
:1012B0008FE886B982E08BB988E18AB986E880BD7B
:1012C00010BC82E289B95ADA8983ACD7A9DB449A87
:1012D000789489818823C1F061EE70E080E0C3DBFF
:1012E0004981405D61E085E05BDB8CEB92E099D366
:1012F00084EF91E097D32FEF83ED90E3215080406E
:101300009040E1F700C000008091AE0190E08EDFD8
:101310008091B0019091B10189DF8091AF0190E09F
:1013200085DF8091B2019091B30180DF87EE90E07C
:1013300019D42FEF81EE94E0215080409040E1F7E6
:1013400000C00000809187008F3069F46AEE70E081
:1013500080E089DB2FEF83ED90E3215080409040C7
:10136000E1F700C0000065DE88EE93E05AD38CE020
:1013700090E0E1D3A4D706D981E036D180919000E6
:101380008F7B809390002EE088E190E00FB6F89478
:10139000A89581BD0FBE21BD8091900086FFFCCF36
:1013A000A89503D88091FE009091FF0091FF03C0A3
:1013B00080E293E006C08091FD00817E31F088EEEE
:1013C00093E02FD388E290E02DD38091FD0081112E
:1013D00025D3BDD280918F0083FF06C080EB94E0BF
:1013E00020D388EC90E01ED36AD780918F0080FDD7
:1013F000A2D728DE2ED8CDD840D980918F0085FF86
:1014000042C0809183019091840110DF80913E0160
:1014100090913F010BDF80913C0190913D0106DFEF
:1014200087EC90E09FD38091BA019091BB01FEDEE2
:101430008091B8019091B901F9DE6091D20170916B
:10144000D301882777FD8095982FD5DE6091D6014E
:101450007091D701882777FD8095982FCCDE609119
:10146000D4017091D501882777FD8095982FC3DE30
:1014700087EC90E077D38091D0019091D101D6DEB6
:1014800087EE90E06FD3809190008F7B80939000E7
:1014900083CF10921A011092190110921C01109220
:1014A0001B0110921E0110921D011092200110923A
:1014B0001F01909322018093210110922401109228
:1014C00023010895EF92FF920F931F93CF93DF9321
:1014D0008B01861B970B863891055CF48B372FEFB9
:1014E000920754F02FE0289FE001299FD00D11248E
:1014F00005C0C0EDD7E002C0C0E3D8EF45E0489F8B
:101500009001499F300D1124809123019091240175
:10151000280F391F21328EE438073CF080E29EE428
:1015200090932401809323010BC037FD05C03093B5
:1015300024012093230104C010922401109223015E
:10154000809123019091240168E270E029D37B010E
:10155000809121019091220140E850E069E171E021
:10156000801B910B4ED922E3289FF001299FF00D9B
:1015700011241093220100932101CE018E0D9F1D95
:101580008E0F9F1F65E070E00BD39B0177FF02C0B9
:1015900020E030E0C9012536310514F084E690E002
:1015A000D093D301C093D201F093D701E093D60139
:1015B000F092D501E092D4019093D1018093D001B3
:1015C000DF91CF911F910F91FF90EF900895439875
:1015D0009C018536910510F024E630E03093280117
:1015E00020932701439A089599B79E7F99BF8093CE
:1015F00029019FED9093880080FF09C080912A0106
:1016000090912B0190932D0180932C010AC081FFB2
:1016100008C080912A0190912B0190932F01809313
:101620002E0189B7816089BF089599B79E7F99BFC0
:10163000909126019B7F90932601882371F08091E1
:101640002A0190912B0190932D0180932C0190936E
:101650002F0180932E011092250189B7816089BFE7
:10166000089580912E0190912F0120912A013091AF
:101670002B01821B930B892F8095881F8827881F39
:10168000089580912A0190912B0120912C01309195
:101690002D01821B930B892F8095881F8827881F17
:1016A000089589B78E7F89BFDCDF882359F0E9DF91
:1016B000882341F08091260184608093260181E097
:1016C0008093250189B7816089BF8091260184704C
:1016D00008951F920F920FB60F9211242F933F93EC
:1016E0004F935F938F939F93439840913001509114
:1016F00031014436510530F082B3806382BB2CE95E
:101700003FEF03C0959820E030E080912701909151
:101710002801840F951F820F931F909331018093AE
:10172000300186EF82BF88B7816088BF80918700D3
:10173000807F8058809387009F918F915F914F9118
:101740003F912F910F900FBE0F901F9018951F92F1
:101750000F920FB60F9211242F933F934F935F93E5
:101760006F937F938F939F93AF93BF93EF93FF9369
:10177000809187008F70813049F028F0823049F0E5
:10178000833069F40BC094988CEB01C081ED82BF6B
:1017900006C082EC82BF449A439A01C029D8809146
:1017A00087008F78813809F081C082B3837F909160
:1017B000260193FF05C0977F9093260182BB76C0D8
:1017C00090FF02C0846002C091FD886082BB40919E
:1017D0002601842F8770853019F08630E9F51DC009
:1017E00080912E0190912F0120912A0130912B019F
:1017F000821B930B181619067CF18091250190919C
:10180000B501891728F04B7F40614093260124C021
:101810008F5F8093250182E01DC080912A01909105
:101820002B0120912C0130912D01821B930B181656
:10183000190694F0809125019091B501891730F037
:10184000842F8B7F80618093260106C08F5F8093F9
:10185000250181E0809329012091260190912901A1
:10186000892F8227837019F02862209326018091A6
:1018700026018C7F892B90918800892380932601F3
:101880009FEF9093880080FF06C080912A0190917D
:101890002B01019607C081FF09C080912A01909118
:1018A0002B01019790932B0180932A01809187004F
:1018B000982F9F709F3019F08F5F80938700FF9162
:1018C000EF91BF91AF919F918F917F916F915F91B8
:1018D0004F913F912F910F900FBE0F901F90189531
:1018E00007C0FB016F5F7F4FE491DC01ED93CD01F9
:1018F0004150B8F70895FC01908190FF27C0977E72
:101900009F7D908381812281821750F091FF02C0D8
:101910009E7F9083908190629064908320E002C0CB
:10192000282F2F5F938189130BC08081886080618D
:1019300082FB992790F931E0932790FB82F904C04C
:10194000891718F080818061808321830895109227
:101950008F0080918900815080938900811113C08C
:1019600084E08093890081E080938F0080918E00D5
:10197000815080938E00811106C08AE080938E0092
:1019800081E480938F0080918D00815019F08093C5
:101990008D0008C082E080938D0080918F0080626E
:1019A00080938F0080918A00815080938A008111FA
:1019B00034C088EC80938A0040918F00842F82602D
:1019C00080938F0080918B00815080938B008111D8
:1019D00024C086E080938B00842F866080938F00E4
:1019E00080918C008E3519F08F5F80938C00609110
:1019F0008C005091B701262F30E0852F90E00197A1
:101A00002817390719F44E6040938F00651305C0FD
:101A100080918F00806180938F00089510928C00D8
:101A200008950895089508951F920F920FB60F928A
:101A300011242F933F934F935F936F937F938F93D3
:101A40009F93AF93BF93EF93FF934BD720913201B6
:101A50002230A1F120F4213009F04FC00FC0233013
:101A600021F0253009F049C015C0809133019091D3
:101A70003401909336018093350143C08091370142
:101A80009091380101979093380180933701892B09
:101A9000C1F13AC06091350170913601611571054F
:101AA00091F1CB010296909336018093350142E08B
:101AB00050E089E391E0FAD022E026C080913A011B
:101AC000882309F180913901882339F090E001974A
:101AD0009BBD8ABD8FB5806402C08FB58F738FBDEB
:101AE00080913A012AE0829FC001112402979093CD
:101AF00038018093370121E007C08FB58F738FBD08
:101B000003C025E001C020E02093320180E990E08D
:101B1000F2DE369AFF91EF91BF91AF919F918F9135
:101B20007F916F915F914F913F912F910F900FBED9
:101B30000F901F9018952091B601211104C020919B
:101B40003B01222349F0909334018093330183E0D9
:101B50008093320110923B0108955E9A8CB95E9B8E
:101B6000FECF08951F93CF93DF93EC0110E002C0E6
:101B70001F5FF3DFFE01E10FF11D80818111F8CFBE
:101B8000DF91CF911F910895991B79E004C0991FAF
:101B9000961708F0961B881F7A95C9F780950895C7
:101BA00097FB072E16F4009406D077FD08D048D096
:101BB00007FC05D03EF4909581959F4F0895709550
:101BC00061957F4F0895052E97FB16F4009406D07B
:101BD00057FD0CD049D007FC09D07EF49095809534
:101BE000709561957F4F8F4F9F4F08955095409509
:101BF000309521953F4F4F4F5F4F089505D03323C8
:101C000012F48A1B9B0B0DC0A29FB001B39FC001B1
:101C1000A39F01D0B29F700D811D1124911D0895C5
:101C2000F3DFB7FF0895821B930B0895EDDFA59FA7
:101C3000900DB49F900DA49F800D911D11240895C7
:101C4000AA1BBB1B51E107C0AA1FBB1FA617B707E2
:101C500010F0A61BB70B881F991F5A95A9F78095FE
:101C60009095BC01CD010895A1E21A2EAA1BBB1BC1
:101C7000FD010DC0AA1FBB1FEE1FFF1FA217B30758
:101C8000E407F50720F0A21BB30BE40BF50B661F6E
:101C9000771F881F991F1A9469F760957095809532
:101CA00090959B01AC01BD01CF010895DC01CB01F2
:101CB000FC01E199FECF06C0FFBBEEBBE09A319676
:101CC0000DB20D9241505040B8F70895E199FECF02
:101CD0009FBB8EBBE09A99278DB30895DC01A40FBA
:101CE000B51F4150504040F0CB01840F951F2E91FD
:101CF00005D041505040D8F70895262FE199FECFE6
:101D00009FBB8EBBE09A01970DB2021631F02DBB3E
:101D10000FB6F894E29AE19A0FBE0895F894FFCFB7
:101D200014F6030B15212C3741494F5354534F4997
:101D300041372C21150B0220FF05FF7F0200000018
:101D40000419004042403B0FFF01C80600010A0091
:101D5000010032004F464620202000534E442020F0
:101D600020002020202020200020202020B0430020
:101D70002020204F46460020444F4E452000503240
:101D800020202020005031202020200020554E52BD
:101D900045470045525220303100455252203032E2
:101DA000004552522045000A0D0045525220414341
:021DB000000031
:00000001FF
