:10000000ADC0C7C0C6C03CCDC4C0C3C0C2C0C1C063
:10001000C0C0A1CBBEC0BDC0BCC0BBC009C2B9C0BE
:100020005CCBB7C0B6C0303F4F3F3106325B334F79
:100030003466536D356D367D3707387F396F2E80C6
:100040002C802D405F082000B06341774339467112
:100050004E54445E50734579525001B308C906B3FB
:100060000703B00764082C06026108FA07A8070511
:100070009607B50700000B3206B507400604960741
:10008000780600000C320678064006069E074207F6
:10009000000009320642074906079E07F4060000E1
:1000A0000A3206F4064906086A06540600000D5C8A
:1000B00006540600000E9007580646060106000387
:1000C000A801000102400100020528020001018090
:1000D0000300830140050082010005040004680557
:1000E000020007A80500010B280B00830528040067
:1000F000820100040400066804020005A80400014F
:100100000C280C0083042806008201000604000766
:100110006806020004A80600010900070082010029
:10012000070400056807020006A80700010A000985
:1001300000020628090001081408008301000A00D3
:100140000207280A00010D140D0083010001004080
:100150000E000200400E000E7601010011241FBEA9
:10016000CFE5D4E0DEBFCDBF10E0A0E6B0E0E6E929
:10017000FCE102C005900D92A63FB107D9F721E03E
:10018000A6EFB0E001C01D92AC3BB207E1F776D913
:1001900080CD36CF0F931F932091F6003091F7005A
:1001A0004091F8005091F900DC0139DD0091FA002E
:1001B0001091FB002091FC003091FD00600F711F39
:1001C000821F931F28EE33E040E050E0FBDCC901C2
:1001D0001F910F9108950F931F939C012F5F3F4F25
:1001E000A8EEB3E00ADD0091FA001091FB00209127
:1001F000FC003091FD00601B710B820B930B209172
:10020000F6003091F7004091F8005091F900DADCE7
:10021000C9011F910F9108958F929F92AF92BF9243
:10022000CF92DF92EF92FF92CF93DF93F0908A010B
:10023000A0918B01B0E0AF19B109C0918C01D091B0
:100240008D0128EE33E0E5DC20918E0130918F01A5
:100250002C1B3D0B40E050E0B5DC49015A012093D6
:10026000F6003093F7004093F8005093F9002F2DDB
:1002700030E0A8EEB3E0C1DC6B017C01DE01A5013A
:100280009401CDDCC61AD70AE80AF90AC092FA002E
:10029000D092FB00E092FC00F092FD00DF91CF9144
:1002A000FF90EF90DF90CF90BF90AF909F908F9096
:1002B000089580915D0190915E016CDF90936001E3
:1002C00080935F010895CF92DF92EF92FF921F9388
:1002D000CF93DF93EB011881FC0140E050E0C12C8B
:1002E000D12C76010FC021913191DE01A40FB51FF1
:1002F0001396AC91B0E081DCC60ED71EE81EF91E45
:100300004F5F5F4F411778F329813A8140E050E019
:10031000C701B60135DCC901DF91CF911F91FF9074
:10032000EF90DF90CF900895CF92DF92EF92FF92FF
:100330001F93CF93DF93EB011881FC0140E050E065
:10034000C12CD12C760111C061917191CE01840F25
:10035000951FDC0113962C9130E0DB015ADCC60EB0
:10036000D71EE81EF91E4F5F5F4F411768F32981C2
:100370003A8140E050E0C701B60124DCC901DF91B9
:10038000CF911F91FF90EF90DF90CF900895FF9253
:100390000F931F93CF93DF93FC01CB012085211195
:1003A00018C0278141813281A42FB32FA20FB11D24
:1003B000A20FB11D2D913C914381548165817681BD
:1003C000421B530B61097109438354836583768310
:1003D00005C017821382148215821682D181F280A1
:1003E00043815481658176818C0120E030E0C781B2
:1003F000AD2FBF2DAC0FB11DAC0FB11D8D939C93D4
:10040000CF5FC783400F511F621F731FA081CA13A4
:1004100002C017821086A085A111E9CF43835483BF
:1004200065837683DF91CF911F910F91FF9008959F
:100430001F920F920FB60F9211242F933F934F9359
:100440005F936F937F938F939F93AF93BF93EF933C
:10045000FF9384B195B160E074E0681B790B80E88C
:1004600090E095DFFF91EF91BF91AF919F918F91B8
:100470007F916F915F914F913F912F910F900FBEA0
:100480000F901F901895CF92DF92EF92FF923398C2
:10049000C0908300D0908400E0908500F0908600AA
:1004A0002091800030E040E050E0C701B60168DBF9
:1004B00030935E0120935D01C701B60122E096955D
:1004C0008795779567952A95D1F770933401609356
:1004D000330187E790E05BDF60E670E081E691E062
:1004E000F2DE9093320180933101339AFF90EF90C6
:1004F000DF90CF9008955091040130918900909140
:10050000BB0190930401692F6095609389008091ED
:1005100005018C3010F02FEF01C020E0591719F0C1
:100520001092050105C08D3018F48F5F809305018E
:10053000709105017C3011F44FEF01C040E0892F2C
:10054000832380930101773008F03FEF3923309304
:1005500000012095562325232093FF004923409333
:10056000FE00877F90E020FD916040FD926031FDAC
:10057000946032FD98609093030180930201089586
:10058000CF938091060180FF0FC081E052D8809107
:100590005F0190916001C39708F05FC081E0809394
:1005A000080180E025D859C08091010184FF04C072
:1005B00081E01ED8C1E013C085FF04C082E018D8D6
:1005C000C2E00DC08091FE0087FF04C081E031D8F9
:1005D000C8E005C08091080181110AD8C0E01092DE
:1005E00008018091FF0087FF0EC08091220182FFE9
:1005F00004C080E01ED8C06206C057D8882311F01E
:10060000C06101C0C0648091220185FF04C08F7D5C
:1006100080932201C4608091220184FF04C08F7EF8
:1006200080932201C068C7FF06C088EE93E0F2D92C
:1006300088EC90E011C0C6FF03C084EF91E009C0D0
:10064000C3FF03C080E293E004C0C77331F088EEBB
:1006500093E0E0D982E390E0FDD980E3B3D28091CA
:10066000220180FF02C080E103C081FF03C080E25D
:10067000CF91A2C2CF910895EF92FF920F931F9353
:10068000CF93DF938B01861B970B853691055CF426
:100690008C392FEF920754F02AE0289FE001299F20
:1006A000D00D112405C0C0EDD7E002C0C0E3D8EFE3
:1006B0002091090130910A01280F391F293E83E05A
:1006C00038073CF088EE93E090930A01809309018B
:1006D0000BC037FD05C030930A012093090104C007
:1006E00010920A01109209012091090130910A012A
:1006F00045E0429FC001439F900D112464E170E0EA
:100700002CDA7B0180910B0190910C01801B910BE5
:100710002AE0289FB001299F700D112481E990E003
:1007200036DE10930C0100930B016AE870E08CE94F
:1007300091E0FADD22E3289FF001299FF00D1124BA
:10074000CE018E0D9F1D8E0F9F1F65E070E005DAB4
:100750009B0177FF02C020E030E0C901253631055A
:1007600014F084E690E0D0939701C0939601F09343
:10077000A501E093A401F0929B01E0929A0190936D
:10078000950180939401DF91CF911F910F91FF907C
:10079000EF9008950F931F93CF93DF938091020101
:1007A00086FF0BC08091070191E0892780930701A4
:1007B0008091A90080648093A9008091060180FF48
:1007C00005C0809107018E7F809307018091A90069
:1007D00086FF3AC08091900190E0FDDC25E0289FE3
:1007E000E001299FD00D1124D695C79500913101C4
:1007F0001091320116950795B801CE013DDF909119
:10080000070190FF02C090E002C080E090E0E3D6D4
:1008100080910701982F917080FF03C08091900113
:1008200001C080E080938901911102C0C0E0D0E056
:10083000D093A701C093A601809131018093A801B4
:1008400010939901009398018091070180FF06C0E1
:1008500080E4DF91CF911F910F91AEC180E4DF91D1
:10086000CF911F910F91AEC1609131017091320112
:1008700080E090E001CFCF93DF93C0915F01D091F2
:1008800060012091900130E060919A00862F90E005
:10089000A901481B590B4C175D0798F4820F931F51
:1008A000C817D90770F4653051F48091070180FFB3
:1008B00006C088EE93E0AED880E991E0CBD88AE01C
:1008C00001C085E080939A0080910701837009F050
:1008D0000BC08091A90081FF19C080919B0090916D
:1008E0009C00C817D90728F4D0939C00C0939B00A4
:1008F0000DC00F96C817D90748F0BED88CED95E00B
:1009000089D888E893E1DF91CF91A4C8DF91CF9196
:10091000089544E050E066E070E080E991E089D914
:1009200046E050E060E070E08AE891E082C946E08D
:1009300050E060E070E08AE891E08BC917BA18BA1D
:1009400014BA15BA11BA12BAF89444E050E066E04D
:1009500070E080E991E07DD9FFCF20E030E0A9018F
:10096000440F551FFA01EA5DFF4FE491E81305C0FB
:10097000FA01E95DFF4F849108952F5F3F4F2A31BF
:10098000310569F70895282F87FD81958E3018F07D
:100990006EE0C3D8892F27FF05C0882319F09EE099
:1009A000981B892F0895CF9381E013D1C0910E0138
:1009B000CC2319F0C630D1F511C037D128D185E349
:1009C0008A95F1F7000038D129D180E002D18091D9
:1009D000AA0180930D01C0910E0128C08091AB0146
:1009E000811101C01BC08FE091E07ED780910F0183
:1009F00085FF14C08091AA019091AC01891303C0B6
:100A00001092AB010BC09091AB01923049F48D3044
:100A100010F48F5F01C080E08093AA01C0E007C09E
:100A2000882311F08150F8CF8DE0F6CFCF5F809111
:100A30000E01863021F48091A901DBD010C0E09135
:100A40000D01F0E0E355FE4F8081D3D080910D0180
:100A50008D3010F48F5F01C080E080930D01C09352
:100A60000E01CF9108950F931F93CF93DF931F92A1
:100A7000CDB7DEB7182F842F69836FDF082F8091E1
:100A8000AC01810F80DF69810AC0E82FF0E0E355F7
:100A9000FE4F00838D3010F48F5F01C080E0615005
:100AA000A0F70F90DF91CF911F910F91089540E231
:100AB00062E08EEFD8DF8091AC01885064DF8093D4
:100AC000AC0181E08093AB01089540E262E086E0F2
:100AD000CADF8091AC01885F56DF8093AC0182E071
:100AE0008093AB010895CF93A0D0C7E081E071D08F
:100AF000C150E1F793D01092AA011092AC0110926C
:100B00000D0110920E011092A90140E26EE080E00A
:100B1000AADF1092AB0180910F0181608D7F8093DD
:100B20000F0189E080931101CF910895FF920F93F7
:100B30001F93CF93DF93EB019091AC01890F23DFDB
:100B4000182FF82E02E023C008DF803811F401606E
:100B500001C00E7F013049F4EF2DF0E0E355FE4F68
:100B60009081982B9083812F0BC0E12FF0E0E3550B
:100B7000FE4F80831D3018F4812F8F5F01C080E00D
:100B800000FF02C003E001C000E0F12E182F8991A0
:100B90008111DACFDF91CF911F910F91FF900895CE
:100BA0009091AC01890FEFDEE82FF0E0E355FE4FA6
:100BB00080818068808308959091A901982B9093FB
:100BC000A90108959091A901809589238093A90195
:100BD0000895882311F0C09A01C0C0988AE18A95CF
:100BE000F1F700C0C29A8AE18A95F1F700C0C29875
:100BF000089525B3982F9F71207E922B95BB98B3B3
:100C0000869586958873977C892B88BB089585B3D4
:100C10008F6185BB88B3886388BB089584B38F6177
:100C200084BB87B3886387BB089584B3807E84BB0D
:100C300087B3877C87BB089586B3887393B3880F87
:100C4000880F9F71892B80958093BB010895009731
:100C500011F0FC0109940895EBE1F1E080818E7FB1
:100C60008083089510921C0187E080931D0184E029
:100C700080931E01EBE1F1E0808181608083089523
:100C8000EBE1F1E080818E7F808308951092060170
:100C90000895EBE1F1E080818E7F808380910701F0
:100CA0008D7F80930701089568ED70E080E03ECF6E
:100CB0006FED70E080E03ACF80915D0190915E0130
:100CC00090938F0180938E018091200180938B01FE
:100CD000A3DA2DCE80915D0190915E0190938D01FC
:100CE00080938C0180911F0180938A0195DA1FCE39
:100CF000CF93DF93CDB7DEB727970FB6F894DEBF5B
:100D00000FBECDBF87E0EEEAF0E0DE011196019064
:100D10000D928A95E1F780910201909103019C0167
:100D200022703470232B31F0809193018F3568F459
:100D30008B5F09C084709870892B49F08091930172
:100D4000863018F085508093930110929E00809118
:100D50001B0184FF10C0809193018F3541F020E288
:100D600042E8BE016B5F7F4F90E0BAD204C08EE4D0
:100D70008D838FE48E83BE016F5F7F4F80E0D6DE70
:100D800027960FB6F894DEBF0FBECDBFDF91CF918F
:100D90000895CF93DF93CDB7DEB727970FB6F894BA
:100DA000DEBF0FBECDBF87E0E5EBF0E0DE011196C0
:100DB00001900D928A95E1F720E244E8BE016F5F51
:100DC0007F4F80915F01909160018AD2BE016F5F79
:100DD0007F4F80E0ABDE27960FB6F894DEBF0FBEE4
:100DE000CDBFDF91CF910895CF93DF93CDB7DEB71D
:100DF00027970FB6F894DEBF0FBECDBF87E0ECEBB0
:100E0000F0E0DE01119601900D928A95E1F7809154
:100E10000201909103019C0122703470232B31F068
:100E2000809120018A3F68F48F5F09C084709870B8
:100E3000892B39F0809120018B3018F081508093FC
:100E4000200180911B0184FF0FC020E243E8BE0116
:100E50006C5F7F4F8091200190E042D2D8D5809185
:100E60000701826080930701BE016F5F7F4F80E0C2
:100E70005DDE27960FB6F894DEBF0FBECDBFDF91C3
:100E8000CF910895CF93DF93CDB7DEB727970FB6F5
:100E9000F894DEBF0FBECDBF87E0E3ECF0E0DE01EB
:100EA000119601900D928A95E1F78091020190913F
:100EB00003019C0122703470232B31F080911F01BB
:100EC0008A3F68F48F5F09C084709870892B39F06D
:100ED00080911F018B3018F0815080931F01809109
:100EE0001B0184FF0FC020E243E8BE016C5F7F4F0F
:100EF00080911F0190E0F4D18AD580910701826032
:100F000080930701BE016F5F7F4F80E00FDE279661
:100F10000FB6F894DEBF0FBECDBFDF91CF9108951D
:100F200083E050DE81E080930601089583E04ADE8D
:100F3000EBE1F1E08081806180830895F7DF8091AB
:100F40008A0180931F0180918B0180932001089575
:100F500082E038DEEBE1F1E080818E7F80830895CE
:100F600081E030DE7FCE81E02DCECF93DF93CDB711
:100F7000DEB727970FB6F894DEBF0FBECDBF87E070
:100F8000EAECF0E0DE01119601900D928A95E1F70E
:100F9000809102019091030186709927892B49F075
:100FA00081E090919201911180E0809392011092E2
:100FB0009E0080911B0184FF0DC0809192018823C7
:100FC00021F08FE48D838EE404C08FE48C8386E46B
:100FD0008D838E83BE016F5F7F4F80E0A7DD82E04F
:100FE000DFDD27960FB6F894DEBF0FBECDBFDF91D1
:100FF000CF910895CF93DF93CDB7DEB727970FB684
:10100000F894DEBF0FBECDBF87E0E1EDF0E0DE017A
:10101000119601900D928A95E1F7809102019091CD
:1010200003019C0122703470232B31F080919101D7
:10103000833668F48F5F09C084709870892B39F00B
:1010400080919101823018F081508093910120E2CB
:1010500042E8BE016B5F7F4F8091910190E040D1EB
:101060008091220182FF04C080911B0184FF09C08E
:1010700020E242E8BE016E5F7F4F8091210190E047
:101080002FD11982F2D2882319F089818160898356
:10109000FCD2882319F08981886089838981811134
:1010A00002C080E28983BE016F5F7F4F80E03EDD3A
:1010B00027960FB6F894DEBF0FBECDBFDF91CF915C
:1010C000089582E079DDCECDCF93DF93CDB7DEB743
:1010D00027970FB6F894DEBF0FBECDBF87E0E5EBD4
:1010E000F0E0DE01119601900D928A95E1F7809172
:1010F0000201909103019C0122703470232B31F086
:10110000809190018A3F68F48B5F09C08470987069
:10111000892B49F0809190018F3118F08550809390
:10112000900110929E0020E244E8BE016F5F7F4F65
:101130008091900190E0D4D0BE016F5F7F4F80E03E
:10114000F5DC80911B0184FF03C081E035DD02C026
:1011500081E038DD27960FB6F894DEBF0FBECDBF15
:10116000DF91CF91089581E027CD1F93CF93DF9337
:10117000C0E0D0E017E01C9F90011D9F300D1124AE
:10118000265A3F4FF90194913196A591B491F901F6
:101190003396659174912B5F3F4FF90145915491BE
:1011A000981303C08093140106C02196CE30D10558
:1011B00011F790931401A0931501B0931601609359
:1011C0001701709318014093190150931A01DF9190
:1011D000CF911F91089581E080931301C6DF809124
:1011E00015019091160133CDFF920F931F93CF936A
:1011F000DF938DE990E078D3409102015091030193
:1012000080919D0085FD50688091A90084FD506407
:101210008091130160E070E095E0969F9001979FA8
:10122000300D112424543F4FF90114913196A591AA
:10123000B491F9013396D491F9013496249118139D
:101240000EC0A423B523AB2B51F0C22FCF7326FBC6
:10125000002700F9F22EFF1CFF24FF1C06C06F5F61
:101260007F4F60327105C9F6D82F10E0F0FA10F9FF
:1012700000FB11F9D81709F18091190190911A0119
:10128000E6DC11FF02C021DC02C010FD10DCD093AF
:1012900013018D2F6ADF8091150190911601D7DC23
:1012A000CC23C1F0CC0FC0939F0010929E00809180
:1012B0009D00816080939D000DC08BE191E014D36F
:1012C0008091170190911801DF91CF911F910F919B
:1012D000FF90BDCCDF91CF911F910F91FF900895AA
:1012E000CF93DF9347FF05C04F77FB01E40FF11D5C
:1012F00004C0FB01E40FF11D1082CAE0D0E0BE0182
:1013000018D4805D8293CB014150009721F04111A8
:10131000F6CF01C022934150E8F7DF91CF910895B5
:10132000CF92DF92EF92FF920F931F93CF93DF93B1
:10133000122F6B017C01CC24F7FCC394DD24EE2436
:10134000FF240C2DCC2039F09095809570956195F7
:101350007F4F8F4F9F4FEA01C10FD11D18822AE0A6
:10136000C22ED12CE12CF12CA70196012BD4605D6B
:101370006A93B901CA011150611571058105910582
:1013800019F01111F1CF08C0112331F0002321F021
:1013900021978DE28883115080E201C08A93115019
:1013A000E8F7DF91CF911F910F91FF90EF90DF90C1
:1013B000CF900895CF93DF93CDB7DEB72C970FB6BC
:1013C000F894DEBF0FBECDBF2CE0AE014F5F5F4F84
:1013D000A7DFCE0101968FD32C960FB6F894DEBF0F
:1013E0000FBECDBFDF91CF910895CF93DF9300D093
:1013F00000D000D0CDB7DEB720E246E0BE016F5F7F
:101400007F4F6EDFCE01019676D326960FB6F89405
:10141000DEBF0FBECDBFDF91CF91089512BA8EE32C
:1014200081BB18BA8FE387BB15BA8FE184BB85E017
:1014300083BF12BE88B7816088BF89B7816089BFCA
:101440008CE085BD89EF83BD89B7806889BF1FBCEB
:101450008BE08EBD8FE790E09BBD8ABD88E088B9A8
:1014600085EC87B98FE886B982E08BB988E18AB9C3
:1014700086E880BD10BC82E289B90895CF93DF93DE
:101480001F92CDB7DEB71982C9DF43DAC5D62BDB91
:10149000449A78942FEF80E792E02150804090406A
:1014A000E1F700C000008091A1008F3069F466EE82
:1014B00070E080E03BDB2FEF83ED90E32150804034
:1014C0009040E1F700C0000086DE88EE93E0A2D2F3
:1014D00088EC90E0BFD2D7D7C7D981E089D080917E
:1014E000AA008F7B8093AA008091AA0086FFFCCF80
:1014F00002D8809102019091030191FF03C080E224
:1015000093E006C080910101877431F088EE93E08A
:1015100081D288E290E09ED280910101811177D240
:101520000FD28091A90083FF06C080EB94E072D2B5
:1015300088EC90E08FD2A7D78091A90080FDB9D622
:1015400053DE1ED827D997D98091A90085FFC7CF30
:1015500080915F019091600148DF8091330190910B
:10156000340143DF80913101909132013EDF8DEEF5
:1015700090E0C1D28091A6019091A70136DF8091C1
:1015800098019091990131DF6091960170919701D6
:10159000882777FD8095982F0DDF6091A4017091C9
:1015A000A501882777FD8095982F04DF60919A0127
:1015B00070919B01882777FD8095982FFBDE8DEE3B
:1015C00090E099D280919401909195010EDF82EF85
:1015D00090E091D284CF43989C018536910510F01C
:1015E00024E630E03093240120932301439A0895A8
:1015F00099B79E7F99BF809325019FED9093A2009C
:1016000080FF09C0809126019091270190932901C4
:10161000809328010AC081FF08C080912601909123
:10162000270190932B0180932A0189B7816089BF9C
:10163000089599B79E7F99BF909122019B7F9093C7
:101640002201882371F080912601909127019093C7
:1016500029018093280190932B0180932A011092F5
:10166000210189B7816089BF089580912A019091F5
:101670002B012091260130912701821B930B892F8A
:101680008095881F8827881F089580912601909152
:1016900027012091280130912901821B930B892F6A
:1016A0008095881F8827881F089589B78E7F89BFF6
:1016B000DCDF882359F0E9DF882341F080912201A3
:1016C00084608093220181E08093210189B7816049
:1016D00089BF80912201847008951F920F920FB6E6
:1016E0000F9211242F933F934F935F938F939F9368
:1016F000439840912C0150912D014436510530F012
:1017000082B3806382BB2CE93FEF03C0959820E051
:1017100030E08091230190912401840F951F820F66
:10172000931F90932D0180932C0186EF82BF88B781
:10173000816088BF8091A100807F80588093A10044
:101740009F918F915F914F913F912F910F900FBE7D
:101750000F901F9018951F920F920FB60F921124A1
:101760002F933F934F935F936F937F938F939F93A9
:10177000AF93BF93EF93FF938091A1008F7081305F
:1017800049F028F0823049F0833069F40BC0949816
:101790008CEB01C082EC82BF06C080EE82BF449A0F
:1017A000439A01C0CBD88091A1008F78813809F08D
:1017B00081C082B3837F9091220193FF05C0977F00
:1017C0009093220182BB76C090FF02C0846002C069
:1017D00091FD886082BB40912201842F8770853003
:1017E00019F08630E9F51DC080912A0190912B01F6
:1017F0002091260130912701821B930B18161906A0
:101800007CF18091210190919101891728F04B7F03
:1018100040614093220124C08F5F8093210182E0C8
:101820001DC08091260190912701209128013091BF
:101830002901821B930B1816190694F0809121013F
:1018400090919101891730F0842F8B7F8061809374
:10185000220106C08F5F8093210181E080932501E2
:101860002091220190912501892F8227837019F000
:10187000286220932201809122018C7F892B9091F4
:10188000A2008923809322019FEF9093A20080FF02
:1018900006C08091260190912701019607C081FF23
:1018A00009C080912601909127010197909327010B
:1018B000809326018091A100982F9F709F3019F08E
:1018C0008F5F8093A100FF91EF91BF91AF919F91A6
:1018D0008F917F916F915F914F913F912F910F90D9
:1018E0000FBE0F901F901895FC01908190FF27C0AC
:1018F000977E9F7D908381812281821750F091FF96
:1019000002C09E7F9083908190629064908320E0DB
:1019100002C0282F2F5F938189130BC080818860BC
:10192000806182FB992790F931E0932790FB82F93F
:1019300004C0891718F08081806180832183089515
:101940001092A9008091A30081508093A30081117F
:1019500013C084E08093A30081E08093A90080916C
:10196000A80081508093A800811106C08AE080936E
:10197000A80081E48093A9008091A700815019F00C
:101980008093A70008C082E08093A7008091A900FF
:1019900080628093A9008091A40081508093A4006C
:1019A000811134C088EC8093A4004091A900842F59
:1019B00082608093A9008091A50081508093A5004A
:1019C000811124C086E08093A500842F86608093D7
:1019D000A9008091A6008E3519F08F5F8093A60034
:1019E0006091A60050919301262F30E0852F90E062
:1019F00001972817390719F44E604093A900651321
:101A000005C08091A90080618093A900089510927B
:101A1000A60008959C0140E050E060E472E48FE08D
:101A200090E0D0D0DA01C901887FAA27BB27892B93
:101A300051F043E0369527954A95E1F72150310959
:101A40003BBD2ABD04C081E090E09BBD8ABD1DBCAA
:101A50001CBC089520919201211104C020912E01F7
:101A6000222339F09093300180932F018FB5806449
:101A70008FBD10922E01089581E080932E0108956C
:101A80001F920F920FB60F9211242F933F934F93F3
:101A90005F936F937F938F939F93AF93BF93EF93D6
:101AA000FF9380912F0190913001009731F00197C1
:101AB0009093300180932F0103C08FB58F738FBD3A
:101AC00072D78AEA90E010DF369AFF91EF91BF91CA
:101AD000AF919F918F917F916F915F914F913F91C6
:101AE0002F910F900FBE0F901F9018955E9A8CB992
:101AF0005E9BFECF08951F93CF93DF93EC0110E020
:101B000002C01F5FF3DFFE01E10FF11D8081811133
:101B1000F8CFDF91CF911F910895991B79E004C010
:101B2000991F961708F0961B881F7A95C9F780951C
:101B30000895AA1BBB1B51E107C0AA1FBB1FA61714
:101B4000B70710F0A61BB70B881F991F5A95A9F766
:101B500080959095BC01CD01089597FB072E16F452
:101B6000009406D077FD08D0E4DF07FC05D03EF4F2
:101B7000909581959F4F0895709561957F4F089539
:101B8000A1E21A2EAA1BBB1BFD010DC0AA1FBB1F81
:101B9000EE1FFF1FA217B307E407F50720F0A21BF3
:101BA000B30BE40BF50B661F771F881F991F1A9460
:101BB00069F760957095809590959B01AC01BD018A
:101BC000CF010895052E97FB16F4009406D057FD1B
:101BD0000CD0D6DF07FC09D07EF4909580957095E7
:101BE00061957F4F8F4F9F4F089550954095309549
:101BF00021953F4F4F4F5F4F0895A29FB001B39F74
:101C0000C001A39F01D0B29F700D811D1124911DB1
:101C10000895F3DFB7FF0895821B930B0895EDDF5E
:101C2000A59F900DB49F900DA49F800D911D112430
:101C30000895DC01CB01FC01E199FECF06C0FFBB9A
:101C4000EEBBE09A31960DB20D9241505040B8F77C
:101C50000895DC01A40FB51F4150504040F0CB0166
:101C6000840F951F2E9105D041505040D8F708950C
:101C7000262FE199FECF9FBB8EBBE09A01970DB254
:101C8000021631F02DBB0FB6F894E29AE19A0FBE1E
:061C90000895F894FFCF57
:101C960014F6030B15212C3741494F5354534F4922
:101CA60041372C21150B02146101000000000001D0
:101CB600143501000000000001FF0400014042400D
:101CC6003B049C0100000000000105FFFF0200002C
:101CD600000FFF01C80600010A00010032004F464E
:101CE600462020200020202020B043005032202013
:101CF60020200050312020202000534E4420202058
:101D0600002020202020200020444F4E4520002087
:101D160020204F46460041432045525200202020B5
:061D260020000A0D000080
:00000001FF
