:10000000ADC0C7C0C6C0A0CCC4C0C3C0C2C0C1C000
:10001000C0C0F0CABEC0BDC0BCC0BBC0CFC1B9C0AB
:10002000C4CAB7C0B6C0303F4F3F3106325B334F12
:100030003466536D356D367D3707387F396F2E80C6
:100040002C802D405F082000B06341774339467112
:100050004E54445E5073457952500129083F062999
:1000600007032607DA07A40502D70770071E07054E
:100070000C072B0700000BAA052B07B805040C077B
:10008000EE0500000CAA05EE05B805061407B80633
:10009000000009AA05B806C1050714076A06000092
:1000A0000AAA056A06C10508E105CC0500000DD4C1
:1000B00005CC0500000E0607D005BE0501060003AD
:1000C000A801000102400100020528020001018090
:1000D0000300830140050082010005040004680557
:1000E000020007A80500010B280B00830528040067
:1000F000820100040400066804020005A80400014F
:100100000C280C0083042806008201000604000766
:100110006806020004A80600010900070082010029
:10012000070400056807020006A80700010A000985
:1001300000020628090001081408008301000A00D3
:100140000207280A00010D140D0083010001004080
:100150000E000200400E000E7601010011241FBEA9
:10016000CFE5D4E0DEBFCDBF10E0A0E6B0E0EEE525
:10017000FBE102C005900D92AE3CB107D9F721E03A
:10018000AEECB0E001C01D92A037B207E1F76ED827
:10019000E4CC36CF0F931F932091CE003091CF0047
:1001A0004091D0005091D100DC019DDC0091D20043
:1001B0001091D3002091D4003091D500600F711FB1
:1001C000821F931F28EE33E040E050E05FDCC9015E
:1001D0001F910F9108950F931F939C012F5F3F4F25
:1001E000A8EEB3E06EDC0091D2001091D300209114
:1001F000D4003091D500601B710B820B930B2091C2
:10020000CE003091CF004091D0005091D1003EDC23
:10021000C9011F910F9108958F929F92AF92BF9243
:10022000CF92DF92EF92FF92CF93DF93F090410154
:10023000A0914201B0E0AF19B109C0914301D09142
:10024000440128EE33E049DC20914501309146011C
:100250002C1B3D0B40E050E019DC49015A01209372
:10026000CE003093CF004093D0005093D1002F2D7B
:1002700030E0A8EEB3E025DC6B017C01DE01A501D6
:10028000940131DCC61AD70AE80AF90AC092D200F2
:10029000D092D300E092D400F092D500DF91CF91BC
:1002A000FF90EF90DF90CF90BF90AF909F908F9096
:1002B0000895CF92DF92EF92FF923398C09063003F
:1002C000D0906400E0906500F0906600209160009E
:1002D00030E040E050E0C701B601B6DB30933A01B0
:1002E0002093390182E0F694E794D794C7948A95D5
:1002F000D1F7D0921001C0920F01339AFF90EF9086
:10030000DF90CF9008958091390190913A0142DFBA
:1003100090933C0180933B010895FF920F931F93AC
:10032000CF93DF93FC01CB012085211118C02781D9
:1003300041813281A42FB32FA20FB11DA20FB11D95
:100340002D913C914381548165817681421B530BF1
:1003500061097109438354836583768305C01782DD
:100360001382148215821682D181F28043815481D6
:10037000658176818C0120E030E0C781AD2FBF2DF3
:10038000AC0FB11DAC0FB11D8D939C93CF5FC78394
:10039000400F511F621F731FA081CA1302C0178232
:1003A0001086A085A111E9CF4383548365837683AA
:1003B000DF91CF911F910F91FF9008951F920F929F
:1003C0000FB60F9211242F933F934F935F936F9328
:1003D0007F938F939F93AF93BF93EF93FF9384B1DA
:1003E00095B160E074E0681B790B80E690E095DFE2
:1003F000FF91EF91BF91AF919F918F917F916F91FD
:100400005F914F913F912F910F900FBE0F901F90D2
:100410001895FC01208130E040E050E06381748158
:100420008581968111DBC90108955091DC003091DE
:10043000690090916F019093DC00692F6095609343
:1004400069008091DD008C3010F02FEF01C020E0BA
:10045000591719F01092DD0005C08D3018F48F5F28
:100460008093DD007091DD007C3011F44FEF01C00E
:1004700040E0892F83238093D900773008F03FEF45
:1004800039233093D8002095562325232093D70075
:1004900049234093D600877F90E020FD916040FD86
:1004A000926031FD946032FD98609093DB00809300
:1004B000DA000895CF938091DE0080FF0FC081E0C5
:1004C00020D880913B0190913C01C39708F05FC018
:1004D00081E08093DF0080E0F3D759C08091D9009C
:1004E00084FF04C081E0ECD7C1E013C085FF04C0E5
:1004F00082E0E6D7C2E00DC08091D60087FF04C03D
:1005000081E0FFD7C8E005C08091DF008111D8D716
:10051000C0E01092DF008091D70087FF0EC080916D
:10052000FD0082FF04C080E0ECD7C06206C025D881
:10053000882311F0C06101C0C0648091FD0085FF77
:1005400004C08F7D8093FD00C4608091FD0084FF16
:1005500004C08F7E8093FD00C068C7FF06C088EE90
:1005600093E0BCD988EC90E011C0C6FF03C084EFD3
:1005700091E009C0C3FF03C080E293E004C0C773E9
:1005800031F088EE93E0AAD982E390E0C7D980E306
:1005900091D28091FD0080FF02C080E103C081FF05
:1005A00003C080E2CF9180C2CF91089580E690E0B1
:1005B00030DF90930E0180930D0108950F931F93E8
:1005C000CF93DF93861B970B853191055CF48C3EAE
:1005D0002FEF920754F02FE0289FE001299FD00DC4
:1005E000112405C0C8EED3E002C0C8E1DCEF2091C1
:1005F000E4003091E500181619060CF00FC0820FC8
:10060000931F8B3091051CF08AE090E002C097FDAB
:1006100005C09093E5008093E40004C01092E500CB
:100620001092E4008091E4009091E5002FE0289F73
:100630008001299F100D112480916D0090916E0012
:100640009093E7008093E6008AE690E066DE809172
:10065000E6009091E70020916D0030916E00821BC2
:10066000930B40E5489F9001499F300D1124CE0126
:10067000800F911F820F931F65E070E0D2D9CB01EC
:1006800077FF02C080E090E08333910514F082E3AD
:1006900090E0D0934B01C0934A01309359012093CD
:1006A000580110934F0100934E019093480180939D
:1006B0004701DF91CF911F910F9108958091DA004A
:1006C00086FF07C08091FF0091E089278093FF009B
:1006D000EAD68091DE0080FF05C08091FF008E7F0A
:1006E0008093FF008091FF0087FF17C080913D013C
:1006F00090E071DD9093E1008093E00060910D0146
:1007000070910E015BDF8093E2001092E300909104
:10071000FF0090FD01C080E0B8D68091FF0080FF0F
:100720000FC080E4C1D180913D0180934901809147
:10073000E0009091E10090935C0180935B0108C020
:100740001092490110925C0110925B0180E4B2D1D9
:1007500080910D0190910E011DDD80935A018091D1
:100760000D0190910E0190934D0180934C010895DD
:100770001DDF60910D0170910E0180E090E01ECFB1
:10078000CF93DF93C0913B01D0913C0120913D017B
:1007900030E060917300862F90E0A901481B590B4F
:1007A0004C175D0798F4820F931FC817D90770F490
:1007B000653051F48091FF0080FF06C088EE93E021
:1007C0008DD880E991E0AAD88AE001C085E08093C5
:1007D00073008091FF00837009F00BC0809181004D
:1007E00081FF19C08091740090917500C817D907D6
:1007F00028F4D0937500C09374000DC00A96C817F2
:10080000D90748F09DD88CED95E068D888E893E149
:10081000DF91CF9183C8DF91CF9108954AE050E0F6
:1008200060E070E08DE391E068C917BA18BA14BAB5
:1008300015BA11BA12BAF8944AE050E060E070E0DC
:100840008DE391E06AD9FFCF20E030E0A901440FA9
:10085000551FFA01EA5DFF4FE491E81305C0FA0164
:10086000E95DFF4F849108952F5F3F4F2A31310595
:1008700069F781E40895282F87FD81958E3018F05F
:100880006EE0AFD8892F27FF05C0882319F09EE0BE
:10089000981B892F0895CF9381E013D1C091E9006F
:1008A000CC2319F0C630D1F511C037D128D185E35A
:1008B0008A95F1F7000038D129D180E002D18091EA
:1008C0005E018093E800C091E90028C080915F013B
:1008D000811101C01BC08AEE90E077D78091EA00B9
:1008E00085FF14C080915E0190916001891303C05F
:1008F00010925F010BC090915F01923049F48D30EE
:1009000010F48F5F01C080E080935E01C0E007C0FB
:10091000882311F08150F8CF8DE0F6CFCF5F809122
:10092000E900863021F480915D01DBD010C0E091B8
:10093000E800F0E0EF59FE4F8081D3D08091E800CD
:100940008D3010F48F5F01C080E08093E800C09389
:10095000E900CF9108950F931F93CF93DF931F92D8
:10096000CDB7DEB7182F842F69836EDF082F8091F3
:100970006001810F80DF69810AC0E82FF0E0EF5944
:10098000FE4F00838D3010F48F5F01C080E0615016
:10099000A0F70F90DF91CF911F910F91089540E242
:1009A00062E08EEFD8DF80916001885064DF809331
:1009B000600181E080935F01089540E262E086E09B
:1009C000CADF80916001885F56DF8093600182E01A
:1009D00080935F010895CF93A0D0C7E081E071D0EC
:1009E000C150E1F793D010925E0110926001109215
:1009F000E8001092E90010925D0140E26EE080E0B4
:100A0000AADF10925F018091EA0081608D7F809360
:100A1000EA0089E08093EC00CF910895FF920F9354
:100A20001F93CF93DF93EB0190916001890F23DF38
:100A3000182FF82E02E023C007DF803811F4016080
:100A400001C00E7F013049F4EF2DF0E0EF59FE4F69
:100A50009081982B9083812F0BC0E12FF0E0EF590C
:100A6000FE4F80831D3018F4812F8F5F01C080E01E
:100A700000FF02C003E001C000E0F12E182F8991B1
:100A80008111DACFDF91CF911F910F91FF900895DF
:100A900090916001890FEFDEE82FF0E0EF59FE4FF3
:100AA000808180688083089590915D01982B909358
:100AB0005D01089590915D018095892380935D018A
:100AC0000895882311F0C09A01C0C0988AE18A95E0
:100AD000F1F700C0C29A8AE18A95F1F700C0C29886
:100AE000089525B3982F9F71207E922B95BB98B3C4
:100AF000869586958873977C892B88BB089585B3E6
:100B00008F6185BB88B3886388BB089584B38F6188
:100B100084BB87B3886387BB089584B3807E84BB1E
:100B200087B3877C87BB089586B3887393B3880F98
:100B3000880F9F71892B809580936F01089500978E
:100B400011F0FC0109940895E6EFF0E080818E7FBA
:100B5000808308951092F70087E08093F80084E086
:100B60008093F900E6EFF0E0808181608083089552
:100B7000E6EFF0E080818E7F808308951092DE00A2
:100B80000895E6EFF0E080818E7F80838091FF0002
:100B90008D7F8093FF00089560EB70E080E03ECF92
:100BA00067EB70E080E03ACF8091390190913A0193
:100BB00090934601809345018091FB008093420110
:100BC0002BCB8091390190913A019093440180930D
:100BD00043018091FA00809341011ECBCF93DF93B4
:100BE000CDB7DEB727970FB6F894DEBF0FBECDBFE7
:100BF00087E0E6E8F0E0DE01119601900D928A951B
:100C0000E1F78091DA009091DB009C012270347052
:100C1000232B31F0809140018F3568F48B5F09C040
:100C200084709870892B49F080914001863018F0CB
:100C3000855080934001109277008091F60084FFE8
:100C400010C0809140018F3541F020E242E8BE01A2
:100C50006B5F7F4F90E0BAD204C08EE48D838FE447
:100C60008E83BE016F5F7F4F80E0D8DE27960FB680
:100C7000F894DEBF0FBECDBFDF91CF910895CF9323
:100C8000DF93CDB7DEB727970FB6F894DEBF0FBE60
:100C9000CDBF87E0EDE8F0E0DE01119601900D9206
:100CA0008A95E1F720E244E8BE016F5F7F4F8091B3
:100CB0003B0190913C018AD2BE016F5F7F4F80E083
:100CC000ADDE27960FB6F894DEBF0FBECDBFDF9125
:100CD000CF910895CF93DF93CDB7DEB727970FB6A7
:100CE000F894DEBF0FBECDBF87E0E4E9F0E0DE019F
:100CF000119601900D928A95E1F78091DA0090911A
:100D0000DB009C0122703470232B31F08091FB00BA
:100D10008A3F68F48F5F09C084709870892B39F01E
:100D20008091FB008B3018F081508093FB00809104
:100D3000F60084FF0FC020E243E8BE016C5F7F4FE6
:100D40008091FB0090E042D2C6D58091FF00826086
:100D50008093FF00BE016F5F7F4F80E05FDE2796CC
:100D60000FB6F894DEBF0FBECDBFDF91CF910895CF
:100D7000CF93DF93CDB7DEB727970FB6F894DEBFDA
:100D80000FBECDBF87E0EBE9F0E0DE0111960190E8
:100D90000D928A95E1F78091DA009091DB009C0139
:100DA00022703470232B31F08091FA008A3F68F46E
:100DB0008F5F09C084709870892B39F08091FA0098
:100DC0008B3018F081508093FA008091F60084FFF8
:100DD0000FC020E243E8BE016C5F7F4F8091FA00B4
:100DE00090E0F4D178D58091FF0082608093FF007D
:100DF000BE016F5F7F4F80E011DE27960FB6F8943B
:100E0000DEBF0FBECDBFDF91CF91089583E052DEEC
:100E100081E08093DE00089583E04CDEE6EFF0E0B1
:100E20008081806180830895F7DF80914101809304
:100E3000FA00809142018093FB00089582E03ADE3F
:100E4000E6EFF0E080818E7F8083089581E032DEDE
:100E500081CE81E02FCECF93DF93CDB7DEB727973A
:100E60000FB6F894DEBF0FBECDBF87E0E2EAF0E038
:100E7000DE01119601900D928A95E1F78091DA00DA
:100E80009091DB0086709927892B49F081E0909141
:100E90003F01911180E080933F0110927700809193
:100EA000F60084FF0DC080913F01882321F08FE47C
:100EB0008D838EE404C08FE48C8386E48D838E83DF
:100EC000BE016F5F7F4F80E0A9DD82E0E1DD279604
:100ED0000FB6F894DEBF0FBECDBFDF91CF9108955E
:100EE000CF93DF93CDB7DEB727970FB6F894DEBF69
:100EF0000FBECDBF87E0E9EAF0E0DE011196019078
:100F00000D928A95E1F78091DA009091DB009C01C7
:100F100022703470232B31F080913E01833668F4C7
:100F20008F5F09C084709870892B39F080913E01E1
:100F3000823018F0815080933E0120E242E8BE01E9
:100F40006B5F7F4F80913E0190E040D18091FD002A
:100F500082FF04C08091F60084FF09C020E242E8CD
:100F6000BE016E5F7F4F8091FC0090E02FD119820F
:100F7000E4D2882319F0898181608983EED28823A5
:100F800019F08981886089838981811102C080E29A
:100F90008983BE016F5F7F4F80E040DD27960FB6EB
:100FA000F894DEBF0FBECDBFDF91CF91089582E0F0
:100FB0007BDDD0CDCF93DF93CDB7DEB727970FB6CC
:100FC000F894DEBF0FBECDBF87E0EDE8F0E0DE01B4
:100FD000119601900D928A95E1F78091DA00909137
:100FE000DB009C0122703470232B31F080913D0195
:100FF0008A3F68F48B5F09C084709870892B49F030
:1010000080913D018F3118F0855080933D01109201
:10101000770020E244E8BE016F5F7F4F80913D0181
:1010200090E0D4D0BE016F5F7F4F80E0F7DC80910D
:10103000F60084FF03C081E037DD02C081E03ADDC5
:1010400027960FB6F894DEBF0FBECDBFDF91CF91CC
:10105000089581E029CD1F93CF93DF93C0E0D0E0C6
:1010600017E01C9F90011D9F300D1124265A3F4F01
:10107000F90194913196A591B491F9013396659156
:1010800074912B5F3F4FF90145915491981303C020
:101090008093EF0006C02196CE30D10511F79093D2
:1010A000EF00A093F000B093F1006093F200709312
:1010B000F3004093F4005093F500DF91CF911F911E
:1010C000089581E08093EE00C6DF8091F00090915A
:1010D000F10035CDFF920F931F93CF93DF9386E7F7
:1010E00090E073D34091DA005091DB00809176005C
:1010F00085FD50688091810084FD50648091EE00F0
:1011000060E070E095E0969F9001979F300D11246C
:1011100024543F4FF90114913196A591B491F901EE
:101120003396D491F9013496249118130EC0A42358
:10113000B523AB2B51F0C22FCF7326FB002700F94C
:10114000F22EFF1CFF24FF1C06C06F5F7F4F603232
:101150007105C9F6D82F10E0F0FA10F900FB11F96B
:10116000D81709F18091F4009091F500E8DC11FFA7
:1011700002C023DC02C010FD12DCD093EE008D2FE4
:101180006ADF8091F0009091F100D9DCCC23C1F0AE
:10119000CC0FC09378001092770080917600816028
:1011A000809376000DC086EF90E00FD38091F2001F
:1011B0009091F300DF91CF911F910F91FF90BFCCE1
:1011C000DF91CF911F910F91FF900895CF93DF93FF
:1011D00047FF05C04F77FB01E40FF11D04C0FB0181
:1011E000E40FF11D1082CAE0D0E0BE0106D4805D9C
:1011F0008293CB014150009721F04111F6CF01C0FD
:1012000022934150E8F7DF91CF91089512BA8EE30F
:1012100081BB18BA8FE387BB15BA8FE184BB85E029
:1012200083BF12BE88B7816088BF89B7816089BFDC
:101230008CE085BD89EF83BD89B7806889BF1FBCFD
:101240008BE08EBD8FE790E09BBD8ABD88E088B9BA
:1012500085EC87B98FE886B982E08BB988E18AB9D5
:1012600086E880BD10BC82E289B90895CF93DF93F0
:10127000CDB7DEB72B970FB6F894DEBF0FBECDBF4C
:101280001B86C4DFCBDAC8D7A6DB449A78942FEF4D
:1012900080E792E0215080409040E1F700C00000DC
:1012A00080917A008F3069F46EEB70E080E0B6DBFD
:1012B0002FEF83ED90E3215080409040E1F700C094
:1012C0000000FFDE88EE93E009D388EC90E026D39F
:1012D0004FDA81E0F5D0809182008F7B809382008D
:1012E0008091820086FFFCCFA0D88091DA00909197
:1012F000DB0091FF03C080E293E006C08091D9003B
:10130000877431F088EE93E0E9D288E290E006D36A
:101310008091D9008111DFD284D28091810083FF36
:1013200006C080EB94E0DAD288EC90E0F7D2C1D727
:101330008091810080FDE7D7CDDEBCD8BFD920DA0F
:101340008091810085FFC7CF20E246E0BE016F5F3C
:101350007F4F8091390190913A0138DFCE0101969B
:101360002ED385EC90E02BD320E246E0BE016F5FE8
:101370007F4F80915B0190915C0128DFCE01019647
:101380001ED320E246E0BE016F5F7F4F80914C018B
:1013900090914D011BDFCE01019611D320E246E072
:1013A000BE016F5F7F4F80915A0190E00FDFCE0149
:1013B000019605D385EC90E002D380914A0190918B
:1013C0004B0120E346E0BE016F5F7F4F97FD02C0F7
:1013D000FDDE06C0919581959109F8DE8DE2EAD295
:1013E000CE010196ECD285EC90E0E9D280915801D3
:1013F0009091590120E346E0BE016F5F7F4F97FD5A
:1014000002C0E4DE06C0919581959109DFDE8DE290
:10141000D1D2CE010196D3D285EC90E0D0D280918A
:101420004E0190914F0120E346E0BE016F5F7F4F78
:1014300097FD02C0CBDE06C0919581959109C6DE6D
:101440008DE2B8D2CE010196BAD285EC90E0B7D247
:1014500020E246E0BE016F5F7F4F8091470190918F
:101460004801B4DECE010196AAD220E246E0BE01D8
:101470006F5F7F4F8091000190E0A8DECE01019662
:101480009ED28AEC90E09BD226CF99B79E7F99BFDF
:10149000809300018091FF008F778093FF0089B7D0
:1014A000816089BF089589B78E7F89BF8CE2809360
:1014B000010183E08093FE0089B7816089BF0895B0
:1014C00099B79E7F99BF809302019FED90937B0017
:1014D00080FF09C08091030190910401909306015F
:1014E000809305010AC081FF08C08091030190919B
:1014F0000401909308018093070189B7816089BF37
:10150000089599B79E7F99BF9091FD009B7F90931E
:10151000FD00882371F08091030190910401909364
:1015200006018093050190930801809307011092B2
:10153000FC0089B7816089BF08958091070190916F
:1015400008012091030130910401821B930B892F24
:101550008095881F8827881F0895809103019091A6
:1015600004012091050130910601821B930B892F04
:101570008095881F8827881F089589B78E7F89BF27
:10158000DCDF882359F0E9DF882341F08091FD00FA
:1015900084608093FD0081E08093FC0089B78160C6
:1015A00089BF8091FD00847008951F920F920FB63D
:1015B0000F9211248F939F934398909101018091F2
:1015C0000901981720F482B3806382BB01C095980B
:1015D00086EF82BF88B7816088BF80917A00807F64
:1015E000805880937A009F918F910F900FBE0F903B
:1015F0001F9018951F920F920FB60F9211242F93E0
:101600003F934F935F936F937F938F939F93AF938A
:10161000BF93EF93FF9380917A008F70813049F0F0
:1016200028F0823049F0833069F40BC094988CEB39
:1016300001C082EC82BF06C080EE82BF449A439A0A
:1016400001C0F3D880917A008F78813809F0A3C067
:1016500082B3837F9091FD0093FF05C0977F9093A5
:10166000FD0082BB76C090FF02C0846002C091FD85
:10167000886082BB4091FD00842F8770853019F00F
:101680008630E9F51DC080910701909108012091F5
:10169000030130910401821B930B181619067CF18B
:1016A0008091FC0090913E01891728F04B7F4061AA
:1016B0004093FD0024C08F5F8093FC0082E01DC03A
:1016C0008091030190910401209105013091060160
:1016D000821B930B1816190694F08091FC009091D0
:1016E0003E01891730F0842F8B7F80618093FD004D
:1016F00006C08F5F8093FC0081E0809302012091FF
:10170000FD0090910201892F8227837019F02862D1
:101710002093FD008091FD008C7F892B90917B00B0
:1017200089238093FD009FEF90937B0080FF06C08C
:101730008091030190910401019607C081FF09C0C7
:10174000809103019091040101979093040180938B
:101750000301809101018C3281F48091FE0083307D
:1017600049F41092FE008091FF0080688093FF0092
:101770001DD703C08F5F8093FE00809101018133EC
:1017800039F410920101809100018093090103C096
:101790008F5F8093010180917A00982F9F709F3016
:1017A00019F08F5F80937A00FF91EF91BF91AF9115
:1017B0009F918F917F916F915F914F913F912F9169
:1017C0000F900FBE0F901F901895FC01908190FF15
:1017D00027C0977E9F7D908381812281821750F060
:1017E00091FF02C09E7F908390819062906490836D
:1017F00020E002C0282F2F5F938189130BC08081C6
:101800008860806182FB992790F931E0932790FBF3
:1018100082F904C0891718F0808180618083218358
:1018200008951092810080917C00815019F080937E
:101830007C0006C084E080937C0081E0809381007E
:1018400080918000815019F08093800008C082E070
:1018500080938000809181008062809381008091DC
:101860007D00815080937D00811134C088EC80938D
:101870007D0040918100842F82608093810080915F
:101880007E00815080937E00811124C086E0809389
:101890007E00842F86608093810080917F008E354A
:1018A00019F08F5F80937F0060917F00509140011D
:1018B000262F30E0852F90E001972817390719F47B
:1018C0004E6040938100651305C080918100806166
:1018D00080938100089510927F0008959C0140E05C
:1018E00050E060E472E48FE090E0D0D0DA01C9010A
:1018F000887FAA27BB27892B51F043E0369527958F
:101900004A95E1F7215031093BBD2ABD04C081E071
:1019100090E09BBD8ABD1DBC1CBC089520913F0179
:10192000211104C020910A01222339F090930C0167
:1019300080930B018FB580648FBD10920A010895CA
:1019400081E080930A0108951F920F920FB60F92C3
:1019500011242F933F934F935F936F937F938F93B4
:101960009F93AF93BF93EF93FF9380910B0190915F
:101970000C01009731F0019790930C0180930B01BB
:1019800003C08FB58F738FBD86D782E890E01DDFCF
:10199000369AFF91EF91BF91AF919F918F917F9177
:1019A0006F915F914F913F912F910F900FBE0F90CC
:1019B0001F9018955E9A8CB95E9BFECF08951F9379
:1019C000CF93DF93EC0110E002C01F5FF3DFFE0155
:1019D000E10FF11D80818111F8CFDF91CF911F912F
:1019E0000895991B79E004C0991F961708F0961B7B
:1019F000881F7A95C9F780950895AA1BBB1B51E1F2
:101A000007C0AA1FBB1FA617B70710F0A61BB70B6E
:101A1000881F991F5A95A9F780959095BC01CD0113
:101A2000089597FB072E16F4009406D077FD08D092
:101A3000E4DF07FC05D03EF4909581959F4F089513
:101A4000709561957F4F0895A1E21A2EAA1BBB1BCA
:101A5000FD010DC0AA1FBB1FEE1FFF1FA217B3077A
:101A6000E407F50720F0A21BB30BE40BF50B661F90
:101A7000771F881F991F1A9469F760957095809554
:101A800090959B01AC01BD01CF010895052E97FBF8
:101A900016F4009406D057FD0CD0D6DF07FC09D011
:101AA0007EF490958095709561957F4F8F4F9F4FF5
:101AB000089550954095309521953F4F4F4F5F4F7A
:101AC0000895A29FB001B39FC001A39F01D0B29F10
:101AD000700D811D1124911D0895F3DFB7FF089546
:101AE000821B930B0895EDDFA59F900DB49F900D81
:101AF000A49F800D911D11240895DC01CB01FC01F0
:101B0000E199FECF06C0FFBBEEBBE09A31960DB265
:101B10000D9241505040B8F70895DC01A40FB51F55
:101B20004150504040F0CB01840F951F2E9105D0BD
:101B300041505040D8F70895262FE199FECF9FBB22
:101B40008EBBE09A01970DB2021631F02DBB0FB695
:0E1B5000F894E29AE19A0FBE0895F894FFCF40
:101B5E00141101000000000001FF045001000000FC
:101B6E0000000105FFFF020000000FFF01C8060084
:101B7E000100010032004F46462020200020202088
:101B8E0020B0430050322020202000503120202051
:101B9E002000534E44202020002020202020200012
:101BAE0020444F4E4520002020204F464600414302
:0E1BBE00204552520020202020000A0D000079
:00000001FF
