:10000000CEC0E8C0E7C0B9CCE5C0E4C0E3C0E2C000
:10001000E1C054CBDFC0DEC0DDC0DCC0B0C1DAC09F
:100020000FCBD8C0D7C01678C3009101320A011E89
:10003000303F4F3F3106325B334F3466536D356D81
:10004000367D3707387F396F2E802C802D405F0832
:100050002000B0634177433946714E54445E50737B
:100060004579553E473D5250202020004F464620BE
:10007000202000534E44202020002020202020203B
:100080000020202020B0430001910793074206037F
:100090003A065807B30502550701073306052D0632
:1000A000CE0600000BC105CE06CF050427065D066F
:1000B00000000CC1055D06DD05061B069806000064
:1000C00009C1059806EE05070F06980600000AC14B
:1000D000059806EE05084406FD0500000D4406FDE2
:1000E0000500000E0106F905EB0501C000038A01B9
:1000F00000010240010002050A0200010180020025
:1001000002050A030081014003000201600500822C
:100110000100058000044A054000078A0500010B24
:100120000A0B0081050A0B0002052A040082010067
:10013000048000064A044000058A0400010C0A0CF1
:100140000081040A0C0002042A06008201000680D5
:1001500000074A064000048A0600010900070082E1
:100160000100078000054A074000068A0700010ACF
:1001700000090002060A09000108050800830100C1
:100180000A0002070A0A00010D050D0083010001A3
:1001900000400E000200400E000ED50101001124A7
:1001A0001FBECFE5D4E0DEBFCDBF10E0A0E6B0E0DB
:1001B000EEE8FCE102C005900D92AE3CB107D9F724
:1001C00021E0AEECB0E001C01D92A53DB207E1F721
:1001D000E3D75BCD15CF0F931F932091CE003091C5
:1001E000CF004091D0005091D100DC01CDDC0091D6
:1001F000D2001091D3002091D4003091D500600F2F
:10020000711F821F931F28EE33E040E050E089DC2D
:10021000C9011F910F9108950F931F93DC0111964F
:1002200028EE33E0ABDC0091D2001091D300209196
:10023000D4003091D500601B710B820B930B209181
:10024000CE003091CF004091D0005091D10069DCB8
:10025000C9011F910F9108958F929F92AF92BF9203
:10026000CF92DF92EF92FF92CF93DF93F0908D01C8
:10027000A0918E01B0E0AF19B109C0918F01D0916A
:10028000900128EE33E07ADC2091910130919201C7
:100290002C1B3D0B40E050E044DC49015A01209307
:1002A000CE003093CF004093D0005093D1002F2D3B
:1002B00030E0A8EEB3E056DC6B017C01DE01A50165
:1002C000940162DCC61AD70AE80AF90AC092D20081
:1002D000D092D300E092D400F092D500DF91CF917C
:1002E000FF90EF90DF90CF90BF90AF909F908F9056
:1002F00008953398EFE1F1E080E090E021913191B1
:10030000820F931F21E0EF35F207C1F7339A9C016A
:1003100045E0369527954A95E1F7309360012093A3
:100320005F0153E0969587955A95E1F790931E01EA
:1003300080931D0140E650E064E671E06AD290933C
:100340001C0180931B011092610180915F019091CB
:1003500060018233910510F481E004C0893E93402E
:1003600018F082E080936101089580915F0190917F
:10037000600131DF909363018093620108951F92C1
:100380000F920FB60F9211242F933F934F938F9399
:100390009F93EF93FF9324B135B140917700415083
:1003A00040937700E42FF0E0EE0FFF1FE15EFE4F79
:1003B00080E094E0821B930B91838083411103C002
:1003C00080E280937700FF91EF919F918F914F9101
:1003D0003F912F910F900FBE0F901F901895509145
:1003E000DC00309178009091AE019093DC00692F91
:1003F0006095609378008091DD008C3010F02FEFD5
:1004000001C020E0591719F01092DD0005C08D30B1
:1004100018F48F5F8093DD007091DD007C3011F463
:100420004FEF01C040E0892F83238093D9007730BC
:1004300008F03FEF39233093D80020955623252329
:100440002093D70049234093D6008D7F90E025FD6F
:10045000916045FD926036FD946037FD9860909301
:10046000DB008093DA000895FC0180E009C09191DF
:10047000892798E02CE8869508F482279A95D9F781
:100480006150A8F70895CF938091DE0080FF25C0CA
:1004900081E082D880916101837039F4809162019A
:1004A000909163018833910554F080910501837028
:1004B00009F06DC081E04FD81092E00068C0C3978A
:1004C0000CF065C080910501837009F460C080E084
:1004D00042D881E08093E0005AC08091AE018471DF
:1004E000843111F480E019C08091D90082FF04C0EA
:1004F00081E031D8C1E013C084FF04C082E02BD872
:10050000C2E00DC08091D60083FF04C081E044D8D2
:10051000C8E005C08091E00081111DD8C0E01092B4
:10052000E0008091D70083FF0EC08091050182FF1B
:1005300004C080E031D8C06206C06AD8882311F0B8
:10054000C06101C0C0648091050185FF04C08F7D3A
:1005500080930501C4608091050184FF04C08F7EF3
:1005600080930501C068C7FF03C084E690E00EC019
:10057000C6FF03C084E590E009C0C3FF03C088E55F
:1005800090E004C0C77319F08CE590E07EDA88E152
:10059000A0D28091050180FF02C088E003C081FFE6
:1005A00003C080E1CF918FC2CF91089508950F933A
:1005B0001F93CF93DF938091DA0080FF0BC080916F
:1005C000DF0091E089278093DF00809188008064BC
:1005D000809388008091DE0080FD04C080916101DD
:1005E000837029F08091DF008E7F8093DF008091FF
:1005F000880086FF47C08091930190E00DDE8C015A
:10060000000F111F000F111FC0911B01D0911C0181
:100610008091DF0080FF06C0BE01C801E9D6282F07
:1006200030E004C0CE01C7D620E030E08091DF008A
:1006300080FF05C0809193018F3F31F403C020E01B
:1006400030E002C024E630E0C90178D78091DF00B5
:10065000982F917080FF03C08091930101C080E0CA
:1006600080938C01911102C000E010E010939A0178
:100670000093990180911B0180939B01D093980175
:10068000C09397018091DF0080FF06C084E0DF9176
:10069000CF911F910F9117C284E0DF91CF911F91ED
:1006A0000F9117C2CF93DF93C0916201D091630184
:1006B00080916101837041F08091880081FF43C087
:1006C000F6D98CE090E03CC02091930130E060913D
:1006D0007900862F90E0A901481B590B4C175D0744
:1006E00084F4820F931FC817D9075CF4653039F47E
:1006F0008091DF0080FF03C08CE290E0C6D98AE0E1
:1007000001C085E0809379008091DF00837009F05B
:100710000BC08091880081FF16C080917A00909173
:100720007B00C817D9072CF4D0937B00C0937A00C4
:100730000AC043968C179D0734F4B9D982E190E042
:10074000DF91CF91A2C9DF91CF91089546E050E0AB
:1007500062E070E08DE891E078DA66E08DE891E0A3
:1007600083DE682F80E090E07FCA44E050E068E0DC
:1007700070E083E991E069DA64E083E991E074DE96
:10078000682F81E090E070CACF93DF9344E050E09F
:1007900068E070E083E991E040DA46E050E062E032
:1007A00070E08DE891E039DA64E083E991E05CDEA5
:1007B000C82F81E090E041DA8C1751F044E050E01E
:1007C0006CE270E083E991E01FDACFDFC1E001C0A5
:1007D000C0E066E08DE891E047DED82F80E090E051
:1007E0002CDA8D1749F046E050E066E270E08DE8C3
:1007F00091E00ADAABDFC2608C2FDF91CF910895D0
:1008000017BA18BA14BA15BA11BA12BAF894ADDFF9
:10081000FFCFCF92DF92EF92FF920F931F93CF9370
:10082000DF938C01EB01FA01238120036001219FFA
:10083000D00C1124EE24D7FCE094FE2C40811EC085
:10084000842F90E0DC011197AA0FBB1FAC0FBD1FD6
:100850002D913C91DC01AA0FBB1FAC0FBD1F2D9346
:100860003C93DF01A80FB91F1396AC91BB27A7FDDE
:10087000B09572D9C60ED71EE81EF91E415001F779
:10088000198308832181328140E050E0C701B6011D
:1008900048D9C901DF91CF911F910F91FF90EF903F
:1008A000DF90CF90089520E030E0A901440F551F5C
:1008B000FA01E05DFF4FE491E81305C0FA01EF5C37
:1008C000FF4F849108952F5F3F4F2C31310569F719
:1008D0000895282F87FD81958E3018F06EE002D99B
:1008E000892F27FF05C0882319F09EE0981B892FC8
:1008F0000895CF9321D181E0F3D0C091E200CC23C1
:1009000019F0C630C1F50FC009D185E38A95F1F71A
:10091000000019D180E0E4D080919D018093E10036
:10092000C091E20028C080919E01811101C01BC0CE
:1009300083EE90E08CD78091E30085FF14C0809116
:100940009D0190919F01891303C010929E010BC0DD
:1009500090919E01923049F48D3010F48F5F01C068
:1009600080E080939D01C0E007C0882311F0815092
:10097000F8CF8DE0F6CFCF5F8091E200863021F492
:1009800080919C01BDD010C0E091E100F0E0E05604
:10099000FE4F8081B5D08091E1008D3010F48F5FE3
:1009A00001C080E08093E100C093E200CF91BDC020
:1009B0000F931F93CF93DF931F92CDB7DEB7182FFE
:1009C000842F698370DF082F80919F01810F81DF61
:1009D00069810AC0E82FF0E0E056FE4F00838D30B9
:1009E00010F48F5F01C080E06150A0F70F90DF919D
:1009F000CF911F910F91089540E262E08EEFD8DF12
:100A000080919F01885065DF80939F0181E08093F2
:100A10009E01089540E262E086E0CADF80919F0176
:100A2000885F57DF80939F0182E080939E01089545
:100A3000CF9382D0C7E081E053D0C150E1F775D0A9
:100A400010929D0110929F011092E1001092E2001D
:100A500010929C0140E26EE080E0AADF10929E01BD
:100A60008091E30081608D7F8093E30089E0809333
:100A7000E500CF9108951F93CF93DF93EB01909101
:100A80009F01890F26DF182F0BC00DDFE12FF0E04B
:100A9000E056FE4F80831D3010F41F5F01C010E050
:100AA00089918111F2CFDF91CF911F91089590919B
:100AB0009F01890F0EDFE82FF0E0E056FE4F8081A6
:100AC00080688083089590919C01982B90939C015D
:100AD000089590919C018095892380939C010895AD
:100AE000882311F0C09A01C0C0988AE18A95F1F775
:100AF00000C0C29A8AE18A95F1F700C0C2980895B1
:100B000025B3982F9F71207E922B95BB98B3869525
:100B100086958873977C892B88BB089585B38F61F0
:100B200085BB88B3886388BB089584B38F6184BB19
:100B300087B3886387BB089584B3807E84BB87B303
:100B4000877C87BB089586B3887393B3880F880F1B
:100B50009F71892B80958093AE010895009711F0C5
:100B6000FC01099408958091F1008E7F8093F1003B
:100B70008091F50085FD04C08091EF008093930182
:100B800008951092F20087E08093F30084E0809350
:100B9000F400E1EFF0E0808181608083089580912E
:100BA000F1008E7F8093F1008091F50085FD04C0F7
:100BB0008091EF008093950108958091F1008E7FE0
:100BC0008093F1008091F50085FD04C08091EF00D5
:100BD0008093960108951092DE000895E1EFF0E011
:100BE00080818E7F80838091DF008D7F8093DF0006
:100BF00008956DE870E080E03ECF64E970E080E049
:100C00003ACF80EC66DF81E08093DE00089580ECCF
:100C100060DFE1EFF0E08081806180830895F7DF9D
:100C200080918E018093EF0082E08093F0006BE969
:100C300070E080E020CFEBDF80918D018093EF00AA
:100C400081E08093F00062EA70E080E014CFDFDFA3
:100C5000809196018093EF000895D9DF80919501EE
:100C60008093EF000895E1EFF0E080818E7F808334
:100C700080E42FCF80E82DDF84DF80919301809383
:100C8000EF00089580E825CF2091EF003091F0002B
:100C900080915F0190916001313039F4909390011F
:100CA00080938F0120938D0106C0909392018093D1
:100CB000910120938E01D0DA49CD47E050E06CE6F7
:100CC00070E08FEA91E0A0D78091DA009091DB008C
:100CD0009C0120743470232B31F08091EF008F350C
:100CE00068F48B5F09C080789870892B49F08091F7
:100CF000EF00863018F085508093EF0010927D0051
:100D00008091F10084FF10C08091EF008F3530F4A6
:100D100042E863EB71E090E02AD206C08EE4809353
:100D2000B3018FE48093B4016FEA71E080E0A3CE59
:100D300044E050E068E670E08FEA91E065D780918A
:100D4000DA009091DB009C0120743470232B31F089
:100D50008091EF008A3F68F48F5F09C080789870B7
:100D6000892B39F08091EF008B3018F081508093FF
:100D7000EF008091F10084FF0DC043E06FEA71E065
:100D80008091EF0090E0F3D1F5D58091DF00826093
:100D90008093DF006FEA71E083E06DCE47E050E0C2
:100DA00063E770E08FEA91E02FD78091DA009091AD
:100DB000DB00807C9927892B49F081E09091EF003E
:100DC000911180E08093EF0010927D008091F100FE
:100DD00084FF11C08091EF00882329F08FE4809375
:100DE000B3018EE406C08FE48093B20186E4809361
:100DF000B3018093B4016FEA71E080E03CDE82E0F1
:100E000056CE47E050E06AE770E08FEA91E0FCD60A
:100E10008091DA009091DB009C0120743470232BC8
:100E200031F080919401833668F48F5F09C0807837
:100E30009870892B39F080919401823018F081509C
:100E40008093940142E863EB71E08091940190E01B
:100E50008ED18091050182FF04C08091F10084FF52
:100E600007C042E860EB71E08091040190E07FD11F
:100E70001092AF01ADD3882329F08091AF0181603A
:100E80008093AF01B5D3882329F08091AF018860AA
:100E90008093AF018091AF01811103C080E2809304
:100EA000AF016FEA71E080E0E6CD6BDE80E40BCE4F
:100EB00047E050E061E870E08FEA91E0A5D68091CC
:100EC000DA009091DB009C01207434704091EF00B7
:100ED000232B21F04F3F59F04B5F07C0807898706B
:100EE000892B39F04F3118F045504093EF001092A4
:100EF0007D008091EF008F3F41F044E86FEA71E0A0
:100F000090E035D16FEA71E002C069EA70E080E0FC
:100F1000B2DD8091F10084FF02C080E8D4CD80E88A
:100F2000D8CD80E8D0CD47E050E061E870E08FEAAE
:100F300091E06AD68091610180FF03C060EB70E0B0
:100F400013C081FF03C067EB70E00EC060916201C7
:100F500070916301882777FD8095982F24E84FEAE8
:100F600051E0B8D06FEA71E080E085CD0F931F9318
:100F7000CF93DF93182FC0E0D0E007E00C9FB001C3
:100F80000D9F700D112468577F4F47E050E088EEA9
:100F900090E03AD68091E800811721F02196CE307A
:100FA000D10561F7DF91CF911F910F91089581E0F5
:100FB0008093E700DBDF8091E9009091EA00CECDDD
:100FC000AF92BF92CF92DF92EF92FF920F931F9357
:100FD000CF93DF9300D000D01F92CDB7DEB78CE760
:100FE00090E035D40091DA001091DB0080917C0014
:100FF00085FD10688091880084FD1064D090E70022
:10100000E12CF12C35E0A32EAE9CB001AF9C700D0D
:10101000112466517F4F45E050E0CE010196F4D592
:1010200089818D110FC02A813B8120233123232BFD
:1010300049F0DC808D819FE0B92EB82220EFC22ECE
:10104000C82207C08FEFE81AF80A84E2E816F10414
:10105000D9F68091E700D81629F1C092F500809169
:10106000ED009091EE007ADDC6FE02C0D3DC02C036
:10107000C7FCC2DCD092E7008D2D78DF8091E900BB
:101080009091EA006BDDBB20A9F0BB0CBB0CBB0C44
:10109000B0927E0010927D0080917C0081608093F0
:1010A0007C0008C081EF90E0D2D38091EB0090915A
:1010B000EC0054DD0F900F900F900F900F90DF9188
:1010C000CF911F910F91FF90EF90DF90CF90BF9045
:1010D000AF900895CF92DF92EF92FF920F931F93FC
:1010E000CF93DF93122F2223C9F197FF09C0909568
:1010F0008095709561957F4F8F4F9F4F01E001C0A4
:1011000000E017FF05C01F77EA01C10FD11D04C021
:10111000EA01C10FD11D18822AE0C22ED12CE12C88
:10112000F12CA7019601FDD4605D6A93B901CA0153
:101130001150611571058105910519F01111F1CF5B
:1011400008C0112331F0002321F021978DE288831C
:10115000115080E201C08A931150E8F7DF91CF91DE
:101160001F910F91FF90EF90DF90CF900895FB01BA
:10117000242FBC0180E090E0AF01ACCF2CE049EB24
:1011800051E0A8DF89EB91E09BC446E069EB71E098
:10119000EEDF89EB91E094C4CF93DF931F92CDB73C
:1011A000DEB7198212BA8EE381BB18BA8FE387BB10
:1011B00015BA8FE184BB85E083BF12BE88B781601A
:1011C00088BF89B7816089BF8CE085BD89EF83BD09
:1011D00089B7806889BF1FBC8BE08EBD8FE790E028
:1011E0009BBD8ABD88E088B985EC87B98FE886B950
:1011F00082E08BB988E18AB986E880BD10BC82E2C2
:1012000089B9C2DA898328D813DC449A7894898111
:101210008823A9F06EEB70E080E02DDC4981405D11
:1012200061E085E0C5DB8CE490E02FD42FEF83ED07
:1012300090E3215080409040E1F700C00000809191
:101240008D0190E0A2DF80918F01909190019DDF50
:1012500080918E0190E099DF8091910190919201AF
:1012600094DF84EC90E02CD42FEF81EE94E02150B9
:1012700080409040E1F700C00000809180008F30F6
:1012800069F467EC70E080E0F6DB2FEF83ED90E32C
:10129000215080409040E1F700C0000088DE80E6E9
:1012A00090E0F3D326D882D981E055D1809189008E
:1012B0008F7B809389002EE088E190E00FB6F89450
:1012C000A89581BD0FBE21BD8091890086FFFCCF0E
:1012D000A89585D88091DA009091DB0091FF03C03A
:1012E00088E590E006C08091D900817E19F08CE5F8
:1012F00090E0CBD38091D90081113CD3D4D280919E
:10130000880083FF03C088E390E0BFD3F2D78091C9
:10131000880080FD2AD854DEB6D849D9C3D9809137
:10132000880085FF42C080916201909163012DDFAA
:1013300080911D0190911E0128DF80911B019091E9
:101340001C0123DF84EA90E0BBD380919901909146
:101350009A011BDF809197019091980116DF6091AF
:10136000CF017091D001882777FD8095982F06DFF7
:101370006091D3017091D401882777FD8095982FD3
:10138000FDDE6091D1017091D201882777FD8095B3
:10139000982FF4DE84EA90E093D38091CD01909170
:1013A000CE01F3DE84EC90E08BD3809189008F7BBB
:1013B0008093890089CF1092F7001092F600109266
:1013C000F9001092F8001092FB001092FA001092AF
:1013D000FD001092FC009093FF008093FE0010929D
:1013E0000001109201011092020110920301089570
:1013F000CF92DF92EF92FF920F931F93CF93DF93E1
:101400008B01DC01A61BB70BAE3421E0B2075CF404
:10141000A33B8EEFB80754F08EE18A9FE0018B9FCB
:10142000D00D112405C0C0E1D7E202C0C0EFD8ED55
:10143000CD0180569F4F81349140C0F42DE030E0C3
:101440009DD3C0900001D0900101E0900201F09086
:101450000301C60ED71EE81EF91EC0920001D092ED
:101460000101E0920201F092030108C01092000114
:10147000109201011092020110920301809100016B
:1014800090910101A0910201B091030181382AE1FC
:10149000920726E0A207B1056CF080E89AE1A6E089
:1014A000B0E08093000190930101A0930201B093FA
:1014B00003010AC0B7FF08C0109200011092010199
:1014C00010920201109203016091000170910101DC
:1014D000809102019091030128E230E040E050E069
:1014E00020D31093FF000093FE00CE01820F931FC4
:1014F00064E670E003D3CB0177FF02C080E090E0A8
:101500008536910514F084E690E0D093D001C09325
:10151000CF011092D4011092D3013093D2012093C5
:10152000D1019093CE018093CD01DF91CF911F9196
:101530000F91FF90EF90DF90CF90089543989C011A
:101540008536910510F024E630E0309307012093B2
:101550000601439A089599B79E7F99BF8093080129
:101560009FED9093810080FF09C0809109019091C7
:101570000A0190930C0180930B010AC081FF08C0FF
:101580008091090190910A0190930E0180930D01C1
:1015900089B7816089BF089599B79E7F99BF90915F
:1015A00005019B7F90930501882371F080910901CB
:1015B00090910A0190930C0180930B0190930E017E
:1015C00080930D011092040189B7816089BF08954D
:1015D00080910D0190910E012091090130910A0135
:1015E000821B930B892F8095881F8827881F089559
:1015F0008091090190910A0120910B0130910C0119
:10160000821B930B892F8095881F8827881F089538
:1016100089B78E7F89BFDCDF882359F0E9DF882313
:1016200041F08091050184608093050181E0809301
:10163000040189B7816089BF809105018470089594
:101640001F920F920FB60F9211242F933F934F9337
:101650005F938F939F93439840910F015091100196
:101660004436510530F082B3806382BB2CE93FEFF2
:1016700003C0959820E030E0809106019091070129
:10168000840F951F820F931F9093100180930F0179
:1016900086EF82BF88B7816088BF80918000807F9D
:1016A0008058809380009F918F915F914F913F91DF
:1016B0002F910F900FBE0F901F9018951F920F92B1
:1016C0000FB60F9211242F933F934F935F936F9315
:1016D0007F938F939F93AF93BF93EF93FF938091EB
:1016E00080008F70813049F028F0823049F08330DB
:1016F00069F40BC094988CEB01C081ED82BF06C0E9
:1017000082EC82BF449A439A01C07AD880918000CB
:101710008F78813809F081C082B3837F9091050171
:1017200093FF05C0977F9093050182BB76C090FF21
:1017300002C0846002C091FD886082BB40910501B7
:10174000842F8770853019F08630E9F51DC08091AF
:101750000D0190910E012091090130910A01821B27
:10176000930B181619067CF1809104019091940155
:10177000891728F04B7F40614093050124C08F5F9B
:101780008093040182E01DC08091090190910A01BB
:1017900020910B0130910C01821B930B1816190636
:1017A00094F08091040190919401891730F0842F76
:1017B0008B7F80618093050106C08F5F8093040159
:1017C00081E0809308012091050190910801892F03
:1017D0008227837019F0286220930501809105010A
:1017E0008C7F892B909181008923809305019FEF45
:1017F0009093810080FF06C08091090190910A01B9
:10180000019607C081FF09C08091090190910A01EA
:10181000019790930A018093090180918000982F8D
:101820009F709F3019F08F5F80938000FF91EF9140
:10183000BF91AF919F918F917F916F915F914F91E8
:101840003F912F910F900FBE0F901F901895FC01A4
:10185000908190FF27C0977E9F7D90838181228118
:10186000821750F091FF02C09E7F9083908190621A
:101870009064908320E002C0282F2F5F938189130A
:101880000BC080818860806182FB992790F931E0EC
:10189000932790FB82F904C0891718F0808180613A
:1018A0008083218308951092880080918200815066
:1018B00080938200811113C084E08093820081E0D4
:1018C00080938800809187008150809387008111E8
:1018D00006C08AE08093870081E48093880080912D
:1018E0008600815019F08093860008C082E08093C2
:1018F00086008091880080628093880080918300B8
:10190000815080938300811134C088EC80938300E0
:1019100040918800842F82608093880080918400A9
:10192000815080938400811124C086E080938400DC
:10193000842F866080938800809185008E3519F011
:101940008F5F809385006091850050919601262FCE
:1019500030E0852F90E001972817390719F44E6081
:1019600040938800651305C0809188008061809352
:10197000880008951092850008951F920F920FB667
:101980000F9211242F933F934F935F936F937F9305
:101990008F939F93AF93BF93EF93FF93AAD7209119
:1019A0001101223099F120F4213009F050C00FC00C
:1019B000233021F0253009F04AC015C08091120172
:1019C00090911301909315018093140144C080916C
:1019D00016019091170101979093170180931601BA
:1019E000892BC9F13BC0E1993BC060911401709112
:1019F0001501CB010296909315018093140142E0EA
:101A000050E088E191E009D122E028C080911901DD
:101A1000882319F180911801882349F090E00197FB
:101A20009BBD8ABD1DBC1CBC8FB5806402C08FB538
:101A30008F738FBD809119012AE0829FC00111240C
:101A40000297909317018093160121E007C08FB58C
:101A50008F738FBD03C025E001C020E020931101EA
:101A600089E890E0F4DE369AFF91EF91BF91AF9153
:101A70009F918F917F916F915F914F913F912F91A6
:101A80000F900FBE0F901F90189520919501211176
:101A900004C020911A01222349F0909313018093EE
:101AA000120183E08093110110921A01089581E0E0
:101AB00080931A0108955E9A8CB95E9BFECF0895BB
:101AC0001F93CF93DF93EC0110E002C01F5FF3DFA1
:101AD000FE01E10FF11D80818111F8CFDF91CF91DF
:101AE0001F910895991B79E004C0991F961708F07B
:101AF000961B881F7A95C9F78095089597FB072E46
:101B000016F4009406D077FD08D048D007FC05D025
:101B10003EF4909581959F4F0895709561957F4F04
:101B20000895052E97FB16F4009406D057FD0CD0AF
:101B300049D007FC09D07EF4909580957095619509
:101B40007F4F8F4F9F4F0895509540953095219529
:101B50003F4F4F4F5F4F089505D0332312F48A1B38
:101B60009B0B0DC0A29FB001B39FC001A39F01D0EA
:101B7000B29F700D811D1124911D0895F3DFB7FFF1
:101B80000895821B930B0895EDDFA59F900DB49FE0
:101B9000900DA49F800D911D11240895AA1BBB1BBD
:101BA00051E107C0AA1FBB1FA617B70710F0A61B5D
:101BB000B70B881F991F5A95A9F780959095BC017E
:101BC000CD010895A1E21A2EAA1BBB1BFD010DC079
:101BD000AA1FBB1FEE1FFF1FA217B307E407F507DD
:101BE00020F0A21BB30BE40BF50B661F771F881FB9
:101BF000991F1A9469F760957095809590959B014F
:101C0000AC01BD01CF010895FB01DC0102C00590CC
:101C10000D9241505040D8F70895DC01CB01FC01F2
:101C2000E199FECF06C0FFBBEEBBE09A31960DB244
:101C30000D9241505040B8F70895E199FECF9FBBF7
:101C40008EBBE09A99278DB30895DC01A40FB51FD0
:101C50004150504040F0CB01840F951F2E9105D08C
:101C600041505040D8F70895262FE199FECF9FBBF1
:101C70008EBBE09A01970DB2021631F02DBB0FB664
:0E1C8000F894E29AE19A0FBE0895F894FFCF0F
:101C8E0014F6030B15212C3741494F5354534F492A
:101C9E0041372C21150B0220FF05FF7F02000000AB
:101CAE000FFF01C80600010A0001003200202020AB
:101CBE004F46460020444F4E4520005032202020F3
:101CCE0020005031202020200020554E5245470044
:101CDE00455252203031004552522030320045528A
:0E1CEE00522045000A0D00455252204143008D
:00000001FF
