:10000000CEC0E8C0E7C0E3CCE5C0E4C0E3C0E2C0D6
:10001000E1C094CBDFC0DEC0DDC0DCC0EDC1DAC022
:100020004FCBD8C0D7C018821C038806320A011EE5
:10003000303F4F3F3106325B334F3466536D356D81
:10004000367D3707387F396F2E802C802D405F0832
:100050002000B0634177433946714E54445E50737B
:100060004579553E473D5250202020004F464620BE
:10007000202000534E44202020002020202020203B
:100080000020202020B04300018107830748060399
:1000900040064807BD05024507F106390605330647
:1000A000BE0600000BCB05BE06D905042D06510681
:1000B00000000CCB055106E7050621068C06000062
:1000C00009CB058C06F8050715068C0600000ACB3F
:1000D000058C06F805084A06030600000D4A0603CB
:1000E0000600000E0706FF05F50501C000038A01A2
:1000F00000010240010002050A0200010180020025
:1001000002050A030081014003000201600500822C
:100110000100058000044A054000078A0500010B24
:100120000A0B0081050A0B0002052A040082010067
:10013000048000064A044000058A0400010C0A0CF1
:100140000081040A0C0002042A06008201000680D5
:1001500000074A064000048A0600010900070082E1
:100160000100078000054A074000068A0700010ACF
:1001700000090002060A09000108050800830100C1
:100180000A0002070A0A00010D050D0083010001A3
:1001900000400E000200400E000ED50101001124A7
:1001A0001FBECFE5D4E0DEBFCDBF10E0A0E6B0E0DB
:1001B000E4E9FCE102C005900D92A83EB107D9F731
:1001C00021E0A8EEB0E001C01D92A43EB207E1F725
:1001D000D1D75ECD15CF0F931F932091E8003091BA
:1001E000E9004091EA005091EB00DC01E4DC009171
:1001F000EC001091ED002091EE003091EF00600FC7
:10020000711F821F931F68577C4E8F4F9F4F20E1B5
:1002100037E240E050E09CDCC9011F910F91089546
:10022000CF92DF92EF92FF920F931F93C090E8005E
:10023000D090E900E090EA00F090EB0020E137E296
:10024000DC01B3DC0091EC001091ED002091EE0098
:100250003091EF00601B710B820B930B97018601AD
:100260003595279517950795600F711F821F931F6E
:10027000A70196016DDCC9011F910F91FF90EF90CE
:10028000DF90CF9008958F929F92AF92BF92CF92BE
:10029000DF92EF92FF92CF93DF93C091B301D091A1
:1002A000B4014091B5015091B6014C1B5D0BF0902B
:1002B000B101A091B201B0E0AF19B10920E137E27C
:1002C00074DC4A0195948794AA2497FCA094BA2CD4
:1002D000680D791D8A1D9B1D9A01442737FD4095A5
:1002E000542F36DC49015A012093E8003093E9008D
:1002F0004093EA005093EB002F2D30E0A0E1B7E2ED
:1003000048DC6B017C01DE01A501940154DCC61AB6
:10031000D70AE80AF90AC092EC00D092ED00E09208
:10032000EE00F092EF00DF91CF91FF90EF90DF9021
:10033000CF90BF90AF909F908F90089587E886B937
:10034000E0EFF0E080E090E021913191820F931F87
:1003500021E0E033F207C1F72FE826B99C01F5E070
:1003600036952795FA95E1F73093AD012093AC01CE
:1003700040E650E060E371E0A3E096958795AA958A
:10038000E1F751D29093AB018093AA011092AE0194
:100390008091AC019091AD018233910510F481E020
:1003A00004C0893E934018F082E08093AE01089526
:1003B0008091AA019091AB010EDF9093B0018093E0
:1003C000AF010895813059F46093B1018091AA0181
:1003D0009091AB019093B4018093B3010895823062
:1003E00051F46093B2018091AA019091AB01909376
:1003F000B6018093B50108951F920F920FB60F9228
:1004000011242F933F934F938F939F93EF93FF93D9
:1004100024B135B140917700415040937700E42FEB
:10042000F0E0EE0FFF1FE051FF4F80E094E0821BF1
:10043000930B91838083411103C080E28093770006
:10044000FF91EF919F918F914F913F912F910F903D
:100450000FBE0F901F90189550915E01409178004B
:100460009091CD0190935E01692F60956093780023
:1004700080915F018C3010F02FEF01C020E0591700
:1004800019F010925F0105C08D3018F48F5F8093D2
:100490005F0170915F017C3011F43FEF01C030E0EB
:1004A000892F842380935B01773008F04FEF492335
:1004B00040935A012095562325232093590139232F
:1004C000309358018D7F90E025FD916035FD92605D
:1004D00046FD946047FD986020FD906130FD90627C
:1004E00090935D0180935C010895FC0180E009C058
:1004F0009191892798E02CE8869508F482279A95AF
:10050000D9F76150A8F70895CF938091600180FFDB
:1005100025C081E06BD88091AE01837039F4809161
:10052000AF019091B0018833910554F0809194010E
:10053000837009F06DC081E03AD81092610168C003
:10054000C3970CF065C080919401837009F460C07A
:1005500080E02DD881E0809361015AC08091CD0167
:100560008471843111F480E019C080915B0182FFB5
:1005700004C081E01CD8C1E013C084FF04C082E045
:1005800016D8C2E00DC08091580183FF04C081E0FD
:100590002DD8C8E005C080916101811108D8C0E064
:1005A000109261018091590183FF10C080E889BFDA
:1005B0008091940182FF04C080E018D8C06206C018
:1005C00062D8882311F0C06101C0C0648091940199
:1005D00085FF03C080E224D8C4608091940184FF29
:1005E00003C080E11DD8C068C7FF03C08CE090E065
:1005F0000EC0C6FF03C08CE590E009C0C3FF03C076
:1006000080E690E004C0C77319F084E690E067DAF2
:1006100088E169D28091940180FF02C088E003C024
:1006200081FF03C080E1CF9158C2CF91089580919E
:100630005C0190915D0194FF05C020B131E023275A
:1006400020B9169A95FF03C0029A169A01C0029823
:100650008091600180FD04C08091AE01837009F03B
:100660000098039B04C08091B70183D6169A169B0D
:1006700013C08091B70190E0D3DD40B16091AA0131
:100680007091AB0183D6009B06C02091B7012F3F2C
:1006900011F484EF91E07DD784E000991EC223C25B
:1006A000909179008091B701981721F0039A809377
:1006B0007900089503980895CF93DF93C091AF0117
:1006C000D091B0018091AE01837031F0119B3EC09A
:1006D00018DA84E190E037C02091B70130E06091F2
:1006E0007A00862F90E0A901481B590B4C175D0733
:1006F00074F4820F931FC817D9074CF4653029F49E
:10070000009B03C084E390E0EAD98AE001C085E061
:1007100080937A0080B1837009F009C0119B16C0E4
:1007200080917B0090917C00C817D9072CF4D0935E
:100730007C00C0937B000AC043968C179D0734F45D
:10074000E0D98AE190E0DF91CF91C9C9DF91CF91E3
:10075000089546E050E062E070E081EB91E078DAE5
:1007600066E081EB91E0C1DE682F80E090E07FCA17
:1007700044E050E068E070E087EB91E069DA64E023
:1007800087EB91E0B2DE682F81E090E070CACF93F2
:10079000DF9344E050E068E070E087EB91E040DAFE
:1007A00046E050E062E070E081EB91E039DA64E02D
:1007B00087EB91E09ADEC82F81E090E041DA8C1758
:1007C00051F044E050E06CE270E087EB91E01FDA1A
:1007D000CFDFC1E001C0C0E066E081EB91E085DEE3
:1007E000D82F80E090E02CDA8D1749F046E050E0F9
:1007F00066E270E081EB91E00ADAABDFC2608C2F39
:10080000DF91CF910895F89417BA18BA14BA15BAAF
:1008100082E081BB8DE890E07DD9AADF8CE990E091
:1008200079D912BAFFCFCF92DF92EF92FF920F9356
:100830001F93CF93DF938C01EB01FA0123812003F7
:100840006001219FD00C1124EE24D7FCE094FE2CF3
:1008500040811EC0842F90E0DC011197AA0FBB1FBE
:10086000AC0FBD1F2D913C91DC01AA0FBB1FAC0F3B
:10087000BD1F2D933C93DF01A80FB91F1396AC91B8
:10088000BB27A7FDB0957FD9C60ED71EE81EF91E5F
:10089000415001F7198308832181328140E050E003
:1008A000C701B60155D9C901DF91CF911F910F91B1
:1008B000FF90EF90DF90CF90089520E030E0A90105
:1008C000440F551FFA01E05DFF4FE491E81305C0A6
:1008D000FA01EF5CFF4F849108952F5F3F4F2C3159
:1008E000310569F70895282F87FD81958E3018F01E
:1008F0006EE022D9892F27FF05C0882319F09EE0DA
:10090000981B892F0895CF9321D181E0F3D0C09116
:100910006301CC2319F0C630C1F50FC009D185E3BE
:100920008A95F1F7000019D180E0E4D08091BC01F4
:1009300080936201C091630128C08091BD01811143
:1009400001C01BC084E691E0C2D78091640185FF9D
:1009500014C08091BC019091BE01891303C0109214
:10096000BD010BC09091BD01923049F48D3010F45F
:100970008F5F01C080E08093BC01C0E007C0882386
:1009800011F08150F8CF8DE0F6CFCF5F80916301F9
:10099000863021F48091BB01BDD010C0E09162018E
:1009A000F0E0E154FE4F8081B5D0809162018D303E
:1009B00010F48F5F01C080E080936201C0936301F7
:1009C000CF91BDC00F931F93CF93DF931F92CDB7ED
:1009D000DEB7182F842F698370DF082F8091BE0146
:1009E000810F81DF69810AC0E82FF0E0E154FE4FFA
:1009F00000838D3010F48F5F01C080E06150A0F75C
:100A00000F90DF91CF911F910F91089540E262E026
:100A10008EEFD8DF8091BE01885065DF8093BE01E4
:100A200081E08093BD01089540E262E086E0CADF84
:100A30008091BE01885F57DF8093BE0182E0809382
:100A4000BD010895CF9382D0C7E081E053D0C1505B
:100A5000E1F775D01092BC011092BE0110926201B4
:100A6000109263011092BB0140E26EE080E0AADFC9
:100A70001092BD018091640181608D7F809364013B
:100A800089E080936601CF9108951F93CF93DF9300
:100A9000EB019091BE01890F26DF182F0BC00DDFEF
:100AA000E12FF0E0E154FE4F80831D3010F41F5F12
:100AB00001C010E089918111F2CFDF91CF911F9198
:100AC00008959091BE01890F0EDFE82FF0E0E15408
:100AD000FE4F80818068808308959091BB01982BA0
:100AE0009093BB0108959091BB01809589238093D9
:100AF000BB010895882311F0C09A01C0C0988AE113
:100B00008A95F1F700C0C29A8AE18A95F1F700C090
:100B1000C298089525B3982F9F71207E922B95BB84
:100B200098B3869586958873977C892B88BB0895A2
:100B300085B38F6185BB88B3886388BB089584B310
:100B40008F6184BB87B3886387BB089584B3807E3D
:100B500084BB87B3877C87BB089586B3887393B3C0
:100B6000880F880F9F71892B80958093CD01089500
:100B7000009711F0FC0109940895809172018E7F15
:100B8000809372018091760185FD04C0809170018F
:100B90008093B70108951092730187E080937401E8
:100BA00084E080937501E2E7F1E0808181608083D9
:100BB0000895809172018E7F8093720180917601F9
:100BC00085FD04C0809170018093B90108958091E2
:100BD00072018E7F809372018091760185FD04C041
:100BE000809170018093BA01089510926001089578
:100BF000E2E7F1E080818E7F80830198089567EAC3
:100C000070E080E042CF6EEA70E080E03ECF80ECA2
:100C10006ADF81E080936001089580EC64DFE2E7A1
:100C2000F1E08081806180830895F7DF8091B201D7
:100C30008093700182E08093710165EB70E080E049
:100C400024CFEBDF8091B1018093700181E080932C
:100C500071016CEB70E080E018CFDFDF8091BA01AA
:100C6000809370010895D9DF8091B901809370015C
:100C70000895E2E7F1E080818E7F808380E433CFC6
:100C800080E831DF88DF8091B7018093700108959B
:100C900080E829CF609170018091710193DBF3DAD4
:100CA00058CD47E050E06CE670E08EEC91E0AFD7B5
:100CB00080915C0190915D019C0120743470232B24
:100CC00031F0809170018F3568F48B5F09C08078B6
:100CD0009870892B49F080917001863018F085500A
:100CE0008093700110927E008091720184FF10C089
:100CF000809170018F3530F442E862ED71E090E050
:100D000024D206C08EE48093D2018FE48093D30175
:100D10006EEC71E080E0B9CE44E050E068E670E04F
:100D20008EEC91E074D780915C0190915D019C0103
:100D300020743470232B31F0809170018A3F68F465
:100D40008F5F09C080789870892B39F0809170018D
:100D50008B3018F08150809370018091720184FF74
:100D600009C043E06EEC71E08091700190E0EDD13C
:100D70002BD6019A6EEC71E083E087CE47E050E01D
:100D800063E770E08EEC91E042D780915C01909136
:100D90005D01807C9927892B49F081E09091700159
:100DA000911180E08093700110927E008091720119
:100DB00084FF11C080917001882329F08FE4809313
:100DC000D2018EE406C08FE48093D10186E4809343
:100DD000D2018093D3016EEC71E080E056DE82E0B8
:100DE00070CE47E050E06AE770E08EEC91E00FD7FC
:100DF00080915C0190915D019C0120743470232BE3
:100E000031F08091B801833668F48F5F09C0807833
:100E10009870892B39F08091B801823018F0815098
:100E20008093B80142E862ED71E08091B80190E0F2
:100E30008CD18091940182FF04C08091720184FF63
:100E400007C042E86FEC71E08091930190E07DD1A2
:100E50001092CE01F0D3882329F08091CE018160D9
:100E60008093CE01FCD3882329F08091CE01886045
:100E70008093CE018091CE01811103C080E28093E6
:100E8000CE016EEC71E080E000CE85DE80E425CE00
:100E900047E050E061E870E08EEC91E0B8D68091D8
:100EA0005C0190915D019C0120743470409170014F
:100EB000232B21F04F3F59F04B5F07C0807898708B
:100EC000892B39F04F3118F0455040937001109242
:100ED0007E00809170018F3F41F044E86EEC71E03C
:100EE00090E033D16EEC71E002C063EC70E080E022
:100EF000CCDD8091720184FF02C080E8EECD80E8F5
:100F0000F2CD80E8EACD47E050E061E870E08EEC99
:100F100091E07DD68091AE0180FF03C06AEC70E065
:100F200013C081FF03C061ED70E00EC06091AF019E
:100F30007091B001882777FD8095982F24E84EECBA
:100F400051E0B6D06EEC71E080E09FCD0F931F931F
:100F5000CF93DF93182FC0E0D0E007E00C9FB001E3
:100F60000D9F700D112468577F4F47E050E089E6D0
:100F700091E04DD680916901811721F02196CE3004
:100F8000D10561F7DF91CF911F910F91089581E015
:100F900080936801DBDF80916A0190916B01E8CD5D
:100FA000AF92BF92CF92DF92EF92FF920F931F9377
:100FB000CF93DF9300D000D01F92CDB7DEB78DE77F
:100FC00090E085D400915C0110915D0180917D00DD
:100FD00085FD106814991064D0906801E12CF12C03
:100FE00035E0A32EAE9CB001AF9C700D112466516C
:100FF0007F4F45E050E0CE01019609D689818D11E1
:101000000FC02A813B8120233123232B49F0DC8030
:101010008D819FE0B92EB82220EFC22EC82207C0D2
:101020008FEFE81AF80A84E2E816F104D9F6809105
:101030006801D81629F1C092760180916E019091D5
:101040006F0196DDC6FE02C0EFDC02C0C7FCDEDC2D
:10105000D09268018D2D7ADF80916A0190916B01A9
:1010600087DDBB20A9F0BB0CBB0CBB0CB0927F0092
:1010700010927E0080917D00816080937D0008C089
:1010800082E791E024D480916C0190916D0170DD34
:101090000F900F900F900F900F90DF91CF911F91B5
:1010A0000F91FF90EF90DF90CF90BF90AF90089599
:1010B000CF92DF92EF92FF920F931F93CF93DF9324
:1010C000122F2223C9F197FF09C090958095709542
:1010D00061957F4F8F4F9F4F01E001C000E017FFE8
:1010E00005C01F77EA01C10FD11D04C0EA01C10F7D
:1010F000D11D18822AE0C22ED12CE12CF12CA7019F
:10110000960126D5605D6A93B901CA011150611537
:1011100071058105910519F01111F1CF08C0112356
:1011200031F0002321F021978DE28883115080E275
:1011300001C08A931150E8F7DF91CF911F910F9171
:10114000FF90EF90DF90CF900895FB01242FBC011A
:1011500080E090E0AF01ACCF2CE047E751E0A8DFA2
:1011600087E791E0D7C446E067E771E0EEDF87E705
:1011700091E0D0C412BA8EE381BB18BA8FE387BB6B
:1011800015BA8FE184BB85E083BF12BE81E088BFC2
:101190008CE085BD89EF83BD81E889BF1FBC8BE0F2
:1011A0008EBD8FE790E09BBD8ABD88E088B985EC55
:1011B00087B98FE886B982E08BB988E18AB986E879
:1011C00080BD10BC82E289B910B812B8E0DAC82F2D
:1011D0005AD838DC449A7894CC23A9F068ED70E0B2
:1011E00080E053DC4C2F405D61E085E0EBDB84E583
:1011F00090E075D42FEF83ED90E321508040904034
:10120000E1F700C000008EED90E084D48091B10140
:1012100090E0A9DF8091B3019091B401A4DF8091A7
:10122000B20190E0A0DF8091B5019091B6019BDF03
:101230008EED90E06FD42FEF81EE94E0215080404E
:101240009040E1F700C0000034D2882369F061EEDD
:1012500070E080E01ADC2FEF83ED90E321508040B6
:101260009040E1F700C0000092DE88E690E037D4BD
:10127000C4E101C063D8C150E9F781E098D1809101
:1012800089008F7B809389002EE088E190E00FB683
:10129000F894A89581BD0FBE21BDC8EDD1E0809125
:1012A000890086FFFCCFA895D7D880915C019091EA
:1012B0005D0188279272892B19F080E690E006C0C4
:1012C00080915B01817E19F084E690E008D48091E2
:1012D0005B01811179D327D3139B03C080E490E095
:1012E000FED32CD8109964D85BDE0ED9D9D99FD9FA
:1012F000E3D9159B36C08091AF019091B00133DFE7
:101300008091AC019091AD012EDF8091AA01909166
:10131000AB0129DF8EEB90E0FDD38881998123DF3B
:101320008A819B8120DF6C817D81882777FD809574
:10133000982F12DF68857985882777FD8095982F0B
:101340000BDF6E817F81882777FD8095982F04DFE2
:101350008EEB90E0DFD38A859B8505DF8EED90E0F4
:10136000D9D3F894809189008F7B809389007894F9
:1013700096CF823308F482E38F502CE0829FC00125
:10138000112490938C0180938B0108954F925F926A
:101390006F927F929F92AF92BF92CF92DF92EF9225
:1013A000FF920F931F93CF93DF935C017B01942EE9
:1013B0009C01261B370B2D3581E038075CF4243A5D
:1013C0008EEF380754F08BE2829F8001839F100DCF
:1013D000112405C008E91AE302C008E615EC92FCE6
:1013E0001FC083E2829FA001839F500D11246627B6
:1013F00057FD6095762F80918D0190918E01A0917F
:101400008F01B0919001840F951FA61FB71F809385
:101410008D0190938E01A0938F01B093900108C02D
:1014200010928D0110928E0110928F0110929001F6
:101430002D3581E0380764F437FD0EC0ACE5B1E02E
:10144000A21BB30B20918B0130918C01AED308C04D
:1014500060E070E0CB0104C060E271EA87E090E0F8
:1014600040908D0150908E0160908F01709090019E
:1014700064157505860597054CF460938D0170938E
:101480008E0180938F01909390010AC077FE08C06F
:1014900010928D0110928E0110928F011092900186
:1014A00060918D0170918E0180918F0190919001DA
:1014B00024E630E040E050E04BD369018091910197
:1014C000909192018E199F098830910574F4893F9B
:1014D0002FEF92076CF020E931E0829FE001839FBB
:1014E000D00D929FD00D112405C0C8EBDBE002C0E7
:1014F000C8E4D4EFF0929201E092910190FE21C0F5
:10150000B801882777FD8095982F2601662457FC1F
:101510006094762C640D751D861D971D2E01662422
:1015200057FC6094762C640D751D861D971D24E173
:1015300030E040E050E00CD3253F81E0380744F430
:1015400002C020E030E037FF05C020E030E002C0FC
:1015500024EF31E0E8EDF1E0B182A082F382E28293
:1015600015830483D782C682D187C08722873387B9
:10157000C901DF91CF911F910F91FF90EF90DF9004
:10158000CF90BF90AF909F907F906F905F904F9063
:101590000895F8949C01253F81E0380710F024EF6E
:1015A00031E030939601209395017894089590E866
:1015B00099BF809397019FED9093810080FF09C0B0
:1015C000809198019091990190939B0180939A0149
:1015D0000AC081FF08C08091980190919901909371
:1015E0009D0180939C0181E889BF089590E899BF8F
:1015F000909194019B7F90939401882371F0809146
:1016000098019091990190939B0180939A019093F6
:101610009D0180939C011092930181E889BF0895F8
:1016200090E899BF809590919401982390939401AC
:1016300081E889BF089580E889BF80919C019091DD
:101640009D012091980130919901821B930B892F64
:10165000809591E899BF881F8827881F089580E8A2
:1016600089BF809198019091990120919A013091C0
:101670009B01821B930B892F809591E899BF881F4E
:101680008827881F089580E889BFD5DF882359F00F
:10169000E6DF882341F08091940184608093940177
:1016A00081E08093930181E889BF809194018470E7
:1016B000089581E0909182009F3009F080E00895C4
:1016C0001F920F920FB60F9211242F933F934F93B7
:1016D0005F938F939F93439840919E0150919F01F8
:1016E000443F81E0580730F082B3806382BB2CE036
:1016F0003EEF03C0959820E030E0809195019091F5
:101700009601840F951F820F931F90939F018093E2
:101710009E0186EF82BF81E088BF80918200807F3A
:101720008058809382009F918F915F914F913F915C
:101730002F910F900FBE0F901F9018951F920F9230
:101740000FB60F9211242F933F934F935F936F9394
:101750007F938F939F93AF93BF93EF93FF9380916A
:1017600082008F70813049F028F0823049F0833058
:1017700069F40BC094988CEB01C081ED82BF06C068
:1017800082EC82BF88E188B901C03DD88091820097
:101790008F78813809F081C082B3837F9091940162
:1017A00093FF05C0977F9093940182BB76C090FF12
:1017B00002C0846002C091FD886082BB40919401A8
:1017C000842F8770853019F08630E9F51DC080912F
:1017D0009C0190919D012091980130919901821B6B
:1017E000930B181619067CF1809193019091B80122
:1017F000891728F04B7F40614093940124C08F5F8C
:101800008093930182E01DC080919801909199018D
:1018100020919A0130919B01821B930B1816190697
:1018200094F0809193019091B801891730F0842F42
:101830008B7F80618093940106C08F5F80939301BA
:1018400081E0809397012091940190919701892FD5
:101850008227837019F0286220939401809194016B
:101860008C7F892B909181008923809394019FEF35
:101870009093810080FF06C080919801909199011A
:10188000019607C081FF09C080919801909199014C
:101890000197909399018093980180918200982FED
:1018A0009F709F3019F08F5F80938200FF91EF91BE
:1018B000BF91AF919F918F917F916F915F914F9168
:1018C0003F912F910F900FBE0F901F901895FC0124
:1018D000908190FF27C0977E9F7D90838181228198
:1018E000821750F091FF02C09E7F9083908190629A
:1018F0009064908320E002C0282F2F5F938189138A
:101900000BC080818860806182FB992790F931E06B
:10191000932790FB82F904C0891718F080818061B9
:1019200080832183089512B8809183008150809331
:10193000830081110FC084E080938300109A80910E
:101940008800815080938800811104C084E18093D5
:101950008800169A80918700815019F08093870043
:1019600004C082E080938700159A809184008150A2
:1019700080938400811127C088EC80938400119AA1
:101980008091850081508093850081111CC086E084
:1019900080938500129A809186008E3519F08F5FB2
:1019A0008093860040918600242F30E08091BA0118
:1019B00090E001972817390709F4139A8091BA012A
:1019C000481301C0149A08951092860008951F923A
:1019D0000F920FB60F9211242F933F934F935F9363
:1019E0006F937F938F939F93AF93BF93EF93FF93E7
:1019F0008AD72091A001223099F120F4213009F0FA
:101A000050C00FC0233021F0253009F04AC015C066
:101A10008091A1019091A2019093A4018093A301D0
:101A200044C08091A5019091A60101979093A601D1
:101A30008093A501892BC9F13BC0E1993BC060911E
:101A4000A3017091A401CB0102969093A40180930D
:101A5000A30142E050E087EA91E0E2D022E028C012
:101A60008091A801882319F18091A701882349F06A
:101A700090E001979BBD8ABD1DBC1CBC8FB58064E6
:101A800002C08FB58F738FBD8091A8012AE0829F1D
:101A9000C001112402979093A6018093A50121E033
:101AA00007C08FB58F738FBD03C025E001C020E054
:101AB0002093A00189E890E00ADF369AFF91EF9128
:101AC000BF91AF919F918F917F916F915F914F9156
:101AD0003F912F910F900FBE0F901F90189520915E
:101AE000B901211104C02091A901222349F090934A
:101AF000A2018093A10183E08093A0011092A9012B
:101B0000089581E08093A90108955E9A8CB95E9B47
:101B1000FECF08951F93CF93DF93EC0110E002C036
:101B20001F5FF3DFFE01E10FF11D80818111F8CF0E
:101B3000DF91CF911F910895991B79E004C0991FFF
:101B4000961708F0961B881F7A95C9F78095089517
:101B5000052E97FB16F4009406D057FD0CD035D017
:101B600007FC09D07EF490958095709561957F4F24
:101B70008F4F9F4F089550954095309521953F4F39
:101B80004F4F5F4F089505D0332312F48A1B9B0BF0
:101B90000DC0A29FB001B39FC001A39F01D0B29F0F
:101BA000700D811D1124911D0895F3DFB7FF089575
:101BB000821B930B0895EDDFA59F900DB49F900DB0
:101BC000A49F800D911D11240895A1E21A2EAA1B35
:101BD000BB1BFD010DC0AA1FBB1FEE1FFF1FA217DD
:101BE000B307E407F50720F0A21BB30BE40BF50BDA
:101BF000661F771F881F991F1A9469F76095709563
:101C0000809590959B01AC01BD01CF010895FB012A
:101C1000DC0102C005900D9241505040D8F7089564
:101C2000DC01CB01FC01E199FECF06C0FFBBEEBB9E
:101C3000E09A31960DB20D9241505040B8F7089598
:101C4000E199FECF9FBB8EBBE09A99278DB3089593
:101C5000DC01A40FB51F4150504040F0CB01840F70
:101C6000951F2E9105D041505040D8F70895262F4A
:101C7000E199FECF9FBB8EBBE09A01970DB2021691
:101C800031F02DBB0FB6F894E29AE19A0FBE089599
:041C9000F894FFCFF6
:101C940014F6030B15212C3741494F5354534F4924
:101CA40041372C21150B0220FF1F05FF7F02000086
:101CB40000FF0F01C806000114010032000A0D41A3
:101CC400432073796E63206C6F7374000A0D54752E
:101CD400726E204F4646002020204F464600204486
:101CE4004F4E45200050322020202000503120202B
:101CF40020200020554E5245470045525220303195
:101D040000455252203032004552522045000A0DFF
:081D140000455252204143003A
:00000001FF
