:1000000019C133C132C1D2CC30C12FC12EC12DC1D3
:100010002CC177CB2AC129C128C127C102C225C161
:1000200045CB23C122C12FC43FC43EC43DC43CC400
:100030003BC43AC439C438C437C436C435C41DC4FB
:100040001EC419C431C405C42EC405C406C407C4E3
:1000500008C409C40AC40BC40CC426C425C424C4DF
:1000600023C422C421C420C41FC41EC410C415C488
:1000700018C40FC419C418C417C416C415C414C4B2
:1000800013C409C4E6C30BC40FC40EC4EAC30CC432
:100090000BC40AC409C408C407C406C405C404C404
:1000A00003C402C4EEC300C4FFC3FEC3FDC3FCC34C
:1000B000FBC3FAC3F9C3F8C3F7C3F6C3F5C3F4C36C
:1000C000F3C3F2C3F1C3F0C3EFC3EEC3EDC3ECC39C
:1000D000EBC3EAC3E9C3E8C3E7C3E6C3E5C3E4C3CC
:1000E000E3C3E2C3E1C3E0C3DFC3DEC3DDC3DCC3FC
:1000F000DBC3DAC3D9C3D8C3D7C3D6C3D5C3D4C32C
:10010000D3C3D2C3D1C3D0C3CFC3CEC3CDC3CCC35B
:10011000CBC3CAC3C9C3C8C3C7C3C6C3C5C3C4C38B
:10012000C3C3C2C3C1C3C0C3BFC3BEC3BDC3BCC3BB
:10013000BBC3BAC3B9C3B8C3B7C3B6C3B5C3B4C3EB
:10014000B3C3B2C3B1C3A1C3015308F90687070300
:100150008307F707D70502F3078A077B07056907B7
:10016000240700000BDD052407EB05046907A6063C
:1001700000000CDD05A606EB050671075C06000015
:1001800009DD055C06EB05077107120600000ADDB4
:10019000051206EB05080406F10500000DF605F151
:1001A00005000001060003A8010001024001000251
:1001B000052802000101800300830140050082013F
:1001C00000050400046805020007A80500010B28CB
:1001D0000B00830528040082010004040006680463
:1001E000020005A80400010C280C00830428060066
:1001F000820100060400076806020004A806000148
:1002000009000700820100070400056807020006D4
:10021000A80700010A0009000206000900010814ED
:1002200008008301000A000207000A00010D140DF6
:100230000083010011241FBECFE5D4E0DEBFCDBF97
:1002400010E0A0E6B0E0EEE1FBE102C005900D9207
:10025000AA3AB107D9F721E0AAEAB0E001C01D929D
:10026000A233B207E1F7ABD858CCCACE0F931F9395
:100270002091AA003091AB004091AC005091AD00AC
:10028000DC0131DC0091AE001091AF002091B00094
:100290003091B100600F711F821F931F28EE33E071
:1002A00040E050E0F3DB822F932F1F910F910895D0
:1002B0000F931F939C01A8EEB3E003DC0091AE0006
:1002C0001091AF002091B0003091B100601B710B14
:1002D000820B930B2091AA003091AB004091AC00AF
:1002E0005091AD00D3DB822F932F1F910F91089572
:1002F0008F929F92AF92BF92CF92DF92EF92FF9236
:10030000CF93DF93B090F100C0910101D091020131
:10031000A0910901B0E0AB19B10928EE33E0DDDBB3
:1003200020910501309106012C1B3D0B40E050E06F
:10033000ADDB69017A012093AA003093AB004093B2
:10034000AC005093AD002B2D30E0A8EEB3E0B9DB4C
:100350004B015C01DE01A7019601C5DB861A970AF5
:10036000A80AB90A8092AE009092AF00A092B000A5
:10037000B092B100DF91CF91FF90EF90DF90CF90DE
:10038000BF90AF909F908F9008950F931F93FC01A3
:10039000CB012085211117C0A781B0E0AA0FBB1F98
:1003A00021813281A20FB31F2D913C914381548151
:1003B00065817681421B530B610971094383548324
:1003C0006583768305C01782138214821582168294
:1003D0008C0120E030E06781A62FB0E0AA0FBB1FA0
:1003E00041815281A40FB51F8D939C93A62FAF5FBF
:1003F000A7834381548165817681400F511F621F1D
:10040000731F43835483658376834081A41303C0A1
:100410001782108603C040854111DDCF1F910F91D7
:1004200008951F920F920FB60F9211242F933F93AE
:100430004F935F936F937F938F939F93AF93BF93EC
:10044000EF93FF9384B195B160E074E0681B790B82
:1004500080E690E09ADFFF91EF91BF91AF919F917D
:100460008F917F916F915F914F913F912F910F905D
:100470000FBE0F901F901895FC01208130E040E0E6
:1004800050E06381748185819681DEDA822F932F1B
:100490000895439880E690E0EFDF9093EE0080931C
:1004A000ED00439AE3DE9093F0008093EF0008950F
:1004B0003091B8002091690090911C019093B80090
:1004C000492F4095409369008091B9008C3010F01D
:1004D0006FEF01C060E0391741F01092B900892F29
:1004E00082238093B50050E014C08D3018F48F5FE4
:1004F0008093B9005091B9005C3009F445C0892F50
:1005000082238093B500573018F050E02FEF01C0E0
:1005100050E029232093B400609534233623309390
:10052000B30059235093B200877790E030FD05C0A7
:100530009093B7008093B60005C091609093B70088
:100540008093B60050FF09C08091B6009091B7002B
:1005500092609093B7008093B60021FF09C080910C
:10056000B6009091B70094609093B7008093B60066
:1005700022FF10C08091B6009091B70098609093D0
:10058000B7008093B6000895832F82238093B5002F
:100590005FEFBCCF0895CF938091B50084FF04C076
:1005A00081E012D8C1E00FC085FF04C082E00CD802
:1005B000C2E009C08091B200882324F481E022D8EF
:1005C000C8E001C0C0E08091B300882374F480913A
:1005D000C80082FF04C080E015D8C06206C04ED8B3
:1005E000882311F0C06101C0C0648091C80085FFFC
:1005F00004C08F7D8093C800C4608091C80084FFD0
:1006000004C08F7E8093C800C0688091BA00C82360
:100610003CF488EE93E09DD988EC90E0BBD91BC0F8
:10062000C6FF07C084EF91E094D982E390E0B2D98D
:1006300012C0C3FF07C080E293E08BD982E390E051
:10064000A9D909C08C2F877331F088EE93E081D946
:1006500082E390E09FD9C37021F48FEF8093BA00BA
:1006600003C08BEF8093BA0080E359D28091C80019
:1006700080FF03C080E14DD204C081FF02C080E250
:1006800048D2CF910895861B970B8531910584F44C
:100690008C3E2FEF92077CF0AC01440F551F880F62
:1006A000991F880F991F880F991F480F591F05C060
:1006B00048EE53E002C048E15CEF8091C0009091A9
:1006C000C100861B970BE0E5E89F9001E99F300D84
:1006D00011247093C1006093C000CA01820F931F60
:1006E000992314F480E090E08B3F910514F08AEF99
:1006F00090E05093F6004093F50030930001209372
:10070000FF001092FD001092FC009093F300809384
:10071000F20008958091B60086FF06C09091BB005C
:1007200081E089278093BB008091BB008823C9F0BA
:100730008091C900882304F58091F9009091FA0016
:10074000B7DD9093BD008093BC0060913001709143
:10075000310199DF8093BE001092BF0090E022D754
:1007600007C01092BF001092BE0080E090E01AD740
:100770008091BB00882379F080E4CBD18091F9008F
:100780008093F4008091BC009091BD00909308018B
:100790008093070108C01092F40010920801109293
:1007A000070180E4BCD180913001909131015EDD80
:1007B0008093040180913001909131019093F80071
:1007C0008093F7000895CF93DF93CDB7DEB72A97D4
:1007D0000FB6F894DEBF0FBECDBF4AE050E060E038
:1007E00070E0CE01019689D989818093F900109239
:1007F000FA008A818093FE008B818093FB008C81BC
:100800008093030189E18093F10084EA90E0909362
:1008100002018093010181E98093090181EB91E05C
:1008200090930601809305012A960FB6F894DEBFD7
:100830000FBECDBFDF91CF91089508950895482F41
:1008400050E0FA01B097E139F10570F5ED5EFF4F28
:1008500009948FE308958BE508958FE4089586E663
:1008600008958DE608958DE7089587E008958FE750
:1008700008958FE6089580E8089580E8089580E45B
:10088000089588E0089580E0089583E6089589E357
:10089000089581E7089584E508958EE5089583E736
:1008A000089589E7089586E00895982F87FD81953A
:1008B0008E3078F0382F369523E9329F212D112480
:1008C00026952695220F322F330F330F330F321B0D
:1008D000831B99232CF4882319F09EE0981B892F01
:1008E0000895CF9381E022D18091C300882319F02D
:1008F0008630F1F512C046D137D185E38A95F1F7FC
:10090000000047D138D180E011D180910B01809354
:10091000C200C091C300CF5F2FC080910C0188231B
:1009200081F184EC90E0E7D78091C40085FF23C07B
:1009300080910B0190910D01891304C010920C015C
:10094000C0E01AC090910C01923049F48D3010F43F
:100950008F5F01C080E080930B01C0E00DC0882351
:1009600011F0815001C08DE080930B01C0E004C004
:10097000C82FCF5F01C0C0E08091C300863031F442
:1009800001C0C0E080910A01E1D010C0E091C20036
:10099000F0E0E25FFE4F8081D9D09091C2009D309F
:1009A00010F49F5F01C090E09093C200C093C30019
:1009B000CF9108951F93CF93DF93182FC62F842FC5
:1009C0003EDFD82F80910D01810F6FDF90E00AC0CC
:1009D000E82FF0E0E25FFE4FD0838D3010F48F5FA0
:1009E00001C0892FC150A0F7DF91CF911F910895C9
:1009F00040E262E08EEFDEDF80910D01885055DF2E
:100A000080930D0181E080930C01089540E262E043
:100A100086E0D0DF80910D01885F47DF80930D0174
:100A200082E080930C010895CF93ACD0C7E081E0C1
:100A30007DD0C150E1F79FD010920B0110920D01B3
:100A40001092C2001092C30010920A0140E26EE0C0
:100A500080E0B0DF10920C01E4ECF0E08081816076
:100A60008D7F808389E08093C600CF910895DF92C7
:100A7000EF92FF920F931F93CF93DF93EB0190912F
:100A80000D01890F12DF182FD82E02E0F12C0F2E46
:100A9000F3E0EF2EF02D26C0D2DE803819F4902F2F
:100AA000916002C0902F9E7F913051F4ED2DF0E0C7
:100AB000E25FFE4F9081892B8083812F0E2D10C025
:100AC000E12FF0E0E25FFE4F80831D3018F4812FAC
:100AD0008F5F01C08F2D90FF02C00E2D01C00F2D22
:100AE000D12E182F89918111D7CFDF91CF911F91EE
:100AF0000F91FF90EF90DF90089590910D01890F75
:100B0000D4DEE82FF0E0E25FFE4F808180688083D2
:100B1000089590910A01892B80930A01089590917C
:100B20000A018095982390930A010895882311F073
:100B3000C09A01C0C0988AE18A95F1F700C0C29AB4
:100B40008AE18A95F1F700C0C298089595B3282FDD
:100B50002F71907E922B95BB98B38695869588735E
:100B6000977C892B88BB089585B38F6185BB88B33B
:100B7000886388BB089584B38F6184BB87B388631F
:100B800087BB089584B3807E84BB87B3877C87BB93
:100B9000089586B3887393B3880F880F9F71892B4C
:100BA000809580931C01089510921F010895E4E23E
:100BB000F1E080818E7F808308951092250187E087
:100BC0008093260184E080932701E4E2F1E08081B4
:100BD000816080830895E4E2F1E080818E7F8083EC
:100BE000089569E970E080E042DF08958091ED00AA
:100BF0009091EE009093060180930501809123016E
:100C00008093090175DB08958091ED009091EE00CD
:100C10009093020180930101809122018093F10061
:100C200067DB0895CF93DF93CDB7DEB727970FB675
:100C3000F894DEBF0FBECDBF87E0EFE6F0E0DE0147
:100C4000119601900D928A95E1F78091B6009091EE
:100C5000B7009C0122703470232B41F08091230156
:100C60008A3F78F48F5F809323010BC08470987063
:100C7000892B39F0809123018B3018F081508093BB
:100C800023018091240184FF09C020E243E8BE01D2
:100C90006C5F7F4F8091230190E024D3BE016F5F92
:100CA0007F4F80E0E4DE27960FB6F894DEBF0FBEDC
:100CB000CDBFDF91CF910895CF93DF93CDB7DEB74E
:100CC00027970FB6F894DEBF0FBECDBF87E0E6E7EB
:100CD000F0E0DE01119601900D928A95E1F7809186
:100CE000B6009091B7009C0122703470232B41F024
:100CF000809122018A3F78F48F5F809322010BC09C
:100D000084709870892B39F0809122018B3018F013
:100D10008150809322018091240184FF09C020E248
:100D200043E8BE016C5F7F4F8091220190E0DAD2F0
:100D3000BE016F5F7F4F80E09ADE27960FB6F89472
:100D4000DEBF0FBECDBFDF91CF910895CF93DF936C
:100D5000CDB7DEB727970FB6F894DEBF0FBECDBF75
:100D600087E0EDE7F0E0DE01119601900D928A95A3
:100D7000E1F78091B6009091B7009C012270347029
:100D8000232B49F0809103018F3518F48B5F8093FA
:100D900003010ADF0CC084709870892B41F08091A8
:100DA0000301863018F0855080930301FDDE8091A9
:100DB000240184FF10C0809103018F3541F020E2AF
:100DC00042E8BE016B5F7F4F90E08CD204C08EE49E
:100DD0008D838FE48E83BE016F5F7F4F80E047DE9F
:100DE00027960FB6F894DEBF0FBECDBFDF91CF912F
:100DF0000895CF93DF93CDB7DEB727970FB6F8945A
:100E0000DEBF0FBECDBF87E0E4E8F0E0DE01119663
:100E100001900D928A95E1F720E244E8BE016F5FF0
:100E20007F4F8091EF009091F0005CD2BE016F5F28
:100E30007F4F80E01CDE27960FB6F894DEBF0FBE12
:100E4000CDBFDF91CF910895CF93DF93CDB7DEB7BC
:100E500027970FB6F894DEBF0FBECDBF87E0EBE853
:100E6000F0E0DE01119601900D928A95E1F78091F4
:100E7000B6009091B70086709927892B41F081E0E8
:100E80009091FB00911180E08093FB008DDE8091BA
:100E9000240184FF0EC08091FB00882329F08FE499
:100EA0008D838EE48E8305C08FE48C8386E48D83EE
:100EB0008E83BE016F5F7F4F80E0D9DD82E01DDE53
:100EC00027960FB6F894DEBF0FBECDBFDF91CF914E
:100ED000089583E024DEE4E2F1E080818061808394
:100EE0000895F7DF8091F10080932201809109013C
:100EF00080932301089582E012DEE4E2F1E0808134
:100F00008E7F8083089581E00ADE57DE089581E0B8
:100F100006DE0895CF93DF93CDB7DEB727970FB6E0
:100F2000F894DEBF0FBECDBF87E0E2E9F0E0DE015E
:100F3000119601900D928A95E1F78091B6009091FB
:100F4000B7009C0122703470232B41F08091FE0089
:100F5000833678F48F5F8093FE000BC084709870A6
:100F6000892B39F08091FE00823018F081508093F7
:100F7000FE0020E242E8BE016B5F7F4F8091FE00E1
:100F800090E0B0D18091C80082FF04C0809124011C
:100F900084FF09C020E242E8BE016E5F7F4F80916E
:100FA0002F0190E09FD1198249D3882319F08981BC
:100FB0008160898353D3882319F08981886089836C
:100FC0008981811102C080E28983BE016F5F7F4FFA
:100FD00080E04DDD27960FB6F894DEBF0FBECDBF83
:100FE000DF91CF91089582E094DDE7DD0895CF93FE
:100FF000DF93CDB7DEB727970FB6F894DEBF0FBEED
:10100000CDBF87E0E4E8F0E0DE01119601900D929B
:101010008A95E1F78091B6009091B7009C0122700B
:101020003470232B71F08091F9009091FA00823D89
:10103000910528F405969093FA008093F900B4DDA9
:1010400011C084709870892B69F08091F90090919B
:10105000FA008F31910528F005979093FA0080935C
:10106000F900A2DD20E244E8BE016F5F7F4F80916E
:10107000F9009091FA0036D1BE016F5F7F4F80E09A
:10108000F6DC8091240184FF03C081E042DD02C0D0
:1010900081E045DD27960FB6F894DEBF0FBECDBFC9
:1010A000DF91CF91089581E034DD089581E0809350
:1010B0001D0120E030E0C901880F991F880F991F9A
:1010C000880F991F821B930B885B9E4FFC016491D4
:1010D000319645915491B42FA52FFC01339645913B
:1010E0005491742F452F0596FC0185919491582FAA
:1010F000613079F460932801E9E2F1E0B083A183E3
:10110000EBE2F1E070834183EDE2F1E05083918303
:1011100014C02F5F3F4F2D30310509F0CCCF6093C5
:101120002801E9E2F1E0B083A183EBE2F1E0708312
:101130004183EDE2F1E050839183E0912901F09148
:101140002A01309709F0099510921F01EEE1F1E0B4
:1011500080818E7F82608083E4E2F1E080818E7FF7
:101160008D7F80830895FF920F931F93CF93DF931A
:101170008EE191E0C0D34091B6005091B7008091CC
:101180001E0185FD5068B0911D0180E090E09C013A
:10119000220F331F220F331F280F391F2D553E4FAB
:1011A000F901A491319665917491F9013396C49136
:1011B000F90134962491BA1315C064237523672B63
:1011C00089F0D22FDF7326FB002700F9F22EFF1CD7
:1011D000FF24FF1C10E0F0FA10F900FB11F9BC131A
:1011E00006C070C001968D31910589F66BC0E09103
:1011F0002D01F0912E01309709F00995F0FA10F9C0
:1012000000FB11F911FF02C001DC02C010FDF0DB90
:10121000C0931D0120E030E0C901880F991F880F9D
:10122000991F880F991F821B930B885B9E4FFC01AF
:101230006491319645915491B42FA52FFC013396BA
:1012400045915491742F452F0596FC0185919491F9
:10125000582FC6130FC060932801E9E2F1E0B08374
:10126000A183EBE2F1E070834183EDE2F1E0508392
:10127000918314C02F5F3F4F2D30310509F0CCCF43
:1012800060932801E9E2F1E0B083A183EBE2F1E0B1
:1012900070834183EDE2F1E050839183E091290175
:1012A000F0912A01309709F00995DD23A9F0DD0FAF
:1012B000D093200110921F01EEE1F1E08081816066
:1012C00080830AC084E291E016D3E0912B01F09173
:1012D0002C01309709F00995DF91CF911F910F9163
:1012E000FF900895CF93DF93FC01522F44232CF4F9
:1012F0004F77EB01C40FD11D04C0EB01C40FD11D0A
:1013000018829F01ADECBCECDCD396958795969541
:10131000879596958795DC01AA0FBB1FBC01660FC8
:10132000771F660F771F660F771F6A0F7B1FE61BFD
:10133000F70BE05DEA93FC014150009729F4842FFC
:101340008150411104C007C04111DBCF04C0FE0130
:1013500052938150E8F7DF91CF91089512BA8EE34E
:1013600081BB18BA8FE387BB15BA8FE184BB85E0D8
:1013700083BF12BE88B7816088BF89B7816089BF8B
:101380008CE085BD89EF83BD89B7806889BF1FBCAC
:101390008BE08EBD8FE790E09BBD8ABD449A88E0CC
:1013A00088B985EC87B98FE886B982E08BB988E186
:1013B0008AB986E880BD10BC82E289B90895CF93CE
:1013C000DF93CDB7DEB72A970FB6F894DEBF0FBE16
:1013D000CDBFC4DFF8D98CD727DB789488EE93E0B3
:1013E000B8D288EC90E0D6D261DE81E0EDD060EA40
:1013F00070E080E03CDB0BE610E0F801808186FFC6
:10140000FCCF47D855D88091B6009091B70091FF96
:1014100007C080E293E09DD288E290E0BBD20AC090
:101420008091B500877431F088EE93E092D288E223
:1014300090E0B0D298DEAFD86DD9F801808182FFFC
:10144000ABC020E246E0BE016F5F7F4F8091EF00AE
:101450009091F00047DFCE010196E2D220E246E013
:10146000BE016F5F7F4F8091ED009091EE003ADFFB
:10147000CE010196D5D220E246E0BE016F5F7F4FDC
:101480008091F40090E02EDFCE010196C9D220E2D7
:1014900046E0BE016F5F7F4F809107019091080188
:1014A00021DFCE010196BCD220E248E0BE016F5F91
:1014B0007F4F8091040190E015DFCE010196B0D2FC
:1014C00020E246E0BE016F5F7F4F8091F700909170
:1014D000F80008DFCE010196A3D282EA90E0A0D204
:1014E0008091F5009091F600992354F020E346E0B6
:1014F000BE016F5F7F4FF6DECE01019691D20EC026
:1015000020E346E0BE016F5F7F4F91958195910981
:10151000E9DE8DE280D2CE01019682D282EA90E0AD
:101520007FD28091FF0090910001992354F020E335
:1015300046E0BE016F5F7F4FD5DECE01019670D2CF
:101540000EC020E346E0BE016F5F7F4F919581950D
:101550009109C8DE8DE25FD2CE01019661D220E210
:1015600046E0BE016F5F7F4F8091F2009091F300E3
:10157000B9DECE01019654D220E246E0BE016F5F93
:101580007F4F8091CA009091CB00ACDECE010196D6
:1015900047D287EA90E044D251D9F80180818F7B0D
:1015A00080832BCF9093CB008093CA002091C900F9
:1015B000322F3F77892B21F030643093C900089592
:1015C0002F732093C900089599B79E7F99BF809388
:1015D000CC0080FF09C08091CD009091CE00909307
:1015E000D0008093CF000AC081FF08C08091CD0059
:1015F0009091CE009093D2008093D10089B7816002
:1016000089BF089599B79E7F99BF9091C8009B7F2D
:101610009093C800882371F08091CD009091CE0006
:101620009093D0008093CF009093D2008093D1000C
:1016300010922F0189B7816089BF08958091D100F0
:101640009091D2002091CD003091CE00821B930B5F
:10165000892F8095881F8827881F08958091CD0045
:101660009091CE002091CF003091D000821B930B3F
:10167000892F8095881F8827881F089589B78E7FB6
:1016800089BFDCDF882359F0E9DF882341F08091AE
:10169000C80084608093C80081E080932F0189B7DF
:1016A000816089BF8091C800847008951F920F9255
:1016B0000FB60F9211242F933F938F939F934398CC
:1016C0002091D3003091D4008091D5009091D60024
:1016D0002817390720F482B3806382BB01C0959834
:1016E00086EF82BF80916A00807F805880936A0075
:1016F0009F918F913F912F910F900FBE0F901F9050
:1017000018951F920F920FB60F9211242F933F93AB
:101710004F935F936F937F938F939F93AF93BF93F9
:10172000EF93FF9380916A008F70813051F028F021
:10173000823079F0833099F411C094988CEB82BF99
:101740000EC082EC82BF80916A00882344F0369AF2
:1017500006C080EE82BF449A439A01C06ED8809141
:101760006A008F78813809F0ACC092B3937F809182
:10177000C80083FF05C0877F8093C80092BB75C0F7
:1017800080FF02C0946002C081FD986092BB4091CE
:10179000C800842F8770853019F08630F1F51FC09E
:1017A0008091D1009091D2002091CD003091CE0057
:1017B000821B930B1816190684F180912F019091CA
:1017C000FE00891728F04B7F40614093C80025C078
:1017D0008F5F80932F0182E08093CC001EC08091A8
:1017E000CD009091CE002091CF003091D000821B8F
:1017F000930B181619068CF080912F019091FE0022
:10180000891728F04B7F40614093C80006C08F5F66
:1018100080932F0181E08093CC008091C80090914B
:10182000CC00292F2827237019F088628093C800E4
:101830008091C8008C7F892B8093C80080FF0AC0EC
:101840008091CD009091CE0001969093CE00809330
:10185000CD000BC081FF09C08091CD009091CE00DA
:1018600001979093CE008093CD008091D30090910A
:10187000D400893F910569F41092D4001092D300EE
:101880008091CA009091CB009093D6008093D500B0
:1018900018C0843F910561F48091C90080688093ED
:1018A000C90080E690E0E8D5909331018093300143
:1018B0008091D3009091D40001969093D4008093AE
:1018C000D30080916A00982F9F709F3019F08F5F2E
:1018D00080936A00FF91EF91BF91AF919F918F919B
:1018E0007F916F915F914F913F912F910F900FBE1C
:1018F0000F901F901895FC01808180FF29C0877E82
:101900008F7D808381819281891758F0908191FF2A
:1019100002C09E7F9083908190629064908320E0CB
:1019200002C0282F2F5F938189130CC080818860AB
:10193000806182FB332730F991E0932790FB82F995
:10194000808305C0891718F080818061808321839E
:1019500008959C0140E050E060E472E48FE090E084
:1019600095D0DA01C901887FAA27BB27892B59F0B6
:101970003695279536952795369527952150310927
:101980003BBD2ABD04C081E090E09BBD8ABD1DBC6B
:101990001CBC08952091FB00222339F09093D800BD
:1019A0008093D7008FB580648FBD08951F920F92EA
:1019B0000FB60F9211242F933F934F935F936F9322
:1019C0007F938F939F93AF93BF93EF93FF938091F8
:1019D000D7009091D800009731F001979093D800EC
:1019E0008093D70003C08FB58F738FBD7AD78BE6F6
:1019F00090E081DFFF91EF91BF91AF919F918F9127
:101A00007F916F915F914F913F912F910F900FBEFA
:101A10000F901F9018955E9A8CB95E9BFECF08952B
:101A20001F93CF93DF93EC018881882349F010E066
:101A30001F5FF1DFFE01E10FF11D80818111F8CF01
:101A4000DF91CF911F910895A1E21A2EAA1BBB1B13
:101A5000FD010DC0AA1FBB1FEE1FFF1FA217B3077A
:101A6000E407F50720F0A21BB30BE40BF50B661F90
:101A7000771F881F991F1A9469F760957095809554
:101A800090959B01AC01BD01CF010895052E97FBF8
:101A900016F4009406D057FD0CD0D6DF07FC09D011
:101AA0007EF490958095709561957F4F8F4F9F4FF5
:101AB000089550954095309521953F4F4F4F5F4F7A
:101AC0000895A29FB001B39FC001A39F01D0B29F10
:101AD000700D811D1124911D0895F3DFB7FF089546
:101AE000821B930B0895EDDFA59F900DB49F900D81
:101AF000A49F800D911D11240895DC01CB01FC01F0
:101B0000E199FECF06C0FFBBEEBBE09A31960DB265
:0E1B10000D9241505040B8F70895F894FFCF61
:101B1E000AD900000000000001FF0F010032005042
:101B2E00322020202000503120202020004F464619
:101B3E002020200020202020B04300534E4420209F
:101B4E0020002020202020200020444F4E45200041
:0A1B5E00202020202020000A0D00A6
:00000001FF
